{
	"contracts/TelehealthContract.sol": {
		"TelehealthContract": {
			"abi": [
				{
					"inputs": [
						{
							"internalType": "address",
							"name": "_doctorsAddress",
							"type": "address"
						},
						{
							"internalType": "address",
							"name": "_patientsAddress",
							"type": "address"
						},
						{
							"internalType": "address",
							"name": "_permissionAddress",
							"type": "address"
						},
						{
							"internalType": "address",
							"name": "_queriesAddress",
							"type": "address"
						}
					],
					"stateMutability": "nonpayable",
					"type": "constructor"
				},
				{
					"inputs": [],
					"name": "getDoctors",
					"outputs": [
						{
							"internalType": "address[]",
							"name": "",
							"type": "address[]"
						}
					],
					"stateMutability": "view",
					"type": "function"
				},
				{
					"inputs": [
						{
							"internalType": "address",
							"name": "_addr",
							"type": "address"
						}
					],
					"name": "getPatientDemographic",
					"outputs": [
						{
							"internalType": "string",
							"name": "id",
							"type": "string"
						},
						{
							"internalType": "string",
							"name": "name",
							"type": "string"
						},
						{
							"internalType": "string",
							"name": "phone",
							"type": "string"
						},
						{
							"internalType": "string",
							"name": "gender",
							"type": "string"
						},
						{
							"internalType": "string",
							"name": "dob",
							"type": "string"
						}
					],
					"stateMutability": "view",
					"type": "function"
				},
				{
					"inputs": [],
					"name": "getPatients",
					"outputs": [
						{
							"internalType": "address[]",
							"name": "",
							"type": "address[]"
						}
					],
					"stateMutability": "view",
					"type": "function"
				},
				{
					"inputs": [
						{
							"internalType": "address",
							"name": "_addr",
							"type": "address"
						}
					],
					"name": "grantPermission",
					"outputs": [
						{
							"internalType": "bool",
							"name": "",
							"type": "bool"
						}
					],
					"stateMutability": "nonpayable",
					"type": "function"
				},
				{
					"inputs": [
						{
							"internalType": "string",
							"name": "_id",
							"type": "string"
						},
						{
							"internalType": "string",
							"name": "_name",
							"type": "string"
						},
						{
							"internalType": "string",
							"name": "_phone",
							"type": "string"
						},
						{
							"internalType": "string",
							"name": "_gender",
							"type": "string"
						},
						{
							"internalType": "string",
							"name": "_dob",
							"type": "string"
						},
						{
							"internalType": "string",
							"name": "_qualification",
							"type": "string"
						},
						{
							"internalType": "string",
							"name": "_major",
							"type": "string"
						}
					],
					"name": "registerDoctor",
					"outputs": [],
					"stateMutability": "nonpayable",
					"type": "function"
				},
				{
					"inputs": [
						{
							"internalType": "string",
							"name": "_ic",
							"type": "string"
						},
						{
							"internalType": "string",
							"name": "_name",
							"type": "string"
						},
						{
							"internalType": "string",
							"name": "_phone",
							"type": "string"
						},
						{
							"internalType": "string",
							"name": "_gender",
							"type": "string"
						},
						{
							"internalType": "string",
							"name": "_dob",
							"type": "string"
						},
						{
							"internalType": "string",
							"name": "_houseAddr",
							"type": "string"
						},
						{
							"internalType": "string",
							"name": "_bloodGroup",
							"type": "string"
						},
						{
							"internalType": "string",
							"name": "_diagnoses",
							"type": "string"
						},
						{
							"internalType": "string",
							"name": "_medication",
							"type": "string"
						}
					],
					"name": "registerPatient",
					"outputs": [],
					"stateMutability": "nonpayable",
					"type": "function"
				}
			],
			"devdoc": {
				"kind": "dev",
				"methods": {},
				"version": 1
			},
			"evm": {
				"assembly": "    /* \"contracts/TelehealthContract.sol\":268:2636  contract TelehealthContract {... */\n  mstore(0x40, 0x80)\n    /* \"contracts/TelehealthContract.sol\":487:941  constructor(... */\n  callvalue\n  dup1\n  iszero\n  tag_1\n  jumpi\n  0x00\n  dup1\n  revert\ntag_1:\n  pop\n  mload(0x40)\n  sub(codesize, bytecodeSize)\n  dup1\n  bytecodeSize\n  dup4\n  codecopy\n  dup2\n  add\n  0x40\n  dup2\n  swap1\n  mstore\n  tag_2\n  swap2\n  tag_3\n  jump\t// in\ntag_2:\n    /* \"contracts/TelehealthContract.sol\":657:662  owner */\n  0x00\n    /* \"contracts/TelehealthContract.sol\":657:675  owner = msg.sender */\n  dup1\n  sload\n    /* \"contracts/TelehealthContract.sol\":665:675  msg.sender */\n  caller\n  not(sub(shl(0xa0, 0x01), 0x01))\n    /* \"contracts/TelehealthContract.sol\":657:675  owner = msg.sender */\n  swap2\n  dup3\n  and\n  or\n  swap1\n  swap2\n  sstore\n  0x01\n    /* \"contracts/TelehealthContract.sol\":686:736  doctorsContract = DoctorsContract(_doctorsAddress) */\n  dup1\n  sload\n  dup3\n  and\n  sub(shl(0xa0, 0x01), 0x01)\n  swap7\n  dup8\n  and\n  or\n  swap1\n  sstore\n    /* \"contracts/TelehealthContract.sol\":747:763  patientsContract */\n  0x02\n    /* \"contracts/TelehealthContract.sol\":747:800  patientsContract = PatientsContract(_patientsAddress) */\n  dup1\n  sload\n  dup3\n  and\n  swap5\n  dup7\n  and\n  swap5\n  swap1\n  swap5\n  or\n  swap1\n  swap4\n  sstore\n    /* \"contracts/TelehealthContract.sol\":811:830  permissionsContract */\n  0x03\n    /* \"contracts/TelehealthContract.sol\":811:872  permissionsContract = PermissionsContract(_permissionAddress) */\n  dup1\n  sload\n  dup5\n  and\n  swap3\n  dup6\n  and\n  swap3\n  swap1\n  swap3\n  or\n  swap1\n  swap2\n  sstore\n    /* \"contracts/TelehealthContract.sol\":883:898  queriesContract */\n  0x04\n    /* \"contracts/TelehealthContract.sol\":883:933  queriesContract = QueriesContract(_queriesAddress) */\n  dup1\n  sload\n  swap1\n  swap3\n  and\n  swap3\n  and\n  swap2\n  swap1\n  swap2\n  or\n  swap1\n  sstore\n    /* \"contracts/TelehealthContract.sol\":268:2636  contract TelehealthContract {... */\n  jump(tag_8)\n    /* \"#utility.yul\":14:191   */\ntag_7:\n    /* \"#utility.yul\":93:106   */\n  dup1\n  mload\n  sub(shl(0xa0, 0x01), 0x01)\n    /* \"#utility.yul\":135:166   */\n  dup2\n  and\n    /* \"#utility.yul\":125:167   */\n  dup2\n  eq\n    /* \"#utility.yul\":115:185   */\n  tag_10\n  jumpi\n    /* \"#utility.yul\":181:182   */\n  0x00\n    /* \"#utility.yul\":178:179   */\n  dup1\n    /* \"#utility.yul\":171:183   */\n  revert\n    /* \"#utility.yul\":115:185   */\ntag_10:\n    /* \"#utility.yul\":14:191   */\n  swap2\n  swap1\n  pop\n  jump\t// out\n    /* \"#utility.yul\":196:660   */\ntag_3:\n    /* \"#utility.yul\":293:299   */\n  0x00\n    /* \"#utility.yul\":301:307   */\n  dup1\n    /* \"#utility.yul\":309:315   */\n  0x00\n    /* \"#utility.yul\":317:323   */\n  dup1\n    /* \"#utility.yul\":370:373   */\n  0x80\n    /* \"#utility.yul\":358:367   */\n  dup6\n    /* \"#utility.yul\":349:356   */\n  dup8\n    /* \"#utility.yul\":345:368   */\n  sub\n    /* \"#utility.yul\":341:374   */\n  slt\n    /* \"#utility.yul\":338:391   */\n  iszero\n  tag_12\n  jumpi\n    /* \"#utility.yul\":387:388   */\n  0x00\n    /* \"#utility.yul\":384:385   */\n  dup1\n    /* \"#utility.yul\":377:389   */\n  revert\n    /* \"#utility.yul\":338:391   */\ntag_12:\n    /* \"#utility.yul\":410:450   */\n  tag_13\n    /* \"#utility.yul\":440:449   */\n  dup6\n    /* \"#utility.yul\":410:450   */\n  tag_7\n  jump\t// in\ntag_13:\n    /* \"#utility.yul\":400:450   */\n  swap4\n  pop\n    /* \"#utility.yul\":469:518   */\n  tag_14\n    /* \"#utility.yul\":514:516   */\n  0x20\n    /* \"#utility.yul\":503:512   */\n  dup7\n    /* \"#utility.yul\":499:517   */\n  add\n    /* \"#utility.yul\":469:518   */\n  tag_7\n  jump\t// in\ntag_14:\n    /* \"#utility.yul\":459:518   */\n  swap3\n  pop\n    /* \"#utility.yul\":537:586   */\n  tag_15\n    /* \"#utility.yul\":582:584   */\n  0x40\n    /* \"#utility.yul\":571:580   */\n  dup7\n    /* \"#utility.yul\":567:585   */\n  add\n    /* \"#utility.yul\":537:586   */\n  tag_7\n  jump\t// in\ntag_15:\n    /* \"#utility.yul\":527:586   */\n  swap2\n  pop\n    /* \"#utility.yul\":605:654   */\n  tag_16\n    /* \"#utility.yul\":650:652   */\n  0x60\n    /* \"#utility.yul\":639:648   */\n  dup7\n    /* \"#utility.yul\":635:653   */\n  add\n    /* \"#utility.yul\":605:654   */\n  tag_7\n  jump\t// in\ntag_16:\n    /* \"#utility.yul\":595:654   */\n  swap1\n  pop\n    /* \"#utility.yul\":196:660   */\n  swap3\n  swap6\n  swap2\n  swap5\n  pop\n  swap3\n  pop\n  jump\t// out\ntag_8:\n    /* \"contracts/TelehealthContract.sol\":268:2636  contract TelehealthContract {... */\n  dataSize(sub_0)\n  dup1\n  dataOffset(sub_0)\n  0x00\n  codecopy\n  0x00\n  return\nstop\n\nsub_0: assembly {\n        /* \"contracts/TelehealthContract.sol\":268:2636  contract TelehealthContract {... */\n      mstore(0x40, 0x80)\n      callvalue\n      dup1\n      iszero\n      tag_1\n      jumpi\n      0x00\n      dup1\n      revert\n    tag_1:\n      pop\n      jumpi(tag_2, lt(calldatasize, 0x04))\n      shr(0xe0, calldataload(0x00))\n      dup1\n      0x0d7c3ea0\n      eq\n      tag_3\n      jumpi\n      dup1\n      0x12ad1c37\n      eq\n      tag_4\n      jumpi\n      dup1\n      0x2d8e3278\n      eq\n      tag_5\n      jumpi\n      dup1\n      0x5a2310a0\n      eq\n      tag_6\n      jumpi\n      dup1\n      0xb13d5d94\n      eq\n      tag_7\n      jumpi\n      dup1\n      0xf9c2caa5\n      eq\n      tag_8\n      jumpi\n    tag_2:\n      0x00\n      dup1\n      revert\n        /* \"contracts/TelehealthContract.sol\":949:1313  function registerDoctor(... */\n    tag_3:\n      tag_9\n      tag_10\n      calldatasize\n      0x04\n      tag_11\n      jump\t// in\n    tag_10:\n      tag_12\n      jump\t// in\n    tag_9:\n      stop\n        /* \"contracts/TelehealthContract.sol\":2077:2194  function getPatients() public view returns(address[] memory) {... */\n    tag_4:\n      tag_13\n      tag_14\n      jump\t// in\n    tag_13:\n      mload(0x40)\n      tag_15\n      swap2\n      swap1\n      tag_16\n      jump\t// in\n    tag_15:\n      mload(0x40)\n      dup1\n      swap2\n      sub\n      swap1\n      return\n        /* \"contracts/TelehealthContract.sol\":2202:2330  function grantPermission(address _addr) public returns(bool){... */\n    tag_5:\n      tag_17\n      tag_18\n      calldatasize\n      0x04\n      tag_19\n      jump\t// in\n    tag_18:\n      tag_20\n      jump\t// in\n    tag_17:\n      mload(0x40)\n        /* \"#utility.yul\":3933:3947   */\n      swap1\n      iszero\n        /* \"#utility.yul\":3926:3948   */\n      iszero\n        /* \"#utility.yul\":3908:3949   */\n      dup2\n      mstore\n        /* \"#utility.yul\":3896:3898   */\n      0x20\n        /* \"#utility.yul\":3881:3899   */\n      add\n        /* \"contracts/TelehealthContract.sol\":2202:2330  function grantPermission(address _addr) public returns(bool){... */\n      tag_15\n        /* \"#utility.yul\":3768:3955   */\n      jump\n        /* \"contracts/TelehealthContract.sol\":2338:2633  function getPatientDemographic(address _addr) public view returns(... */\n    tag_6:\n      tag_23\n      tag_24\n      calldatasize\n      0x04\n      tag_19\n      jump\t// in\n    tag_24:\n      tag_25\n      jump\t// in\n    tag_23:\n      mload(0x40)\n      tag_15\n      swap6\n      swap5\n      swap4\n      swap3\n      swap2\n      swap1\n      tag_27\n      jump\t// in\n        /* \"contracts/TelehealthContract.sol\":1955:2069  function getDoctors() public view returns(address[] memory) {... */\n    tag_7:\n      tag_13\n      tag_29\n      jump\t// in\n        /* \"contracts/TelehealthContract.sol\":1321:1947  function registerPatient(... */\n    tag_8:\n      tag_9\n      tag_32\n      calldatasize\n      0x04\n      tag_33\n      jump\t// in\n    tag_32:\n      tag_34\n      jump\t// in\n        /* \"contracts/TelehealthContract.sol\":949:1313  function registerDoctor(... */\n    tag_12:\n        /* \"contracts/TelehealthContract.sol\":1221:1236  doctorsContract */\n      sload(0x01)\n        /* \"contracts/TelehealthContract.sol\":1221:1305  doctorsContract.setDoctor(_id, _name, _phone, _gender, _dob, _qualification, _major) */\n      mload(0x40)\n      shl(0xe0, 0x8b945c6d)\n      dup2\n      mstore\n      sub(shl(0xa0, 0x01), 0x01)\n        /* \"contracts/TelehealthContract.sol\":1221:1236  doctorsContract */\n      swap1\n      swap2\n      and\n      swap1\n        /* \"contracts/TelehealthContract.sol\":1221:1246  doctorsContract.setDoctor */\n      0x8b945c6d\n      swap1\n        /* \"contracts/TelehealthContract.sol\":1221:1305  doctorsContract.setDoctor(_id, _name, _phone, _gender, _dob, _qualification, _major) */\n      tag_36\n      swap1\n        /* \"contracts/TelehealthContract.sol\":1247:1250  _id */\n      dup11\n      swap1\n        /* \"contracts/TelehealthContract.sol\":1252:1257  _name */\n      dup11\n      swap1\n        /* \"contracts/TelehealthContract.sol\":1259:1265  _phone */\n      dup11\n      swap1\n        /* \"contracts/TelehealthContract.sol\":1267:1274  _gender */\n      dup11\n      swap1\n        /* \"contracts/TelehealthContract.sol\":1276:1280  _dob */\n      dup11\n      swap1\n        /* \"contracts/TelehealthContract.sol\":1282:1296  _qualification */\n      dup11\n      swap1\n        /* \"contracts/TelehealthContract.sol\":1298:1304  _major */\n      dup11\n      swap1\n        /* \"contracts/TelehealthContract.sol\":1221:1305  doctorsContract.setDoctor(_id, _name, _phone, _gender, _dob, _qualification, _major) */\n      0x04\n      add\n      tag_37\n      jump\t// in\n    tag_36:\n      0x00\n      mload(0x40)\n      dup1\n      dup4\n      sub\n      dup2\n      0x00\n      dup8\n      dup1\n      extcodesize\n      iszero\n      dup1\n      iszero\n      tag_38\n      jumpi\n      0x00\n      dup1\n      revert\n    tag_38:\n      pop\n      gas\n      call\n      iszero\n      dup1\n      iszero\n      tag_40\n      jumpi\n      returndatasize\n      0x00\n      dup1\n      returndatacopy\n      revert(0x00, returndatasize)\n    tag_40:\n      pop\n      pop\n      pop\n      pop\n        /* \"contracts/TelehealthContract.sol\":949:1313  function registerDoctor(... */\n      pop\n      pop\n      pop\n      pop\n      pop\n      pop\n      pop\n      jump\t// out\n        /* \"contracts/TelehealthContract.sol\":2077:2194  function getPatients() public view returns(address[] memory) {... */\n    tag_14:\n        /* \"contracts/TelehealthContract.sol\":2156:2172  patientsContract */\n      sload(0x02)\n        /* \"contracts/TelehealthContract.sol\":2156:2186  patientsContract.getPatients() */\n      0x40\n      dup1\n      mload\n      shl(0xe0, 0x12ad1c37)\n      dup2\n      mstore\n      swap1\n      mload\n        /* \"contracts/TelehealthContract.sol\":2120:2136  address[] memory */\n      0x60\n      swap3\n      sub(shl(0xa0, 0x01), 0x01)\n        /* \"contracts/TelehealthContract.sol\":2156:2172  patientsContract */\n      and\n      swap2\n        /* \"contracts/TelehealthContract.sol\":2156:2184  patientsContract.getPatients */\n      0x12ad1c37\n      swap2\n        /* \"contracts/TelehealthContract.sol\":2156:2186  patientsContract.getPatients() */\n      0x04\n      dup1\n      dup4\n      add\n      swap3\n        /* \"contracts/TelehealthContract.sol\":2156:2172  patientsContract */\n      0x00\n      swap3\n        /* \"contracts/TelehealthContract.sol\":2156:2186  patientsContract.getPatients() */\n      swap2\n      swap1\n      dup3\n      swap1\n      sub\n      add\n      dup2\n        /* \"contracts/TelehealthContract.sol\":2156:2172  patientsContract */\n      dup7\n        /* \"contracts/TelehealthContract.sol\":2156:2186  patientsContract.getPatients() */\n      gas\n      staticcall\n      iszero\n      dup1\n      iszero\n      tag_43\n      jumpi\n      returndatasize\n      0x00\n      dup1\n      returndatacopy\n      revert(0x00, returndatasize)\n    tag_43:\n      pop\n      pop\n      pop\n      pop\n      mload(0x40)\n      returndatasize\n      0x00\n      dup3\n      returndatacopy\n      0x1f\n      returndatasize\n      swap1\n      dup2\n      add\n      not(0x1f)\n      and\n      dup3\n      add\n      0x40\n      mstore\n      tag_44\n      swap2\n      swap1\n      dup2\n      add\n      swap1\n      tag_45\n      jump\t// in\n    tag_44:\n        /* \"contracts/TelehealthContract.sol\":2149:2186  return patientsContract.getPatients() */\n      swap1\n      pop\n        /* \"contracts/TelehealthContract.sol\":2077:2194  function getPatients() public view returns(address[] memory) {... */\n      swap1\n      jump\t// out\n        /* \"contracts/TelehealthContract.sol\":2202:2330  function grantPermission(address _addr) public returns(bool){... */\n    tag_20:\n        /* \"contracts/TelehealthContract.sol\":2280:2299  permissionsContract */\n      sload(0x03)\n        /* \"contracts/TelehealthContract.sol\":2280:2322  permissionsContract.grantPermission(_addr) */\n      mload(0x40)\n      shl(0xe3, 0x05b1c64f)\n      dup2\n      mstore\n      sub(shl(0xa0, 0x01), 0x01)\n        /* \"#utility.yul\":9810:9842   */\n      dup4\n      dup2\n      and\n        /* \"contracts/TelehealthContract.sol\":2280:2322  permissionsContract.grantPermission(_addr) */\n      0x04\n      dup4\n      add\n        /* \"#utility.yul\":9792:9843   */\n      mstore\n        /* \"contracts/TelehealthContract.sol\":2257:2261  bool */\n      0x00\n      swap3\n        /* \"contracts/TelehealthContract.sol\":2280:2299  permissionsContract */\n      and\n      swap1\n        /* \"contracts/TelehealthContract.sol\":2280:2315  permissionsContract.grantPermission */\n      0x2d8e3278\n      swap1\n        /* \"#utility.yul\":9765:9783   */\n      0x24\n      add\n        /* \"contracts/TelehealthContract.sol\":2280:2322  permissionsContract.grantPermission(_addr) */\n      0x20\n      mload(0x40)\n      dup1\n      dup4\n      sub\n      dup2\n      0x00\n      dup8\n      gas\n      call\n      iszero\n      dup1\n      iszero\n      tag_50\n      jumpi\n      returndatasize\n      0x00\n      dup1\n      returndatacopy\n      revert(0x00, returndatasize)\n    tag_50:\n      pop\n      pop\n      pop\n      pop\n      mload(0x40)\n      returndatasize\n      not(0x1f)\n      0x1f\n      dup3\n      add\n      and\n      dup3\n      add\n      dup1\n      0x40\n      mstore\n      pop\n      dup2\n      add\n      swap1\n      tag_51\n      swap2\n      swap1\n      tag_52\n      jump\t// in\n    tag_51:\n        /* \"contracts/TelehealthContract.sol\":2273:2322  return permissionsContract.grantPermission(_addr) */\n      swap3\n        /* \"contracts/TelehealthContract.sol\":2202:2330  function grantPermission(address _addr) public returns(bool){... */\n      swap2\n      pop\n      pop\n      jump\t// out\n        /* \"contracts/TelehealthContract.sol\":2338:2633  function getPatientDemographic(address _addr) public view returns(... */\n    tag_25:\n        /* \"contracts/TelehealthContract.sol\":2578:2593  queriesContract */\n      0x04\n      dup1\n      sload\n        /* \"contracts/TelehealthContract.sol\":2578:2625  queriesContract.searchPatientDemographic(_addr) */\n      mload(0x40)\n      shl(0xe7, 0x779305)\n      dup2\n      mstore\n      sub(shl(0xa0, 0x01), 0x01)\n        /* \"#utility.yul\":9810:9842   */\n      dup5\n      dup2\n      and\n        /* \"contracts/TelehealthContract.sol\":2578:2625  queriesContract.searchPatientDemographic(_addr) */\n      swap4\n      dup3\n      add\n        /* \"#utility.yul\":9792:9843   */\n      swap4\n      swap1\n      swap4\n      mstore\n        /* \"contracts/TelehealthContract.sol\":2414:2430  string memory id */\n      0x60\n      swap3\n      dup4\n      swap3\n      dup4\n      swap3\n      dup4\n      swap3\n      dup4\n      swap3\n        /* \"contracts/TelehealthContract.sol\":2578:2593  queriesContract */\n      and\n      swap1\n        /* \"contracts/TelehealthContract.sol\":2578:2618  queriesContract.searchPatientDemographic */\n      0x3bc98280\n      swap1\n        /* \"#utility.yul\":9765:9783   */\n      0x24\n      add\n        /* \"contracts/TelehealthContract.sol\":2578:2625  queriesContract.searchPatientDemographic(_addr) */\n      0x00\n      mload(0x40)\n      dup1\n      dup4\n      sub\n      dup2\n      dup7\n      gas\n      staticcall\n      iszero\n      dup1\n      iszero\n      tag_56\n      jumpi\n      returndatasize\n      0x00\n      dup1\n      returndatacopy\n      revert(0x00, returndatasize)\n    tag_56:\n      pop\n      pop\n      pop\n      pop\n      mload(0x40)\n      returndatasize\n      0x00\n      dup3\n      returndatacopy\n      0x1f\n      returndatasize\n      swap1\n      dup2\n      add\n      not(0x1f)\n      and\n      dup3\n      add\n      0x40\n      mstore\n      tag_57\n      swap2\n      swap1\n      dup2\n      add\n      swap1\n      tag_58\n      jump\t// in\n    tag_57:\n        /* \"contracts/TelehealthContract.sol\":2571:2625  return queriesContract.searchPatientDemographic(_addr) */\n      swap4\n      swap11\n      swap3\n      swap10\n      pop\n      swap1\n      swap8\n      pop\n      swap6\n      pop\n      swap1\n      swap4\n      pop\n        /* \"contracts/TelehealthContract.sol\":2338:2633  function getPatientDemographic(address _addr) public view returns(... */\n      swap2\n      pop\n      pop\n      jump\t// out\n        /* \"contracts/TelehealthContract.sol\":1955:2069  function getDoctors() public view returns(address[] memory) {... */\n    tag_29:\n        /* \"contracts/TelehealthContract.sol\":2033:2048  doctorsContract */\n      sload(0x01)\n        /* \"contracts/TelehealthContract.sol\":2033:2061  doctorsContract.getDoctors() */\n      0x40\n      dup1\n      mload\n      shl(0xe2, 0x2c4f5765)\n      dup2\n      mstore\n      swap1\n      mload\n        /* \"contracts/TelehealthContract.sol\":1997:2013  address[] memory */\n      0x60\n      swap3\n      sub(shl(0xa0, 0x01), 0x01)\n        /* \"contracts/TelehealthContract.sol\":2033:2048  doctorsContract */\n      and\n      swap2\n        /* \"contracts/TelehealthContract.sol\":2033:2059  doctorsContract.getDoctors */\n      0xb13d5d94\n      swap2\n        /* \"contracts/TelehealthContract.sol\":2033:2061  doctorsContract.getDoctors() */\n      0x04\n      dup1\n      dup4\n      add\n      swap3\n        /* \"contracts/TelehealthContract.sol\":2033:2048  doctorsContract */\n      0x00\n      swap3\n        /* \"contracts/TelehealthContract.sol\":2033:2061  doctorsContract.getDoctors() */\n      swap2\n      swap1\n      dup3\n      swap1\n      sub\n      add\n      dup2\n        /* \"contracts/TelehealthContract.sol\":2033:2048  doctorsContract */\n      dup7\n        /* \"contracts/TelehealthContract.sol\":2033:2061  doctorsContract.getDoctors() */\n      gas\n      staticcall\n      iszero\n      dup1\n      iszero\n      tag_43\n      jumpi\n      returndatasize\n      0x00\n      dup1\n      returndatacopy\n      revert(0x00, returndatasize)\n        /* \"contracts/TelehealthContract.sol\":1321:1947  function registerPatient(... */\n    tag_34:\n        /* \"contracts/TelehealthContract.sol\":1827:1843  patientsContract */\n      sload(0x02)\n        /* \"contracts/TelehealthContract.sol\":1827:1939  patientsContract.setPatient(_ic, _name, _phone, _gender, _dob, _houseAddr, _bloodGroup, _diagnoses, _medication) */\n      mload(0x40)\n      shl(0xe0, 0x23a2ba5b)\n      dup2\n      mstore\n      sub(shl(0xa0, 0x01), 0x01)\n        /* \"contracts/TelehealthContract.sol\":1827:1843  patientsContract */\n      swap1\n      swap2\n      and\n      swap1\n        /* \"contracts/TelehealthContract.sol\":1827:1854  patientsContract.setPatient */\n      0x23a2ba5b\n      swap1\n        /* \"contracts/TelehealthContract.sol\":1827:1939  patientsContract.setPatient(_ic, _name, _phone, _gender, _dob, _houseAddr, _bloodGroup, _diagnoses, _medication) */\n      tag_64\n      swap1\n        /* \"contracts/TelehealthContract.sol\":1855:1858  _ic */\n      dup13\n      swap1\n        /* \"contracts/TelehealthContract.sol\":1860:1865  _name */\n      dup13\n      swap1\n        /* \"contracts/TelehealthContract.sol\":1867:1873  _phone */\n      dup13\n      swap1\n        /* \"contracts/TelehealthContract.sol\":1875:1882  _gender */\n      dup13\n      swap1\n        /* \"contracts/TelehealthContract.sol\":1884:1888  _dob */\n      dup13\n      swap1\n        /* \"contracts/TelehealthContract.sol\":1890:1900  _houseAddr */\n      dup13\n      swap1\n        /* \"contracts/TelehealthContract.sol\":1902:1913  _bloodGroup */\n      dup13\n      swap1\n        /* \"contracts/TelehealthContract.sol\":1915:1925  _diagnoses */\n      dup13\n      swap1\n        /* \"contracts/TelehealthContract.sol\":1927:1938  _medication */\n      dup13\n      swap1\n        /* \"contracts/TelehealthContract.sol\":1827:1939  patientsContract.setPatient(_ic, _name, _phone, _gender, _dob, _houseAddr, _bloodGroup, _diagnoses, _medication) */\n      0x04\n      add\n      tag_65\n      jump\t// in\n    tag_64:\n      0x00\n      mload(0x40)\n      dup1\n      dup4\n      sub\n      dup2\n      0x00\n      dup8\n      dup1\n      extcodesize\n      iszero\n      dup1\n      iszero\n      tag_66\n      jumpi\n      0x00\n      dup1\n      revert\n    tag_66:\n      pop\n      gas\n      call\n      iszero\n      dup1\n      iszero\n      tag_68\n      jumpi\n      returndatasize\n      0x00\n      dup1\n      returndatacopy\n      revert(0x00, returndatasize)\n    tag_68:\n      pop\n      pop\n      pop\n      pop\n        /* \"contracts/TelehealthContract.sol\":1321:1947  function registerPatient(... */\n      pop\n      pop\n      pop\n      pop\n      pop\n      pop\n      pop\n      pop\n      pop\n      jump\t// out\n        /* \"#utility.yul\":14:141   */\n    tag_69:\n        /* \"#utility.yul\":75:85   */\n      0x4e487b71\n        /* \"#utility.yul\":70:73   */\n      0xe0\n        /* \"#utility.yul\":66:86   */\n      shl\n        /* \"#utility.yul\":63:64   */\n      0x00\n        /* \"#utility.yul\":56:87   */\n      mstore\n        /* \"#utility.yul\":106:110   */\n      0x41\n        /* \"#utility.yul\":103:104   */\n      0x04\n        /* \"#utility.yul\":96:111   */\n      mstore\n        /* \"#utility.yul\":130:134   */\n      0x24\n        /* \"#utility.yul\":127:128   */\n      0x00\n        /* \"#utility.yul\":120:135   */\n      revert\n        /* \"#utility.yul\":146:421   */\n    tag_70:\n        /* \"#utility.yul\":217:219   */\n      0x40\n        /* \"#utility.yul\":211:220   */\n      mload\n        /* \"#utility.yul\":282:284   */\n      0x1f\n        /* \"#utility.yul\":263:276   */\n      dup3\n      add\n      not(0x1f)\n        /* \"#utility.yul\":259:286   */\n      and\n        /* \"#utility.yul\":247:287   */\n      dup2\n      add\n      sub(shl(0x40, 0x01), 0x01)\n        /* \"#utility.yul\":302:336   */\n      dup2\n      gt\n        /* \"#utility.yul\":338:360   */\n      dup3\n      dup3\n      lt\n        /* \"#utility.yul\":299:361   */\n      or\n        /* \"#utility.yul\":296:384   */\n      iszero\n      tag_81\n      jumpi\n        /* \"#utility.yul\":364:382   */\n      tag_81\n      tag_69\n      jump\t// in\n    tag_81:\n        /* \"#utility.yul\":400:402   */\n      0x40\n        /* \"#utility.yul\":393:415   */\n      mstore\n        /* \"#utility.yul\":146:421   */\n      swap2\n      swap1\n      pop\n      jump\t// out\n        /* \"#utility.yul\":426:613   */\n    tag_71:\n        /* \"#utility.yul\":475:479   */\n      0x00\n      sub(shl(0x40, 0x01), 0x01)\n        /* \"#utility.yul\":500:506   */\n      dup3\n        /* \"#utility.yul\":497:527   */\n      gt\n        /* \"#utility.yul\":494:550   */\n      iszero\n      tag_84\n      jumpi\n        /* \"#utility.yul\":530:548   */\n      tag_84\n      tag_69\n      jump\t// in\n    tag_84:\n      pop\n        /* \"#utility.yul\":596:598   */\n      0x1f\n        /* \"#utility.yul\":575:590   */\n      add\n      not(0x1f)\n        /* \"#utility.yul\":571:600   */\n      and\n        /* \"#utility.yul\":602:606   */\n      0x20\n        /* \"#utility.yul\":567:607   */\n      add\n      swap1\n        /* \"#utility.yul\":426:613   */\n      jump\t// out\n        /* \"#utility.yul\":618:1106   */\n    tag_72:\n        /* \"#utility.yul\":661:666   */\n      0x00\n        /* \"#utility.yul\":714:717   */\n      dup3\n        /* \"#utility.yul\":707:711   */\n      0x1f\n        /* \"#utility.yul\":699:705   */\n      dup4\n        /* \"#utility.yul\":695:712   */\n      add\n        /* \"#utility.yul\":691:718   */\n      slt\n        /* \"#utility.yul\":681:736   */\n      tag_86\n      jumpi\n        /* \"#utility.yul\":732:733   */\n      0x00\n        /* \"#utility.yul\":729:730   */\n      dup1\n        /* \"#utility.yul\":722:734   */\n      revert\n        /* \"#utility.yul\":681:736   */\n    tag_86:\n        /* \"#utility.yul\":772:778   */\n      dup2\n        /* \"#utility.yul\":759:779   */\n      calldataload\n        /* \"#utility.yul\":803:856   */\n      tag_87\n        /* \"#utility.yul\":819:855   */\n      tag_88\n        /* \"#utility.yul\":848:854   */\n      dup3\n        /* \"#utility.yul\":819:855   */\n      tag_71\n      jump\t// in\n    tag_88:\n        /* \"#utility.yul\":803:856   */\n      tag_70\n      jump\t// in\n    tag_87:\n        /* \"#utility.yul\":881:887   */\n      dup2\n        /* \"#utility.yul\":872:879   */\n      dup2\n        /* \"#utility.yul\":865:888   */\n      mstore\n        /* \"#utility.yul\":935:938   */\n      dup5\n        /* \"#utility.yul\":928:932   */\n      0x20\n        /* \"#utility.yul\":919:925   */\n      dup4\n        /* \"#utility.yul\":911:917   */\n      dup7\n        /* \"#utility.yul\":907:926   */\n      add\n        /* \"#utility.yul\":903:933   */\n      add\n        /* \"#utility.yul\":900:939   */\n      gt\n        /* \"#utility.yul\":897:956   */\n      iszero\n      tag_89\n      jumpi\n        /* \"#utility.yul\":952:953   */\n      0x00\n        /* \"#utility.yul\":949:950   */\n      dup1\n        /* \"#utility.yul\":942:954   */\n      revert\n        /* \"#utility.yul\":897:956   */\n    tag_89:\n        /* \"#utility.yul\":1017:1023   */\n      dup2\n        /* \"#utility.yul\":1010:1014   */\n      0x20\n        /* \"#utility.yul\":1002:1008   */\n      dup6\n        /* \"#utility.yul\":998:1015   */\n      add\n        /* \"#utility.yul\":991:995   */\n      0x20\n        /* \"#utility.yul\":982:989   */\n      dup4\n        /* \"#utility.yul\":978:996   */\n      add\n        /* \"#utility.yul\":965:1024   */\n      calldatacopy\n        /* \"#utility.yul\":1073:1074   */\n      0x00\n        /* \"#utility.yul\":1044:1064   */\n      swap2\n      dup2\n      add\n        /* \"#utility.yul\":1066:1070   */\n      0x20\n        /* \"#utility.yul\":1040:1071   */\n      add\n        /* \"#utility.yul\":1033:1075   */\n      swap2\n      swap1\n      swap2\n      mstore\n        /* \"#utility.yul\":1048:1055   */\n      swap4\n        /* \"#utility.yul\":618:1106   */\n      swap3\n      pop\n      pop\n      pop\n      jump\t// out\n        /* \"#utility.yul\":1111:2733   */\n    tag_11:\n        /* \"#utility.yul\":1294:1300   */\n      0x00\n        /* \"#utility.yul\":1302:1308   */\n      dup1\n        /* \"#utility.yul\":1310:1316   */\n      0x00\n        /* \"#utility.yul\":1318:1324   */\n      dup1\n        /* \"#utility.yul\":1326:1332   */\n      0x00\n        /* \"#utility.yul\":1334:1340   */\n      dup1\n        /* \"#utility.yul\":1342:1348   */\n      0x00\n        /* \"#utility.yul\":1395:1398   */\n      0xe0\n        /* \"#utility.yul\":1383:1392   */\n      dup9\n        /* \"#utility.yul\":1374:1381   */\n      dup11\n        /* \"#utility.yul\":1370:1393   */\n      sub\n        /* \"#utility.yul\":1366:1399   */\n      slt\n        /* \"#utility.yul\":1363:1416   */\n      iszero\n      tag_91\n      jumpi\n        /* \"#utility.yul\":1412:1413   */\n      0x00\n        /* \"#utility.yul\":1409:1410   */\n      dup1\n        /* \"#utility.yul\":1402:1414   */\n      revert\n        /* \"#utility.yul\":1363:1416   */\n    tag_91:\n        /* \"#utility.yul\":1452:1461   */\n      dup8\n        /* \"#utility.yul\":1439:1462   */\n      calldataload\n      sub(shl(0x40, 0x01), 0x01)\n        /* \"#utility.yul\":1477:1483   */\n      dup2\n        /* \"#utility.yul\":1474:1504   */\n      gt\n        /* \"#utility.yul\":1471:1521   */\n      iszero\n      tag_92\n      jumpi\n        /* \"#utility.yul\":1517:1518   */\n      0x00\n        /* \"#utility.yul\":1514:1515   */\n      dup1\n        /* \"#utility.yul\":1507:1519   */\n      revert\n        /* \"#utility.yul\":1471:1521   */\n    tag_92:\n        /* \"#utility.yul\":1540:1590   */\n      tag_93\n        /* \"#utility.yul\":1582:1589   */\n      dup11\n        /* \"#utility.yul\":1573:1579   */\n      dup3\n        /* \"#utility.yul\":1562:1571   */\n      dup12\n        /* \"#utility.yul\":1558:1580   */\n      add\n        /* \"#utility.yul\":1540:1590   */\n      tag_72\n      jump\t// in\n    tag_93:\n        /* \"#utility.yul\":1530:1590   */\n      swap8\n      pop\n      pop\n        /* \"#utility.yul\":1643:1645   */\n      0x20\n        /* \"#utility.yul\":1632:1641   */\n      dup9\n        /* \"#utility.yul\":1628:1646   */\n      add\n        /* \"#utility.yul\":1615:1647   */\n      calldataload\n      sub(shl(0x40, 0x01), 0x01)\n        /* \"#utility.yul\":1662:1670   */\n      dup2\n        /* \"#utility.yul\":1659:1691   */\n      gt\n        /* \"#utility.yul\":1656:1708   */\n      iszero\n      tag_94\n      jumpi\n        /* \"#utility.yul\":1704:1705   */\n      0x00\n        /* \"#utility.yul\":1701:1702   */\n      dup1\n        /* \"#utility.yul\":1694:1706   */\n      revert\n        /* \"#utility.yul\":1656:1708   */\n    tag_94:\n        /* \"#utility.yul\":1727:1779   */\n      tag_95\n        /* \"#utility.yul\":1771:1778   */\n      dup11\n        /* \"#utility.yul\":1760:1768   */\n      dup3\n        /* \"#utility.yul\":1749:1758   */\n      dup12\n        /* \"#utility.yul\":1745:1769   */\n      add\n        /* \"#utility.yul\":1727:1779   */\n      tag_72\n      jump\t// in\n    tag_95:\n        /* \"#utility.yul\":1717:1779   */\n      swap7\n      pop\n      pop\n        /* \"#utility.yul\":1832:1834   */\n      0x40\n        /* \"#utility.yul\":1821:1830   */\n      dup9\n        /* \"#utility.yul\":1817:1835   */\n      add\n        /* \"#utility.yul\":1804:1836   */\n      calldataload\n      sub(shl(0x40, 0x01), 0x01)\n        /* \"#utility.yul\":1851:1859   */\n      dup2\n        /* \"#utility.yul\":1848:1880   */\n      gt\n        /* \"#utility.yul\":1845:1897   */\n      iszero\n      tag_96\n      jumpi\n        /* \"#utility.yul\":1893:1894   */\n      0x00\n        /* \"#utility.yul\":1890:1891   */\n      dup1\n        /* \"#utility.yul\":1883:1895   */\n      revert\n        /* \"#utility.yul\":1845:1897   */\n    tag_96:\n        /* \"#utility.yul\":1916:1968   */\n      tag_97\n        /* \"#utility.yul\":1960:1967   */\n      dup11\n        /* \"#utility.yul\":1949:1957   */\n      dup3\n        /* \"#utility.yul\":1938:1947   */\n      dup12\n        /* \"#utility.yul\":1934:1958   */\n      add\n        /* \"#utility.yul\":1916:1968   */\n      tag_72\n      jump\t// in\n    tag_97:\n        /* \"#utility.yul\":1906:1968   */\n      swap6\n      pop\n      pop\n        /* \"#utility.yul\":2021:2023   */\n      0x60\n        /* \"#utility.yul\":2010:2019   */\n      dup9\n        /* \"#utility.yul\":2006:2024   */\n      add\n        /* \"#utility.yul\":1993:2025   */\n      calldataload\n      sub(shl(0x40, 0x01), 0x01)\n        /* \"#utility.yul\":2040:2048   */\n      dup2\n        /* \"#utility.yul\":2037:2069   */\n      gt\n        /* \"#utility.yul\":2034:2086   */\n      iszero\n      tag_98\n      jumpi\n        /* \"#utility.yul\":2082:2083   */\n      0x00\n        /* \"#utility.yul\":2079:2080   */\n      dup1\n        /* \"#utility.yul\":2072:2084   */\n      revert\n        /* \"#utility.yul\":2034:2086   */\n    tag_98:\n        /* \"#utility.yul\":2105:2157   */\n      tag_99\n        /* \"#utility.yul\":2149:2156   */\n      dup11\n        /* \"#utility.yul\":2138:2146   */\n      dup3\n        /* \"#utility.yul\":2127:2136   */\n      dup12\n        /* \"#utility.yul\":2123:2147   */\n      add\n        /* \"#utility.yul\":2105:2157   */\n      tag_72\n      jump\t// in\n    tag_99:\n        /* \"#utility.yul\":2095:2157   */\n      swap5\n      pop\n      pop\n        /* \"#utility.yul\":2210:2213   */\n      0x80\n        /* \"#utility.yul\":2199:2208   */\n      dup9\n        /* \"#utility.yul\":2195:2214   */\n      add\n        /* \"#utility.yul\":2182:2215   */\n      calldataload\n      sub(shl(0x40, 0x01), 0x01)\n        /* \"#utility.yul\":2230:2238   */\n      dup2\n        /* \"#utility.yul\":2227:2259   */\n      gt\n        /* \"#utility.yul\":2224:2276   */\n      iszero\n      tag_100\n      jumpi\n        /* \"#utility.yul\":2272:2273   */\n      0x00\n        /* \"#utility.yul\":2269:2270   */\n      dup1\n        /* \"#utility.yul\":2262:2274   */\n      revert\n        /* \"#utility.yul\":2224:2276   */\n    tag_100:\n        /* \"#utility.yul\":2295:2347   */\n      tag_101\n        /* \"#utility.yul\":2339:2346   */\n      dup11\n        /* \"#utility.yul\":2328:2336   */\n      dup3\n        /* \"#utility.yul\":2317:2326   */\n      dup12\n        /* \"#utility.yul\":2313:2337   */\n      add\n        /* \"#utility.yul\":2295:2347   */\n      tag_72\n      jump\t// in\n    tag_101:\n        /* \"#utility.yul\":2285:2347   */\n      swap4\n      pop\n      pop\n        /* \"#utility.yul\":2400:2403   */\n      0xa0\n        /* \"#utility.yul\":2389:2398   */\n      dup9\n        /* \"#utility.yul\":2385:2404   */\n      add\n        /* \"#utility.yul\":2372:2405   */\n      calldataload\n      sub(shl(0x40, 0x01), 0x01)\n        /* \"#utility.yul\":2420:2428   */\n      dup2\n        /* \"#utility.yul\":2417:2449   */\n      gt\n        /* \"#utility.yul\":2414:2466   */\n      iszero\n      tag_102\n      jumpi\n        /* \"#utility.yul\":2462:2463   */\n      0x00\n        /* \"#utility.yul\":2459:2460   */\n      dup1\n        /* \"#utility.yul\":2452:2464   */\n      revert\n        /* \"#utility.yul\":2414:2466   */\n    tag_102:\n        /* \"#utility.yul\":2485:2537   */\n      tag_103\n        /* \"#utility.yul\":2529:2536   */\n      dup11\n        /* \"#utility.yul\":2518:2526   */\n      dup3\n        /* \"#utility.yul\":2507:2516   */\n      dup12\n        /* \"#utility.yul\":2503:2527   */\n      add\n        /* \"#utility.yul\":2485:2537   */\n      tag_72\n      jump\t// in\n    tag_103:\n        /* \"#utility.yul\":2475:2537   */\n      swap3\n      pop\n      pop\n        /* \"#utility.yul\":2590:2593   */\n      0xc0\n        /* \"#utility.yul\":2579:2588   */\n      dup9\n        /* \"#utility.yul\":2575:2594   */\n      add\n        /* \"#utility.yul\":2562:2595   */\n      calldataload\n      sub(shl(0x40, 0x01), 0x01)\n        /* \"#utility.yul\":2610:2618   */\n      dup2\n        /* \"#utility.yul\":2607:2639   */\n      gt\n        /* \"#utility.yul\":2604:2656   */\n      iszero\n      tag_104\n      jumpi\n        /* \"#utility.yul\":2652:2653   */\n      0x00\n        /* \"#utility.yul\":2649:2650   */\n      dup1\n        /* \"#utility.yul\":2642:2654   */\n      revert\n        /* \"#utility.yul\":2604:2656   */\n    tag_104:\n        /* \"#utility.yul\":2675:2727   */\n      tag_105\n        /* \"#utility.yul\":2719:2726   */\n      dup11\n        /* \"#utility.yul\":2708:2716   */\n      dup3\n        /* \"#utility.yul\":2697:2706   */\n      dup12\n        /* \"#utility.yul\":2693:2717   */\n      add\n        /* \"#utility.yul\":2675:2727   */\n      tag_72\n      jump\t// in\n    tag_105:\n        /* \"#utility.yul\":2665:2727   */\n      swap2\n      pop\n      pop\n        /* \"#utility.yul\":1111:2733   */\n      swap3\n      swap6\n      swap9\n      swap2\n      swap5\n      swap8\n      pop\n      swap3\n      swap6\n      pop\n      jump\t// out\n        /* \"#utility.yul\":2738:3375   */\n    tag_16:\n        /* \"#utility.yul\":2928:2930   */\n      0x20\n        /* \"#utility.yul\":2940:2961   */\n      dup1\n      dup3\n      mstore\n        /* \"#utility.yul\":3010:3023   */\n      dup3\n      mload\n        /* \"#utility.yul\":2913:2931   */\n      dup3\n      dup3\n      add\n        /* \"#utility.yul\":3032:3054   */\n      dup2\n      swap1\n      mstore\n        /* \"#utility.yul\":2880:2884   */\n      0x00\n      swap2\n        /* \"#utility.yul\":3111:3126   */\n      dup5\n      add\n      swap1\n        /* \"#utility.yul\":3085:3087   */\n      0x40\n        /* \"#utility.yul\":3070:3088   */\n      dup5\n      add\n      swap1\n        /* \"#utility.yul\":2880:2884   */\n      dup4\n        /* \"#utility.yul\":3154:3349   */\n    tag_107:\n        /* \"#utility.yul\":3168:3174   */\n      dup2\n        /* \"#utility.yul\":3165:3166   */\n      dup2\n        /* \"#utility.yul\":3162:3175   */\n      lt\n        /* \"#utility.yul\":3154:3349   */\n      iszero\n      tag_109\n      jumpi\n        /* \"#utility.yul\":3233:3246   */\n      dup4\n      mload\n      sub(shl(0xa0, 0x01), 0x01)\n        /* \"#utility.yul\":3229:3268   */\n      and\n        /* \"#utility.yul\":3217:3269   */\n      dup4\n      mstore\n        /* \"#utility.yul\":3298:3300   */\n      0x20\n        /* \"#utility.yul\":3324:3339   */\n      swap4\n      dup5\n      add\n      swap4\n        /* \"#utility.yul\":3289:3301   */\n      swap1\n      swap3\n      add\n      swap2\n        /* \"#utility.yul\":3265:3266   */\n      0x01\n        /* \"#utility.yul\":3183:3192   */\n      add\n        /* \"#utility.yul\":3154:3349   */\n      jump(tag_107)\n    tag_109:\n      pop\n        /* \"#utility.yul\":3366:3369   */\n      swap1\n      swap6\n        /* \"#utility.yul\":2738:3375   */\n      swap5\n      pop\n      pop\n      pop\n      pop\n      pop\n      jump\t// out\n        /* \"#utility.yul\":3380:3511   */\n    tag_73:\n      sub(shl(0xa0, 0x01), 0x01)\n        /* \"#utility.yul\":3455:3486   */\n      dup2\n      and\n        /* \"#utility.yul\":3445:3487   */\n      dup2\n      eq\n        /* \"#utility.yul\":3435:3505   */\n      tag_111\n      jumpi\n        /* \"#utility.yul\":3501:3502   */\n      0x00\n        /* \"#utility.yul\":3498:3499   */\n      dup1\n        /* \"#utility.yul\":3491:3503   */\n      revert\n        /* \"#utility.yul\":3435:3505   */\n    tag_111:\n        /* \"#utility.yul\":3380:3511   */\n      pop\n      jump\t// out\n        /* \"#utility.yul\":3516:3763   */\n    tag_19:\n        /* \"#utility.yul\":3575:3581   */\n      0x00\n        /* \"#utility.yul\":3628:3630   */\n      0x20\n        /* \"#utility.yul\":3616:3625   */\n      dup3\n        /* \"#utility.yul\":3607:3614   */\n      dup5\n        /* \"#utility.yul\":3603:3626   */\n      sub\n        /* \"#utility.yul\":3599:3631   */\n      slt\n        /* \"#utility.yul\":3596:3648   */\n      iszero\n      tag_113\n      jumpi\n        /* \"#utility.yul\":3644:3645   */\n      0x00\n        /* \"#utility.yul\":3641:3642   */\n      dup1\n        /* \"#utility.yul\":3634:3646   */\n      revert\n        /* \"#utility.yul\":3596:3648   */\n    tag_113:\n        /* \"#utility.yul\":3683:3692   */\n      dup2\n        /* \"#utility.yul\":3670:3693   */\n      calldataload\n        /* \"#utility.yul\":3702:3733   */\n      tag_114\n        /* \"#utility.yul\":3727:3732   */\n      dup2\n        /* \"#utility.yul\":3702:3733   */\n      tag_73\n      jump\t// in\n    tag_114:\n        /* \"#utility.yul\":3752:3757   */\n      swap4\n        /* \"#utility.yul\":3516:3763   */\n      swap3\n      pop\n      pop\n      pop\n      jump\t// out\n        /* \"#utility.yul\":3960:4210   */\n    tag_74:\n        /* \"#utility.yul\":4045:4046   */\n      0x00\n        /* \"#utility.yul\":4055:4168   */\n    tag_117:\n        /* \"#utility.yul\":4069:4075   */\n      dup4\n        /* \"#utility.yul\":4066:4067   */\n      dup2\n        /* \"#utility.yul\":4063:4076   */\n      lt\n        /* \"#utility.yul\":4055:4168   */\n      iszero\n      tag_119\n      jumpi\n        /* \"#utility.yul\":4145:4156   */\n      dup2\n      dup2\n      add\n        /* \"#utility.yul\":4139:4157   */\n      mload\n        /* \"#utility.yul\":4126:4137   */\n      dup4\n      dup3\n      add\n        /* \"#utility.yul\":4119:4158   */\n      mstore\n        /* \"#utility.yul\":4091:4093   */\n      0x20\n        /* \"#utility.yul\":4084:4094   */\n      add\n        /* \"#utility.yul\":4055:4168   */\n      jump(tag_117)\n    tag_119:\n      pop\n      pop\n        /* \"#utility.yul\":4202:4203   */\n      0x00\n        /* \"#utility.yul\":4184:4200   */\n      swap2\n      add\n        /* \"#utility.yul\":4177:4204   */\n      mstore\n        /* \"#utility.yul\":3960:4210   */\n      jump\t// out\n        /* \"#utility.yul\":4215:4486   */\n    tag_75:\n        /* \"#utility.yul\":4257:4260   */\n      0x00\n        /* \"#utility.yul\":4295:4300   */\n      dup2\n        /* \"#utility.yul\":4289:4301   */\n      mload\n        /* \"#utility.yul\":4322:4328   */\n      dup1\n        /* \"#utility.yul\":4317:4320   */\n      dup5\n        /* \"#utility.yul\":4310:4329   */\n      mstore\n        /* \"#utility.yul\":4338:4414   */\n      tag_121\n        /* \"#utility.yul\":4407:4413   */\n      dup2\n        /* \"#utility.yul\":4400:4404   */\n      0x20\n        /* \"#utility.yul\":4395:4398   */\n      dup7\n        /* \"#utility.yul\":4391:4405   */\n      add\n        /* \"#utility.yul\":4384:4388   */\n      0x20\n        /* \"#utility.yul\":4377:4382   */\n      dup7\n        /* \"#utility.yul\":4373:4389   */\n      add\n        /* \"#utility.yul\":4338:4414   */\n      tag_74\n      jump\t// in\n    tag_121:\n        /* \"#utility.yul\":4468:4470   */\n      0x1f\n        /* \"#utility.yul\":4447:4462   */\n      add\n      not(0x1f)\n        /* \"#utility.yul\":4443:4472   */\n      and\n        /* \"#utility.yul\":4434:4473   */\n      swap3\n      swap1\n      swap3\n      add\n        /* \"#utility.yul\":4475:4479   */\n      0x20\n        /* \"#utility.yul\":4430:4480   */\n      add\n      swap3\n        /* \"#utility.yul\":4215:4486   */\n      swap2\n      pop\n      pop\n      jump\t// out\n        /* \"#utility.yul\":4491:5366   */\n    tag_27:\n        /* \"#utility.yul\":4832:4835   */\n      0xa0\n        /* \"#utility.yul\":4821:4830   */\n      dup2\n        /* \"#utility.yul\":4814:4836   */\n      mstore\n        /* \"#utility.yul\":4795:4799   */\n      0x00\n        /* \"#utility.yul\":4859:4905   */\n      tag_123\n        /* \"#utility.yul\":4900:4903   */\n      0xa0\n        /* \"#utility.yul\":4889:4898   */\n      dup4\n        /* \"#utility.yul\":4885:4904   */\n      add\n        /* \"#utility.yul\":4877:4883   */\n      dup9\n        /* \"#utility.yul\":4859:4905   */\n      tag_75\n      jump\t// in\n    tag_123:\n        /* \"#utility.yul\":4953:4962   */\n      dup3\n        /* \"#utility.yul\":4945:4951   */\n      dup2\n        /* \"#utility.yul\":4941:4963   */\n      sub\n        /* \"#utility.yul\":4936:4938   */\n      0x20\n        /* \"#utility.yul\":4925:4934   */\n      dup5\n        /* \"#utility.yul\":4921:4939   */\n      add\n        /* \"#utility.yul\":4914:4964   */\n      mstore\n        /* \"#utility.yul\":4987:5020   */\n      tag_124\n        /* \"#utility.yul\":5013:5019   */\n      dup2\n        /* \"#utility.yul\":5005:5011   */\n      dup9\n        /* \"#utility.yul\":4987:5020   */\n      tag_75\n      jump\t// in\n    tag_124:\n        /* \"#utility.yul\":4973:5020   */\n      swap1\n      pop\n        /* \"#utility.yul\":5068:5077   */\n      dup3\n        /* \"#utility.yul\":5060:5066   */\n      dup2\n        /* \"#utility.yul\":5056:5078   */\n      sub\n        /* \"#utility.yul\":5051:5053   */\n      0x40\n        /* \"#utility.yul\":5040:5049   */\n      dup5\n        /* \"#utility.yul\":5036:5054   */\n      add\n        /* \"#utility.yul\":5029:5079   */\n      mstore\n        /* \"#utility.yul\":5102:5135   */\n      tag_125\n        /* \"#utility.yul\":5128:5134   */\n      dup2\n        /* \"#utility.yul\":5120:5126   */\n      dup8\n        /* \"#utility.yul\":5102:5135   */\n      tag_75\n      jump\t// in\n    tag_125:\n        /* \"#utility.yul\":5088:5135   */\n      swap1\n      pop\n        /* \"#utility.yul\":5183:5192   */\n      dup3\n        /* \"#utility.yul\":5175:5181   */\n      dup2\n        /* \"#utility.yul\":5171:5193   */\n      sub\n        /* \"#utility.yul\":5166:5168   */\n      0x60\n        /* \"#utility.yul\":5155:5164   */\n      dup5\n        /* \"#utility.yul\":5151:5169   */\n      add\n        /* \"#utility.yul\":5144:5194   */\n      mstore\n        /* \"#utility.yul\":5217:5250   */\n      tag_126\n        /* \"#utility.yul\":5243:5249   */\n      dup2\n        /* \"#utility.yul\":5235:5241   */\n      dup7\n        /* \"#utility.yul\":5217:5250   */\n      tag_75\n      jump\t// in\n    tag_126:\n        /* \"#utility.yul\":5203:5250   */\n      swap1\n      pop\n        /* \"#utility.yul\":5299:5308   */\n      dup3\n        /* \"#utility.yul\":5291:5297   */\n      dup2\n        /* \"#utility.yul\":5287:5309   */\n      sub\n        /* \"#utility.yul\":5281:5284   */\n      0x80\n        /* \"#utility.yul\":5270:5279   */\n      dup5\n        /* \"#utility.yul\":5266:5285   */\n      add\n        /* \"#utility.yul\":5259:5310   */\n      mstore\n        /* \"#utility.yul\":5327:5360   */\n      tag_127\n        /* \"#utility.yul\":5353:5359   */\n      dup2\n        /* \"#utility.yul\":5345:5351   */\n      dup6\n        /* \"#utility.yul\":5327:5360   */\n      tag_75\n      jump\t// in\n    tag_127:\n        /* \"#utility.yul\":5319:5360   */\n      swap9\n        /* \"#utility.yul\":4491:5366   */\n      swap8\n      pop\n      pop\n      pop\n      pop\n      pop\n      pop\n      pop\n      pop\n      jump\t// out\n        /* \"#utility.yul\":5371:7427   */\n    tag_33:\n        /* \"#utility.yul\":5592:5598   */\n      0x00\n        /* \"#utility.yul\":5600:5606   */\n      dup1\n        /* \"#utility.yul\":5608:5614   */\n      0x00\n        /* \"#utility.yul\":5616:5622   */\n      dup1\n        /* \"#utility.yul\":5624:5630   */\n      0x00\n        /* \"#utility.yul\":5632:5638   */\n      dup1\n        /* \"#utility.yul\":5640:5646   */\n      0x00\n        /* \"#utility.yul\":5648:5654   */\n      dup1\n        /* \"#utility.yul\":5656:5662   */\n      0x00\n        /* \"#utility.yul\":5709:5712   */\n      0x0120\n        /* \"#utility.yul\":5697:5706   */\n      dup11\n        /* \"#utility.yul\":5688:5695   */\n      dup13\n        /* \"#utility.yul\":5684:5707   */\n      sub\n        /* \"#utility.yul\":5680:5713   */\n      slt\n        /* \"#utility.yul\":5677:5730   */\n      iszero\n      tag_129\n      jumpi\n        /* \"#utility.yul\":5726:5727   */\n      0x00\n        /* \"#utility.yul\":5723:5724   */\n      dup1\n        /* \"#utility.yul\":5716:5728   */\n      revert\n        /* \"#utility.yul\":5677:5730   */\n    tag_129:\n        /* \"#utility.yul\":5766:5775   */\n      dup10\n        /* \"#utility.yul\":5753:5776   */\n      calldataload\n      sub(shl(0x40, 0x01), 0x01)\n        /* \"#utility.yul\":5791:5797   */\n      dup2\n        /* \"#utility.yul\":5788:5818   */\n      gt\n        /* \"#utility.yul\":5785:5835   */\n      iszero\n      tag_130\n      jumpi\n        /* \"#utility.yul\":5831:5832   */\n      0x00\n        /* \"#utility.yul\":5828:5829   */\n      dup1\n        /* \"#utility.yul\":5821:5833   */\n      revert\n        /* \"#utility.yul\":5785:5835   */\n    tag_130:\n        /* \"#utility.yul\":5854:5904   */\n      tag_131\n        /* \"#utility.yul\":5896:5903   */\n      dup13\n        /* \"#utility.yul\":5887:5893   */\n      dup3\n        /* \"#utility.yul\":5876:5885   */\n      dup14\n        /* \"#utility.yul\":5872:5894   */\n      add\n        /* \"#utility.yul\":5854:5904   */\n      tag_72\n      jump\t// in\n    tag_131:\n        /* \"#utility.yul\":5844:5904   */\n      swap10\n      pop\n      pop\n        /* \"#utility.yul\":5957:5959   */\n      0x20\n        /* \"#utility.yul\":5946:5955   */\n      dup11\n        /* \"#utility.yul\":5942:5960   */\n      add\n        /* \"#utility.yul\":5929:5961   */\n      calldataload\n      sub(shl(0x40, 0x01), 0x01)\n        /* \"#utility.yul\":5976:5984   */\n      dup2\n        /* \"#utility.yul\":5973:6005   */\n      gt\n        /* \"#utility.yul\":5970:6022   */\n      iszero\n      tag_132\n      jumpi\n        /* \"#utility.yul\":6018:6019   */\n      0x00\n        /* \"#utility.yul\":6015:6016   */\n      dup1\n        /* \"#utility.yul\":6008:6020   */\n      revert\n        /* \"#utility.yul\":5970:6022   */\n    tag_132:\n        /* \"#utility.yul\":6041:6093   */\n      tag_133\n        /* \"#utility.yul\":6085:6092   */\n      dup13\n        /* \"#utility.yul\":6074:6082   */\n      dup3\n        /* \"#utility.yul\":6063:6072   */\n      dup14\n        /* \"#utility.yul\":6059:6083   */\n      add\n        /* \"#utility.yul\":6041:6093   */\n      tag_72\n      jump\t// in\n    tag_133:\n        /* \"#utility.yul\":6031:6093   */\n      swap9\n      pop\n      pop\n        /* \"#utility.yul\":6146:6148   */\n      0x40\n        /* \"#utility.yul\":6135:6144   */\n      dup11\n        /* \"#utility.yul\":6131:6149   */\n      add\n        /* \"#utility.yul\":6118:6150   */\n      calldataload\n      sub(shl(0x40, 0x01), 0x01)\n        /* \"#utility.yul\":6165:6173   */\n      dup2\n        /* \"#utility.yul\":6162:6194   */\n      gt\n        /* \"#utility.yul\":6159:6211   */\n      iszero\n      tag_134\n      jumpi\n        /* \"#utility.yul\":6207:6208   */\n      0x00\n        /* \"#utility.yul\":6204:6205   */\n      dup1\n        /* \"#utility.yul\":6197:6209   */\n      revert\n        /* \"#utility.yul\":6159:6211   */\n    tag_134:\n        /* \"#utility.yul\":6230:6282   */\n      tag_135\n        /* \"#utility.yul\":6274:6281   */\n      dup13\n        /* \"#utility.yul\":6263:6271   */\n      dup3\n        /* \"#utility.yul\":6252:6261   */\n      dup14\n        /* \"#utility.yul\":6248:6272   */\n      add\n        /* \"#utility.yul\":6230:6282   */\n      tag_72\n      jump\t// in\n    tag_135:\n        /* \"#utility.yul\":6220:6282   */\n      swap8\n      pop\n      pop\n        /* \"#utility.yul\":6335:6337   */\n      0x60\n        /* \"#utility.yul\":6324:6333   */\n      dup11\n        /* \"#utility.yul\":6320:6338   */\n      add\n        /* \"#utility.yul\":6307:6339   */\n      calldataload\n      sub(shl(0x40, 0x01), 0x01)\n        /* \"#utility.yul\":6354:6362   */\n      dup2\n        /* \"#utility.yul\":6351:6383   */\n      gt\n        /* \"#utility.yul\":6348:6400   */\n      iszero\n      tag_136\n      jumpi\n        /* \"#utility.yul\":6396:6397   */\n      0x00\n        /* \"#utility.yul\":6393:6394   */\n      dup1\n        /* \"#utility.yul\":6386:6398   */\n      revert\n        /* \"#utility.yul\":6348:6400   */\n    tag_136:\n        /* \"#utility.yul\":6419:6471   */\n      tag_137\n        /* \"#utility.yul\":6463:6470   */\n      dup13\n        /* \"#utility.yul\":6452:6460   */\n      dup3\n        /* \"#utility.yul\":6441:6450   */\n      dup14\n        /* \"#utility.yul\":6437:6461   */\n      add\n        /* \"#utility.yul\":6419:6471   */\n      tag_72\n      jump\t// in\n    tag_137:\n        /* \"#utility.yul\":6409:6471   */\n      swap7\n      pop\n      pop\n        /* \"#utility.yul\":6524:6527   */\n      0x80\n        /* \"#utility.yul\":6513:6522   */\n      dup11\n        /* \"#utility.yul\":6509:6528   */\n      add\n        /* \"#utility.yul\":6496:6529   */\n      calldataload\n      sub(shl(0x40, 0x01), 0x01)\n        /* \"#utility.yul\":6544:6552   */\n      dup2\n        /* \"#utility.yul\":6541:6573   */\n      gt\n        /* \"#utility.yul\":6538:6590   */\n      iszero\n      tag_138\n      jumpi\n        /* \"#utility.yul\":6586:6587   */\n      0x00\n        /* \"#utility.yul\":6583:6584   */\n      dup1\n        /* \"#utility.yul\":6576:6588   */\n      revert\n        /* \"#utility.yul\":6538:6590   */\n    tag_138:\n        /* \"#utility.yul\":6609:6661   */\n      tag_139\n        /* \"#utility.yul\":6653:6660   */\n      dup13\n        /* \"#utility.yul\":6642:6650   */\n      dup3\n        /* \"#utility.yul\":6631:6640   */\n      dup14\n        /* \"#utility.yul\":6627:6651   */\n      add\n        /* \"#utility.yul\":6609:6661   */\n      tag_72\n      jump\t// in\n    tag_139:\n        /* \"#utility.yul\":6599:6661   */\n      swap6\n      pop\n      pop\n        /* \"#utility.yul\":6714:6717   */\n      0xa0\n        /* \"#utility.yul\":6703:6712   */\n      dup11\n        /* \"#utility.yul\":6699:6718   */\n      add\n        /* \"#utility.yul\":6686:6719   */\n      calldataload\n      sub(shl(0x40, 0x01), 0x01)\n        /* \"#utility.yul\":6734:6742   */\n      dup2\n        /* \"#utility.yul\":6731:6763   */\n      gt\n        /* \"#utility.yul\":6728:6780   */\n      iszero\n      tag_140\n      jumpi\n        /* \"#utility.yul\":6776:6777   */\n      0x00\n        /* \"#utility.yul\":6773:6774   */\n      dup1\n        /* \"#utility.yul\":6766:6778   */\n      revert\n        /* \"#utility.yul\":6728:6780   */\n    tag_140:\n        /* \"#utility.yul\":6799:6851   */\n      tag_141\n        /* \"#utility.yul\":6843:6850   */\n      dup13\n        /* \"#utility.yul\":6832:6840   */\n      dup3\n        /* \"#utility.yul\":6821:6830   */\n      dup14\n        /* \"#utility.yul\":6817:6841   */\n      add\n        /* \"#utility.yul\":6799:6851   */\n      tag_72\n      jump\t// in\n    tag_141:\n        /* \"#utility.yul\":6789:6851   */\n      swap5\n      pop\n      pop\n        /* \"#utility.yul\":6904:6907   */\n      0xc0\n        /* \"#utility.yul\":6893:6902   */\n      dup11\n        /* \"#utility.yul\":6889:6908   */\n      add\n        /* \"#utility.yul\":6876:6909   */\n      calldataload\n      sub(shl(0x40, 0x01), 0x01)\n        /* \"#utility.yul\":6924:6932   */\n      dup2\n        /* \"#utility.yul\":6921:6953   */\n      gt\n        /* \"#utility.yul\":6918:6970   */\n      iszero\n      tag_142\n      jumpi\n        /* \"#utility.yul\":6966:6967   */\n      0x00\n        /* \"#utility.yul\":6963:6964   */\n      dup1\n        /* \"#utility.yul\":6956:6968   */\n      revert\n        /* \"#utility.yul\":6918:6970   */\n    tag_142:\n        /* \"#utility.yul\":6989:7041   */\n      tag_143\n        /* \"#utility.yul\":7033:7040   */\n      dup13\n        /* \"#utility.yul\":7022:7030   */\n      dup3\n        /* \"#utility.yul\":7011:7020   */\n      dup14\n        /* \"#utility.yul\":7007:7031   */\n      add\n        /* \"#utility.yul\":6989:7041   */\n      tag_72\n      jump\t// in\n    tag_143:\n        /* \"#utility.yul\":6979:7041   */\n      swap4\n      pop\n      pop\n        /* \"#utility.yul\":7094:7097   */\n      0xe0\n        /* \"#utility.yul\":7083:7092   */\n      dup11\n        /* \"#utility.yul\":7079:7098   */\n      add\n        /* \"#utility.yul\":7066:7099   */\n      calldataload\n      sub(shl(0x40, 0x01), 0x01)\n        /* \"#utility.yul\":7114:7122   */\n      dup2\n        /* \"#utility.yul\":7111:7143   */\n      gt\n        /* \"#utility.yul\":7108:7160   */\n      iszero\n      tag_144\n      jumpi\n        /* \"#utility.yul\":7156:7157   */\n      0x00\n        /* \"#utility.yul\":7153:7154   */\n      dup1\n        /* \"#utility.yul\":7146:7158   */\n      revert\n        /* \"#utility.yul\":7108:7160   */\n    tag_144:\n        /* \"#utility.yul\":7179:7231   */\n      tag_145\n        /* \"#utility.yul\":7223:7230   */\n      dup13\n        /* \"#utility.yul\":7212:7220   */\n      dup3\n        /* \"#utility.yul\":7201:7210   */\n      dup14\n        /* \"#utility.yul\":7197:7221   */\n      add\n        /* \"#utility.yul\":7179:7231   */\n      tag_72\n      jump\t// in\n    tag_145:\n        /* \"#utility.yul\":7169:7231   */\n      swap3\n      pop\n      pop\n        /* \"#utility.yul\":7284:7287   */\n      0x0100\n        /* \"#utility.yul\":7273:7282   */\n      dup11\n        /* \"#utility.yul\":7269:7288   */\n      add\n        /* \"#utility.yul\":7256:7289   */\n      calldataload\n      sub(shl(0x40, 0x01), 0x01)\n        /* \"#utility.yul\":7304:7312   */\n      dup2\n        /* \"#utility.yul\":7301:7333   */\n      gt\n        /* \"#utility.yul\":7298:7350   */\n      iszero\n      tag_146\n      jumpi\n        /* \"#utility.yul\":7346:7347   */\n      0x00\n        /* \"#utility.yul\":7343:7344   */\n      dup1\n        /* \"#utility.yul\":7336:7348   */\n      revert\n        /* \"#utility.yul\":7298:7350   */\n    tag_146:\n        /* \"#utility.yul\":7369:7421   */\n      tag_147\n        /* \"#utility.yul\":7413:7420   */\n      dup13\n        /* \"#utility.yul\":7402:7410   */\n      dup3\n        /* \"#utility.yul\":7391:7400   */\n      dup14\n        /* \"#utility.yul\":7387:7411   */\n      add\n        /* \"#utility.yul\":7369:7421   */\n      tag_72\n      jump\t// in\n    tag_147:\n        /* \"#utility.yul\":7359:7421   */\n      swap2\n      pop\n      pop\n        /* \"#utility.yul\":5371:7427   */\n      swap3\n      swap6\n      swap9\n      pop\n      swap3\n      swap6\n      swap9\n      pop\n      swap3\n      swap6\n      swap9\n      jump\t// out\n        /* \"#utility.yul\":7432:8635   */\n    tag_37:\n        /* \"#utility.yul\":7869:7872   */\n      0xe0\n        /* \"#utility.yul\":7858:7867   */\n      dup2\n        /* \"#utility.yul\":7851:7873   */\n      mstore\n        /* \"#utility.yul\":7832:7836   */\n      0x00\n        /* \"#utility.yul\":7896:7942   */\n      tag_149\n        /* \"#utility.yul\":7937:7940   */\n      0xe0\n        /* \"#utility.yul\":7926:7935   */\n      dup4\n        /* \"#utility.yul\":7922:7941   */\n      add\n        /* \"#utility.yul\":7914:7920   */\n      dup11\n        /* \"#utility.yul\":7896:7942   */\n      tag_75\n      jump\t// in\n    tag_149:\n        /* \"#utility.yul\":7990:7999   */\n      dup3\n        /* \"#utility.yul\":7982:7988   */\n      dup2\n        /* \"#utility.yul\":7978:8000   */\n      sub\n        /* \"#utility.yul\":7973:7975   */\n      0x20\n        /* \"#utility.yul\":7962:7971   */\n      dup5\n        /* \"#utility.yul\":7958:7976   */\n      add\n        /* \"#utility.yul\":7951:8001   */\n      mstore\n        /* \"#utility.yul\":8024:8057   */\n      tag_150\n        /* \"#utility.yul\":8050:8056   */\n      dup2\n        /* \"#utility.yul\":8042:8048   */\n      dup11\n        /* \"#utility.yul\":8024:8057   */\n      tag_75\n      jump\t// in\n    tag_150:\n        /* \"#utility.yul\":8010:8057   */\n      swap1\n      pop\n        /* \"#utility.yul\":8105:8114   */\n      dup3\n        /* \"#utility.yul\":8097:8103   */\n      dup2\n        /* \"#utility.yul\":8093:8115   */\n      sub\n        /* \"#utility.yul\":8088:8090   */\n      0x40\n        /* \"#utility.yul\":8077:8086   */\n      dup5\n        /* \"#utility.yul\":8073:8091   */\n      add\n        /* \"#utility.yul\":8066:8116   */\n      mstore\n        /* \"#utility.yul\":8139:8172   */\n      tag_151\n        /* \"#utility.yul\":8165:8171   */\n      dup2\n        /* \"#utility.yul\":8157:8163   */\n      dup10\n        /* \"#utility.yul\":8139:8172   */\n      tag_75\n      jump\t// in\n    tag_151:\n        /* \"#utility.yul\":8125:8172   */\n      swap1\n      pop\n        /* \"#utility.yul\":8220:8229   */\n      dup3\n        /* \"#utility.yul\":8212:8218   */\n      dup2\n        /* \"#utility.yul\":8208:8230   */\n      sub\n        /* \"#utility.yul\":8203:8205   */\n      0x60\n        /* \"#utility.yul\":8192:8201   */\n      dup5\n        /* \"#utility.yul\":8188:8206   */\n      add\n        /* \"#utility.yul\":8181:8231   */\n      mstore\n        /* \"#utility.yul\":8254:8287   */\n      tag_152\n        /* \"#utility.yul\":8280:8286   */\n      dup2\n        /* \"#utility.yul\":8272:8278   */\n      dup9\n        /* \"#utility.yul\":8254:8287   */\n      tag_75\n      jump\t// in\n    tag_152:\n        /* \"#utility.yul\":8240:8287   */\n      swap1\n      pop\n        /* \"#utility.yul\":8336:8345   */\n      dup3\n        /* \"#utility.yul\":8328:8334   */\n      dup2\n        /* \"#utility.yul\":8324:8346   */\n      sub\n        /* \"#utility.yul\":8318:8321   */\n      0x80\n        /* \"#utility.yul\":8307:8316   */\n      dup5\n        /* \"#utility.yul\":8303:8322   */\n      add\n        /* \"#utility.yul\":8296:8347   */\n      mstore\n        /* \"#utility.yul\":8370:8403   */\n      tag_153\n        /* \"#utility.yul\":8396:8402   */\n      dup2\n        /* \"#utility.yul\":8388:8394   */\n      dup8\n        /* \"#utility.yul\":8370:8403   */\n      tag_75\n      jump\t// in\n    tag_153:\n        /* \"#utility.yul\":8356:8403   */\n      swap1\n      pop\n        /* \"#utility.yul\":8452:8461   */\n      dup3\n        /* \"#utility.yul\":8444:8450   */\n      dup2\n        /* \"#utility.yul\":8440:8462   */\n      sub\n        /* \"#utility.yul\":8434:8437   */\n      0xa0\n        /* \"#utility.yul\":8423:8432   */\n      dup5\n        /* \"#utility.yul\":8419:8438   */\n      add\n        /* \"#utility.yul\":8412:8463   */\n      mstore\n        /* \"#utility.yul\":8486:8519   */\n      tag_154\n        /* \"#utility.yul\":8512:8518   */\n      dup2\n        /* \"#utility.yul\":8504:8510   */\n      dup7\n        /* \"#utility.yul\":8486:8519   */\n      tag_75\n      jump\t// in\n    tag_154:\n        /* \"#utility.yul\":8472:8519   */\n      swap1\n      pop\n        /* \"#utility.yul\":8568:8577   */\n      dup3\n        /* \"#utility.yul\":8560:8566   */\n      dup2\n        /* \"#utility.yul\":8556:8578   */\n      sub\n        /* \"#utility.yul\":8550:8553   */\n      0xc0\n        /* \"#utility.yul\":8539:8548   */\n      dup5\n        /* \"#utility.yul\":8535:8554   */\n      add\n        /* \"#utility.yul\":8528:8579   */\n      mstore\n        /* \"#utility.yul\":8596:8629   */\n      tag_155\n        /* \"#utility.yul\":8622:8628   */\n      dup2\n        /* \"#utility.yul\":8614:8620   */\n      dup6\n        /* \"#utility.yul\":8596:8629   */\n      tag_75\n      jump\t// in\n    tag_155:\n        /* \"#utility.yul\":8588:8629   */\n      swap11\n        /* \"#utility.yul\":7432:8635   */\n      swap10\n      pop\n      pop\n      pop\n      pop\n      pop\n      pop\n      pop\n      pop\n      pop\n      pop\n      jump\t// out\n        /* \"#utility.yul\":8640:9641   */\n    tag_45:\n        /* \"#utility.yul\":8735:8741   */\n      0x00\n        /* \"#utility.yul\":8788:8790   */\n      0x20\n        /* \"#utility.yul\":8776:8785   */\n      dup3\n        /* \"#utility.yul\":8767:8774   */\n      dup5\n        /* \"#utility.yul\":8763:8786   */\n      sub\n        /* \"#utility.yul\":8759:8791   */\n      slt\n        /* \"#utility.yul\":8756:8808   */\n      iszero\n      tag_157\n      jumpi\n        /* \"#utility.yul\":8804:8805   */\n      0x00\n        /* \"#utility.yul\":8801:8802   */\n      dup1\n        /* \"#utility.yul\":8794:8806   */\n      revert\n        /* \"#utility.yul\":8756:8808   */\n    tag_157:\n        /* \"#utility.yul\":8837:8846   */\n      dup2\n        /* \"#utility.yul\":8831:8847   */\n      mload\n      sub(shl(0x40, 0x01), 0x01)\n        /* \"#utility.yul\":8862:8868   */\n      dup2\n        /* \"#utility.yul\":8859:8889   */\n      gt\n        /* \"#utility.yul\":8856:8906   */\n      iszero\n      tag_158\n      jumpi\n        /* \"#utility.yul\":8902:8903   */\n      0x00\n        /* \"#utility.yul\":8899:8900   */\n      dup1\n        /* \"#utility.yul\":8892:8904   */\n      revert\n        /* \"#utility.yul\":8856:8906   */\n    tag_158:\n        /* \"#utility.yul\":8925:8947   */\n      dup3\n      add\n        /* \"#utility.yul\":8978:8982   */\n      0x1f\n        /* \"#utility.yul\":8970:8983   */\n      dup2\n      add\n        /* \"#utility.yul\":8966:8993   */\n      dup5\n      sgt\n        /* \"#utility.yul\":8956:9011   */\n      tag_159\n      jumpi\n        /* \"#utility.yul\":9007:9008   */\n      0x00\n        /* \"#utility.yul\":9004:9005   */\n      dup1\n        /* \"#utility.yul\":8997:9009   */\n      revert\n        /* \"#utility.yul\":8956:9011   */\n    tag_159:\n        /* \"#utility.yul\":9040:9042   */\n      dup1\n        /* \"#utility.yul\":9034:9043   */\n      mload\n      sub(shl(0x40, 0x01), 0x01)\n        /* \"#utility.yul\":9058:9064   */\n      dup2\n        /* \"#utility.yul\":9055:9085   */\n      gt\n        /* \"#utility.yul\":9052:9108   */\n      iszero\n      tag_161\n      jumpi\n        /* \"#utility.yul\":9088:9106   */\n      tag_161\n      tag_69\n      jump\t// in\n    tag_161:\n        /* \"#utility.yul\":9134:9140   */\n      dup1\n        /* \"#utility.yul\":9131:9132   */\n      0x05\n        /* \"#utility.yul\":9127:9141   */\n      shl\n        /* \"#utility.yul\":9161:9189   */\n      tag_162\n        /* \"#utility.yul\":9185:9187   */\n      0x20\n        /* \"#utility.yul\":9181:9183   */\n      dup3\n        /* \"#utility.yul\":9177:9188   */\n      add\n        /* \"#utility.yul\":9161:9189   */\n      tag_70\n      jump\t// in\n    tag_162:\n        /* \"#utility.yul\":9223:9242   */\n      swap2\n      dup3\n      mstore\n        /* \"#utility.yul\":9267:9269   */\n      0x20\n        /* \"#utility.yul\":9297:9308   */\n      dup2\n      dup5\n      add\n        /* \"#utility.yul\":9293:9313   */\n      dup2\n      add\n      swap3\n        /* \"#utility.yul\":9258:9270   */\n      swap1\n      dup2\n      add\n      swap1\n        /* \"#utility.yul\":9325:9344   */\n      dup8\n      dup5\n      gt\n        /* \"#utility.yul\":9322:9361   */\n      iszero\n      tag_163\n      jumpi\n        /* \"#utility.yul\":9357:9358   */\n      0x00\n        /* \"#utility.yul\":9354:9355   */\n      dup1\n        /* \"#utility.yul\":9347:9359   */\n      revert\n        /* \"#utility.yul\":9322:9361   */\n    tag_163:\n        /* \"#utility.yul\":9389:9391   */\n      0x20\n        /* \"#utility.yul\":9385:9387   */\n      dup6\n        /* \"#utility.yul\":9381:9392   */\n      add\n        /* \"#utility.yul\":9370:9392   */\n      swap5\n      pop\n        /* \"#utility.yul\":9401:9611   */\n    tag_164:\n        /* \"#utility.yul\":9417:9423   */\n      dup4\n        /* \"#utility.yul\":9412:9415   */\n      dup6\n        /* \"#utility.yul\":9409:9424   */\n      lt\n        /* \"#utility.yul\":9401:9611   */\n      iszero\n      tag_166\n      jumpi\n        /* \"#utility.yul\":9490:9493   */\n      dup5\n        /* \"#utility.yul\":9484:9494   */\n      mload\n        /* \"#utility.yul\":9471:9494   */\n      swap3\n      pop\n        /* \"#utility.yul\":9507:9538   */\n      tag_167\n        /* \"#utility.yul\":9532:9537   */\n      dup4\n        /* \"#utility.yul\":9507:9538   */\n      tag_73\n      jump\t// in\n    tag_167:\n        /* \"#utility.yul\":9551:9569   */\n      dup3\n      dup3\n      mstore\n        /* \"#utility.yul\":9598:9600   */\n      0x20\n        /* \"#utility.yul\":9434:9446   */\n      swap5\n      dup6\n      add\n      swap5\n        /* \"#utility.yul\":9589:9601   */\n      swap1\n      swap2\n      add\n      swap1\n        /* \"#utility.yul\":9401:9611   */\n      jump(tag_164)\n    tag_166:\n        /* \"#utility.yul\":9630:9635   */\n      swap8\n        /* \"#utility.yul\":8640:9641   */\n      swap7\n      pop\n      pop\n      pop\n      pop\n      pop\n      pop\n      pop\n      jump\t// out\n        /* \"#utility.yul\":9854:10131   */\n    tag_52:\n        /* \"#utility.yul\":9921:9927   */\n      0x00\n        /* \"#utility.yul\":9974:9976   */\n      0x20\n        /* \"#utility.yul\":9962:9971   */\n      dup3\n        /* \"#utility.yul\":9953:9960   */\n      dup5\n        /* \"#utility.yul\":9949:9972   */\n      sub\n        /* \"#utility.yul\":9945:9977   */\n      slt\n        /* \"#utility.yul\":9942:9994   */\n      iszero\n      tag_170\n      jumpi\n        /* \"#utility.yul\":9990:9991   */\n      0x00\n        /* \"#utility.yul\":9987:9988   */\n      dup1\n        /* \"#utility.yul\":9980:9992   */\n      revert\n        /* \"#utility.yul\":9942:9994   */\n    tag_170:\n        /* \"#utility.yul\":10022:10031   */\n      dup2\n        /* \"#utility.yul\":10016:10032   */\n      mload\n        /* \"#utility.yul\":10075:10080   */\n      dup1\n        /* \"#utility.yul\":10068:10081   */\n      iszero\n        /* \"#utility.yul\":10061:10082   */\n      iszero\n        /* \"#utility.yul\":10054:10059   */\n      dup2\n        /* \"#utility.yul\":10051:10083   */\n      eq\n        /* \"#utility.yul\":10041:10101   */\n      tag_114\n      jumpi\n        /* \"#utility.yul\":10097:10098   */\n      0x00\n        /* \"#utility.yul\":10094:10095   */\n      dup1\n        /* \"#utility.yul\":10087:10099   */\n      revert\n        /* \"#utility.yul\":10136:10599   */\n    tag_76:\n        /* \"#utility.yul\":10190:10195   */\n      0x00\n        /* \"#utility.yul\":10243:10246   */\n      dup3\n        /* \"#utility.yul\":10236:10240   */\n      0x1f\n        /* \"#utility.yul\":10228:10234   */\n      dup4\n        /* \"#utility.yul\":10224:10241   */\n      add\n        /* \"#utility.yul\":10220:10247   */\n      slt\n        /* \"#utility.yul\":10210:10265   */\n      tag_173\n      jumpi\n        /* \"#utility.yul\":10261:10262   */\n      0x00\n        /* \"#utility.yul\":10258:10259   */\n      dup1\n        /* \"#utility.yul\":10251:10263   */\n      revert\n        /* \"#utility.yul\":10210:10265   */\n    tag_173:\n        /* \"#utility.yul\":10294:10300   */\n      dup2\n        /* \"#utility.yul\":10288:10301   */\n      mload\n        /* \"#utility.yul\":10325:10378   */\n      tag_174\n        /* \"#utility.yul\":10341:10377   */\n      tag_88\n        /* \"#utility.yul\":10370:10376   */\n      dup3\n        /* \"#utility.yul\":10341:10377   */\n      tag_71\n      jump\t// in\n        /* \"#utility.yul\":10325:10378   */\n    tag_174:\n        /* \"#utility.yul\":10403:10409   */\n      dup2\n        /* \"#utility.yul\":10394:10401   */\n      dup2\n        /* \"#utility.yul\":10387:10410   */\n      mstore\n        /* \"#utility.yul\":10457:10460   */\n      dup5\n        /* \"#utility.yul\":10450:10454   */\n      0x20\n        /* \"#utility.yul\":10441:10447   */\n      dup4\n        /* \"#utility.yul\":10433:10439   */\n      dup7\n        /* \"#utility.yul\":10429:10448   */\n      add\n        /* \"#utility.yul\":10425:10455   */\n      add\n        /* \"#utility.yul\":10422:10461   */\n      gt\n        /* \"#utility.yul\":10419:10478   */\n      iszero\n      tag_176\n      jumpi\n        /* \"#utility.yul\":10474:10475   */\n      0x00\n        /* \"#utility.yul\":10471:10472   */\n      dup1\n        /* \"#utility.yul\":10464:10476   */\n      revert\n        /* \"#utility.yul\":10419:10478   */\n    tag_176:\n        /* \"#utility.yul\":10487:10568   */\n      tag_177\n        /* \"#utility.yul\":10561:10567   */\n      dup3\n        /* \"#utility.yul\":10554:10558   */\n      0x20\n        /* \"#utility.yul\":10545:10552   */\n      dup4\n        /* \"#utility.yul\":10541:10559   */\n      add\n        /* \"#utility.yul\":10534:10538   */\n      0x20\n        /* \"#utility.yul\":10526:10532   */\n      dup8\n        /* \"#utility.yul\":10522:10539   */\n      add\n        /* \"#utility.yul\":10487:10568   */\n      tag_74\n      jump\t// in\n    tag_177:\n        /* \"#utility.yul\":10586:10593   */\n      swap5\n        /* \"#utility.yul\":10136:10599   */\n      swap4\n      pop\n      pop\n      pop\n      pop\n      jump\t// out\n        /* \"#utility.yul\":10604:11823   */\n    tag_58:\n        /* \"#utility.yul\":10760:10766   */\n      0x00\n        /* \"#utility.yul\":10768:10774   */\n      dup1\n        /* \"#utility.yul\":10776:10782   */\n      0x00\n        /* \"#utility.yul\":10784:10790   */\n      dup1\n        /* \"#utility.yul\":10792:10798   */\n      0x00\n        /* \"#utility.yul\":10845:10848   */\n      0xa0\n        /* \"#utility.yul\":10833:10842   */\n      dup7\n        /* \"#utility.yul\":10824:10831   */\n      dup9\n        /* \"#utility.yul\":10820:10843   */\n      sub\n        /* \"#utility.yul\":10816:10849   */\n      slt\n        /* \"#utility.yul\":10813:10866   */\n      iszero\n      tag_179\n      jumpi\n        /* \"#utility.yul\":10862:10863   */\n      0x00\n        /* \"#utility.yul\":10859:10860   */\n      dup1\n        /* \"#utility.yul\":10852:10864   */\n      revert\n        /* \"#utility.yul\":10813:10866   */\n    tag_179:\n        /* \"#utility.yul\":10895:10904   */\n      dup6\n        /* \"#utility.yul\":10889:10905   */\n      mload\n      sub(shl(0x40, 0x01), 0x01)\n        /* \"#utility.yul\":10920:10926   */\n      dup2\n        /* \"#utility.yul\":10917:10947   */\n      gt\n        /* \"#utility.yul\":10914:10964   */\n      iszero\n      tag_180\n      jumpi\n        /* \"#utility.yul\":10960:10961   */\n      0x00\n        /* \"#utility.yul\":10957:10958   */\n      dup1\n        /* \"#utility.yul\":10950:10962   */\n      revert\n        /* \"#utility.yul\":10914:10964   */\n    tag_180:\n        /* \"#utility.yul\":10983:11044   */\n      tag_181\n        /* \"#utility.yul\":11036:11043   */\n      dup9\n        /* \"#utility.yul\":11027:11033   */\n      dup3\n        /* \"#utility.yul\":11016:11025   */\n      dup10\n        /* \"#utility.yul\":11012:11034   */\n      add\n        /* \"#utility.yul\":10983:11044   */\n      tag_76\n      jump\t// in\n    tag_181:\n        /* \"#utility.yul\":10973:11044   */\n      swap6\n      pop\n      pop\n        /* \"#utility.yul\":11090:11092   */\n      0x20\n        /* \"#utility.yul\":11079:11088   */\n      dup7\n        /* \"#utility.yul\":11075:11093   */\n      add\n        /* \"#utility.yul\":11069:11094   */\n      mload\n      sub(shl(0x40, 0x01), 0x01)\n        /* \"#utility.yul\":11109:11117   */\n      dup2\n        /* \"#utility.yul\":11106:11138   */\n      gt\n        /* \"#utility.yul\":11103:11155   */\n      iszero\n      tag_182\n      jumpi\n        /* \"#utility.yul\":11151:11152   */\n      0x00\n        /* \"#utility.yul\":11148:11149   */\n      dup1\n        /* \"#utility.yul\":11141:11153   */\n      revert\n        /* \"#utility.yul\":11103:11155   */\n    tag_182:\n        /* \"#utility.yul\":11174:11237   */\n      tag_183\n        /* \"#utility.yul\":11229:11236   */\n      dup9\n        /* \"#utility.yul\":11218:11226   */\n      dup3\n        /* \"#utility.yul\":11207:11216   */\n      dup10\n        /* \"#utility.yul\":11203:11227   */\n      add\n        /* \"#utility.yul\":11174:11237   */\n      tag_76\n      jump\t// in\n    tag_183:\n        /* \"#utility.yul\":11164:11237   */\n      swap5\n      pop\n      pop\n        /* \"#utility.yul\":11283:11285   */\n      0x40\n        /* \"#utility.yul\":11272:11281   */\n      dup7\n        /* \"#utility.yul\":11268:11286   */\n      add\n        /* \"#utility.yul\":11262:11287   */\n      mload\n      sub(shl(0x40, 0x01), 0x01)\n        /* \"#utility.yul\":11302:11310   */\n      dup2\n        /* \"#utility.yul\":11299:11331   */\n      gt\n        /* \"#utility.yul\":11296:11348   */\n      iszero\n      tag_184\n      jumpi\n        /* \"#utility.yul\":11344:11345   */\n      0x00\n        /* \"#utility.yul\":11341:11342   */\n      dup1\n        /* \"#utility.yul\":11334:11346   */\n      revert\n        /* \"#utility.yul\":11296:11348   */\n    tag_184:\n        /* \"#utility.yul\":11367:11430   */\n      tag_185\n        /* \"#utility.yul\":11422:11429   */\n      dup9\n        /* \"#utility.yul\":11411:11419   */\n      dup3\n        /* \"#utility.yul\":11400:11409   */\n      dup10\n        /* \"#utility.yul\":11396:11420   */\n      add\n        /* \"#utility.yul\":11367:11430   */\n      tag_76\n      jump\t// in\n    tag_185:\n        /* \"#utility.yul\":11357:11430   */\n      swap4\n      pop\n      pop\n        /* \"#utility.yul\":11476:11478   */\n      0x60\n        /* \"#utility.yul\":11465:11474   */\n      dup7\n        /* \"#utility.yul\":11461:11479   */\n      add\n        /* \"#utility.yul\":11455:11480   */\n      mload\n      sub(shl(0x40, 0x01), 0x01)\n        /* \"#utility.yul\":11495:11503   */\n      dup2\n        /* \"#utility.yul\":11492:11524   */\n      gt\n        /* \"#utility.yul\":11489:11541   */\n      iszero\n      tag_186\n      jumpi\n        /* \"#utility.yul\":11537:11538   */\n      0x00\n        /* \"#utility.yul\":11534:11535   */\n      dup1\n        /* \"#utility.yul\":11527:11539   */\n      revert\n        /* \"#utility.yul\":11489:11541   */\n    tag_186:\n        /* \"#utility.yul\":11560:11623   */\n      tag_187\n        /* \"#utility.yul\":11615:11622   */\n      dup9\n        /* \"#utility.yul\":11604:11612   */\n      dup3\n        /* \"#utility.yul\":11593:11602   */\n      dup10\n        /* \"#utility.yul\":11589:11613   */\n      add\n        /* \"#utility.yul\":11560:11623   */\n      tag_76\n      jump\t// in\n    tag_187:\n        /* \"#utility.yul\":11550:11623   */\n      swap3\n      pop\n      pop\n        /* \"#utility.yul\":11669:11672   */\n      0x80\n        /* \"#utility.yul\":11658:11667   */\n      dup7\n        /* \"#utility.yul\":11654:11673   */\n      add\n        /* \"#utility.yul\":11648:11674   */\n      mload\n      sub(shl(0x40, 0x01), 0x01)\n        /* \"#utility.yul\":11689:11697   */\n      dup2\n        /* \"#utility.yul\":11686:11718   */\n      gt\n        /* \"#utility.yul\":11683:11735   */\n      iszero\n      tag_188\n      jumpi\n        /* \"#utility.yul\":11731:11732   */\n      0x00\n        /* \"#utility.yul\":11728:11729   */\n      dup1\n        /* \"#utility.yul\":11721:11733   */\n      revert\n        /* \"#utility.yul\":11683:11735   */\n    tag_188:\n        /* \"#utility.yul\":11754:11817   */\n      tag_189\n        /* \"#utility.yul\":11809:11816   */\n      dup9\n        /* \"#utility.yul\":11798:11806   */\n      dup3\n        /* \"#utility.yul\":11787:11796   */\n      dup10\n        /* \"#utility.yul\":11783:11807   */\n      add\n        /* \"#utility.yul\":11754:11817   */\n      tag_76\n      jump\t// in\n    tag_189:\n        /* \"#utility.yul\":11744:11817   */\n      swap2\n      pop\n      pop\n        /* \"#utility.yul\":10604:11823   */\n      swap3\n      swap6\n      pop\n      swap3\n      swap6\n      swap1\n      swap4\n      pop\n      jump\t// out\n        /* \"#utility.yul\":11828:13359   */\n    tag_65:\n        /* \"#utility.yul\":12361:12364   */\n      0x0120\n        /* \"#utility.yul\":12350:12359   */\n      dup2\n        /* \"#utility.yul\":12343:12365   */\n      mstore\n        /* \"#utility.yul\":12324:12328   */\n      0x00\n        /* \"#utility.yul\":12388:12434   */\n      tag_191\n        /* \"#utility.yul\":12429:12432   */\n      0x0120\n        /* \"#utility.yul\":12418:12427   */\n      dup4\n        /* \"#utility.yul\":12414:12433   */\n      add\n        /* \"#utility.yul\":12406:12412   */\n      dup13\n        /* \"#utility.yul\":12388:12434   */\n      tag_75\n      jump\t// in\n    tag_191:\n        /* \"#utility.yul\":12482:12491   */\n      dup3\n        /* \"#utility.yul\":12474:12480   */\n      dup2\n        /* \"#utility.yul\":12470:12492   */\n      sub\n        /* \"#utility.yul\":12465:12467   */\n      0x20\n        /* \"#utility.yul\":12454:12463   */\n      dup5\n        /* \"#utility.yul\":12450:12468   */\n      add\n        /* \"#utility.yul\":12443:12493   */\n      mstore\n        /* \"#utility.yul\":12516:12549   */\n      tag_192\n        /* \"#utility.yul\":12542:12548   */\n      dup2\n        /* \"#utility.yul\":12534:12540   */\n      dup13\n        /* \"#utility.yul\":12516:12549   */\n      tag_75\n      jump\t// in\n    tag_192:\n        /* \"#utility.yul\":12502:12549   */\n      swap1\n      pop\n        /* \"#utility.yul\":12597:12606   */\n      dup3\n        /* \"#utility.yul\":12589:12595   */\n      dup2\n        /* \"#utility.yul\":12585:12607   */\n      sub\n        /* \"#utility.yul\":12580:12582   */\n      0x40\n        /* \"#utility.yul\":12569:12578   */\n      dup5\n        /* \"#utility.yul\":12565:12583   */\n      add\n        /* \"#utility.yul\":12558:12608   */\n      mstore\n        /* \"#utility.yul\":12631:12664   */\n      tag_193\n        /* \"#utility.yul\":12657:12663   */\n      dup2\n        /* \"#utility.yul\":12649:12655   */\n      dup12\n        /* \"#utility.yul\":12631:12664   */\n      tag_75\n      jump\t// in\n    tag_193:\n        /* \"#utility.yul\":12617:12664   */\n      swap1\n      pop\n        /* \"#utility.yul\":12712:12721   */\n      dup3\n        /* \"#utility.yul\":12704:12710   */\n      dup2\n        /* \"#utility.yul\":12700:12722   */\n      sub\n        /* \"#utility.yul\":12695:12697   */\n      0x60\n        /* \"#utility.yul\":12684:12693   */\n      dup5\n        /* \"#utility.yul\":12680:12698   */\n      add\n        /* \"#utility.yul\":12673:12723   */\n      mstore\n        /* \"#utility.yul\":12746:12779   */\n      tag_194\n        /* \"#utility.yul\":12772:12778   */\n      dup2\n        /* \"#utility.yul\":12764:12770   */\n      dup11\n        /* \"#utility.yul\":12746:12779   */\n      tag_75\n      jump\t// in\n    tag_194:\n        /* \"#utility.yul\":12732:12779   */\n      swap1\n      pop\n        /* \"#utility.yul\":12828:12837   */\n      dup3\n        /* \"#utility.yul\":12820:12826   */\n      dup2\n        /* \"#utility.yul\":12816:12838   */\n      sub\n        /* \"#utility.yul\":12810:12813   */\n      0x80\n        /* \"#utility.yul\":12799:12808   */\n      dup5\n        /* \"#utility.yul\":12795:12814   */\n      add\n        /* \"#utility.yul\":12788:12839   */\n      mstore\n        /* \"#utility.yul\":12862:12895   */\n      tag_195\n        /* \"#utility.yul\":12888:12894   */\n      dup2\n        /* \"#utility.yul\":12880:12886   */\n      dup10\n        /* \"#utility.yul\":12862:12895   */\n      tag_75\n      jump\t// in\n    tag_195:\n        /* \"#utility.yul\":12848:12895   */\n      swap1\n      pop\n        /* \"#utility.yul\":12944:12953   */\n      dup3\n        /* \"#utility.yul\":12936:12942   */\n      dup2\n        /* \"#utility.yul\":12932:12954   */\n      sub\n        /* \"#utility.yul\":12926:12929   */\n      0xa0\n        /* \"#utility.yul\":12915:12924   */\n      dup5\n        /* \"#utility.yul\":12911:12930   */\n      add\n        /* \"#utility.yul\":12904:12955   */\n      mstore\n        /* \"#utility.yul\":12978:13011   */\n      tag_196\n        /* \"#utility.yul\":13004:13010   */\n      dup2\n        /* \"#utility.yul\":12996:13002   */\n      dup9\n        /* \"#utility.yul\":12978:13011   */\n      tag_75\n      jump\t// in\n    tag_196:\n        /* \"#utility.yul\":12964:13011   */\n      swap1\n      pop\n        /* \"#utility.yul\":13060:13069   */\n      dup3\n        /* \"#utility.yul\":13052:13058   */\n      dup2\n        /* \"#utility.yul\":13048:13070   */\n      sub\n        /* \"#utility.yul\":13042:13045   */\n      0xc0\n        /* \"#utility.yul\":13031:13040   */\n      dup5\n        /* \"#utility.yul\":13027:13046   */\n      add\n        /* \"#utility.yul\":13020:13071   */\n      mstore\n        /* \"#utility.yul\":13094:13127   */\n      tag_197\n        /* \"#utility.yul\":13120:13126   */\n      dup2\n        /* \"#utility.yul\":13112:13118   */\n      dup8\n        /* \"#utility.yul\":13094:13127   */\n      tag_75\n      jump\t// in\n    tag_197:\n        /* \"#utility.yul\":13080:13127   */\n      swap1\n      pop\n        /* \"#utility.yul\":13176:13185   */\n      dup3\n        /* \"#utility.yul\":13168:13174   */\n      dup2\n        /* \"#utility.yul\":13164:13186   */\n      sub\n        /* \"#utility.yul\":13158:13161   */\n      0xe0\n        /* \"#utility.yul\":13147:13156   */\n      dup5\n        /* \"#utility.yul\":13143:13162   */\n      add\n        /* \"#utility.yul\":13136:13187   */\n      mstore\n        /* \"#utility.yul\":13210:13243   */\n      tag_198\n        /* \"#utility.yul\":13236:13242   */\n      dup2\n        /* \"#utility.yul\":13228:13234   */\n      dup7\n        /* \"#utility.yul\":13210:13243   */\n      tag_75\n      jump\t// in\n    tag_198:\n        /* \"#utility.yul\":13196:13243   */\n      swap1\n      pop\n        /* \"#utility.yul\":13292:13301   */\n      dup3\n        /* \"#utility.yul\":13284:13290   */\n      dup2\n        /* \"#utility.yul\":13280:13302   */\n      sub\n        /* \"#utility.yul\":13274:13277   */\n      0x0100\n        /* \"#utility.yul\":13263:13272   */\n      dup5\n        /* \"#utility.yul\":13259:13278   */\n      add\n        /* \"#utility.yul\":13252:13303   */\n      mstore\n        /* \"#utility.yul\":13320:13353   */\n      tag_199\n        /* \"#utility.yul\":13346:13352   */\n      dup2\n        /* \"#utility.yul\":13338:13344   */\n      dup6\n        /* \"#utility.yul\":13320:13353   */\n      tag_75\n      jump\t// in\n    tag_199:\n        /* \"#utility.yul\":13312:13353   */\n      swap13\n        /* \"#utility.yul\":11828:13359   */\n      swap12\n      pop\n      pop\n      pop\n      pop\n      pop\n      pop\n      pop\n      pop\n      pop\n      pop\n      pop\n      pop\n      jump\t// out\n\n    auxdata: 0xa264697066735822122011f9c6d34113b80e1243186b926f21e66320dd5eea807126f63b78fe4ffb915c64736f6c634300081a0033\n}\n",
				"bytecode": {
					"linkReferences": {},
					"object": "608060405234801561001057600080fd5b50604051610d36380380610d3683398101604081905261002f916100a8565b60008054336001600160a01b0319918216179091556001805482166001600160a01b0396871617905560028054821694861694909417909355600380548416928516929092179091556004805490921692169190911790556100fc565b80516001600160a01b03811681146100a357600080fd5b919050565b600080600080608085870312156100be57600080fd5b6100c78561008c565b93506100d56020860161008c565b92506100e36040860161008c565b91506100f16060860161008c565b905092959194509250565b610c2b8061010b6000396000f3fe608060405234801561001057600080fd5b50600436106100625760003560e01c80630d7c3ea01461006757806312ad1c371461007c5780632d8e32781461009a5780635a2310a0146100bd578063b13d5d94146100e1578063f9c2caa5146100e9575b600080fd5b61007a61007536600461047a565b6100fc565b005b610084610173565b60405161009191906105b6565b60405180910390f35b6100ad6100a836600461061a565b6101ea565b6040519015158152602001610091565b6100d06100cb36600461061a565b610261565b60405161009195949392919061068e565b6100846102f0565b61007a6100f73660046106fb565b61033a565b600154604051638b945c6d60e01b81526001600160a01b0390911690638b945c6d90610138908a908a908a908a908a908a908a9060040161088d565b600060405180830381600087803b15801561015257600080fd5b505af1158015610166573d6000803e3d6000fd5b5050505050505050505050565b600254604080516312ad1c3760e01b815290516060926001600160a01b0316916312ad1c379160048083019260009291908290030181865afa1580156101bd573d6000803e3d6000fd5b505050506040513d6000823e601f3d908101601f191682016040526101e59190810190610924565b905090565b6003546040516305b1c64f60e31b81526001600160a01b0383811660048301526000921690632d8e3278906024016020604051808303816000875af1158015610237573d6000803e3d6000fd5b505050506040513d601f19601f8201168201806040525081019061025b91906109db565b92915050565b600480546040516277930560e71b81526001600160a01b038481169382019390935260609283928392839283921690633bc9828090602401600060405180830381865afa1580156102b6573d6000803e3d6000fd5b505050506040513d6000823e601f3d908101601f191682016040526102de9190810190610a4a565b939a9299509097509550909350915050565b60015460408051632c4f576560e21b815290516060926001600160a01b03169163b13d5d949160048083019260009291908290030181865afa1580156101bd573d6000803e3d6000fd5b6002546040516323a2ba5b60e01b81526001600160a01b03909116906323a2ba5b9061037a908c908c908c908c908c908c908c908c908c90600401610b31565b600060405180830381600087803b15801561039457600080fd5b505af11580156103a8573d6000803e3d6000fd5b50505050505050505050505050565b634e487b7160e01b600052604160045260246000fd5b604051601f8201601f191681016001600160401b03811182821017156103f5576103f56103b7565b604052919050565b60006001600160401b03821115610416576104166103b7565b50601f01601f191660200190565b600082601f83011261043557600080fd5b8135610448610443826103fd565b6103cd565b81815284602083860101111561045d57600080fd5b816020850160208301376000918101602001919091529392505050565b600080600080600080600060e0888a03121561049557600080fd5b87356001600160401b038111156104ab57600080fd5b6104b78a828b01610424565b97505060208801356001600160401b038111156104d357600080fd5b6104df8a828b01610424565b96505060408801356001600160401b038111156104fb57600080fd5b6105078a828b01610424565b95505060608801356001600160401b0381111561052357600080fd5b61052f8a828b01610424565b94505060808801356001600160401b0381111561054b57600080fd5b6105578a828b01610424565b93505060a08801356001600160401b0381111561057357600080fd5b61057f8a828b01610424565b92505060c08801356001600160401b0381111561059b57600080fd5b6105a78a828b01610424565b91505092959891949750929550565b602080825282518282018190526000918401906040840190835b818110156105f75783516001600160a01b03168352602093840193909201916001016105d0565b509095945050505050565b6001600160a01b038116811461061757600080fd5b50565b60006020828403121561062c57600080fd5b813561063781610602565b9392505050565b60005b83811015610659578181015183820152602001610641565b50506000910152565b6000815180845261067a81602086016020860161063e565b601f01601f19169290920160200192915050565b60a0815260006106a160a0830188610662565b82810360208401526106b38188610662565b905082810360408401526106c78187610662565b905082810360608401526106db8186610662565b905082810360808401526106ef8185610662565b98975050505050505050565b60008060008060008060008060006101208a8c03121561071a57600080fd5b89356001600160401b0381111561073057600080fd5b61073c8c828d01610424565b99505060208a01356001600160401b0381111561075857600080fd5b6107648c828d01610424565b98505060408a01356001600160401b0381111561078057600080fd5b61078c8c828d01610424565b97505060608a01356001600160401b038111156107a857600080fd5b6107b48c828d01610424565b96505060808a01356001600160401b038111156107d057600080fd5b6107dc8c828d01610424565b95505060a08a01356001600160401b038111156107f857600080fd5b6108048c828d01610424565b94505060c08a01356001600160401b0381111561082057600080fd5b61082c8c828d01610424565b93505060e08a01356001600160401b0381111561084857600080fd5b6108548c828d01610424565b9250506101008a01356001600160401b0381111561087157600080fd5b61087d8c828d01610424565b9150509295985092959850929598565b60e0815260006108a060e083018a610662565b82810360208401526108b2818a610662565b905082810360408401526108c68189610662565b905082810360608401526108da8188610662565b905082810360808401526108ee8187610662565b905082810360a08401526109028186610662565b905082810360c08401526109168185610662565b9a9950505050505050505050565b60006020828403121561093657600080fd5b81516001600160401b0381111561094c57600080fd5b8201601f8101841361095d57600080fd5b80516001600160401b03811115610976576109766103b7565b8060051b610986602082016103cd565b918252602081840181019290810190878411156109a257600080fd5b6020850194505b838510156109d057845192506109be83610602565b828252602094850194909101906109a9565b979650505050505050565b6000602082840312156109ed57600080fd5b8151801515811461063757600080fd5b600082601f830112610a0e57600080fd5b8151610a1c610443826103fd565b818152846020838601011115610a3157600080fd5b610a4282602083016020870161063e565b949350505050565b600080600080600060a08688031215610a6257600080fd5b85516001600160401b03811115610a7857600080fd5b610a84888289016109fd565b95505060208601516001600160401b03811115610aa057600080fd5b610aac888289016109fd565b94505060408601516001600160401b03811115610ac857600080fd5b610ad4888289016109fd565b93505060608601516001600160401b03811115610af057600080fd5b610afc888289016109fd565b92505060808601516001600160401b03811115610b1857600080fd5b610b24888289016109fd565b9150509295509295909350565b61012081526000610b4661012083018c610662565b8281036020840152610b58818c610662565b90508281036040840152610b6c818b610662565b90508281036060840152610b80818a610662565b90508281036080840152610b948189610662565b905082810360a0840152610ba88188610662565b905082810360c0840152610bbc8187610662565b905082810360e0840152610bd08186610662565b9050828103610100840152610be58185610662565b9c9b50505050505050505050505056fea264697066735822122011f9c6d34113b80e1243186b926f21e66320dd5eea807126f63b78fe4ffb915c64736f6c634300081a0033",
					"opcodes": "PUSH1 0x80 PUSH1 0x40 MSTORE CALLVALUE DUP1 ISZERO PUSH2 0x10 JUMPI PUSH1 0x0 DUP1 REVERT JUMPDEST POP PUSH1 0x40 MLOAD PUSH2 0xD36 CODESIZE SUB DUP1 PUSH2 0xD36 DUP4 CODECOPY DUP2 ADD PUSH1 0x40 DUP2 SWAP1 MSTORE PUSH2 0x2F SWAP2 PUSH2 0xA8 JUMP JUMPDEST PUSH1 0x0 DUP1 SLOAD CALLER PUSH1 0x1 PUSH1 0x1 PUSH1 0xA0 SHL SUB NOT SWAP2 DUP3 AND OR SWAP1 SWAP2 SSTORE PUSH1 0x1 DUP1 SLOAD DUP3 AND PUSH1 0x1 PUSH1 0x1 PUSH1 0xA0 SHL SUB SWAP7 DUP8 AND OR SWAP1 SSTORE PUSH1 0x2 DUP1 SLOAD DUP3 AND SWAP5 DUP7 AND SWAP5 SWAP1 SWAP5 OR SWAP1 SWAP4 SSTORE PUSH1 0x3 DUP1 SLOAD DUP5 AND SWAP3 DUP6 AND SWAP3 SWAP1 SWAP3 OR SWAP1 SWAP2 SSTORE PUSH1 0x4 DUP1 SLOAD SWAP1 SWAP3 AND SWAP3 AND SWAP2 SWAP1 SWAP2 OR SWAP1 SSTORE PUSH2 0xFC JUMP JUMPDEST DUP1 MLOAD PUSH1 0x1 PUSH1 0x1 PUSH1 0xA0 SHL SUB DUP2 AND DUP2 EQ PUSH2 0xA3 JUMPI PUSH1 0x0 DUP1 REVERT JUMPDEST SWAP2 SWAP1 POP JUMP JUMPDEST PUSH1 0x0 DUP1 PUSH1 0x0 DUP1 PUSH1 0x80 DUP6 DUP8 SUB SLT ISZERO PUSH2 0xBE JUMPI PUSH1 0x0 DUP1 REVERT JUMPDEST PUSH2 0xC7 DUP6 PUSH2 0x8C JUMP JUMPDEST SWAP4 POP PUSH2 0xD5 PUSH1 0x20 DUP7 ADD PUSH2 0x8C JUMP JUMPDEST SWAP3 POP PUSH2 0xE3 PUSH1 0x40 DUP7 ADD PUSH2 0x8C JUMP JUMPDEST SWAP2 POP PUSH2 0xF1 PUSH1 0x60 DUP7 ADD PUSH2 0x8C JUMP JUMPDEST SWAP1 POP SWAP3 SWAP6 SWAP2 SWAP5 POP SWAP3 POP JUMP JUMPDEST PUSH2 0xC2B DUP1 PUSH2 0x10B PUSH1 0x0 CODECOPY PUSH1 0x0 RETURN INVALID PUSH1 0x80 PUSH1 0x40 MSTORE CALLVALUE DUP1 ISZERO PUSH2 0x10 JUMPI PUSH1 0x0 DUP1 REVERT JUMPDEST POP PUSH1 0x4 CALLDATASIZE LT PUSH2 0x62 JUMPI PUSH1 0x0 CALLDATALOAD PUSH1 0xE0 SHR DUP1 PUSH4 0xD7C3EA0 EQ PUSH2 0x67 JUMPI DUP1 PUSH4 0x12AD1C37 EQ PUSH2 0x7C JUMPI DUP1 PUSH4 0x2D8E3278 EQ PUSH2 0x9A JUMPI DUP1 PUSH4 0x5A2310A0 EQ PUSH2 0xBD JUMPI DUP1 PUSH4 0xB13D5D94 EQ PUSH2 0xE1 JUMPI DUP1 PUSH4 0xF9C2CAA5 EQ PUSH2 0xE9 JUMPI JUMPDEST PUSH1 0x0 DUP1 REVERT JUMPDEST PUSH2 0x7A PUSH2 0x75 CALLDATASIZE PUSH1 0x4 PUSH2 0x47A JUMP JUMPDEST PUSH2 0xFC JUMP JUMPDEST STOP JUMPDEST PUSH2 0x84 PUSH2 0x173 JUMP JUMPDEST PUSH1 0x40 MLOAD PUSH2 0x91 SWAP2 SWAP1 PUSH2 0x5B6 JUMP JUMPDEST PUSH1 0x40 MLOAD DUP1 SWAP2 SUB SWAP1 RETURN JUMPDEST PUSH2 0xAD PUSH2 0xA8 CALLDATASIZE PUSH1 0x4 PUSH2 0x61A JUMP JUMPDEST PUSH2 0x1EA JUMP JUMPDEST PUSH1 0x40 MLOAD SWAP1 ISZERO ISZERO DUP2 MSTORE PUSH1 0x20 ADD PUSH2 0x91 JUMP JUMPDEST PUSH2 0xD0 PUSH2 0xCB CALLDATASIZE PUSH1 0x4 PUSH2 0x61A JUMP JUMPDEST PUSH2 0x261 JUMP JUMPDEST PUSH1 0x40 MLOAD PUSH2 0x91 SWAP6 SWAP5 SWAP4 SWAP3 SWAP2 SWAP1 PUSH2 0x68E JUMP JUMPDEST PUSH2 0x84 PUSH2 0x2F0 JUMP JUMPDEST PUSH2 0x7A PUSH2 0xF7 CALLDATASIZE PUSH1 0x4 PUSH2 0x6FB JUMP JUMPDEST PUSH2 0x33A JUMP JUMPDEST PUSH1 0x1 SLOAD PUSH1 0x40 MLOAD PUSH4 0x8B945C6D PUSH1 0xE0 SHL DUP2 MSTORE PUSH1 0x1 PUSH1 0x1 PUSH1 0xA0 SHL SUB SWAP1 SWAP2 AND SWAP1 PUSH4 0x8B945C6D SWAP1 PUSH2 0x138 SWAP1 DUP11 SWAP1 DUP11 SWAP1 DUP11 SWAP1 DUP11 SWAP1 DUP11 SWAP1 DUP11 SWAP1 DUP11 SWAP1 PUSH1 0x4 ADD PUSH2 0x88D JUMP JUMPDEST PUSH1 0x0 PUSH1 0x40 MLOAD DUP1 DUP4 SUB DUP2 PUSH1 0x0 DUP8 DUP1 EXTCODESIZE ISZERO DUP1 ISZERO PUSH2 0x152 JUMPI PUSH1 0x0 DUP1 REVERT JUMPDEST POP GAS CALL ISZERO DUP1 ISZERO PUSH2 0x166 JUMPI RETURNDATASIZE PUSH1 0x0 DUP1 RETURNDATACOPY RETURNDATASIZE PUSH1 0x0 REVERT JUMPDEST POP POP POP POP POP POP POP POP POP POP POP JUMP JUMPDEST PUSH1 0x2 SLOAD PUSH1 0x40 DUP1 MLOAD PUSH4 0x12AD1C37 PUSH1 0xE0 SHL DUP2 MSTORE SWAP1 MLOAD PUSH1 0x60 SWAP3 PUSH1 0x1 PUSH1 0x1 PUSH1 0xA0 SHL SUB AND SWAP2 PUSH4 0x12AD1C37 SWAP2 PUSH1 0x4 DUP1 DUP4 ADD SWAP3 PUSH1 0x0 SWAP3 SWAP2 SWAP1 DUP3 SWAP1 SUB ADD DUP2 DUP7 GAS STATICCALL ISZERO DUP1 ISZERO PUSH2 0x1BD JUMPI RETURNDATASIZE PUSH1 0x0 DUP1 RETURNDATACOPY RETURNDATASIZE PUSH1 0x0 REVERT JUMPDEST POP POP POP POP PUSH1 0x40 MLOAD RETURNDATASIZE PUSH1 0x0 DUP3 RETURNDATACOPY PUSH1 0x1F RETURNDATASIZE SWAP1 DUP2 ADD PUSH1 0x1F NOT AND DUP3 ADD PUSH1 0x40 MSTORE PUSH2 0x1E5 SWAP2 SWAP1 DUP2 ADD SWAP1 PUSH2 0x924 JUMP JUMPDEST SWAP1 POP SWAP1 JUMP JUMPDEST PUSH1 0x3 SLOAD PUSH1 0x40 MLOAD PUSH4 0x5B1C64F PUSH1 0xE3 SHL DUP2 MSTORE PUSH1 0x1 PUSH1 0x1 PUSH1 0xA0 SHL SUB DUP4 DUP2 AND PUSH1 0x4 DUP4 ADD MSTORE PUSH1 0x0 SWAP3 AND SWAP1 PUSH4 0x2D8E3278 SWAP1 PUSH1 0x24 ADD PUSH1 0x20 PUSH1 0x40 MLOAD DUP1 DUP4 SUB DUP2 PUSH1 0x0 DUP8 GAS CALL ISZERO DUP1 ISZERO PUSH2 0x237 JUMPI RETURNDATASIZE PUSH1 0x0 DUP1 RETURNDATACOPY RETURNDATASIZE PUSH1 0x0 REVERT JUMPDEST POP POP POP POP PUSH1 0x40 MLOAD RETURNDATASIZE PUSH1 0x1F NOT PUSH1 0x1F DUP3 ADD AND DUP3 ADD DUP1 PUSH1 0x40 MSTORE POP DUP2 ADD SWAP1 PUSH2 0x25B SWAP2 SWAP1 PUSH2 0x9DB JUMP JUMPDEST SWAP3 SWAP2 POP POP JUMP JUMPDEST PUSH1 0x4 DUP1 SLOAD PUSH1 0x40 MLOAD PUSH3 0x779305 PUSH1 0xE7 SHL DUP2 MSTORE PUSH1 0x1 PUSH1 0x1 PUSH1 0xA0 SHL SUB DUP5 DUP2 AND SWAP4 DUP3 ADD SWAP4 SWAP1 SWAP4 MSTORE PUSH1 0x60 SWAP3 DUP4 SWAP3 DUP4 SWAP3 DUP4 SWAP3 DUP4 SWAP3 AND SWAP1 PUSH4 0x3BC98280 SWAP1 PUSH1 0x24 ADD PUSH1 0x0 PUSH1 0x40 MLOAD DUP1 DUP4 SUB DUP2 DUP7 GAS STATICCALL ISZERO DUP1 ISZERO PUSH2 0x2B6 JUMPI RETURNDATASIZE PUSH1 0x0 DUP1 RETURNDATACOPY RETURNDATASIZE PUSH1 0x0 REVERT JUMPDEST POP POP POP POP PUSH1 0x40 MLOAD RETURNDATASIZE PUSH1 0x0 DUP3 RETURNDATACOPY PUSH1 0x1F RETURNDATASIZE SWAP1 DUP2 ADD PUSH1 0x1F NOT AND DUP3 ADD PUSH1 0x40 MSTORE PUSH2 0x2DE SWAP2 SWAP1 DUP2 ADD SWAP1 PUSH2 0xA4A JUMP JUMPDEST SWAP4 SWAP11 SWAP3 SWAP10 POP SWAP1 SWAP8 POP SWAP6 POP SWAP1 SWAP4 POP SWAP2 POP POP JUMP JUMPDEST PUSH1 0x1 SLOAD PUSH1 0x40 DUP1 MLOAD PUSH4 0x2C4F5765 PUSH1 0xE2 SHL DUP2 MSTORE SWAP1 MLOAD PUSH1 0x60 SWAP3 PUSH1 0x1 PUSH1 0x1 PUSH1 0xA0 SHL SUB AND SWAP2 PUSH4 0xB13D5D94 SWAP2 PUSH1 0x4 DUP1 DUP4 ADD SWAP3 PUSH1 0x0 SWAP3 SWAP2 SWAP1 DUP3 SWAP1 SUB ADD DUP2 DUP7 GAS STATICCALL ISZERO DUP1 ISZERO PUSH2 0x1BD JUMPI RETURNDATASIZE PUSH1 0x0 DUP1 RETURNDATACOPY RETURNDATASIZE PUSH1 0x0 REVERT JUMPDEST PUSH1 0x2 SLOAD PUSH1 0x40 MLOAD PUSH4 0x23A2BA5B PUSH1 0xE0 SHL DUP2 MSTORE PUSH1 0x1 PUSH1 0x1 PUSH1 0xA0 SHL SUB SWAP1 SWAP2 AND SWAP1 PUSH4 0x23A2BA5B SWAP1 PUSH2 0x37A SWAP1 DUP13 SWAP1 DUP13 SWAP1 DUP13 SWAP1 DUP13 SWAP1 DUP13 SWAP1 DUP13 SWAP1 DUP13 SWAP1 DUP13 SWAP1 DUP13 SWAP1 PUSH1 0x4 ADD PUSH2 0xB31 JUMP JUMPDEST PUSH1 0x0 PUSH1 0x40 MLOAD DUP1 DUP4 SUB DUP2 PUSH1 0x0 DUP8 DUP1 EXTCODESIZE ISZERO DUP1 ISZERO PUSH2 0x394 JUMPI PUSH1 0x0 DUP1 REVERT JUMPDEST POP GAS CALL ISZERO DUP1 ISZERO PUSH2 0x3A8 JUMPI RETURNDATASIZE PUSH1 0x0 DUP1 RETURNDATACOPY RETURNDATASIZE PUSH1 0x0 REVERT JUMPDEST POP POP POP POP POP POP POP POP POP POP POP POP POP JUMP JUMPDEST PUSH4 0x4E487B71 PUSH1 0xE0 SHL PUSH1 0x0 MSTORE PUSH1 0x41 PUSH1 0x4 MSTORE PUSH1 0x24 PUSH1 0x0 REVERT JUMPDEST PUSH1 0x40 MLOAD PUSH1 0x1F DUP3 ADD PUSH1 0x1F NOT AND DUP2 ADD PUSH1 0x1 PUSH1 0x1 PUSH1 0x40 SHL SUB DUP2 GT DUP3 DUP3 LT OR ISZERO PUSH2 0x3F5 JUMPI PUSH2 0x3F5 PUSH2 0x3B7 JUMP JUMPDEST PUSH1 0x40 MSTORE SWAP2 SWAP1 POP JUMP JUMPDEST PUSH1 0x0 PUSH1 0x1 PUSH1 0x1 PUSH1 0x40 SHL SUB DUP3 GT ISZERO PUSH2 0x416 JUMPI PUSH2 0x416 PUSH2 0x3B7 JUMP JUMPDEST POP PUSH1 0x1F ADD PUSH1 0x1F NOT AND PUSH1 0x20 ADD SWAP1 JUMP JUMPDEST PUSH1 0x0 DUP3 PUSH1 0x1F DUP4 ADD SLT PUSH2 0x435 JUMPI PUSH1 0x0 DUP1 REVERT JUMPDEST DUP2 CALLDATALOAD PUSH2 0x448 PUSH2 0x443 DUP3 PUSH2 0x3FD JUMP JUMPDEST PUSH2 0x3CD JUMP JUMPDEST DUP2 DUP2 MSTORE DUP5 PUSH1 0x20 DUP4 DUP7 ADD ADD GT ISZERO PUSH2 0x45D JUMPI PUSH1 0x0 DUP1 REVERT JUMPDEST DUP2 PUSH1 0x20 DUP6 ADD PUSH1 0x20 DUP4 ADD CALLDATACOPY PUSH1 0x0 SWAP2 DUP2 ADD PUSH1 0x20 ADD SWAP2 SWAP1 SWAP2 MSTORE SWAP4 SWAP3 POP POP POP JUMP JUMPDEST PUSH1 0x0 DUP1 PUSH1 0x0 DUP1 PUSH1 0x0 DUP1 PUSH1 0x0 PUSH1 0xE0 DUP9 DUP11 SUB SLT ISZERO PUSH2 0x495 JUMPI PUSH1 0x0 DUP1 REVERT JUMPDEST DUP8 CALLDATALOAD PUSH1 0x1 PUSH1 0x1 PUSH1 0x40 SHL SUB DUP2 GT ISZERO PUSH2 0x4AB JUMPI PUSH1 0x0 DUP1 REVERT JUMPDEST PUSH2 0x4B7 DUP11 DUP3 DUP12 ADD PUSH2 0x424 JUMP JUMPDEST SWAP8 POP POP PUSH1 0x20 DUP9 ADD CALLDATALOAD PUSH1 0x1 PUSH1 0x1 PUSH1 0x40 SHL SUB DUP2 GT ISZERO PUSH2 0x4D3 JUMPI PUSH1 0x0 DUP1 REVERT JUMPDEST PUSH2 0x4DF DUP11 DUP3 DUP12 ADD PUSH2 0x424 JUMP JUMPDEST SWAP7 POP POP PUSH1 0x40 DUP9 ADD CALLDATALOAD PUSH1 0x1 PUSH1 0x1 PUSH1 0x40 SHL SUB DUP2 GT ISZERO PUSH2 0x4FB JUMPI PUSH1 0x0 DUP1 REVERT JUMPDEST PUSH2 0x507 DUP11 DUP3 DUP12 ADD PUSH2 0x424 JUMP JUMPDEST SWAP6 POP POP PUSH1 0x60 DUP9 ADD CALLDATALOAD PUSH1 0x1 PUSH1 0x1 PUSH1 0x40 SHL SUB DUP2 GT ISZERO PUSH2 0x523 JUMPI PUSH1 0x0 DUP1 REVERT JUMPDEST PUSH2 0x52F DUP11 DUP3 DUP12 ADD PUSH2 0x424 JUMP JUMPDEST SWAP5 POP POP PUSH1 0x80 DUP9 ADD CALLDATALOAD PUSH1 0x1 PUSH1 0x1 PUSH1 0x40 SHL SUB DUP2 GT ISZERO PUSH2 0x54B JUMPI PUSH1 0x0 DUP1 REVERT JUMPDEST PUSH2 0x557 DUP11 DUP3 DUP12 ADD PUSH2 0x424 JUMP JUMPDEST SWAP4 POP POP PUSH1 0xA0 DUP9 ADD CALLDATALOAD PUSH1 0x1 PUSH1 0x1 PUSH1 0x40 SHL SUB DUP2 GT ISZERO PUSH2 0x573 JUMPI PUSH1 0x0 DUP1 REVERT JUMPDEST PUSH2 0x57F DUP11 DUP3 DUP12 ADD PUSH2 0x424 JUMP JUMPDEST SWAP3 POP POP PUSH1 0xC0 DUP9 ADD CALLDATALOAD PUSH1 0x1 PUSH1 0x1 PUSH1 0x40 SHL SUB DUP2 GT ISZERO PUSH2 0x59B JUMPI PUSH1 0x0 DUP1 REVERT JUMPDEST PUSH2 0x5A7 DUP11 DUP3 DUP12 ADD PUSH2 0x424 JUMP JUMPDEST SWAP2 POP POP SWAP3 SWAP6 SWAP9 SWAP2 SWAP5 SWAP8 POP SWAP3 SWAP6 POP JUMP JUMPDEST PUSH1 0x20 DUP1 DUP3 MSTORE DUP3 MLOAD DUP3 DUP3 ADD DUP2 SWAP1 MSTORE PUSH1 0x0 SWAP2 DUP5 ADD SWAP1 PUSH1 0x40 DUP5 ADD SWAP1 DUP4 JUMPDEST DUP2 DUP2 LT ISZERO PUSH2 0x5F7 JUMPI DUP4 MLOAD PUSH1 0x1 PUSH1 0x1 PUSH1 0xA0 SHL SUB AND DUP4 MSTORE PUSH1 0x20 SWAP4 DUP5 ADD SWAP4 SWAP1 SWAP3 ADD SWAP2 PUSH1 0x1 ADD PUSH2 0x5D0 JUMP JUMPDEST POP SWAP1 SWAP6 SWAP5 POP POP POP POP POP JUMP JUMPDEST PUSH1 0x1 PUSH1 0x1 PUSH1 0xA0 SHL SUB DUP2 AND DUP2 EQ PUSH2 0x617 JUMPI PUSH1 0x0 DUP1 REVERT JUMPDEST POP JUMP JUMPDEST PUSH1 0x0 PUSH1 0x20 DUP3 DUP5 SUB SLT ISZERO PUSH2 0x62C JUMPI PUSH1 0x0 DUP1 REVERT JUMPDEST DUP2 CALLDATALOAD PUSH2 0x637 DUP2 PUSH2 0x602 JUMP JUMPDEST SWAP4 SWAP3 POP POP POP JUMP JUMPDEST PUSH1 0x0 JUMPDEST DUP4 DUP2 LT ISZERO PUSH2 0x659 JUMPI DUP2 DUP2 ADD MLOAD DUP4 DUP3 ADD MSTORE PUSH1 0x20 ADD PUSH2 0x641 JUMP JUMPDEST POP POP PUSH1 0x0 SWAP2 ADD MSTORE JUMP JUMPDEST PUSH1 0x0 DUP2 MLOAD DUP1 DUP5 MSTORE PUSH2 0x67A DUP2 PUSH1 0x20 DUP7 ADD PUSH1 0x20 DUP7 ADD PUSH2 0x63E JUMP JUMPDEST PUSH1 0x1F ADD PUSH1 0x1F NOT AND SWAP3 SWAP1 SWAP3 ADD PUSH1 0x20 ADD SWAP3 SWAP2 POP POP JUMP JUMPDEST PUSH1 0xA0 DUP2 MSTORE PUSH1 0x0 PUSH2 0x6A1 PUSH1 0xA0 DUP4 ADD DUP9 PUSH2 0x662 JUMP JUMPDEST DUP3 DUP2 SUB PUSH1 0x20 DUP5 ADD MSTORE PUSH2 0x6B3 DUP2 DUP9 PUSH2 0x662 JUMP JUMPDEST SWAP1 POP DUP3 DUP2 SUB PUSH1 0x40 DUP5 ADD MSTORE PUSH2 0x6C7 DUP2 DUP8 PUSH2 0x662 JUMP JUMPDEST SWAP1 POP DUP3 DUP2 SUB PUSH1 0x60 DUP5 ADD MSTORE PUSH2 0x6DB DUP2 DUP7 PUSH2 0x662 JUMP JUMPDEST SWAP1 POP DUP3 DUP2 SUB PUSH1 0x80 DUP5 ADD MSTORE PUSH2 0x6EF DUP2 DUP6 PUSH2 0x662 JUMP JUMPDEST SWAP9 SWAP8 POP POP POP POP POP POP POP POP JUMP JUMPDEST PUSH1 0x0 DUP1 PUSH1 0x0 DUP1 PUSH1 0x0 DUP1 PUSH1 0x0 DUP1 PUSH1 0x0 PUSH2 0x120 DUP11 DUP13 SUB SLT ISZERO PUSH2 0x71A JUMPI PUSH1 0x0 DUP1 REVERT JUMPDEST DUP10 CALLDATALOAD PUSH1 0x1 PUSH1 0x1 PUSH1 0x40 SHL SUB DUP2 GT ISZERO PUSH2 0x730 JUMPI PUSH1 0x0 DUP1 REVERT JUMPDEST PUSH2 0x73C DUP13 DUP3 DUP14 ADD PUSH2 0x424 JUMP JUMPDEST SWAP10 POP POP PUSH1 0x20 DUP11 ADD CALLDATALOAD PUSH1 0x1 PUSH1 0x1 PUSH1 0x40 SHL SUB DUP2 GT ISZERO PUSH2 0x758 JUMPI PUSH1 0x0 DUP1 REVERT JUMPDEST PUSH2 0x764 DUP13 DUP3 DUP14 ADD PUSH2 0x424 JUMP JUMPDEST SWAP9 POP POP PUSH1 0x40 DUP11 ADD CALLDATALOAD PUSH1 0x1 PUSH1 0x1 PUSH1 0x40 SHL SUB DUP2 GT ISZERO PUSH2 0x780 JUMPI PUSH1 0x0 DUP1 REVERT JUMPDEST PUSH2 0x78C DUP13 DUP3 DUP14 ADD PUSH2 0x424 JUMP JUMPDEST SWAP8 POP POP PUSH1 0x60 DUP11 ADD CALLDATALOAD PUSH1 0x1 PUSH1 0x1 PUSH1 0x40 SHL SUB DUP2 GT ISZERO PUSH2 0x7A8 JUMPI PUSH1 0x0 DUP1 REVERT JUMPDEST PUSH2 0x7B4 DUP13 DUP3 DUP14 ADD PUSH2 0x424 JUMP JUMPDEST SWAP7 POP POP PUSH1 0x80 DUP11 ADD CALLDATALOAD PUSH1 0x1 PUSH1 0x1 PUSH1 0x40 SHL SUB DUP2 GT ISZERO PUSH2 0x7D0 JUMPI PUSH1 0x0 DUP1 REVERT JUMPDEST PUSH2 0x7DC DUP13 DUP3 DUP14 ADD PUSH2 0x424 JUMP JUMPDEST SWAP6 POP POP PUSH1 0xA0 DUP11 ADD CALLDATALOAD PUSH1 0x1 PUSH1 0x1 PUSH1 0x40 SHL SUB DUP2 GT ISZERO PUSH2 0x7F8 JUMPI PUSH1 0x0 DUP1 REVERT JUMPDEST PUSH2 0x804 DUP13 DUP3 DUP14 ADD PUSH2 0x424 JUMP JUMPDEST SWAP5 POP POP PUSH1 0xC0 DUP11 ADD CALLDATALOAD PUSH1 0x1 PUSH1 0x1 PUSH1 0x40 SHL SUB DUP2 GT ISZERO PUSH2 0x820 JUMPI PUSH1 0x0 DUP1 REVERT JUMPDEST PUSH2 0x82C DUP13 DUP3 DUP14 ADD PUSH2 0x424 JUMP JUMPDEST SWAP4 POP POP PUSH1 0xE0 DUP11 ADD CALLDATALOAD PUSH1 0x1 PUSH1 0x1 PUSH1 0x40 SHL SUB DUP2 GT ISZERO PUSH2 0x848 JUMPI PUSH1 0x0 DUP1 REVERT JUMPDEST PUSH2 0x854 DUP13 DUP3 DUP14 ADD PUSH2 0x424 JUMP JUMPDEST SWAP3 POP POP PUSH2 0x100 DUP11 ADD CALLDATALOAD PUSH1 0x1 PUSH1 0x1 PUSH1 0x40 SHL SUB DUP2 GT ISZERO PUSH2 0x871 JUMPI PUSH1 0x0 DUP1 REVERT JUMPDEST PUSH2 0x87D DUP13 DUP3 DUP14 ADD PUSH2 0x424 JUMP JUMPDEST SWAP2 POP POP SWAP3 SWAP6 SWAP9 POP SWAP3 SWAP6 SWAP9 POP SWAP3 SWAP6 SWAP9 JUMP JUMPDEST PUSH1 0xE0 DUP2 MSTORE PUSH1 0x0 PUSH2 0x8A0 PUSH1 0xE0 DUP4 ADD DUP11 PUSH2 0x662 JUMP JUMPDEST DUP3 DUP2 SUB PUSH1 0x20 DUP5 ADD MSTORE PUSH2 0x8B2 DUP2 DUP11 PUSH2 0x662 JUMP JUMPDEST SWAP1 POP DUP3 DUP2 SUB PUSH1 0x40 DUP5 ADD MSTORE PUSH2 0x8C6 DUP2 DUP10 PUSH2 0x662 JUMP JUMPDEST SWAP1 POP DUP3 DUP2 SUB PUSH1 0x60 DUP5 ADD MSTORE PUSH2 0x8DA DUP2 DUP9 PUSH2 0x662 JUMP JUMPDEST SWAP1 POP DUP3 DUP2 SUB PUSH1 0x80 DUP5 ADD MSTORE PUSH2 0x8EE DUP2 DUP8 PUSH2 0x662 JUMP JUMPDEST SWAP1 POP DUP3 DUP2 SUB PUSH1 0xA0 DUP5 ADD MSTORE PUSH2 0x902 DUP2 DUP7 PUSH2 0x662 JUMP JUMPDEST SWAP1 POP DUP3 DUP2 SUB PUSH1 0xC0 DUP5 ADD MSTORE PUSH2 0x916 DUP2 DUP6 PUSH2 0x662 JUMP JUMPDEST SWAP11 SWAP10 POP POP POP POP POP POP POP POP POP POP JUMP JUMPDEST PUSH1 0x0 PUSH1 0x20 DUP3 DUP5 SUB SLT ISZERO PUSH2 0x936 JUMPI PUSH1 0x0 DUP1 REVERT JUMPDEST DUP2 MLOAD PUSH1 0x1 PUSH1 0x1 PUSH1 0x40 SHL SUB DUP2 GT ISZERO PUSH2 0x94C JUMPI PUSH1 0x0 DUP1 REVERT JUMPDEST DUP3 ADD PUSH1 0x1F DUP2 ADD DUP5 SGT PUSH2 0x95D JUMPI PUSH1 0x0 DUP1 REVERT JUMPDEST DUP1 MLOAD PUSH1 0x1 PUSH1 0x1 PUSH1 0x40 SHL SUB DUP2 GT ISZERO PUSH2 0x976 JUMPI PUSH2 0x976 PUSH2 0x3B7 JUMP JUMPDEST DUP1 PUSH1 0x5 SHL PUSH2 0x986 PUSH1 0x20 DUP3 ADD PUSH2 0x3CD JUMP JUMPDEST SWAP2 DUP3 MSTORE PUSH1 0x20 DUP2 DUP5 ADD DUP2 ADD SWAP3 SWAP1 DUP2 ADD SWAP1 DUP8 DUP5 GT ISZERO PUSH2 0x9A2 JUMPI PUSH1 0x0 DUP1 REVERT JUMPDEST PUSH1 0x20 DUP6 ADD SWAP5 POP JUMPDEST DUP4 DUP6 LT ISZERO PUSH2 0x9D0 JUMPI DUP5 MLOAD SWAP3 POP PUSH2 0x9BE DUP4 PUSH2 0x602 JUMP JUMPDEST DUP3 DUP3 MSTORE PUSH1 0x20 SWAP5 DUP6 ADD SWAP5 SWAP1 SWAP2 ADD SWAP1 PUSH2 0x9A9 JUMP JUMPDEST SWAP8 SWAP7 POP POP POP POP POP POP POP JUMP JUMPDEST PUSH1 0x0 PUSH1 0x20 DUP3 DUP5 SUB SLT ISZERO PUSH2 0x9ED JUMPI PUSH1 0x0 DUP1 REVERT JUMPDEST DUP2 MLOAD DUP1 ISZERO ISZERO DUP2 EQ PUSH2 0x637 JUMPI PUSH1 0x0 DUP1 REVERT JUMPDEST PUSH1 0x0 DUP3 PUSH1 0x1F DUP4 ADD SLT PUSH2 0xA0E JUMPI PUSH1 0x0 DUP1 REVERT JUMPDEST DUP2 MLOAD PUSH2 0xA1C PUSH2 0x443 DUP3 PUSH2 0x3FD JUMP JUMPDEST DUP2 DUP2 MSTORE DUP5 PUSH1 0x20 DUP4 DUP7 ADD ADD GT ISZERO PUSH2 0xA31 JUMPI PUSH1 0x0 DUP1 REVERT JUMPDEST PUSH2 0xA42 DUP3 PUSH1 0x20 DUP4 ADD PUSH1 0x20 DUP8 ADD PUSH2 0x63E JUMP JUMPDEST SWAP5 SWAP4 POP POP POP POP JUMP JUMPDEST PUSH1 0x0 DUP1 PUSH1 0x0 DUP1 PUSH1 0x0 PUSH1 0xA0 DUP7 DUP9 SUB SLT ISZERO PUSH2 0xA62 JUMPI PUSH1 0x0 DUP1 REVERT JUMPDEST DUP6 MLOAD PUSH1 0x1 PUSH1 0x1 PUSH1 0x40 SHL SUB DUP2 GT ISZERO PUSH2 0xA78 JUMPI PUSH1 0x0 DUP1 REVERT JUMPDEST PUSH2 0xA84 DUP9 DUP3 DUP10 ADD PUSH2 0x9FD JUMP JUMPDEST SWAP6 POP POP PUSH1 0x20 DUP7 ADD MLOAD PUSH1 0x1 PUSH1 0x1 PUSH1 0x40 SHL SUB DUP2 GT ISZERO PUSH2 0xAA0 JUMPI PUSH1 0x0 DUP1 REVERT JUMPDEST PUSH2 0xAAC DUP9 DUP3 DUP10 ADD PUSH2 0x9FD JUMP JUMPDEST SWAP5 POP POP PUSH1 0x40 DUP7 ADD MLOAD PUSH1 0x1 PUSH1 0x1 PUSH1 0x40 SHL SUB DUP2 GT ISZERO PUSH2 0xAC8 JUMPI PUSH1 0x0 DUP1 REVERT JUMPDEST PUSH2 0xAD4 DUP9 DUP3 DUP10 ADD PUSH2 0x9FD JUMP JUMPDEST SWAP4 POP POP PUSH1 0x60 DUP7 ADD MLOAD PUSH1 0x1 PUSH1 0x1 PUSH1 0x40 SHL SUB DUP2 GT ISZERO PUSH2 0xAF0 JUMPI PUSH1 0x0 DUP1 REVERT JUMPDEST PUSH2 0xAFC DUP9 DUP3 DUP10 ADD PUSH2 0x9FD JUMP JUMPDEST SWAP3 POP POP PUSH1 0x80 DUP7 ADD MLOAD PUSH1 0x1 PUSH1 0x1 PUSH1 0x40 SHL SUB DUP2 GT ISZERO PUSH2 0xB18 JUMPI PUSH1 0x0 DUP1 REVERT JUMPDEST PUSH2 0xB24 DUP9 DUP3 DUP10 ADD PUSH2 0x9FD JUMP JUMPDEST SWAP2 POP POP SWAP3 SWAP6 POP SWAP3 SWAP6 SWAP1 SWAP4 POP JUMP JUMPDEST PUSH2 0x120 DUP2 MSTORE PUSH1 0x0 PUSH2 0xB46 PUSH2 0x120 DUP4 ADD DUP13 PUSH2 0x662 JUMP JUMPDEST DUP3 DUP2 SUB PUSH1 0x20 DUP5 ADD MSTORE PUSH2 0xB58 DUP2 DUP13 PUSH2 0x662 JUMP JUMPDEST SWAP1 POP DUP3 DUP2 SUB PUSH1 0x40 DUP5 ADD MSTORE PUSH2 0xB6C DUP2 DUP12 PUSH2 0x662 JUMP JUMPDEST SWAP1 POP DUP3 DUP2 SUB PUSH1 0x60 DUP5 ADD MSTORE PUSH2 0xB80 DUP2 DUP11 PUSH2 0x662 JUMP JUMPDEST SWAP1 POP DUP3 DUP2 SUB PUSH1 0x80 DUP5 ADD MSTORE PUSH2 0xB94 DUP2 DUP10 PUSH2 0x662 JUMP JUMPDEST SWAP1 POP DUP3 DUP2 SUB PUSH1 0xA0 DUP5 ADD MSTORE PUSH2 0xBA8 DUP2 DUP9 PUSH2 0x662 JUMP JUMPDEST SWAP1 POP DUP3 DUP2 SUB PUSH1 0xC0 DUP5 ADD MSTORE PUSH2 0xBBC DUP2 DUP8 PUSH2 0x662 JUMP JUMPDEST SWAP1 POP DUP3 DUP2 SUB PUSH1 0xE0 DUP5 ADD MSTORE PUSH2 0xBD0 DUP2 DUP7 PUSH2 0x662 JUMP JUMPDEST SWAP1 POP DUP3 DUP2 SUB PUSH2 0x100 DUP5 ADD MSTORE PUSH2 0xBE5 DUP2 DUP6 PUSH2 0x662 JUMP JUMPDEST SWAP13 SWAP12 POP POP POP POP POP POP POP POP POP POP POP POP JUMP INVALID LOG2 PUSH5 0x6970667358 0x22 SLT KECCAK256 GT 0xF9 0xC6 0xD3 COINBASE SGT 0xB8 0xE SLT NUMBER XOR PUSH12 0x926F21E66320DD5EEA807126 0xF6 EXTCODESIZE PUSH25 0xFE4FFB915C64736F6C634300081A0033000000000000000000 "
				},
				"gasEstimates": {
					"creation": {
						"codeDepositCost": "623000",
						"executionCost": "infinite",
						"totalCost": "infinite"
					},
					"external": {
						"getDoctors()": "infinite",
						"getPatientDemographic(address)": "infinite",
						"getPatients()": "infinite",
						"grantPermission(address)": "infinite",
						"registerDoctor(string,string,string,string,string,string,string)": "infinite",
						"registerPatient(string,string,string,string,string,string,string,string,string)": "infinite"
					}
				},
				"methodIdentifiers": {
					"getDoctors()": "b13d5d94",
					"getPatientDemographic(address)": "5a2310a0",
					"getPatients()": "12ad1c37",
					"grantPermission(address)": "2d8e3278",
					"registerDoctor(string,string,string,string,string,string,string)": "0d7c3ea0",
					"registerPatient(string,string,string,string,string,string,string,string,string)": "f9c2caa5"
				}
			},
			"storageLayout": {
				"storage": [
					{
						"astId": 7,
						"contract": "contracts/TelehealthContract.sol:TelehealthContract",
						"label": "owner",
						"offset": 0,
						"slot": "0",
						"type": "t_address"
					},
					{
						"astId": 10,
						"contract": "contracts/TelehealthContract.sol:TelehealthContract",
						"label": "doctorsContract",
						"offset": 0,
						"slot": "1",
						"type": "t_contract(DoctorsContract)346"
					},
					{
						"astId": 13,
						"contract": "contracts/TelehealthContract.sol:TelehealthContract",
						"label": "patientsContract",
						"offset": 0,
						"slot": "2",
						"type": "t_contract(PatientsContract)620"
					},
					{
						"astId": 16,
						"contract": "contracts/TelehealthContract.sol:TelehealthContract",
						"label": "permissionsContract",
						"offset": 0,
						"slot": "3",
						"type": "t_contract(PermissionsContract)673"
					},
					{
						"astId": 19,
						"contract": "contracts/TelehealthContract.sol:TelehealthContract",
						"label": "queriesContract",
						"offset": 0,
						"slot": "4",
						"type": "t_contract(QueriesContract)735"
					}
				],
				"types": {
					"t_address": {
						"encoding": "inplace",
						"label": "address",
						"numberOfBytes": "20"
					},
					"t_contract(DoctorsContract)346": {
						"encoding": "inplace",
						"label": "contract DoctorsContract",
						"numberOfBytes": "20"
					},
					"t_contract(PatientsContract)620": {
						"encoding": "inplace",
						"label": "contract PatientsContract",
						"numberOfBytes": "20"
					},
					"t_contract(PermissionsContract)673": {
						"encoding": "inplace",
						"label": "contract PermissionsContract",
						"numberOfBytes": "20"
					},
					"t_contract(QueriesContract)735": {
						"encoding": "inplace",
						"label": "contract QueriesContract",
						"numberOfBytes": "20"
					}
				}
			},
			"userdoc": {
				"kind": "user",
				"methods": {},
				"version": 1
			}
		}
	}
}