{
	"contracts/permissions/permissionsContract.sol": {
		"PermissionsContract": {
			"abi": [
				{
					"inputs": [
						{
							"internalType": "address",
							"name": "_addr",
							"type": "address"
						}
					],
					"name": "grantPermission",
					"outputs": [
						{
							"internalType": "bool",
							"name": "",
							"type": "bool"
						}
					],
					"stateMutability": "nonpayable",
					"type": "function"
				},
				{
					"inputs": [
						{
							"internalType": "address",
							"name": "",
							"type": "address"
						},
						{
							"internalType": "address",
							"name": "",
							"type": "address"
						}
					],
					"name": "isApproved",
					"outputs": [
						{
							"internalType": "bool",
							"name": "",
							"type": "bool"
						}
					],
					"stateMutability": "view",
					"type": "function"
				},
				{
					"inputs": [
						{
							"internalType": "address",
							"name": "_addr",
							"type": "address"
						}
					],
					"name": "revokePermisson",
					"outputs": [
						{
							"internalType": "bool",
							"name": "",
							"type": "bool"
						}
					],
					"stateMutability": "nonpayable",
					"type": "function"
				}
			],
			"devdoc": {
				"kind": "dev",
				"methods": {},
				"version": 1
			},
			"evm": {
				"assembly": "    /* \"contracts/permissions/permissionsContract.sol\":60:532  contract PermissionsContract {... */\n  mstore(0x40, 0x80)\n    /* \"contracts/permissions/permissionsContract.sol\":198:199  0 */\n  0x00\n    /* \"contracts/permissions/permissionsContract.sol\":165:199  uint256 permissionGrantedCount = 0 */\n  0x01\n  sstore\n    /* \"contracts/permissions/permissionsContract.sol\":60:532  contract PermissionsContract {... */\n  callvalue\n  dup1\n  iszero\n  tag_1\n  jumpi\n  0x00\n  dup1\n  revert\ntag_1:\n  pop\n  dataSize(sub_0)\n  dup1\n  dataOffset(sub_0)\n  0x00\n  codecopy\n  0x00\n  return\nstop\n\nsub_0: assembly {\n        /* \"contracts/permissions/permissionsContract.sol\":60:532  contract PermissionsContract {... */\n      mstore(0x40, 0x80)\n      callvalue\n      dup1\n      iszero\n      tag_1\n      jumpi\n      0x00\n      dup1\n      revert\n    tag_1:\n      pop\n      jumpi(tag_2, lt(calldatasize, 0x04))\n      shr(0xe0, calldataload(0x00))\n      dup1\n      0x2d8e3278\n      eq\n      tag_3\n      jumpi\n      dup1\n      0x5a3f50cd\n      eq\n      tag_4\n      jumpi\n      dup1\n      0xa389783e\n      eq\n      tag_5\n      jumpi\n    tag_2:\n      0x00\n      dup1\n      revert\n        /* \"contracts/permissions/permissionsContract.sol\":208:380  function grantPermission(address _addr) public returns(bool){... */\n    tag_3:\n      tag_6\n      tag_7\n      calldatasize\n      0x04\n      tag_8\n      jump\t// in\n    tag_7:\n      tag_9\n      jump\t// in\n    tag_6:\n      mload(0x40)\n        /* \"#utility.yul\":548:562   */\n      swap1\n      iszero\n        /* \"#utility.yul\":541:563   */\n      iszero\n        /* \"#utility.yul\":523:564   */\n      dup2\n      mstore\n        /* \"#utility.yul\":511:513   */\n      0x20\n        /* \"#utility.yul\":496:514   */\n      add\n        /* \"contracts/permissions/permissionsContract.sol\":208:380  function grantPermission(address _addr) public returns(bool){... */\n      mload(0x40)\n      dup1\n      swap2\n      sub\n      swap1\n      return\n        /* \"contracts/permissions/permissionsContract.sol\":388:528  function revokePermisson(address _addr) public  returns(bool) {... */\n    tag_4:\n      tag_6\n      tag_13\n      calldatasize\n      0x04\n      tag_8\n      jump\t// in\n    tag_13:\n        /* \"contracts/permissions/permissionsContract.sol\":472:482  msg.sender */\n      caller\n        /* \"contracts/permissions/permissionsContract.sol\":444:448  bool */\n      0x00\n        /* \"contracts/permissions/permissionsContract.sol\":461:483  isApproved[msg.sender] */\n      swap1\n      dup2\n      mstore\n      0x20\n      dup2\n      dup2\n      mstore\n      0x40\n      dup1\n      dup4\n      keccak256\n      sub(shl(0xa0, 0x01), 0x01)\n        /* \"contracts/permissions/permissionsContract.sol\":461:490  isApproved[msg.sender][_addr] */\n      swap5\n      swap1\n      swap5\n      and\n      dup4\n      mstore\n      swap3\n      swap1\n      mstore\n      keccak256\n        /* \"contracts/permissions/permissionsContract.sol\":461:498  isApproved[msg.sender][_addr] = false */\n      dup1\n      sload\n      not(0xff)\n      and\n      swap1\n      sstore\n      0x01\n      swap1\n        /* \"contracts/permissions/permissionsContract.sol\":388:528  function revokePermisson(address _addr) public  returns(bool) {... */\n      jump\n        /* \"contracts/permissions/permissionsContract.sol\":96:158  mapping(address => mapping(address => bool)) public isApproved */\n    tag_5:\n      tag_6\n      tag_17\n      calldatasize\n      0x04\n      tag_18\n      jump\t// in\n    tag_17:\n      0x00\n      0x20\n      dup2\n      dup2\n      mstore\n      swap3\n      dup2\n      mstore\n      0x40\n      dup1\n      dup3\n      keccak256\n      swap1\n      swap4\n      mstore\n      swap1\n      dup2\n      mstore\n      keccak256\n      sload\n      0xff\n      and\n      dup2\n      jump\n        /* \"contracts/permissions/permissionsContract.sol\":208:380  function grantPermission(address _addr) public returns(bool){... */\n    tag_9:\n        /* \"contracts/permissions/permissionsContract.sol\":290:300  msg.sender */\n      caller\n        /* \"contracts/permissions/permissionsContract.sol\":263:267  bool */\n      0x00\n        /* \"contracts/permissions/permissionsContract.sol\":279:301  isApproved[msg.sender] */\n      swap1\n      dup2\n      mstore\n      0x20\n      dup2\n      dup2\n      mstore\n      0x40\n      dup1\n      dup4\n      keccak256\n      sub(shl(0xa0, 0x01), 0x01)\n        /* \"contracts/permissions/permissionsContract.sol\":279:308  isApproved[msg.sender][_addr] */\n      dup6\n      and\n      dup5\n      mstore\n      swap1\n      swap2\n      mstore\n      dup2\n      keccak256\n        /* \"contracts/permissions/permissionsContract.sol\":279:315  isApproved[msg.sender][_addr] = true */\n      dup1\n      sload\n      not(0xff)\n      and\n        /* \"contracts/permissions/permissionsContract.sol\":311:315  true */\n      0x01\n        /* \"contracts/permissions/permissionsContract.sol\":279:315  isApproved[msg.sender][_addr] = true */\n      swap1\n      dup2\n      or\n      swap1\n      swap2\n      sstore\n        /* \"contracts/permissions/permissionsContract.sol\":326:350  permissionGrantedCount++ */\n      dup1\n      sload\n      swap1\n        /* \"contracts/permissions/permissionsContract.sol\":263:267  bool */\n      dup3\n        /* \"contracts/permissions/permissionsContract.sol\":326:350  permissionGrantedCount++ */\n      tag_22\n      dup4\n      tag_23\n      jump\t// in\n    tag_22:\n      swap1\n      swap2\n      sstore\n      pop\n        /* \"contracts/permissions/permissionsContract.sol\":368:372  true */\n      0x01\n      swap4\n        /* \"contracts/permissions/permissionsContract.sol\":208:380  function grantPermission(address _addr) public returns(bool){... */\n      swap3\n      pop\n      pop\n      pop\n      jump\t// out\n        /* \"#utility.yul\":14:187   */\n    tag_25:\n        /* \"#utility.yul\":82:102   */\n      dup1\n      calldataload\n      sub(shl(0xa0, 0x01), 0x01)\n        /* \"#utility.yul\":131:162   */\n      dup2\n      and\n        /* \"#utility.yul\":121:163   */\n      dup2\n      eq\n        /* \"#utility.yul\":111:181   */\n      tag_28\n      jumpi\n        /* \"#utility.yul\":177:178   */\n      0x00\n        /* \"#utility.yul\":174:175   */\n      dup1\n        /* \"#utility.yul\":167:179   */\n      revert\n        /* \"#utility.yul\":111:181   */\n    tag_28:\n        /* \"#utility.yul\":14:187   */\n      swap2\n      swap1\n      pop\n      jump\t// out\n        /* \"#utility.yul\":192:378   */\n    tag_8:\n        /* \"#utility.yul\":251:257   */\n      0x00\n        /* \"#utility.yul\":304:306   */\n      0x20\n        /* \"#utility.yul\":292:301   */\n      dup3\n        /* \"#utility.yul\":283:290   */\n      dup5\n        /* \"#utility.yul\":279:302   */\n      sub\n        /* \"#utility.yul\":275:307   */\n      slt\n        /* \"#utility.yul\":272:324   */\n      iszero\n      tag_30\n      jumpi\n        /* \"#utility.yul\":320:321   */\n      0x00\n        /* \"#utility.yul\":317:318   */\n      dup1\n        /* \"#utility.yul\":310:322   */\n      revert\n        /* \"#utility.yul\":272:324   */\n    tag_30:\n        /* \"#utility.yul\":343:372   */\n      tag_31\n        /* \"#utility.yul\":362:371   */\n      dup3\n        /* \"#utility.yul\":343:372   */\n      tag_25\n      jump\t// in\n    tag_31:\n        /* \"#utility.yul\":333:372   */\n      swap4\n        /* \"#utility.yul\":192:378   */\n      swap3\n      pop\n      pop\n      pop\n      jump\t// out\n        /* \"#utility.yul\":575:835   */\n    tag_18:\n        /* \"#utility.yul\":643:649   */\n      0x00\n        /* \"#utility.yul\":651:657   */\n      dup1\n        /* \"#utility.yul\":704:706   */\n      0x40\n        /* \"#utility.yul\":692:701   */\n      dup4\n        /* \"#utility.yul\":683:690   */\n      dup6\n        /* \"#utility.yul\":679:702   */\n      sub\n        /* \"#utility.yul\":675:707   */\n      slt\n        /* \"#utility.yul\":672:724   */\n      iszero\n      tag_34\n      jumpi\n        /* \"#utility.yul\":720:721   */\n      0x00\n        /* \"#utility.yul\":717:718   */\n      dup1\n        /* \"#utility.yul\":710:722   */\n      revert\n        /* \"#utility.yul\":672:724   */\n    tag_34:\n        /* \"#utility.yul\":743:772   */\n      tag_35\n        /* \"#utility.yul\":762:771   */\n      dup4\n        /* \"#utility.yul\":743:772   */\n      tag_25\n      jump\t// in\n    tag_35:\n        /* \"#utility.yul\":733:772   */\n      swap2\n      pop\n        /* \"#utility.yul\":791:829   */\n      tag_36\n        /* \"#utility.yul\":825:827   */\n      0x20\n        /* \"#utility.yul\":814:823   */\n      dup5\n        /* \"#utility.yul\":810:828   */\n      add\n        /* \"#utility.yul\":791:829   */\n      tag_25\n      jump\t// in\n    tag_36:\n        /* \"#utility.yul\":781:829   */\n      swap1\n      pop\n        /* \"#utility.yul\":575:835   */\n      swap3\n      pop\n      swap3\n      swap1\n      pop\n      jump\t// out\n        /* \"#utility.yul\":840:1072   */\n    tag_23:\n        /* \"#utility.yul\":879:882   */\n      0x00\n        /* \"#utility.yul\":900:917   */\n      0x01\n      dup3\n      add\n        /* \"#utility.yul\":897:1037   */\n      tag_38\n      jumpi\n        /* \"#utility.yul\":959:969   */\n      0x4e487b71\n        /* \"#utility.yul\":954:957   */\n      0xe0\n        /* \"#utility.yul\":950:970   */\n      shl\n        /* \"#utility.yul\":947:948   */\n      0x00\n        /* \"#utility.yul\":940:971   */\n      mstore\n        /* \"#utility.yul\":994:998   */\n      0x11\n        /* \"#utility.yul\":991:992   */\n      0x04\n        /* \"#utility.yul\":984:999   */\n      mstore\n        /* \"#utility.yul\":1022:1026   */\n      0x24\n        /* \"#utility.yul\":1019:1020   */\n      0x00\n        /* \"#utility.yul\":1012:1027   */\n      revert\n        /* \"#utility.yul\":897:1037   */\n    tag_38:\n      pop\n        /* \"#utility.yul\":1064:1065   */\n      0x01\n        /* \"#utility.yul\":1053:1066   */\n      add\n      swap1\n        /* \"#utility.yul\":840:1072   */\n      jump\t// out\n\n    auxdata: 0xa2646970667358221220e5b9498808d60433b886bcb5cb2a7fda8258e3bd301c46b46a438eb319a31d6e64736f6c634300081a0033\n}\n",
				"bytecode": {
					"linkReferences": {},
					"object": "60806040526000600155348015601457600080fd5b506101ec806100246000396000f3fe608060405234801561001057600080fd5b50600436106100415760003560e01c80632d8e3278146100465780635a3f50cd1461006d578063a389783e146100aa575b600080fd5b61005961005436600461013a565b6100d5565b604051901515815260200160405180910390f35b61005961007b36600461013a565b336000908152602081815260408083206001600160a01b0394909416835292905220805460ff19169055600190565b6100596100b836600461015c565b600060208181529281526040808220909352908152205460ff1681565b336000908152602081815260408083206001600160a01b03851684529091528120805460ff19166001908117909155805490826101118361018f565b9091555060019392505050565b80356001600160a01b038116811461013557600080fd5b919050565b60006020828403121561014c57600080fd5b6101558261011e565b9392505050565b6000806040838503121561016f57600080fd5b6101788361011e565b91506101866020840161011e565b90509250929050565b6000600182016101af57634e487b7160e01b600052601160045260246000fd5b506001019056fea2646970667358221220e5b9498808d60433b886bcb5cb2a7fda8258e3bd301c46b46a438eb319a31d6e64736f6c634300081a0033",
					"opcodes": "PUSH1 0x80 PUSH1 0x40 MSTORE PUSH1 0x0 PUSH1 0x1 SSTORE CALLVALUE DUP1 ISZERO PUSH1 0x14 JUMPI PUSH1 0x0 DUP1 REVERT JUMPDEST POP PUSH2 0x1EC DUP1 PUSH2 0x24 PUSH1 0x0 CODECOPY PUSH1 0x0 RETURN INVALID PUSH1 0x80 PUSH1 0x40 MSTORE CALLVALUE DUP1 ISZERO PUSH2 0x10 JUMPI PUSH1 0x0 DUP1 REVERT JUMPDEST POP PUSH1 0x4 CALLDATASIZE LT PUSH2 0x41 JUMPI PUSH1 0x0 CALLDATALOAD PUSH1 0xE0 SHR DUP1 PUSH4 0x2D8E3278 EQ PUSH2 0x46 JUMPI DUP1 PUSH4 0x5A3F50CD EQ PUSH2 0x6D JUMPI DUP1 PUSH4 0xA389783E EQ PUSH2 0xAA JUMPI JUMPDEST PUSH1 0x0 DUP1 REVERT JUMPDEST PUSH2 0x59 PUSH2 0x54 CALLDATASIZE PUSH1 0x4 PUSH2 0x13A JUMP JUMPDEST PUSH2 0xD5 JUMP JUMPDEST PUSH1 0x40 MLOAD SWAP1 ISZERO ISZERO DUP2 MSTORE PUSH1 0x20 ADD PUSH1 0x40 MLOAD DUP1 SWAP2 SUB SWAP1 RETURN JUMPDEST PUSH2 0x59 PUSH2 0x7B CALLDATASIZE PUSH1 0x4 PUSH2 0x13A JUMP JUMPDEST CALLER PUSH1 0x0 SWAP1 DUP2 MSTORE PUSH1 0x20 DUP2 DUP2 MSTORE PUSH1 0x40 DUP1 DUP4 KECCAK256 PUSH1 0x1 PUSH1 0x1 PUSH1 0xA0 SHL SUB SWAP5 SWAP1 SWAP5 AND DUP4 MSTORE SWAP3 SWAP1 MSTORE KECCAK256 DUP1 SLOAD PUSH1 0xFF NOT AND SWAP1 SSTORE PUSH1 0x1 SWAP1 JUMP JUMPDEST PUSH2 0x59 PUSH2 0xB8 CALLDATASIZE PUSH1 0x4 PUSH2 0x15C JUMP JUMPDEST PUSH1 0x0 PUSH1 0x20 DUP2 DUP2 MSTORE SWAP3 DUP2 MSTORE PUSH1 0x40 DUP1 DUP3 KECCAK256 SWAP1 SWAP4 MSTORE SWAP1 DUP2 MSTORE KECCAK256 SLOAD PUSH1 0xFF AND DUP2 JUMP JUMPDEST CALLER PUSH1 0x0 SWAP1 DUP2 MSTORE PUSH1 0x20 DUP2 DUP2 MSTORE PUSH1 0x40 DUP1 DUP4 KECCAK256 PUSH1 0x1 PUSH1 0x1 PUSH1 0xA0 SHL SUB DUP6 AND DUP5 MSTORE SWAP1 SWAP2 MSTORE DUP2 KECCAK256 DUP1 SLOAD PUSH1 0xFF NOT AND PUSH1 0x1 SWAP1 DUP2 OR SWAP1 SWAP2 SSTORE DUP1 SLOAD SWAP1 DUP3 PUSH2 0x111 DUP4 PUSH2 0x18F JUMP JUMPDEST SWAP1 SWAP2 SSTORE POP PUSH1 0x1 SWAP4 SWAP3 POP POP POP JUMP JUMPDEST DUP1 CALLDATALOAD PUSH1 0x1 PUSH1 0x1 PUSH1 0xA0 SHL SUB DUP2 AND DUP2 EQ PUSH2 0x135 JUMPI PUSH1 0x0 DUP1 REVERT JUMPDEST SWAP2 SWAP1 POP JUMP JUMPDEST PUSH1 0x0 PUSH1 0x20 DUP3 DUP5 SUB SLT ISZERO PUSH2 0x14C JUMPI PUSH1 0x0 DUP1 REVERT JUMPDEST PUSH2 0x155 DUP3 PUSH2 0x11E JUMP JUMPDEST SWAP4 SWAP3 POP POP POP JUMP JUMPDEST PUSH1 0x0 DUP1 PUSH1 0x40 DUP4 DUP6 SUB SLT ISZERO PUSH2 0x16F JUMPI PUSH1 0x0 DUP1 REVERT JUMPDEST PUSH2 0x178 DUP4 PUSH2 0x11E JUMP JUMPDEST SWAP2 POP PUSH2 0x186 PUSH1 0x20 DUP5 ADD PUSH2 0x11E JUMP JUMPDEST SWAP1 POP SWAP3 POP SWAP3 SWAP1 POP JUMP JUMPDEST PUSH1 0x0 PUSH1 0x1 DUP3 ADD PUSH2 0x1AF JUMPI PUSH4 0x4E487B71 PUSH1 0xE0 SHL PUSH1 0x0 MSTORE PUSH1 0x11 PUSH1 0x4 MSTORE PUSH1 0x24 PUSH1 0x0 REVERT JUMPDEST POP PUSH1 0x1 ADD SWAP1 JUMP INVALID LOG2 PUSH5 0x6970667358 0x22 SLT KECCAK256 0xE5 0xB9 BLOBHASH DUP9 ADDMOD 0xD6 DIV CALLER 0xB8 DUP7 0xBC 0xB5 0xCB 0x2A PUSH32 0xDA8258E3BD301C46B46A438EB319A31D6E64736F6C634300081A003300000000 "
				},
				"gasEstimates": {
					"creation": {
						"codeDepositCost": "98400",
						"executionCost": "5153",
						"totalCost": "103553"
					},
					"external": {
						"grantPermission(address)": "49015",
						"isApproved(address,address)": "infinite",
						"revokePermisson(address)": "24723"
					}
				},
				"methodIdentifiers": {
					"grantPermission(address)": "2d8e3278",
					"isApproved(address,address)": "a389783e",
					"revokePermisson(address)": "5a3f50cd"
				}
			},
			"storageLayout": {
				"storage": [
					{
						"astId": 628,
						"contract": "contracts/permissions/permissionsContract.sol:PermissionsContract",
						"label": "isApproved",
						"offset": 0,
						"slot": "0",
						"type": "t_mapping(t_address,t_mapping(t_address,t_bool))"
					},
					{
						"astId": 631,
						"contract": "contracts/permissions/permissionsContract.sol:PermissionsContract",
						"label": "permissionGrantedCount",
						"offset": 0,
						"slot": "1",
						"type": "t_uint256"
					}
				],
				"types": {
					"t_address": {
						"encoding": "inplace",
						"label": "address",
						"numberOfBytes": "20"
					},
					"t_bool": {
						"encoding": "inplace",
						"label": "bool",
						"numberOfBytes": "1"
					},
					"t_mapping(t_address,t_bool)": {
						"encoding": "mapping",
						"key": "t_address",
						"label": "mapping(address => bool)",
						"numberOfBytes": "32",
						"value": "t_bool"
					},
					"t_mapping(t_address,t_mapping(t_address,t_bool))": {
						"encoding": "mapping",
						"key": "t_address",
						"label": "mapping(address => mapping(address => bool))",
						"numberOfBytes": "32",
						"value": "t_mapping(t_address,t_bool)"
					},
					"t_uint256": {
						"encoding": "inplace",
						"label": "uint256",
						"numberOfBytes": "32"
					}
				}
			},
			"userdoc": {
				"kind": "user",
				"methods": {},
				"version": 1
			}
		}
	}
}