{
	"contracts/queries/queriesContract.sol": {
		"QueriesContract": {
			"abi": [
				{
					"inputs": [
						{
							"internalType": "address",
							"name": "_patientsAddress",
							"type": "address"
						},
						{
							"internalType": "address",
							"name": "_permissionsAddress",
							"type": "address"
						}
					],
					"stateMutability": "nonpayable",
					"type": "constructor"
				},
				{
					"inputs": [
						{
							"internalType": "address",
							"name": "_addr",
							"type": "address"
						}
					],
					"name": "searchPatientDemographic",
					"outputs": [
						{
							"internalType": "string",
							"name": "id",
							"type": "string"
						},
						{
							"internalType": "string",
							"name": "name",
							"type": "string"
						},
						{
							"internalType": "string",
							"name": "phone",
							"type": "string"
						},
						{
							"internalType": "string",
							"name": "gender",
							"type": "string"
						},
						{
							"internalType": "string",
							"name": "dob",
							"type": "string"
						}
					],
					"stateMutability": "view",
					"type": "function"
				}
			],
			"devdoc": {
				"kind": "dev",
				"methods": {},
				"version": 1
			},
			"evm": {
				"assembly": "    /* \"contracts/queries/queriesContract.sol\":170:919  contract QueriesContract {... */\n  mstore(0x40, 0x80)\n    /* \"contracts/queries/queriesContract.sol\":290:502  constructor(address _patientsAddress, address _permissionsAddress) {... */\n  callvalue\n  dup1\n  iszero\n  tag_1\n  jumpi\n  0x00\n  dup1\n  revert\ntag_1:\n  pop\n  mload(0x40)\n  sub(codesize, bytecodeSize)\n  dup1\n  bytecodeSize\n  dup4\n  codecopy\n  dup2\n  add\n  0x40\n  dup2\n  swap1\n  mstore\n  tag_2\n  swap2\n  tag_3\n  jump\t// in\ntag_2:\n    /* \"contracts/queries/queriesContract.sol\":368:384  patientsContract */\n  0x00\n    /* \"contracts/queries/queriesContract.sol\":368:421  patientsContract = PatientsContract(_patientsAddress) */\n  dup1\n  sload\n  sub(shl(0xa0, 0x01), 0x01)\n  swap4\n  dup5\n  and\n  not(sub(shl(0xa0, 0x01), 0x01))\n  swap2\n  dup3\n  and\n  or\n  swap1\n  swap2\n  sstore\n  0x01\n    /* \"contracts/queries/queriesContract.sol\":432:494  permissionsContract = PermissionsContract(_permissionsAddress) */\n  dup1\n  sload\n  swap3\n  swap1\n  swap4\n  and\n  swap2\n  and\n  or\n  swap1\n  sstore\n    /* \"contracts/queries/queriesContract.sol\":170:919  contract QueriesContract {... */\n  jump(tag_8)\n    /* \"#utility.yul\":14:191   */\ntag_7:\n    /* \"#utility.yul\":93:106   */\n  dup1\n  mload\n  sub(shl(0xa0, 0x01), 0x01)\n    /* \"#utility.yul\":135:166   */\n  dup2\n  and\n    /* \"#utility.yul\":125:167   */\n  dup2\n  eq\n    /* \"#utility.yul\":115:185   */\n  tag_10\n  jumpi\n    /* \"#utility.yul\":181:182   */\n  0x00\n    /* \"#utility.yul\":178:179   */\n  dup1\n    /* \"#utility.yul\":171:183   */\n  revert\n    /* \"#utility.yul\":115:185   */\ntag_10:\n    /* \"#utility.yul\":14:191   */\n  swap2\n  swap1\n  pop\n  jump\t// out\n    /* \"#utility.yul\":196:489   */\ntag_3:\n    /* \"#utility.yul\":275:281   */\n  0x00\n    /* \"#utility.yul\":283:289   */\n  dup1\n    /* \"#utility.yul\":336:338   */\n  0x40\n    /* \"#utility.yul\":324:333   */\n  dup4\n    /* \"#utility.yul\":315:322   */\n  dup6\n    /* \"#utility.yul\":311:334   */\n  sub\n    /* \"#utility.yul\":307:339   */\n  slt\n    /* \"#utility.yul\":304:356   */\n  iszero\n  tag_12\n  jumpi\n    /* \"#utility.yul\":352:353   */\n  0x00\n    /* \"#utility.yul\":349:350   */\n  dup1\n    /* \"#utility.yul\":342:354   */\n  revert\n    /* \"#utility.yul\":304:356   */\ntag_12:\n    /* \"#utility.yul\":375:415   */\n  tag_13\n    /* \"#utility.yul\":405:414   */\n  dup4\n    /* \"#utility.yul\":375:415   */\n  tag_7\n  jump\t// in\ntag_13:\n    /* \"#utility.yul\":365:415   */\n  swap2\n  pop\n    /* \"#utility.yul\":434:483   */\n  tag_14\n    /* \"#utility.yul\":479:481   */\n  0x20\n    /* \"#utility.yul\":468:477   */\n  dup5\n    /* \"#utility.yul\":464:482   */\n  add\n    /* \"#utility.yul\":434:483   */\n  tag_7\n  jump\t// in\ntag_14:\n    /* \"#utility.yul\":424:483   */\n  swap1\n  pop\n    /* \"#utility.yul\":196:489   */\n  swap3\n  pop\n  swap3\n  swap1\n  pop\n  jump\t// out\ntag_8:\n    /* \"contracts/queries/queriesContract.sol\":170:919  contract QueriesContract {... */\n  dataSize(sub_0)\n  dup1\n  dataOffset(sub_0)\n  0x00\n  codecopy\n  0x00\n  return\nstop\n\nsub_0: assembly {\n        /* \"contracts/queries/queriesContract.sol\":170:919  contract QueriesContract {... */\n      mstore(0x40, 0x80)\n      callvalue\n      dup1\n      iszero\n      tag_1\n      jumpi\n      0x00\n      dup1\n      revert\n    tag_1:\n      pop\n      jumpi(tag_2, lt(calldatasize, 0x04))\n      shr(0xe0, calldataload(0x00))\n      dup1\n      0x3bc98280\n      eq\n      tag_3\n      jumpi\n    tag_2:\n      0x00\n      dup1\n      revert\n        /* \"contracts/queries/queriesContract.sol\":510:916  function searchPatientDemographic(address _addr) public view returns(... */\n    tag_3:\n      tag_4\n      tag_5\n      calldatasize\n      0x04\n      tag_6\n      jump\t// in\n    tag_5:\n      tag_7\n      jump\t// in\n    tag_4:\n      mload(0x40)\n      tag_8\n      swap6\n      swap5\n      swap4\n      swap3\n      swap2\n      swap1\n      tag_9\n      jump\t// in\n    tag_8:\n      mload(0x40)\n      dup1\n      swap2\n      sub\n      swap1\n      return\n    tag_7:\n        /* \"contracts/queries/queriesContract.sol\":754:773  permissionsContract */\n      sload(0x01)\n        /* \"contracts/queries/queriesContract.sol\":754:803  permissionsContract.isApproved(_addr, msg.sender) */\n      mload(0x40)\n      shl(0xe1, 0x51c4bc1f)\n      dup2\n      mstore\n      sub(shl(0xa0, 0x01), 0x01)\n        /* \"#utility.yul\":1908:1940   */\n      dup4\n      dup2\n      and\n        /* \"contracts/queries/queriesContract.sol\":754:803  permissionsContract.isApproved(_addr, msg.sender) */\n      0x04\n      dup4\n      add\n        /* \"#utility.yul\":1890:1941   */\n      mstore\n        /* \"contracts/queries/queriesContract.sol\":792:802  msg.sender */\n      caller\n        /* \"#utility.yul\":1957:1975   */\n      0x24\n      dup4\n      add\n        /* \"#utility.yul\":1950:2010   */\n      mstore\n        /* \"contracts/queries/queriesContract.sol\":589:605  string memory id */\n      0x60\n      swap3\n      dup4\n      swap3\n      dup4\n      swap3\n      dup4\n      swap3\n      dup4\n      swap3\n        /* \"contracts/queries/queriesContract.sol\":754:773  permissionsContract */\n      swap2\n      and\n      swap1\n        /* \"contracts/queries/queriesContract.sol\":754:784  permissionsContract.isApproved */\n      0xa389783e\n      swap1\n        /* \"#utility.yul\":1863:1881   */\n      0x44\n      add\n        /* \"contracts/queries/queriesContract.sol\":754:803  permissionsContract.isApproved(_addr, msg.sender) */\n      0x20\n      mload(0x40)\n      dup1\n      dup4\n      sub\n      dup2\n      dup7\n      gas\n      staticcall\n      iszero\n      dup1\n      iszero\n      tag_14\n      jumpi\n      returndatasize\n      0x00\n      dup1\n      returndatacopy\n      revert(0x00, returndatasize)\n    tag_14:\n      pop\n      pop\n      pop\n      pop\n      mload(0x40)\n      returndatasize\n      not(0x1f)\n      0x1f\n      dup3\n      add\n      and\n      dup3\n      add\n      dup1\n      0x40\n      mstore\n      pop\n      dup2\n      add\n      swap1\n      tag_15\n      swap2\n      swap1\n      tag_16\n      jump\t// in\n    tag_15:\n        /* \"contracts/queries/queriesContract.sol\":746:842  require(permissionsContract.isApproved(_addr, msg.sender), \"Not authorized to view this record\") */\n      tag_17\n      jumpi\n      mload(0x40)\n      shl(0xe5, 0x461bcd)\n      dup2\n      mstore\n        /* \"#utility.yul\":2505:2507   */\n      0x20\n        /* \"contracts/queries/queriesContract.sol\":746:842  require(permissionsContract.isApproved(_addr, msg.sender), \"Not authorized to view this record\") */\n      0x04\n      dup3\n      add\n        /* \"#utility.yul\":2487:2508   */\n      mstore\n        /* \"#utility.yul\":2544:2546   */\n      0x22\n        /* \"#utility.yul\":2524:2542   */\n      0x24\n      dup3\n      add\n        /* \"#utility.yul\":2517:2547   */\n      mstore\n        /* \"#utility.yul\":2583:2617   */\n      0x4e6f7420617574686f72697a656420746f20766965772074686973207265636f\n        /* \"#utility.yul\":2563:2581   */\n      0x44\n      dup3\n      add\n        /* \"#utility.yul\":2556:2618   */\n      mstore\n      shl(0xf2, 0x1c99)\n        /* \"#utility.yul\":2634:2652   */\n      0x64\n      dup3\n      add\n        /* \"#utility.yul\":2627:2659   */\n      mstore\n        /* \"#utility.yul\":2676:2695   */\n      0x84\n      add\n        /* \"contracts/queries/queriesContract.sol\":746:842  require(permissionsContract.isApproved(_addr, msg.sender), \"Not authorized to view this record\") */\n      mload(0x40)\n      dup1\n      swap2\n      sub\n      swap1\n      revert\n    tag_17:\n        /* \"contracts/queries/queriesContract.sol\":860:876  patientsContract */\n      sload(0x00)\n        /* \"contracts/queries/queriesContract.sol\":860:908  patientsContract.searchPatientDemographic(_addr) */\n      mload(0x40)\n      shl(0xe7, 0x779305)\n      dup2\n      mstore\n      sub(shl(0xa0, 0x01), 0x01)\n        /* \"#utility.yul\":2870:2902   */\n      dup9\n      dup2\n      and\n        /* \"contracts/queries/queriesContract.sol\":860:908  patientsContract.searchPatientDemographic(_addr) */\n      0x04\n      dup4\n      add\n        /* \"#utility.yul\":2852:2903   */\n      mstore\n        /* \"contracts/queries/queriesContract.sol\":860:876  patientsContract */\n      swap1\n      swap2\n      and\n      swap1\n        /* \"contracts/queries/queriesContract.sol\":860:901  patientsContract.searchPatientDemographic */\n      0x3bc98280\n      swap1\n        /* \"#utility.yul\":2825:2843   */\n      0x24\n      add\n        /* \"contracts/queries/queriesContract.sol\":860:908  patientsContract.searchPatientDemographic(_addr) */\n      0x00\n      mload(0x40)\n      dup1\n      dup4\n      sub\n      dup2\n      dup7\n      gas\n      staticcall\n      iszero\n      dup1\n      iszero\n      tag_23\n      jumpi\n      returndatasize\n      0x00\n      dup1\n      returndatacopy\n      revert(0x00, returndatasize)\n    tag_23:\n      pop\n      pop\n      pop\n      pop\n      mload(0x40)\n      returndatasize\n      0x00\n      dup3\n      returndatacopy\n      0x1f\n      returndatasize\n      swap1\n      dup2\n      add\n      not(0x1f)\n      and\n      dup3\n      add\n      0x40\n      mstore\n      tag_24\n      swap2\n      swap1\n      dup2\n      add\n      swap1\n      tag_25\n      jump\t// in\n    tag_24:\n        /* \"contracts/queries/queriesContract.sol\":853:908  return patientsContract.searchPatientDemographic(_addr) */\n      swap4\n      swap11\n      swap3\n      swap10\n      pop\n      swap1\n      swap8\n      pop\n      swap6\n      pop\n      swap1\n      swap4\n      pop\n        /* \"contracts/queries/queriesContract.sol\":510:916  function searchPatientDemographic(address _addr) public view returns(... */\n      swap2\n      pop\n      pop\n      jump\t// out\n        /* \"#utility.yul\":14:300   */\n    tag_6:\n        /* \"#utility.yul\":73:79   */\n      0x00\n        /* \"#utility.yul\":126:128   */\n      0x20\n        /* \"#utility.yul\":114:123   */\n      dup3\n        /* \"#utility.yul\":105:112   */\n      dup5\n        /* \"#utility.yul\":101:124   */\n      sub\n        /* \"#utility.yul\":97:129   */\n      slt\n        /* \"#utility.yul\":94:146   */\n      iszero\n      tag_32\n      jumpi\n        /* \"#utility.yul\":142:143   */\n      0x00\n        /* \"#utility.yul\":139:140   */\n      dup1\n        /* \"#utility.yul\":132:144   */\n      revert\n        /* \"#utility.yul\":94:146   */\n    tag_32:\n        /* \"#utility.yul\":168:191   */\n      dup2\n      calldataload\n      sub(shl(0xa0, 0x01), 0x01)\n        /* \"#utility.yul\":220:251   */\n      dup2\n      and\n        /* \"#utility.yul\":210:252   */\n      dup2\n      eq\n        /* \"#utility.yul\":200:270   */\n      tag_33\n      jumpi\n        /* \"#utility.yul\":266:267   */\n      0x00\n        /* \"#utility.yul\":263:264   */\n      dup1\n        /* \"#utility.yul\":256:268   */\n      revert\n        /* \"#utility.yul\":200:270   */\n    tag_33:\n        /* \"#utility.yul\":289:294   */\n      swap4\n        /* \"#utility.yul\":14:300   */\n      swap3\n      pop\n      pop\n      pop\n      jump\t// out\n        /* \"#utility.yul\":305:555   */\n    tag_26:\n        /* \"#utility.yul\":390:391   */\n      0x00\n        /* \"#utility.yul\":400:513   */\n    tag_35:\n        /* \"#utility.yul\":414:420   */\n      dup4\n        /* \"#utility.yul\":411:412   */\n      dup2\n        /* \"#utility.yul\":408:421   */\n      lt\n        /* \"#utility.yul\":400:513   */\n      iszero\n      tag_37\n      jumpi\n        /* \"#utility.yul\":490:501   */\n      dup2\n      dup2\n      add\n        /* \"#utility.yul\":484:502   */\n      mload\n        /* \"#utility.yul\":471:482   */\n      dup4\n      dup3\n      add\n        /* \"#utility.yul\":464:503   */\n      mstore\n        /* \"#utility.yul\":436:438   */\n      0x20\n        /* \"#utility.yul\":429:439   */\n      add\n        /* \"#utility.yul\":400:513   */\n      jump(tag_35)\n    tag_37:\n      pop\n      pop\n        /* \"#utility.yul\":547:548   */\n      0x00\n        /* \"#utility.yul\":529:545   */\n      swap2\n      add\n        /* \"#utility.yul\":522:549   */\n      mstore\n        /* \"#utility.yul\":305:555   */\n      jump\t// out\n        /* \"#utility.yul\":560:831   */\n    tag_27:\n        /* \"#utility.yul\":602:605   */\n      0x00\n        /* \"#utility.yul\":640:645   */\n      dup2\n        /* \"#utility.yul\":634:646   */\n      mload\n        /* \"#utility.yul\":667:673   */\n      dup1\n        /* \"#utility.yul\":662:665   */\n      dup5\n        /* \"#utility.yul\":655:674   */\n      mstore\n        /* \"#utility.yul\":683:759   */\n      tag_39\n        /* \"#utility.yul\":752:758   */\n      dup2\n        /* \"#utility.yul\":745:749   */\n      0x20\n        /* \"#utility.yul\":740:743   */\n      dup7\n        /* \"#utility.yul\":736:750   */\n      add\n        /* \"#utility.yul\":729:733   */\n      0x20\n        /* \"#utility.yul\":722:727   */\n      dup7\n        /* \"#utility.yul\":718:734   */\n      add\n        /* \"#utility.yul\":683:759   */\n      tag_26\n      jump\t// in\n    tag_39:\n        /* \"#utility.yul\":813:815   */\n      0x1f\n        /* \"#utility.yul\":792:807   */\n      add\n      not(0x1f)\n        /* \"#utility.yul\":788:817   */\n      and\n        /* \"#utility.yul\":779:818   */\n      swap3\n      swap1\n      swap3\n      add\n        /* \"#utility.yul\":820:824   */\n      0x20\n        /* \"#utility.yul\":775:825   */\n      add\n      swap3\n        /* \"#utility.yul\":560:831   */\n      swap2\n      pop\n      pop\n      jump\t// out\n        /* \"#utility.yul\":836:1711   */\n    tag_9:\n        /* \"#utility.yul\":1177:1180   */\n      0xa0\n        /* \"#utility.yul\":1166:1175   */\n      dup2\n        /* \"#utility.yul\":1159:1181   */\n      mstore\n        /* \"#utility.yul\":1140:1144   */\n      0x00\n        /* \"#utility.yul\":1204:1250   */\n      tag_41\n        /* \"#utility.yul\":1245:1248   */\n      0xa0\n        /* \"#utility.yul\":1234:1243   */\n      dup4\n        /* \"#utility.yul\":1230:1249   */\n      add\n        /* \"#utility.yul\":1222:1228   */\n      dup9\n        /* \"#utility.yul\":1204:1250   */\n      tag_27\n      jump\t// in\n    tag_41:\n        /* \"#utility.yul\":1298:1307   */\n      dup3\n        /* \"#utility.yul\":1290:1296   */\n      dup2\n        /* \"#utility.yul\":1286:1308   */\n      sub\n        /* \"#utility.yul\":1281:1283   */\n      0x20\n        /* \"#utility.yul\":1270:1279   */\n      dup5\n        /* \"#utility.yul\":1266:1284   */\n      add\n        /* \"#utility.yul\":1259:1309   */\n      mstore\n        /* \"#utility.yul\":1332:1365   */\n      tag_42\n        /* \"#utility.yul\":1358:1364   */\n      dup2\n        /* \"#utility.yul\":1350:1356   */\n      dup9\n        /* \"#utility.yul\":1332:1365   */\n      tag_27\n      jump\t// in\n    tag_42:\n        /* \"#utility.yul\":1318:1365   */\n      swap1\n      pop\n        /* \"#utility.yul\":1413:1422   */\n      dup3\n        /* \"#utility.yul\":1405:1411   */\n      dup2\n        /* \"#utility.yul\":1401:1423   */\n      sub\n        /* \"#utility.yul\":1396:1398   */\n      0x40\n        /* \"#utility.yul\":1385:1394   */\n      dup5\n        /* \"#utility.yul\":1381:1399   */\n      add\n        /* \"#utility.yul\":1374:1424   */\n      mstore\n        /* \"#utility.yul\":1447:1480   */\n      tag_43\n        /* \"#utility.yul\":1473:1479   */\n      dup2\n        /* \"#utility.yul\":1465:1471   */\n      dup8\n        /* \"#utility.yul\":1447:1480   */\n      tag_27\n      jump\t// in\n    tag_43:\n        /* \"#utility.yul\":1433:1480   */\n      swap1\n      pop\n        /* \"#utility.yul\":1528:1537   */\n      dup3\n        /* \"#utility.yul\":1520:1526   */\n      dup2\n        /* \"#utility.yul\":1516:1538   */\n      sub\n        /* \"#utility.yul\":1511:1513   */\n      0x60\n        /* \"#utility.yul\":1500:1509   */\n      dup5\n        /* \"#utility.yul\":1496:1514   */\n      add\n        /* \"#utility.yul\":1489:1539   */\n      mstore\n        /* \"#utility.yul\":1562:1595   */\n      tag_44\n        /* \"#utility.yul\":1588:1594   */\n      dup2\n        /* \"#utility.yul\":1580:1586   */\n      dup7\n        /* \"#utility.yul\":1562:1595   */\n      tag_27\n      jump\t// in\n    tag_44:\n        /* \"#utility.yul\":1548:1595   */\n      swap1\n      pop\n        /* \"#utility.yul\":1644:1653   */\n      dup3\n        /* \"#utility.yul\":1636:1642   */\n      dup2\n        /* \"#utility.yul\":1632:1654   */\n      sub\n        /* \"#utility.yul\":1626:1629   */\n      0x80\n        /* \"#utility.yul\":1615:1624   */\n      dup5\n        /* \"#utility.yul\":1611:1630   */\n      add\n        /* \"#utility.yul\":1604:1655   */\n      mstore\n        /* \"#utility.yul\":1672:1705   */\n      tag_45\n        /* \"#utility.yul\":1698:1704   */\n      dup2\n        /* \"#utility.yul\":1690:1696   */\n      dup6\n        /* \"#utility.yul\":1672:1705   */\n      tag_27\n      jump\t// in\n    tag_45:\n        /* \"#utility.yul\":1664:1705   */\n      swap9\n        /* \"#utility.yul\":836:1711   */\n      swap8\n      pop\n      pop\n      pop\n      pop\n      pop\n      pop\n      pop\n      pop\n      jump\t// out\n        /* \"#utility.yul\":2021:2298   */\n    tag_16:\n        /* \"#utility.yul\":2088:2094   */\n      0x00\n        /* \"#utility.yul\":2141:2143   */\n      0x20\n        /* \"#utility.yul\":2129:2138   */\n      dup3\n        /* \"#utility.yul\":2120:2127   */\n      dup5\n        /* \"#utility.yul\":2116:2139   */\n      sub\n        /* \"#utility.yul\":2112:2144   */\n      slt\n        /* \"#utility.yul\":2109:2161   */\n      iszero\n      tag_48\n      jumpi\n        /* \"#utility.yul\":2157:2158   */\n      0x00\n        /* \"#utility.yul\":2154:2155   */\n      dup1\n        /* \"#utility.yul\":2147:2159   */\n      revert\n        /* \"#utility.yul\":2109:2161   */\n    tag_48:\n        /* \"#utility.yul\":2189:2198   */\n      dup2\n        /* \"#utility.yul\":2183:2199   */\n      mload\n        /* \"#utility.yul\":2242:2247   */\n      dup1\n        /* \"#utility.yul\":2235:2248   */\n      iszero\n        /* \"#utility.yul\":2228:2249   */\n      iszero\n        /* \"#utility.yul\":2221:2226   */\n      dup2\n        /* \"#utility.yul\":2218:2250   */\n      eq\n        /* \"#utility.yul\":2208:2268   */\n      tag_33\n      jumpi\n        /* \"#utility.yul\":2264:2265   */\n      0x00\n        /* \"#utility.yul\":2261:2262   */\n      dup1\n        /* \"#utility.yul\":2254:2266   */\n      revert\n        /* \"#utility.yul\":2914:3041   */\n    tag_28:\n        /* \"#utility.yul\":2975:2985   */\n      0x4e487b71\n        /* \"#utility.yul\":2970:2973   */\n      0xe0\n        /* \"#utility.yul\":2966:2986   */\n      shl\n        /* \"#utility.yul\":2963:2964   */\n      0x00\n        /* \"#utility.yul\":2956:2987   */\n      mstore\n        /* \"#utility.yul\":3006:3010   */\n      0x41\n        /* \"#utility.yul\":3003:3004   */\n      0x04\n        /* \"#utility.yul\":2996:3011   */\n      mstore\n        /* \"#utility.yul\":3030:3034   */\n      0x24\n        /* \"#utility.yul\":3027:3028   */\n      0x00\n        /* \"#utility.yul\":3020:3035   */\n      revert\n        /* \"#utility.yul\":3046:3748   */\n    tag_29:\n        /* \"#utility.yul\":3100:3105   */\n      0x00\n        /* \"#utility.yul\":3153:3156   */\n      dup3\n        /* \"#utility.yul\":3146:3150   */\n      0x1f\n        /* \"#utility.yul\":3138:3144   */\n      dup4\n        /* \"#utility.yul\":3134:3151   */\n      add\n        /* \"#utility.yul\":3130:3157   */\n      slt\n        /* \"#utility.yul\":3120:3175   */\n      tag_54\n      jumpi\n        /* \"#utility.yul\":3171:3172   */\n      0x00\n        /* \"#utility.yul\":3168:3169   */\n      dup1\n        /* \"#utility.yul\":3161:3173   */\n      revert\n        /* \"#utility.yul\":3120:3175   */\n    tag_54:\n        /* \"#utility.yul\":3204:3210   */\n      dup2\n        /* \"#utility.yul\":3198:3211   */\n      mload\n        /* \"#utility.yul\":3234:3252   */\n      0xffffffffffffffff\n        /* \"#utility.yul\":3226:3232   */\n      dup2\n        /* \"#utility.yul\":3223:3253   */\n      gt\n        /* \"#utility.yul\":3220:3276   */\n      iszero\n      tag_56\n      jumpi\n        /* \"#utility.yul\":3256:3274   */\n      tag_56\n      tag_28\n      jump\t// in\n    tag_56:\n        /* \"#utility.yul\":3305:3307   */\n      0x40\n        /* \"#utility.yul\":3299:3308   */\n      mload\n        /* \"#utility.yul\":3397:3399   */\n      0x1f\n        /* \"#utility.yul\":3359:3376   */\n      dup3\n      add\n      not(0x1f)\n        /* \"#utility.yul\":3355:3386   */\n      swap1\n      dup2\n      and\n        /* \"#utility.yul\":3388:3390   */\n      0x3f\n        /* \"#utility.yul\":3351:3391   */\n      add\n        /* \"#utility.yul\":3347:3401   */\n      and\n        /* \"#utility.yul\":3335:3402   */\n      dup2\n      add\n        /* \"#utility.yul\":3432:3450   */\n      0xffffffffffffffff\n        /* \"#utility.yul\":3417:3451   */\n      dup2\n      gt\n        /* \"#utility.yul\":3453:3475   */\n      dup3\n      dup3\n      lt\n        /* \"#utility.yul\":3414:3476   */\n      or\n        /* \"#utility.yul\":3411:3499   */\n      iszero\n      tag_58\n      jumpi\n        /* \"#utility.yul\":3479:3497   */\n      tag_58\n      tag_28\n      jump\t// in\n    tag_58:\n        /* \"#utility.yul\":3515:3517   */\n      0x40\n        /* \"#utility.yul\":3508:3530   */\n      mstore\n        /* \"#utility.yul\":3539:3561   */\n      dup2\n      dup2\n      mstore\n        /* \"#utility.yul\":3580:3599   */\n      dup4\n      dup3\n      add\n        /* \"#utility.yul\":3601:3605   */\n      0x20\n        /* \"#utility.yul\":3576:3606   */\n      add\n        /* \"#utility.yul\":3573:3612   */\n      dup6\n      lt\n        /* \"#utility.yul\":3570:3629   */\n      iszero\n      tag_59\n      jumpi\n        /* \"#utility.yul\":3625:3626   */\n      0x00\n        /* \"#utility.yul\":3622:3623   */\n      dup1\n        /* \"#utility.yul\":3615:3627   */\n      revert\n        /* \"#utility.yul\":3570:3629   */\n    tag_59:\n        /* \"#utility.yul\":3638:3718   */\n      tag_60\n        /* \"#utility.yul\":3711:3717   */\n      dup3\n        /* \"#utility.yul\":3704:3708   */\n      0x20\n        /* \"#utility.yul\":3696:3702   */\n      dup4\n        /* \"#utility.yul\":3692:3709   */\n      add\n        /* \"#utility.yul\":3685:3689   */\n      0x20\n        /* \"#utility.yul\":3677:3683   */\n      dup8\n        /* \"#utility.yul\":3673:3690   */\n      add\n        /* \"#utility.yul\":3638:3718   */\n      tag_26\n      jump\t// in\n    tag_60:\n        /* \"#utility.yul\":3736:3742   */\n      swap5\n        /* \"#utility.yul\":3046:3748   */\n      swap4\n      pop\n      pop\n      pop\n      pop\n      jump\t// out\n        /* \"#utility.yul\":3753:4972   */\n    tag_25:\n        /* \"#utility.yul\":3909:3915   */\n      0x00\n        /* \"#utility.yul\":3917:3923   */\n      dup1\n        /* \"#utility.yul\":3925:3931   */\n      0x00\n        /* \"#utility.yul\":3933:3939   */\n      dup1\n        /* \"#utility.yul\":3941:3947   */\n      0x00\n        /* \"#utility.yul\":3994:3997   */\n      0xa0\n        /* \"#utility.yul\":3982:3991   */\n      dup7\n        /* \"#utility.yul\":3973:3980   */\n      dup9\n        /* \"#utility.yul\":3969:3992   */\n      sub\n        /* \"#utility.yul\":3965:3998   */\n      slt\n        /* \"#utility.yul\":3962:4015   */\n      iszero\n      tag_62\n      jumpi\n        /* \"#utility.yul\":4011:4012   */\n      0x00\n        /* \"#utility.yul\":4008:4009   */\n      dup1\n        /* \"#utility.yul\":4001:4013   */\n      revert\n        /* \"#utility.yul\":3962:4015   */\n    tag_62:\n        /* \"#utility.yul\":4044:4053   */\n      dup6\n        /* \"#utility.yul\":4038:4054   */\n      mload\n        /* \"#utility.yul\":4077:4095   */\n      0xffffffffffffffff\n        /* \"#utility.yul\":4069:4075   */\n      dup2\n        /* \"#utility.yul\":4066:4096   */\n      gt\n        /* \"#utility.yul\":4063:4113   */\n      iszero\n      tag_63\n      jumpi\n        /* \"#utility.yul\":4109:4110   */\n      0x00\n        /* \"#utility.yul\":4106:4107   */\n      dup1\n        /* \"#utility.yul\":4099:4111   */\n      revert\n        /* \"#utility.yul\":4063:4113   */\n    tag_63:\n        /* \"#utility.yul\":4132:4193   */\n      tag_64\n        /* \"#utility.yul\":4185:4192   */\n      dup9\n        /* \"#utility.yul\":4176:4182   */\n      dup3\n        /* \"#utility.yul\":4165:4174   */\n      dup10\n        /* \"#utility.yul\":4161:4183   */\n      add\n        /* \"#utility.yul\":4132:4193   */\n      tag_29\n      jump\t// in\n    tag_64:\n        /* \"#utility.yul\":4122:4193   */\n      swap6\n      pop\n      pop\n        /* \"#utility.yul\":4239:4241   */\n      0x20\n        /* \"#utility.yul\":4228:4237   */\n      dup7\n        /* \"#utility.yul\":4224:4242   */\n      add\n        /* \"#utility.yul\":4218:4243   */\n      mload\n        /* \"#utility.yul\":4268:4286   */\n      0xffffffffffffffff\n        /* \"#utility.yul\":4258:4266   */\n      dup2\n        /* \"#utility.yul\":4255:4287   */\n      gt\n        /* \"#utility.yul\":4252:4304   */\n      iszero\n      tag_65\n      jumpi\n        /* \"#utility.yul\":4300:4301   */\n      0x00\n        /* \"#utility.yul\":4297:4298   */\n      dup1\n        /* \"#utility.yul\":4290:4302   */\n      revert\n        /* \"#utility.yul\":4252:4304   */\n    tag_65:\n        /* \"#utility.yul\":4323:4386   */\n      tag_66\n        /* \"#utility.yul\":4378:4385   */\n      dup9\n        /* \"#utility.yul\":4367:4375   */\n      dup3\n        /* \"#utility.yul\":4356:4365   */\n      dup10\n        /* \"#utility.yul\":4352:4376   */\n      add\n        /* \"#utility.yul\":4323:4386   */\n      tag_29\n      jump\t// in\n    tag_66:\n        /* \"#utility.yul\":4313:4386   */\n      swap5\n      pop\n      pop\n        /* \"#utility.yul\":4432:4434   */\n      0x40\n        /* \"#utility.yul\":4421:4430   */\n      dup7\n        /* \"#utility.yul\":4417:4435   */\n      add\n        /* \"#utility.yul\":4411:4436   */\n      mload\n        /* \"#utility.yul\":4461:4479   */\n      0xffffffffffffffff\n        /* \"#utility.yul\":4451:4459   */\n      dup2\n        /* \"#utility.yul\":4448:4480   */\n      gt\n        /* \"#utility.yul\":4445:4497   */\n      iszero\n      tag_67\n      jumpi\n        /* \"#utility.yul\":4493:4494   */\n      0x00\n        /* \"#utility.yul\":4490:4491   */\n      dup1\n        /* \"#utility.yul\":4483:4495   */\n      revert\n        /* \"#utility.yul\":4445:4497   */\n    tag_67:\n        /* \"#utility.yul\":4516:4579   */\n      tag_68\n        /* \"#utility.yul\":4571:4578   */\n      dup9\n        /* \"#utility.yul\":4560:4568   */\n      dup3\n        /* \"#utility.yul\":4549:4558   */\n      dup10\n        /* \"#utility.yul\":4545:4569   */\n      add\n        /* \"#utility.yul\":4516:4579   */\n      tag_29\n      jump\t// in\n    tag_68:\n        /* \"#utility.yul\":4506:4579   */\n      swap4\n      pop\n      pop\n        /* \"#utility.yul\":4625:4627   */\n      0x60\n        /* \"#utility.yul\":4614:4623   */\n      dup7\n        /* \"#utility.yul\":4610:4628   */\n      add\n        /* \"#utility.yul\":4604:4629   */\n      mload\n        /* \"#utility.yul\":4654:4672   */\n      0xffffffffffffffff\n        /* \"#utility.yul\":4644:4652   */\n      dup2\n        /* \"#utility.yul\":4641:4673   */\n      gt\n        /* \"#utility.yul\":4638:4690   */\n      iszero\n      tag_69\n      jumpi\n        /* \"#utility.yul\":4686:4687   */\n      0x00\n        /* \"#utility.yul\":4683:4684   */\n      dup1\n        /* \"#utility.yul\":4676:4688   */\n      revert\n        /* \"#utility.yul\":4638:4690   */\n    tag_69:\n        /* \"#utility.yul\":4709:4772   */\n      tag_70\n        /* \"#utility.yul\":4764:4771   */\n      dup9\n        /* \"#utility.yul\":4753:4761   */\n      dup3\n        /* \"#utility.yul\":4742:4751   */\n      dup10\n        /* \"#utility.yul\":4738:4762   */\n      add\n        /* \"#utility.yul\":4709:4772   */\n      tag_29\n      jump\t// in\n    tag_70:\n        /* \"#utility.yul\":4699:4772   */\n      swap3\n      pop\n      pop\n        /* \"#utility.yul\":4818:4821   */\n      0x80\n        /* \"#utility.yul\":4807:4816   */\n      dup7\n        /* \"#utility.yul\":4803:4822   */\n      add\n        /* \"#utility.yul\":4797:4823   */\n      mload\n        /* \"#utility.yul\":4848:4866   */\n      0xffffffffffffffff\n        /* \"#utility.yul\":4838:4846   */\n      dup2\n        /* \"#utility.yul\":4835:4867   */\n      gt\n        /* \"#utility.yul\":4832:4884   */\n      iszero\n      tag_71\n      jumpi\n        /* \"#utility.yul\":4880:4881   */\n      0x00\n        /* \"#utility.yul\":4877:4878   */\n      dup1\n        /* \"#utility.yul\":4870:4882   */\n      revert\n        /* \"#utility.yul\":4832:4884   */\n    tag_71:\n        /* \"#utility.yul\":4903:4966   */\n      tag_72\n        /* \"#utility.yul\":4958:4965   */\n      dup9\n        /* \"#utility.yul\":4947:4955   */\n      dup3\n        /* \"#utility.yul\":4936:4945   */\n      dup10\n        /* \"#utility.yul\":4932:4956   */\n      add\n        /* \"#utility.yul\":4903:4966   */\n      tag_29\n      jump\t// in\n    tag_72:\n        /* \"#utility.yul\":4893:4966   */\n      swap2\n      pop\n      pop\n        /* \"#utility.yul\":3753:4972   */\n      swap3\n      swap6\n      pop\n      swap3\n      swap6\n      swap1\n      swap4\n      pop\n      jump\t// out\n\n    auxdata: 0xa2646970667358221220d0cf70fc58baa635e3e194165a56b30db2e85ae1f02bfca9b6d6d702c22958d864736f6c634300081a0033\n}\n",
				"bytecode": {
					"linkReferences": {},
					"object": "6080604052348015600f57600080fd5b5060405161053f38038061053f833981016040819052602c916077565b600080546001600160a01b039384166001600160a01b0319918216179091556001805492909316911617905560a5565b80516001600160a01b0381168114607257600080fd5b919050565b60008060408385031215608957600080fd5b609083605c565b9150609c60208401605c565b90509250929050565b61048b806100b46000396000f3fe608060405234801561001057600080fd5b506004361061002b5760003560e01c80633bc9828014610030575b600080fd5b61004361003e3660046101b9565b61005d565b604051610054959493929190610239565b60405180910390f35b6001546040516351c4bc1f60e11b81526001600160a01b038381166004830152336024830152606092839283928392839291169063a389783e90604401602060405180830381865afa1580156100b7573d6000803e3d6000fd5b505050506040513d601f19601f820116820180604052508101906100db91906102a6565b6101365760405162461bcd60e51b815260206004820152602260248201527f4e6f7420617574686f72697a656420746f20766965772074686973207265636f6044820152611c9960f21b606482015260840160405180910390fd5b6000546040516277930560e71b81526001600160a01b03888116600483015290911690633bc9828090602401600060405180830381865afa15801561017f573d6000803e3d6000fd5b505050506040513d6000823e601f3d908101601f191682016040526101a79190810190610369565b939a9299509097509550909350915050565b6000602082840312156101cb57600080fd5b81356001600160a01b03811681146101e257600080fd5b9392505050565b60005b838110156102045781810151838201526020016101ec565b50506000910152565b600081518084526102258160208601602086016101e9565b601f01601f19169290920160200192915050565b60a08152600061024c60a083018861020d565b828103602084015261025e818861020d565b90508281036040840152610272818761020d565b90508281036060840152610286818661020d565b9050828103608084015261029a818561020d565b98975050505050505050565b6000602082840312156102b857600080fd5b815180151581146101e257600080fd5b634e487b7160e01b600052604160045260246000fd5b600082601f8301126102ef57600080fd5b815167ffffffffffffffff811115610309576103096102c8565b604051601f8201601f19908116603f0116810167ffffffffffffffff81118282101715610338576103386102c8565b60405281815283820160200185101561035057600080fd5b6103618260208301602087016101e9565b949350505050565b600080600080600060a0868803121561038157600080fd5b855167ffffffffffffffff81111561039857600080fd5b6103a4888289016102de565b955050602086015167ffffffffffffffff8111156103c157600080fd5b6103cd888289016102de565b945050604086015167ffffffffffffffff8111156103ea57600080fd5b6103f6888289016102de565b935050606086015167ffffffffffffffff81111561041357600080fd5b61041f888289016102de565b925050608086015167ffffffffffffffff81111561043c57600080fd5b610448888289016102de565b915050929550929590935056fea2646970667358221220d0cf70fc58baa635e3e194165a56b30db2e85ae1f02bfca9b6d6d702c22958d864736f6c634300081a0033",
					"opcodes": "PUSH1 0x80 PUSH1 0x40 MSTORE CALLVALUE DUP1 ISZERO PUSH1 0xF JUMPI PUSH1 0x0 DUP1 REVERT JUMPDEST POP PUSH1 0x40 MLOAD PUSH2 0x53F CODESIZE SUB DUP1 PUSH2 0x53F DUP4 CODECOPY DUP2 ADD PUSH1 0x40 DUP2 SWAP1 MSTORE PUSH1 0x2C SWAP2 PUSH1 0x77 JUMP JUMPDEST PUSH1 0x0 DUP1 SLOAD PUSH1 0x1 PUSH1 0x1 PUSH1 0xA0 SHL SUB SWAP4 DUP5 AND PUSH1 0x1 PUSH1 0x1 PUSH1 0xA0 SHL SUB NOT SWAP2 DUP3 AND OR SWAP1 SWAP2 SSTORE PUSH1 0x1 DUP1 SLOAD SWAP3 SWAP1 SWAP4 AND SWAP2 AND OR SWAP1 SSTORE PUSH1 0xA5 JUMP JUMPDEST DUP1 MLOAD PUSH1 0x1 PUSH1 0x1 PUSH1 0xA0 SHL SUB DUP2 AND DUP2 EQ PUSH1 0x72 JUMPI PUSH1 0x0 DUP1 REVERT JUMPDEST SWAP2 SWAP1 POP JUMP JUMPDEST PUSH1 0x0 DUP1 PUSH1 0x40 DUP4 DUP6 SUB SLT ISZERO PUSH1 0x89 JUMPI PUSH1 0x0 DUP1 REVERT JUMPDEST PUSH1 0x90 DUP4 PUSH1 0x5C JUMP JUMPDEST SWAP2 POP PUSH1 0x9C PUSH1 0x20 DUP5 ADD PUSH1 0x5C JUMP JUMPDEST SWAP1 POP SWAP3 POP SWAP3 SWAP1 POP JUMP JUMPDEST PUSH2 0x48B DUP1 PUSH2 0xB4 PUSH1 0x0 CODECOPY PUSH1 0x0 RETURN INVALID PUSH1 0x80 PUSH1 0x40 MSTORE CALLVALUE DUP1 ISZERO PUSH2 0x10 JUMPI PUSH1 0x0 DUP1 REVERT JUMPDEST POP PUSH1 0x4 CALLDATASIZE LT PUSH2 0x2B JUMPI PUSH1 0x0 CALLDATALOAD PUSH1 0xE0 SHR DUP1 PUSH4 0x3BC98280 EQ PUSH2 0x30 JUMPI JUMPDEST PUSH1 0x0 DUP1 REVERT JUMPDEST PUSH2 0x43 PUSH2 0x3E CALLDATASIZE PUSH1 0x4 PUSH2 0x1B9 JUMP JUMPDEST PUSH2 0x5D JUMP JUMPDEST PUSH1 0x40 MLOAD PUSH2 0x54 SWAP6 SWAP5 SWAP4 SWAP3 SWAP2 SWAP1 PUSH2 0x239 JUMP JUMPDEST PUSH1 0x40 MLOAD DUP1 SWAP2 SUB SWAP1 RETURN JUMPDEST PUSH1 0x1 SLOAD PUSH1 0x40 MLOAD PUSH4 0x51C4BC1F PUSH1 0xE1 SHL DUP2 MSTORE PUSH1 0x1 PUSH1 0x1 PUSH1 0xA0 SHL SUB DUP4 DUP2 AND PUSH1 0x4 DUP4 ADD MSTORE CALLER PUSH1 0x24 DUP4 ADD MSTORE PUSH1 0x60 SWAP3 DUP4 SWAP3 DUP4 SWAP3 DUP4 SWAP3 DUP4 SWAP3 SWAP2 AND SWAP1 PUSH4 0xA389783E SWAP1 PUSH1 0x44 ADD PUSH1 0x20 PUSH1 0x40 MLOAD DUP1 DUP4 SUB DUP2 DUP7 GAS STATICCALL ISZERO DUP1 ISZERO PUSH2 0xB7 JUMPI RETURNDATASIZE PUSH1 0x0 DUP1 RETURNDATACOPY RETURNDATASIZE PUSH1 0x0 REVERT JUMPDEST POP POP POP POP PUSH1 0x40 MLOAD RETURNDATASIZE PUSH1 0x1F NOT PUSH1 0x1F DUP3 ADD AND DUP3 ADD DUP1 PUSH1 0x40 MSTORE POP DUP2 ADD SWAP1 PUSH2 0xDB SWAP2 SWAP1 PUSH2 0x2A6 JUMP JUMPDEST PUSH2 0x136 JUMPI PUSH1 0x40 MLOAD PUSH3 0x461BCD PUSH1 0xE5 SHL DUP2 MSTORE PUSH1 0x20 PUSH1 0x4 DUP3 ADD MSTORE PUSH1 0x22 PUSH1 0x24 DUP3 ADD MSTORE PUSH32 0x4E6F7420617574686F72697A656420746F20766965772074686973207265636F PUSH1 0x44 DUP3 ADD MSTORE PUSH2 0x1C99 PUSH1 0xF2 SHL PUSH1 0x64 DUP3 ADD MSTORE PUSH1 0x84 ADD PUSH1 0x40 MLOAD DUP1 SWAP2 SUB SWAP1 REVERT JUMPDEST PUSH1 0x0 SLOAD PUSH1 0x40 MLOAD PUSH3 0x779305 PUSH1 0xE7 SHL DUP2 MSTORE PUSH1 0x1 PUSH1 0x1 PUSH1 0xA0 SHL SUB DUP9 DUP2 AND PUSH1 0x4 DUP4 ADD MSTORE SWAP1 SWAP2 AND SWAP1 PUSH4 0x3BC98280 SWAP1 PUSH1 0x24 ADD PUSH1 0x0 PUSH1 0x40 MLOAD DUP1 DUP4 SUB DUP2 DUP7 GAS STATICCALL ISZERO DUP1 ISZERO PUSH2 0x17F JUMPI RETURNDATASIZE PUSH1 0x0 DUP1 RETURNDATACOPY RETURNDATASIZE PUSH1 0x0 REVERT JUMPDEST POP POP POP POP PUSH1 0x40 MLOAD RETURNDATASIZE PUSH1 0x0 DUP3 RETURNDATACOPY PUSH1 0x1F RETURNDATASIZE SWAP1 DUP2 ADD PUSH1 0x1F NOT AND DUP3 ADD PUSH1 0x40 MSTORE PUSH2 0x1A7 SWAP2 SWAP1 DUP2 ADD SWAP1 PUSH2 0x369 JUMP JUMPDEST SWAP4 SWAP11 SWAP3 SWAP10 POP SWAP1 SWAP8 POP SWAP6 POP SWAP1 SWAP4 POP SWAP2 POP POP JUMP JUMPDEST PUSH1 0x0 PUSH1 0x20 DUP3 DUP5 SUB SLT ISZERO PUSH2 0x1CB JUMPI PUSH1 0x0 DUP1 REVERT JUMPDEST DUP2 CALLDATALOAD PUSH1 0x1 PUSH1 0x1 PUSH1 0xA0 SHL SUB DUP2 AND DUP2 EQ PUSH2 0x1E2 JUMPI PUSH1 0x0 DUP1 REVERT JUMPDEST SWAP4 SWAP3 POP POP POP JUMP JUMPDEST PUSH1 0x0 JUMPDEST DUP4 DUP2 LT ISZERO PUSH2 0x204 JUMPI DUP2 DUP2 ADD MLOAD DUP4 DUP3 ADD MSTORE PUSH1 0x20 ADD PUSH2 0x1EC JUMP JUMPDEST POP POP PUSH1 0x0 SWAP2 ADD MSTORE JUMP JUMPDEST PUSH1 0x0 DUP2 MLOAD DUP1 DUP5 MSTORE PUSH2 0x225 DUP2 PUSH1 0x20 DUP7 ADD PUSH1 0x20 DUP7 ADD PUSH2 0x1E9 JUMP JUMPDEST PUSH1 0x1F ADD PUSH1 0x1F NOT AND SWAP3 SWAP1 SWAP3 ADD PUSH1 0x20 ADD SWAP3 SWAP2 POP POP JUMP JUMPDEST PUSH1 0xA0 DUP2 MSTORE PUSH1 0x0 PUSH2 0x24C PUSH1 0xA0 DUP4 ADD DUP9 PUSH2 0x20D JUMP JUMPDEST DUP3 DUP2 SUB PUSH1 0x20 DUP5 ADD MSTORE PUSH2 0x25E DUP2 DUP9 PUSH2 0x20D JUMP JUMPDEST SWAP1 POP DUP3 DUP2 SUB PUSH1 0x40 DUP5 ADD MSTORE PUSH2 0x272 DUP2 DUP8 PUSH2 0x20D JUMP JUMPDEST SWAP1 POP DUP3 DUP2 SUB PUSH1 0x60 DUP5 ADD MSTORE PUSH2 0x286 DUP2 DUP7 PUSH2 0x20D JUMP JUMPDEST SWAP1 POP DUP3 DUP2 SUB PUSH1 0x80 DUP5 ADD MSTORE PUSH2 0x29A DUP2 DUP6 PUSH2 0x20D JUMP JUMPDEST SWAP9 SWAP8 POP POP POP POP POP POP POP POP JUMP JUMPDEST PUSH1 0x0 PUSH1 0x20 DUP3 DUP5 SUB SLT ISZERO PUSH2 0x2B8 JUMPI PUSH1 0x0 DUP1 REVERT JUMPDEST DUP2 MLOAD DUP1 ISZERO ISZERO DUP2 EQ PUSH2 0x1E2 JUMPI PUSH1 0x0 DUP1 REVERT JUMPDEST PUSH4 0x4E487B71 PUSH1 0xE0 SHL PUSH1 0x0 MSTORE PUSH1 0x41 PUSH1 0x4 MSTORE PUSH1 0x24 PUSH1 0x0 REVERT JUMPDEST PUSH1 0x0 DUP3 PUSH1 0x1F DUP4 ADD SLT PUSH2 0x2EF JUMPI PUSH1 0x0 DUP1 REVERT JUMPDEST DUP2 MLOAD PUSH8 0xFFFFFFFFFFFFFFFF DUP2 GT ISZERO PUSH2 0x309 JUMPI PUSH2 0x309 PUSH2 0x2C8 JUMP JUMPDEST PUSH1 0x40 MLOAD PUSH1 0x1F DUP3 ADD PUSH1 0x1F NOT SWAP1 DUP2 AND PUSH1 0x3F ADD AND DUP2 ADD PUSH8 0xFFFFFFFFFFFFFFFF DUP2 GT DUP3 DUP3 LT OR ISZERO PUSH2 0x338 JUMPI PUSH2 0x338 PUSH2 0x2C8 JUMP JUMPDEST PUSH1 0x40 MSTORE DUP2 DUP2 MSTORE DUP4 DUP3 ADD PUSH1 0x20 ADD DUP6 LT ISZERO PUSH2 0x350 JUMPI PUSH1 0x0 DUP1 REVERT JUMPDEST PUSH2 0x361 DUP3 PUSH1 0x20 DUP4 ADD PUSH1 0x20 DUP8 ADD PUSH2 0x1E9 JUMP JUMPDEST SWAP5 SWAP4 POP POP POP POP JUMP JUMPDEST PUSH1 0x0 DUP1 PUSH1 0x0 DUP1 PUSH1 0x0 PUSH1 0xA0 DUP7 DUP9 SUB SLT ISZERO PUSH2 0x381 JUMPI PUSH1 0x0 DUP1 REVERT JUMPDEST DUP6 MLOAD PUSH8 0xFFFFFFFFFFFFFFFF DUP2 GT ISZERO PUSH2 0x398 JUMPI PUSH1 0x0 DUP1 REVERT JUMPDEST PUSH2 0x3A4 DUP9 DUP3 DUP10 ADD PUSH2 0x2DE JUMP JUMPDEST SWAP6 POP POP PUSH1 0x20 DUP7 ADD MLOAD PUSH8 0xFFFFFFFFFFFFFFFF DUP2 GT ISZERO PUSH2 0x3C1 JUMPI PUSH1 0x0 DUP1 REVERT JUMPDEST PUSH2 0x3CD DUP9 DUP3 DUP10 ADD PUSH2 0x2DE JUMP JUMPDEST SWAP5 POP POP PUSH1 0x40 DUP7 ADD MLOAD PUSH8 0xFFFFFFFFFFFFFFFF DUP2 GT ISZERO PUSH2 0x3EA JUMPI PUSH1 0x0 DUP1 REVERT JUMPDEST PUSH2 0x3F6 DUP9 DUP3 DUP10 ADD PUSH2 0x2DE JUMP JUMPDEST SWAP4 POP POP PUSH1 0x60 DUP7 ADD MLOAD PUSH8 0xFFFFFFFFFFFFFFFF DUP2 GT ISZERO PUSH2 0x413 JUMPI PUSH1 0x0 DUP1 REVERT JUMPDEST PUSH2 0x41F DUP9 DUP3 DUP10 ADD PUSH2 0x2DE JUMP JUMPDEST SWAP3 POP POP PUSH1 0x80 DUP7 ADD MLOAD PUSH8 0xFFFFFFFFFFFFFFFF DUP2 GT ISZERO PUSH2 0x43C JUMPI PUSH1 0x0 DUP1 REVERT JUMPDEST PUSH2 0x448 DUP9 DUP3 DUP10 ADD PUSH2 0x2DE JUMP JUMPDEST SWAP2 POP POP SWAP3 SWAP6 POP SWAP3 SWAP6 SWAP1 SWAP4 POP JUMP INVALID LOG2 PUSH5 0x6970667358 0x22 SLT KECCAK256 0xD0 0xCF PUSH17 0xFC58BAA635E3E194165A56B30DB2E85AE1 CREATE 0x2B 0xFC 0xA9 0xB6 0xD6 0xD7 MUL 0xC2 0x29 PC 0xD8 PUSH5 0x736F6C6343 STOP ADDMOD BYTE STOP CALLER "
				},
				"gasEstimates": {
					"creation": {
						"codeDepositCost": "232600",
						"executionCost": "infinite",
						"totalCost": "infinite"
					},
					"external": {
						"searchPatientDemographic(address)": "infinite"
					}
				},
				"methodIdentifiers": {
					"searchPatientDemographic(address)": "3bc98280"
				}
			},
			"storageLayout": {
				"storage": [
					{
						"astId": 680,
						"contract": "contracts/queries/queriesContract.sol:QueriesContract",
						"label": "patientsContract",
						"offset": 0,
						"slot": "0",
						"type": "t_contract(PatientsContract)620"
					},
					{
						"astId": 683,
						"contract": "contracts/queries/queriesContract.sol:QueriesContract",
						"label": "permissionsContract",
						"offset": 0,
						"slot": "1",
						"type": "t_contract(PermissionsContract)673"
					}
				],
				"types": {
					"t_contract(PatientsContract)620": {
						"encoding": "inplace",
						"label": "contract PatientsContract",
						"numberOfBytes": "20"
					},
					"t_contract(PermissionsContract)673": {
						"encoding": "inplace",
						"label": "contract PermissionsContract",
						"numberOfBytes": "20"
					}
				}
			},
			"userdoc": {
				"kind": "user",
				"methods": {},
				"version": 1
			}
		}
	}
}