{
	"contracts/doctors/doctorsContract.sol": {
		"DoctorsContract": {
			"abi": [
				{
					"inputs": [],
					"name": "doctorCount",
					"outputs": [
						{
							"internalType": "uint256",
							"name": "",
							"type": "uint256"
						}
					],
					"stateMutability": "view",
					"type": "function"
				},
				{
					"inputs": [
						{
							"internalType": "uint256",
							"name": "",
							"type": "uint256"
						}
					],
					"name": "doctorList",
					"outputs": [
						{
							"internalType": "address",
							"name": "",
							"type": "address"
						}
					],
					"stateMutability": "view",
					"type": "function"
				},
				{
					"inputs": [],
					"name": "getDoctors",
					"outputs": [
						{
							"internalType": "address[]",
							"name": "",
							"type": "address[]"
						}
					],
					"stateMutability": "view",
					"type": "function"
				},
				{
					"inputs": [
						{
							"internalType": "string",
							"name": "_id",
							"type": "string"
						},
						{
							"internalType": "string",
							"name": "_name",
							"type": "string"
						},
						{
							"internalType": "string",
							"name": "_phone",
							"type": "string"
						},
						{
							"internalType": "string",
							"name": "_gender",
							"type": "string"
						},
						{
							"internalType": "string",
							"name": "_dob",
							"type": "string"
						},
						{
							"internalType": "string",
							"name": "_qualification",
							"type": "string"
						},
						{
							"internalType": "string",
							"name": "_major",
							"type": "string"
						}
					],
					"name": "setDoctor",
					"outputs": [],
					"stateMutability": "nonpayable",
					"type": "function"
				}
			],
			"devdoc": {
				"kind": "dev",
				"methods": {},
				"version": 1
			},
			"evm": {
				"assembly": "    /* \"contracts/doctors/doctorsContract.sol\":103:1220  contract DoctorsContract {... */\n  mstore(0x40, 0x80)\n    /* \"contracts/doctors/doctorsContract.sol\":200:201  0 */\n  0x00\n    /* \"contracts/doctors/doctorsContract.sol\":171:201  uint256 public doctorCount = 0 */\n  0x01\n  sstore\n    /* \"contracts/doctors/doctorsContract.sol\":103:1220  contract DoctorsContract {... */\n  callvalue\n  dup1\n  iszero\n  tag_1\n  jumpi\n  0x00\n  dup1\n  revert\ntag_1:\n  pop\n  dataSize(sub_0)\n  dup1\n  dataOffset(sub_0)\n  0x00\n  codecopy\n  0x00\n  return\nstop\n\nsub_0: assembly {\n        /* \"contracts/doctors/doctorsContract.sol\":103:1220  contract DoctorsContract {... */\n      mstore(0x40, 0x80)\n      callvalue\n      dup1\n      iszero\n      tag_1\n      jumpi\n      0x00\n      dup1\n      revert\n    tag_1:\n      pop\n      jumpi(tag_2, lt(calldatasize, 0x04))\n      shr(0xe0, calldataload(0x00))\n      dup1\n      0x127ca4b4\n      eq\n      tag_3\n      jumpi\n      dup1\n      0x78522bc4\n      eq\n      tag_4\n      jumpi\n      dup1\n      0x8b945c6d\n      eq\n      tag_5\n      jumpi\n      dup1\n      0xb13d5d94\n      eq\n      tag_6\n      jumpi\n    tag_2:\n      0x00\n      dup1\n      revert\n        /* \"contracts/doctors/doctorsContract.sol\":135:162  address[] public doctorList */\n    tag_3:\n      tag_7\n      tag_8\n      calldatasize\n      0x04\n      tag_9\n      jump\t// in\n    tag_8:\n      tag_10\n      jump\t// in\n    tag_7:\n      mload(0x40)\n      sub(shl(0xa0, 0x01), 0x01)\n        /* \"#utility.yul\":363:395   */\n      swap1\n      swap2\n      and\n        /* \"#utility.yul\":345:396   */\n      dup2\n      mstore\n        /* \"#utility.yul\":333:335   */\n      0x20\n        /* \"#utility.yul\":318:336   */\n      add\n        /* \"contracts/doctors/doctorsContract.sol\":135:162  address[] public doctorList */\n    tag_11:\n      mload(0x40)\n      dup1\n      swap2\n      sub\n      swap1\n      return\n        /* \"contracts/doctors/doctorsContract.sol\":171:201  uint256 public doctorCount = 0 */\n    tag_4:\n      tag_13\n      sload(0x01)\n      dup2\n      jump\n    tag_13:\n      mload(0x40)\n        /* \"#utility.yul\":553:578   */\n      swap1\n      dup2\n      mstore\n        /* \"#utility.yul\":541:543   */\n      0x20\n        /* \"#utility.yul\":526:544   */\n      add\n        /* \"contracts/doctors/doctorsContract.sol\":171:201  uint256 public doctorCount = 0 */\n      tag_11\n        /* \"#utility.yul\":407:584   */\n      jump\n        /* \"contracts/doctors/doctorsContract.sol\":360:1113  function setDoctor(... */\n    tag_5:\n      tag_17\n      tag_18\n      calldatasize\n      0x04\n      tag_19\n      jump\t// in\n    tag_18:\n      tag_20\n      jump\t// in\n    tag_17:\n      stop\n        /* \"contracts/doctors/doctorsContract.sol\":1121:1217  function getDoctors() public view returns(address[] memory) {... */\n    tag_6:\n      tag_21\n      tag_22\n      jump\t// in\n    tag_21:\n      mload(0x40)\n      tag_11\n      swap2\n      swap1\n      tag_24\n      jump\t// in\n        /* \"contracts/doctors/doctorsContract.sol\":135:162  address[] public doctorList */\n    tag_10:\n      0x00\n      dup2\n      dup2\n      sload\n      dup2\n      lt\n      tag_25\n      jumpi\n      0x00\n      dup1\n      revert\n    tag_25:\n      0x00\n      swap2\n      dup3\n      mstore\n      0x20\n      swap1\n      swap2\n      keccak256\n      add\n      sload\n      sub(shl(0xa0, 0x01), 0x01)\n      and\n      swap1\n      pop\n      dup2\n      jump\t// out\n        /* \"contracts/doctors/doctorsContract.sol\":360:1113  function setDoctor(... */\n    tag_20:\n        /* \"contracts/doctors/doctorsContract.sol\":645:655  msg.sender */\n      caller\n        /* \"contracts/doctors/doctorsContract.sol\":636:656  isDoctor[msg.sender] */\n      0x00\n      swap1\n      dup2\n      mstore\n        /* \"contracts/doctors/doctorsContract.sol\":636:644  isDoctor */\n      0x03\n        /* \"contracts/doctors/doctorsContract.sol\":636:656  isDoctor[msg.sender] */\n      0x20\n      mstore\n      0x40\n      swap1\n      keccak256\n      sload\n      0xff\n      and\n        /* \"contracts/doctors/doctorsContract.sol\":635:656  !isDoctor[msg.sender] */\n      iszero\n        /* \"contracts/doctors/doctorsContract.sol\":627:686  require(!isDoctor[msg.sender], \"Doctor already registered\") */\n      tag_28\n      jumpi\n      mload(0x40)\n      shl(0xe5, 0x461bcd)\n      dup2\n      mstore\n        /* \"#utility.yul\":3923:3925   */\n      0x20\n        /* \"contracts/doctors/doctorsContract.sol\":627:686  require(!isDoctor[msg.sender], \"Doctor already registered\") */\n      0x04\n      dup3\n      add\n        /* \"#utility.yul\":3905:3926   */\n      mstore\n        /* \"#utility.yul\":3962:3964   */\n      0x19\n        /* \"#utility.yul\":3942:3960   */\n      0x24\n      dup3\n      add\n        /* \"#utility.yul\":3935:3965   */\n      mstore\n        /* \"#utility.yul\":4001:4028   */\n      0x446f63746f7220616c7265616479207265676973746572656400000000000000\n        /* \"#utility.yul\":3981:3999   */\n      0x44\n      dup3\n      add\n        /* \"#utility.yul\":3974:4029   */\n      mstore\n        /* \"#utility.yul\":4046:4064   */\n      0x64\n      add\n        /* \"contracts/doctors/doctorsContract.sol\":627:686  require(!isDoctor[msg.sender], \"Doctor already registered\") */\n      mload(0x40)\n      dup1\n      swap2\n      sub\n      swap1\n      revert\n    tag_28:\n        /* \"contracts/doctors/doctorsContract.sol\":725:735  msg.sender */\n      caller\n        /* \"contracts/doctors/doctorsContract.sol\":697:714  Doctors storage d */\n      0x00\n        /* \"contracts/doctors/doctorsContract.sol\":717:736  doctors[msg.sender] */\n      swap1\n      dup2\n      mstore\n        /* \"contracts/doctors/doctorsContract.sol\":717:724  doctors */\n      0x02\n        /* \"contracts/doctors/doctorsContract.sol\":717:736  doctors[msg.sender] */\n      0x20\n      mstore\n      0x40\n      swap1\n      keccak256\n      dup1\n        /* \"contracts/doctors/doctorsContract.sol\":749:759  d.id = _id */\n      tag_31\n        /* \"contracts/doctors/doctorsContract.sol\":756:759  _id */\n      dup10\n        /* \"contracts/doctors/doctorsContract.sol\":717:736  doctors[msg.sender] */\n      dup3\n        /* \"contracts/doctors/doctorsContract.sol\":749:759  d.id = _id */\n      tag_32\n      jump\t// in\n    tag_31:\n      pop\n        /* \"contracts/doctors/doctorsContract.sol\":770:776  d.name */\n      0x01\n      dup2\n      add\n        /* \"contracts/doctors/doctorsContract.sol\":770:784  d.name = _name */\n      tag_33\n        /* \"contracts/doctors/doctorsContract.sol\":779:784  _name */\n      dup9\n        /* \"contracts/doctors/doctorsContract.sol\":770:776  d.name */\n      dup3\n        /* \"contracts/doctors/doctorsContract.sol\":770:784  d.name = _name */\n      tag_32\n      jump\t// in\n    tag_33:\n      pop\n        /* \"contracts/doctors/doctorsContract.sol\":795:802  d.phone */\n      0x02\n      dup2\n      add\n        /* \"contracts/doctors/doctorsContract.sol\":795:811  d.phone = _phone */\n      tag_34\n        /* \"contracts/doctors/doctorsContract.sol\":805:811  _phone */\n      dup8\n        /* \"contracts/doctors/doctorsContract.sol\":795:802  d.phone */\n      dup3\n        /* \"contracts/doctors/doctorsContract.sol\":795:811  d.phone = _phone */\n      tag_32\n      jump\t// in\n    tag_34:\n      pop\n        /* \"contracts/doctors/doctorsContract.sol\":822:830  d.gender */\n      0x03\n      dup2\n      add\n        /* \"contracts/doctors/doctorsContract.sol\":822:840  d.gender = _gender */\n      tag_35\n        /* \"contracts/doctors/doctorsContract.sol\":833:840  _gender */\n      dup7\n        /* \"contracts/doctors/doctorsContract.sol\":822:830  d.gender */\n      dup3\n        /* \"contracts/doctors/doctorsContract.sol\":822:840  d.gender = _gender */\n      tag_32\n      jump\t// in\n    tag_35:\n      pop\n        /* \"contracts/doctors/doctorsContract.sol\":851:856  d.dob */\n      0x04\n      dup2\n      add\n        /* \"contracts/doctors/doctorsContract.sol\":851:863  d.dob = _dob */\n      tag_36\n        /* \"contracts/doctors/doctorsContract.sol\":859:863  _dob */\n      dup6\n        /* \"contracts/doctors/doctorsContract.sol\":851:856  d.dob */\n      dup3\n        /* \"contracts/doctors/doctorsContract.sol\":851:863  d.dob = _dob */\n      tag_32\n      jump\t// in\n    tag_36:\n      pop\n        /* \"contracts/doctors/doctorsContract.sol\":874:889  d.qualification */\n      0x05\n      dup2\n      add\n        /* \"contracts/doctors/doctorsContract.sol\":874:906  d.qualification = _qualification */\n      tag_37\n        /* \"contracts/doctors/doctorsContract.sol\":892:906  _qualification */\n      dup5\n        /* \"contracts/doctors/doctorsContract.sol\":874:889  d.qualification */\n      dup3\n        /* \"contracts/doctors/doctorsContract.sol\":874:906  d.qualification = _qualification */\n      tag_32\n      jump\t// in\n    tag_37:\n      pop\n        /* \"contracts/doctors/doctorsContract.sol\":917:924  d.major */\n      0x06\n      dup2\n      add\n        /* \"contracts/doctors/doctorsContract.sol\":917:933  d.major = _major */\n      tag_38\n        /* \"contracts/doctors/doctorsContract.sol\":927:933  _major */\n      dup4\n        /* \"contracts/doctors/doctorsContract.sol\":917:924  d.major */\n      dup3\n        /* \"contracts/doctors/doctorsContract.sol\":917:933  d.major = _major */\n      tag_32\n      jump\t// in\n    tag_38:\n      pop\n        /* \"contracts/doctors/doctorsContract.sol\":944:950  d.addr */\n      0x07\n      dup2\n      add\n        /* \"contracts/doctors/doctorsContract.sol\":944:963  d.addr = msg.sender */\n      dup1\n      sload\n        /* \"contracts/doctors/doctorsContract.sol\":953:963  msg.sender */\n      caller\n      not(sub(shl(0xa0, 0x01), 0x01))\n        /* \"contracts/doctors/doctorsContract.sol\":944:963  d.addr = msg.sender */\n      swap2\n      dup3\n      and\n      dup2\n      or\n      swap1\n      swap3\n      sstore\n        /* \"contracts/doctors/doctorsContract.sol\":988:1003  block.timestamp */\n      timestamp\n        /* \"contracts/doctors/doctorsContract.sol\":974:985  d.timestamp */\n      0x08\n      dup5\n      add\n        /* \"contracts/doctors/doctorsContract.sol\":974:1003  d.timestamp = block.timestamp */\n      sstore\n      0x00\n        /* \"contracts/doctors/doctorsContract.sol\":1016:1043  doctorList.push(msg.sender) */\n      dup1\n      sload\n      0x01\n      dup2\n      dup2\n      add\n      dup4\n      sstore\n      0x290decd9548b62a8d60345a988386fc84ba6bc95484008f6362f93160ef3e563\n      swap1\n      swap2\n      add\n      dup1\n      sload\n      swap1\n      swap4\n      and\n      dup5\n      or\n      swap1\n      swap3\n      sstore\n        /* \"contracts/doctors/doctorsContract.sol\":1054:1074  isDoctor[msg.sender] */\n      swap2\n      dup3\n      mstore\n        /* \"contracts/doctors/doctorsContract.sol\":1054:1062  isDoctor */\n      0x03\n        /* \"contracts/doctors/doctorsContract.sol\":1016:1043  doctorList.push(msg.sender) */\n      0x20\n        /* \"contracts/doctors/doctorsContract.sol\":1054:1074  isDoctor[msg.sender] */\n      mstore\n      0x40\n      dup3\n      keccak256\n        /* \"contracts/doctors/doctorsContract.sol\":1054:1081  isDoctor[msg.sender] = true */\n      dup1\n      sload\n      not(0xff)\n      and\n      dup3\n      or\n      swap1\n      sstore\n        /* \"contracts/doctors/doctorsContract.sol\":1092:1105  doctorCount++ */\n      dup1\n      sload\n      swap2\n      tag_40\n      dup4\n      tag_41\n      jump\t// in\n    tag_40:\n      swap2\n      swap1\n      pop\n      sstore\n      pop\n        /* \"contracts/doctors/doctorsContract.sol\":616:1113  {... */\n      pop\n        /* \"contracts/doctors/doctorsContract.sol\":360:1113  function setDoctor(... */\n      pop\n      pop\n      pop\n      pop\n      pop\n      pop\n      pop\n      jump\t// out\n        /* \"contracts/doctors/doctorsContract.sol\":1121:1217  function getDoctors() public view returns(address[] memory) {... */\n    tag_22:\n        /* \"contracts/doctors/doctorsContract.sol\":1163:1179  address[] memory */\n      0x60\n        /* \"contracts/doctors/doctorsContract.sol\":1199:1209  doctorList */\n      0x00\n        /* \"contracts/doctors/doctorsContract.sol\":1192:1209  return doctorList */\n      dup1\n      sload\n      dup1\n      0x20\n      mul\n      0x20\n      add\n      mload(0x40)\n      swap1\n      dup2\n      add\n      0x40\n      mstore\n      dup1\n      swap3\n      swap2\n      swap1\n      dup2\n      dup2\n      mstore\n      0x20\n      add\n      dup3\n      dup1\n      sload\n      dup1\n      iszero\n      tag_43\n      jumpi\n      0x20\n      mul\n      dup3\n      add\n      swap2\n      swap1\n      0x00\n      mstore\n      keccak256(0x00, 0x20)\n      swap1\n    tag_44:\n      dup2\n      sload\n      sub(shl(0xa0, 0x01), 0x01)\n      and\n      dup2\n      mstore\n      0x01\n      swap1\n      swap2\n      add\n      swap1\n      0x20\n      add\n      dup1\n      dup4\n      gt\n      tag_44\n      jumpi\n    tag_43:\n      pop\n      pop\n      pop\n      pop\n      pop\n      swap1\n      pop\n        /* \"contracts/doctors/doctorsContract.sol\":1121:1217  function getDoctors() public view returns(address[] memory) {... */\n      swap1\n      jump\t// out\n        /* \"#utility.yul\":14:194   */\n    tag_9:\n        /* \"#utility.yul\":73:79   */\n      0x00\n        /* \"#utility.yul\":126:128   */\n      0x20\n        /* \"#utility.yul\":114:123   */\n      dup3\n        /* \"#utility.yul\":105:112   */\n      dup5\n        /* \"#utility.yul\":101:124   */\n      sub\n        /* \"#utility.yul\":97:129   */\n      slt\n        /* \"#utility.yul\":94:146   */\n      iszero\n      tag_53\n      jumpi\n        /* \"#utility.yul\":142:143   */\n      0x00\n        /* \"#utility.yul\":139:140   */\n      dup1\n        /* \"#utility.yul\":132:144   */\n      revert\n        /* \"#utility.yul\":94:146   */\n    tag_53:\n      pop\n        /* \"#utility.yul\":165:188   */\n      calldataload\n      swap2\n        /* \"#utility.yul\":14:194   */\n      swap1\n      pop\n      jump\t// out\n        /* \"#utility.yul\":589:716   */\n    tag_45:\n        /* \"#utility.yul\":650:660   */\n      0x4e487b71\n        /* \"#utility.yul\":645:648   */\n      0xe0\n        /* \"#utility.yul\":641:661   */\n      shl\n        /* \"#utility.yul\":638:639   */\n      0x00\n        /* \"#utility.yul\":631:662   */\n      mstore\n        /* \"#utility.yul\":681:685   */\n      0x41\n        /* \"#utility.yul\":678:679   */\n      0x04\n        /* \"#utility.yul\":671:686   */\n      mstore\n        /* \"#utility.yul\":705:709   */\n      0x24\n        /* \"#utility.yul\":702:703   */\n      0x00\n        /* \"#utility.yul\":695:710   */\n      revert\n        /* \"#utility.yul\":721:1447   */\n    tag_46:\n        /* \"#utility.yul\":764:769   */\n      0x00\n        /* \"#utility.yul\":817:820   */\n      dup3\n        /* \"#utility.yul\":810:814   */\n      0x1f\n        /* \"#utility.yul\":802:808   */\n      dup4\n        /* \"#utility.yul\":798:815   */\n      add\n        /* \"#utility.yul\":794:821   */\n      slt\n        /* \"#utility.yul\":784:839   */\n      tag_58\n      jumpi\n        /* \"#utility.yul\":835:836   */\n      0x00\n        /* \"#utility.yul\":832:833   */\n      dup1\n        /* \"#utility.yul\":825:837   */\n      revert\n        /* \"#utility.yul\":784:839   */\n    tag_58:\n        /* \"#utility.yul\":875:881   */\n      dup2\n        /* \"#utility.yul\":862:882   */\n      calldataload\n        /* \"#utility.yul\":905:923   */\n      0xffffffffffffffff\n        /* \"#utility.yul\":897:903   */\n      dup2\n        /* \"#utility.yul\":894:924   */\n      gt\n        /* \"#utility.yul\":891:947   */\n      iszero\n      tag_60\n      jumpi\n        /* \"#utility.yul\":927:945   */\n      tag_60\n      tag_45\n      jump\t// in\n    tag_60:\n        /* \"#utility.yul\":976:978   */\n      0x40\n        /* \"#utility.yul\":970:979   */\n      mload\n        /* \"#utility.yul\":1068:1070   */\n      0x1f\n        /* \"#utility.yul\":1030:1047   */\n      dup3\n      add\n      not(0x1f)\n        /* \"#utility.yul\":1026:1057   */\n      swap1\n      dup2\n      and\n        /* \"#utility.yul\":1059:1061   */\n      0x3f\n        /* \"#utility.yul\":1022:1062   */\n      add\n        /* \"#utility.yul\":1018:1072   */\n      and\n        /* \"#utility.yul\":1006:1073   */\n      dup2\n      add\n        /* \"#utility.yul\":1103:1121   */\n      0xffffffffffffffff\n        /* \"#utility.yul\":1088:1122   */\n      dup2\n      gt\n        /* \"#utility.yul\":1124:1146   */\n      dup3\n      dup3\n      lt\n        /* \"#utility.yul\":1085:1147   */\n      or\n        /* \"#utility.yul\":1082:1170   */\n      iszero\n      tag_62\n      jumpi\n        /* \"#utility.yul\":1150:1168   */\n      tag_62\n      tag_45\n      jump\t// in\n    tag_62:\n        /* \"#utility.yul\":1186:1188   */\n      0x40\n        /* \"#utility.yul\":1179:1201   */\n      mstore\n        /* \"#utility.yul\":1210:1232   */\n      dup2\n      dup2\n      mstore\n        /* \"#utility.yul\":1251:1270   */\n      dup4\n      dup3\n      add\n        /* \"#utility.yul\":1272:1276   */\n      0x20\n        /* \"#utility.yul\":1247:1277   */\n      add\n        /* \"#utility.yul\":1244:1283   */\n      dup6\n      lt\n        /* \"#utility.yul\":1241:1300   */\n      iszero\n      tag_63\n      jumpi\n        /* \"#utility.yul\":1296:1297   */\n      0x00\n        /* \"#utility.yul\":1293:1294   */\n      dup1\n        /* \"#utility.yul\":1286:1298   */\n      revert\n        /* \"#utility.yul\":1241:1300   */\n    tag_63:\n        /* \"#utility.yul\":1360:1366   */\n      dup2\n        /* \"#utility.yul\":1353:1357   */\n      0x20\n        /* \"#utility.yul\":1345:1351   */\n      dup6\n        /* \"#utility.yul\":1341:1358   */\n      add\n        /* \"#utility.yul\":1334:1338   */\n      0x20\n        /* \"#utility.yul\":1326:1332   */\n      dup4\n        /* \"#utility.yul\":1322:1339   */\n      add\n        /* \"#utility.yul\":1309:1367   */\n      calldatacopy\n        /* \"#utility.yul\":1415:1416   */\n      0x00\n        /* \"#utility.yul\":1387:1406   */\n      swap2\n      dup2\n      add\n        /* \"#utility.yul\":1408:1412   */\n      0x20\n        /* \"#utility.yul\":1383:1413   */\n      add\n        /* \"#utility.yul\":1376:1417   */\n      swap2\n      swap1\n      swap2\n      mstore\n        /* \"#utility.yul\":1391:1397   */\n      swap4\n        /* \"#utility.yul\":721:1447   */\n      swap3\n      pop\n      pop\n      pop\n      jump\t// out\n        /* \"#utility.yul\":1452:3074   */\n    tag_19:\n        /* \"#utility.yul\":1635:1641   */\n      0x00\n        /* \"#utility.yul\":1643:1649   */\n      dup1\n        /* \"#utility.yul\":1651:1657   */\n      0x00\n        /* \"#utility.yul\":1659:1665   */\n      dup1\n        /* \"#utility.yul\":1667:1673   */\n      0x00\n        /* \"#utility.yul\":1675:1681   */\n      dup1\n        /* \"#utility.yul\":1683:1689   */\n      0x00\n        /* \"#utility.yul\":1736:1739   */\n      0xe0\n        /* \"#utility.yul\":1724:1733   */\n      dup9\n        /* \"#utility.yul\":1715:1722   */\n      dup11\n        /* \"#utility.yul\":1711:1734   */\n      sub\n        /* \"#utility.yul\":1707:1740   */\n      slt\n        /* \"#utility.yul\":1704:1757   */\n      iszero\n      tag_65\n      jumpi\n        /* \"#utility.yul\":1753:1754   */\n      0x00\n        /* \"#utility.yul\":1750:1751   */\n      dup1\n        /* \"#utility.yul\":1743:1755   */\n      revert\n        /* \"#utility.yul\":1704:1757   */\n    tag_65:\n        /* \"#utility.yul\":1793:1802   */\n      dup8\n        /* \"#utility.yul\":1780:1803   */\n      calldataload\n        /* \"#utility.yul\":1826:1844   */\n      0xffffffffffffffff\n        /* \"#utility.yul\":1818:1824   */\n      dup2\n        /* \"#utility.yul\":1815:1845   */\n      gt\n        /* \"#utility.yul\":1812:1862   */\n      iszero\n      tag_66\n      jumpi\n        /* \"#utility.yul\":1858:1859   */\n      0x00\n        /* \"#utility.yul\":1855:1856   */\n      dup1\n        /* \"#utility.yul\":1848:1860   */\n      revert\n        /* \"#utility.yul\":1812:1862   */\n    tag_66:\n        /* \"#utility.yul\":1881:1931   */\n      tag_67\n        /* \"#utility.yul\":1923:1930   */\n      dup11\n        /* \"#utility.yul\":1914:1920   */\n      dup3\n        /* \"#utility.yul\":1903:1912   */\n      dup12\n        /* \"#utility.yul\":1899:1921   */\n      add\n        /* \"#utility.yul\":1881:1931   */\n      tag_46\n      jump\t// in\n    tag_67:\n        /* \"#utility.yul\":1871:1931   */\n      swap8\n      pop\n      pop\n        /* \"#utility.yul\":1984:1986   */\n      0x20\n        /* \"#utility.yul\":1973:1982   */\n      dup9\n        /* \"#utility.yul\":1969:1987   */\n      add\n        /* \"#utility.yul\":1956:1988   */\n      calldataload\n        /* \"#utility.yul\":2013:2031   */\n      0xffffffffffffffff\n        /* \"#utility.yul\":2003:2011   */\n      dup2\n        /* \"#utility.yul\":2000:2032   */\n      gt\n        /* \"#utility.yul\":1997:2049   */\n      iszero\n      tag_68\n      jumpi\n        /* \"#utility.yul\":2045:2046   */\n      0x00\n        /* \"#utility.yul\":2042:2043   */\n      dup1\n        /* \"#utility.yul\":2035:2047   */\n      revert\n        /* \"#utility.yul\":1997:2049   */\n    tag_68:\n        /* \"#utility.yul\":2068:2120   */\n      tag_69\n        /* \"#utility.yul\":2112:2119   */\n      dup11\n        /* \"#utility.yul\":2101:2109   */\n      dup3\n        /* \"#utility.yul\":2090:2099   */\n      dup12\n        /* \"#utility.yul\":2086:2110   */\n      add\n        /* \"#utility.yul\":2068:2120   */\n      tag_46\n      jump\t// in\n    tag_69:\n        /* \"#utility.yul\":2058:2120   */\n      swap7\n      pop\n      pop\n        /* \"#utility.yul\":2173:2175   */\n      0x40\n        /* \"#utility.yul\":2162:2171   */\n      dup9\n        /* \"#utility.yul\":2158:2176   */\n      add\n        /* \"#utility.yul\":2145:2177   */\n      calldataload\n        /* \"#utility.yul\":2202:2220   */\n      0xffffffffffffffff\n        /* \"#utility.yul\":2192:2200   */\n      dup2\n        /* \"#utility.yul\":2189:2221   */\n      gt\n        /* \"#utility.yul\":2186:2238   */\n      iszero\n      tag_70\n      jumpi\n        /* \"#utility.yul\":2234:2235   */\n      0x00\n        /* \"#utility.yul\":2231:2232   */\n      dup1\n        /* \"#utility.yul\":2224:2236   */\n      revert\n        /* \"#utility.yul\":2186:2238   */\n    tag_70:\n        /* \"#utility.yul\":2257:2309   */\n      tag_71\n        /* \"#utility.yul\":2301:2308   */\n      dup11\n        /* \"#utility.yul\":2290:2298   */\n      dup3\n        /* \"#utility.yul\":2279:2288   */\n      dup12\n        /* \"#utility.yul\":2275:2299   */\n      add\n        /* \"#utility.yul\":2257:2309   */\n      tag_46\n      jump\t// in\n    tag_71:\n        /* \"#utility.yul\":2247:2309   */\n      swap6\n      pop\n      pop\n        /* \"#utility.yul\":2362:2364   */\n      0x60\n        /* \"#utility.yul\":2351:2360   */\n      dup9\n        /* \"#utility.yul\":2347:2365   */\n      add\n        /* \"#utility.yul\":2334:2366   */\n      calldataload\n        /* \"#utility.yul\":2391:2409   */\n      0xffffffffffffffff\n        /* \"#utility.yul\":2381:2389   */\n      dup2\n        /* \"#utility.yul\":2378:2410   */\n      gt\n        /* \"#utility.yul\":2375:2427   */\n      iszero\n      tag_72\n      jumpi\n        /* \"#utility.yul\":2423:2424   */\n      0x00\n        /* \"#utility.yul\":2420:2421   */\n      dup1\n        /* \"#utility.yul\":2413:2425   */\n      revert\n        /* \"#utility.yul\":2375:2427   */\n    tag_72:\n        /* \"#utility.yul\":2446:2498   */\n      tag_73\n        /* \"#utility.yul\":2490:2497   */\n      dup11\n        /* \"#utility.yul\":2479:2487   */\n      dup3\n        /* \"#utility.yul\":2468:2477   */\n      dup12\n        /* \"#utility.yul\":2464:2488   */\n      add\n        /* \"#utility.yul\":2446:2498   */\n      tag_46\n      jump\t// in\n    tag_73:\n        /* \"#utility.yul\":2436:2498   */\n      swap5\n      pop\n      pop\n        /* \"#utility.yul\":2551:2554   */\n      0x80\n        /* \"#utility.yul\":2540:2549   */\n      dup9\n        /* \"#utility.yul\":2536:2555   */\n      add\n        /* \"#utility.yul\":2523:2556   */\n      calldataload\n        /* \"#utility.yul\":2581:2599   */\n      0xffffffffffffffff\n        /* \"#utility.yul\":2571:2579   */\n      dup2\n        /* \"#utility.yul\":2568:2600   */\n      gt\n        /* \"#utility.yul\":2565:2617   */\n      iszero\n      tag_74\n      jumpi\n        /* \"#utility.yul\":2613:2614   */\n      0x00\n        /* \"#utility.yul\":2610:2611   */\n      dup1\n        /* \"#utility.yul\":2603:2615   */\n      revert\n        /* \"#utility.yul\":2565:2617   */\n    tag_74:\n        /* \"#utility.yul\":2636:2688   */\n      tag_75\n        /* \"#utility.yul\":2680:2687   */\n      dup11\n        /* \"#utility.yul\":2669:2677   */\n      dup3\n        /* \"#utility.yul\":2658:2667   */\n      dup12\n        /* \"#utility.yul\":2654:2678   */\n      add\n        /* \"#utility.yul\":2636:2688   */\n      tag_46\n      jump\t// in\n    tag_75:\n        /* \"#utility.yul\":2626:2688   */\n      swap4\n      pop\n      pop\n        /* \"#utility.yul\":2741:2744   */\n      0xa0\n        /* \"#utility.yul\":2730:2739   */\n      dup9\n        /* \"#utility.yul\":2726:2745   */\n      add\n        /* \"#utility.yul\":2713:2746   */\n      calldataload\n        /* \"#utility.yul\":2771:2789   */\n      0xffffffffffffffff\n        /* \"#utility.yul\":2761:2769   */\n      dup2\n        /* \"#utility.yul\":2758:2790   */\n      gt\n        /* \"#utility.yul\":2755:2807   */\n      iszero\n      tag_76\n      jumpi\n        /* \"#utility.yul\":2803:2804   */\n      0x00\n        /* \"#utility.yul\":2800:2801   */\n      dup1\n        /* \"#utility.yul\":2793:2805   */\n      revert\n        /* \"#utility.yul\":2755:2807   */\n    tag_76:\n        /* \"#utility.yul\":2826:2878   */\n      tag_77\n        /* \"#utility.yul\":2870:2877   */\n      dup11\n        /* \"#utility.yul\":2859:2867   */\n      dup3\n        /* \"#utility.yul\":2848:2857   */\n      dup12\n        /* \"#utility.yul\":2844:2868   */\n      add\n        /* \"#utility.yul\":2826:2878   */\n      tag_46\n      jump\t// in\n    tag_77:\n        /* \"#utility.yul\":2816:2878   */\n      swap3\n      pop\n      pop\n        /* \"#utility.yul\":2931:2934   */\n      0xc0\n        /* \"#utility.yul\":2920:2929   */\n      dup9\n        /* \"#utility.yul\":2916:2935   */\n      add\n        /* \"#utility.yul\":2903:2936   */\n      calldataload\n        /* \"#utility.yul\":2961:2979   */\n      0xffffffffffffffff\n        /* \"#utility.yul\":2951:2959   */\n      dup2\n        /* \"#utility.yul\":2948:2980   */\n      gt\n        /* \"#utility.yul\":2945:2997   */\n      iszero\n      tag_78\n      jumpi\n        /* \"#utility.yul\":2993:2994   */\n      0x00\n        /* \"#utility.yul\":2990:2991   */\n      dup1\n        /* \"#utility.yul\":2983:2995   */\n      revert\n        /* \"#utility.yul\":2945:2997   */\n    tag_78:\n        /* \"#utility.yul\":3016:3068   */\n      tag_79\n        /* \"#utility.yul\":3060:3067   */\n      dup11\n        /* \"#utility.yul\":3049:3057   */\n      dup3\n        /* \"#utility.yul\":3038:3047   */\n      dup12\n        /* \"#utility.yul\":3034:3058   */\n      add\n        /* \"#utility.yul\":3016:3068   */\n      tag_46\n      jump\t// in\n    tag_79:\n        /* \"#utility.yul\":3006:3068   */\n      swap2\n      pop\n      pop\n        /* \"#utility.yul\":1452:3074   */\n      swap3\n      swap6\n      swap9\n      swap2\n      swap5\n      swap8\n      pop\n      swap3\n      swap6\n      pop\n      jump\t// out\n        /* \"#utility.yul\":3079:3716   */\n    tag_24:\n        /* \"#utility.yul\":3269:3271   */\n      0x20\n        /* \"#utility.yul\":3281:3302   */\n      dup1\n      dup3\n      mstore\n        /* \"#utility.yul\":3351:3364   */\n      dup3\n      mload\n        /* \"#utility.yul\":3254:3272   */\n      dup3\n      dup3\n      add\n        /* \"#utility.yul\":3373:3395   */\n      dup2\n      swap1\n      mstore\n        /* \"#utility.yul\":3221:3225   */\n      0x00\n      swap2\n        /* \"#utility.yul\":3452:3467   */\n      dup5\n      add\n      swap1\n        /* \"#utility.yul\":3426:3428   */\n      0x40\n        /* \"#utility.yul\":3411:3429   */\n      dup5\n      add\n      swap1\n        /* \"#utility.yul\":3221:3225   */\n      dup4\n        /* \"#utility.yul\":3495:3690   */\n    tag_81:\n        /* \"#utility.yul\":3509:3515   */\n      dup2\n        /* \"#utility.yul\":3506:3507   */\n      dup2\n        /* \"#utility.yul\":3503:3516   */\n      lt\n        /* \"#utility.yul\":3495:3690   */\n      iszero\n      tag_83\n      jumpi\n        /* \"#utility.yul\":3574:3587   */\n      dup4\n      mload\n      sub(shl(0xa0, 0x01), 0x01)\n        /* \"#utility.yul\":3570:3609   */\n      and\n        /* \"#utility.yul\":3558:3610   */\n      dup4\n      mstore\n        /* \"#utility.yul\":3639:3641   */\n      0x20\n        /* \"#utility.yul\":3665:3680   */\n      swap4\n      dup5\n      add\n      swap4\n        /* \"#utility.yul\":3630:3642   */\n      swap1\n      swap3\n      add\n      swap2\n        /* \"#utility.yul\":3606:3607   */\n      0x01\n        /* \"#utility.yul\":3524:3533   */\n      add\n        /* \"#utility.yul\":3495:3690   */\n      jump(tag_81)\n    tag_83:\n      pop\n        /* \"#utility.yul\":3707:3710   */\n      swap1\n      swap6\n        /* \"#utility.yul\":3079:3716   */\n      swap5\n      pop\n      pop\n      pop\n      pop\n      pop\n      jump\t// out\n        /* \"#utility.yul\":4075:4455   */\n    tag_47:\n        /* \"#utility.yul\":4154:4155   */\n      0x01\n        /* \"#utility.yul\":4150:4162   */\n      dup2\n      dup2\n      shr\n      swap1\n        /* \"#utility.yul\":4197:4209   */\n      dup3\n      and\n      dup1\n        /* \"#utility.yul\":4218:4279   */\n      tag_86\n      jumpi\n        /* \"#utility.yul\":4272:4276   */\n      0x7f\n        /* \"#utility.yul\":4264:4270   */\n      dup3\n        /* \"#utility.yul\":4260:4277   */\n      and\n        /* \"#utility.yul\":4250:4277   */\n      swap2\n      pop\n        /* \"#utility.yul\":4218:4279   */\n    tag_86:\n        /* \"#utility.yul\":4325:4327   */\n      0x20\n        /* \"#utility.yul\":4317:4323   */\n      dup3\n        /* \"#utility.yul\":4314:4328   */\n      lt\n        /* \"#utility.yul\":4294:4312   */\n      dup2\n        /* \"#utility.yul\":4291:4329   */\n      sub\n        /* \"#utility.yul\":4288:4449   */\n      tag_87\n      jumpi\n        /* \"#utility.yul\":4371:4381   */\n      0x4e487b71\n        /* \"#utility.yul\":4366:4369   */\n      0xe0\n        /* \"#utility.yul\":4362:4382   */\n      shl\n        /* \"#utility.yul\":4359:4360   */\n      0x00\n        /* \"#utility.yul\":4352:4383   */\n      mstore\n        /* \"#utility.yul\":4406:4410   */\n      0x22\n        /* \"#utility.yul\":4403:4404   */\n      0x04\n        /* \"#utility.yul\":4396:4411   */\n      mstore\n        /* \"#utility.yul\":4434:4438   */\n      0x24\n        /* \"#utility.yul\":4431:4432   */\n      0x00\n        /* \"#utility.yul\":4424:4439   */\n      revert\n        /* \"#utility.yul\":4288:4449   */\n    tag_87:\n      pop\n        /* \"#utility.yul\":4075:4455   */\n      swap2\n      swap1\n      pop\n      jump\t// out\n        /* \"#utility.yul\":4586:5104   */\n    tag_49:\n        /* \"#utility.yul\":4688:4690   */\n      0x1f\n        /* \"#utility.yul\":4683:4686   */\n      dup3\n        /* \"#utility.yul\":4680:4691   */\n      gt\n        /* \"#utility.yul\":4677:5098   */\n      iszero\n      tag_90\n      jumpi\n        /* \"#utility.yul\":4724:4729   */\n      dup1\n        /* \"#utility.yul\":4721:4722   */\n      0x00\n        /* \"#utility.yul\":4714:4730   */\n      mstore\n        /* \"#utility.yul\":4768:4772   */\n      0x20\n        /* \"#utility.yul\":4765:4766   */\n      0x00\n        /* \"#utility.yul\":4755:4773   */\n      keccak256\n        /* \"#utility.yul\":4838:4840   */\n      0x1f\n        /* \"#utility.yul\":4826:4836   */\n      dup5\n        /* \"#utility.yul\":4822:4841   */\n      add\n        /* \"#utility.yul\":4819:4820   */\n      0x05\n        /* \"#utility.yul\":4815:4842   */\n      shr\n        /* \"#utility.yul\":4809:4813   */\n      dup2\n        /* \"#utility.yul\":4805:4843   */\n      add\n        /* \"#utility.yul\":4874:4878   */\n      0x20\n        /* \"#utility.yul\":4862:4872   */\n      dup6\n        /* \"#utility.yul\":4859:4879   */\n      lt\n        /* \"#utility.yul\":4856:4903   */\n      iszero\n      tag_91\n      jumpi\n      pop\n        /* \"#utility.yul\":4897:4901   */\n      dup1\n        /* \"#utility.yul\":4856:4903   */\n    tag_91:\n        /* \"#utility.yul\":4952:4954   */\n      0x1f\n        /* \"#utility.yul\":4947:4950   */\n      dup5\n        /* \"#utility.yul\":4943:4955   */\n      add\n        /* \"#utility.yul\":4940:4941   */\n      0x05\n        /* \"#utility.yul\":4936:4956   */\n      shr\n        /* \"#utility.yul\":4930:4934   */\n      dup3\n        /* \"#utility.yul\":4926:4957   */\n      add\n        /* \"#utility.yul\":4916:4957   */\n      swap2\n      pop\n        /* \"#utility.yul\":5007:5088   */\n    tag_92:\n        /* \"#utility.yul\":5025:5027   */\n      dup2\n        /* \"#utility.yul\":5018:5023   */\n      dup2\n        /* \"#utility.yul\":5015:5028   */\n      lt\n        /* \"#utility.yul\":5007:5088   */\n      iszero\n      tag_94\n      jumpi\n        /* \"#utility.yul\":5084:5085   */\n      0x00\n        /* \"#utility.yul\":5070:5086   */\n      dup2\n      sstore\n        /* \"#utility.yul\":5051:5052   */\n      0x01\n        /* \"#utility.yul\":5040:5053   */\n      add\n        /* \"#utility.yul\":5007:5088   */\n      jump(tag_92)\n    tag_94:\n        /* \"#utility.yul\":5011:5014   */\n      pop\n      pop\n        /* \"#utility.yul\":4677:5098   */\n    tag_90:\n        /* \"#utility.yul\":4586:5104   */\n      pop\n      pop\n      pop\n      jump\t// out\n        /* \"#utility.yul\":5280:6579   */\n    tag_32:\n        /* \"#utility.yul\":5406:5409   */\n      dup2\n        /* \"#utility.yul\":5400:5410   */\n      mload\n        /* \"#utility.yul\":5433:5451   */\n      0xffffffffffffffff\n        /* \"#utility.yul\":5425:5431   */\n      dup2\n        /* \"#utility.yul\":5422:5452   */\n      gt\n        /* \"#utility.yul\":5419:5475   */\n      iszero\n      tag_98\n      jumpi\n        /* \"#utility.yul\":5455:5473   */\n      tag_98\n      tag_45\n      jump\t// in\n    tag_98:\n        /* \"#utility.yul\":5484:5581   */\n      tag_99\n        /* \"#utility.yul\":5574:5580   */\n      dup2\n        /* \"#utility.yul\":5534:5572   */\n      tag_100\n        /* \"#utility.yul\":5566:5570   */\n      dup5\n        /* \"#utility.yul\":5560:5571   */\n      sload\n        /* \"#utility.yul\":5534:5572   */\n      tag_47\n      jump\t// in\n    tag_100:\n        /* \"#utility.yul\":5528:5532   */\n      dup5\n        /* \"#utility.yul\":5484:5581   */\n      tag_49\n      jump\t// in\n    tag_99:\n        /* \"#utility.yul\":5630:5634   */\n      0x20\n        /* \"#utility.yul\":5661:5663   */\n      0x1f\n        /* \"#utility.yul\":5650:5664   */\n      dup3\n      gt\n        /* \"#utility.yul\":5678:5679   */\n      0x01\n        /* \"#utility.yul\":5673:6322   */\n      dup2\n      eq\n      tag_102\n      jumpi\n        /* \"#utility.yul\":6366:6367   */\n      0x00\n        /* \"#utility.yul\":6383:6389   */\n      dup4\n        /* \"#utility.yul\":6380:6469   */\n      iszero\n      tag_103\n      jumpi\n      pop\n        /* \"#utility.yul\":6435:6454   */\n      dup5\n      dup3\n      add\n        /* \"#utility.yul\":6429:6455   */\n      mload\n        /* \"#utility.yul\":6380:6469   */\n    tag_103:\n      not(0x00)\n        /* \"#utility.yul\":5237:5238   */\n      0x03\n        /* \"#utility.yul\":5233:5244   */\n      dup6\n      swap1\n      shl\n        /* \"#utility.yul\":5229:5253   */\n      shr\n        /* \"#utility.yul\":5225:5254   */\n      not\n        /* \"#utility.yul\":5215:5255   */\n      and\n        /* \"#utility.yul\":5261:5262   */\n      0x01\n        /* \"#utility.yul\":5257:5268   */\n      dup5\n      swap1\n      shl\n        /* \"#utility.yul\":5212:5269   */\n      or\n        /* \"#utility.yul\":6482:6563   */\n      dup5\n      sstore\n        /* \"#utility.yul\":5643:6573   */\n      jump(tag_94)\n        /* \"#utility.yul\":5673:6322   */\n    tag_102:\n        /* \"#utility.yul\":4533:4534   */\n      0x00\n        /* \"#utility.yul\":4526:4540   */\n      dup5\n      dup2\n      mstore\n        /* \"#utility.yul\":4570:4574   */\n      0x20\n        /* \"#utility.yul\":4557:4575   */\n      dup2\n      keccak256\n      not(0x1f)\n        /* \"#utility.yul\":5709:5729   */\n      dup6\n      and\n      swap2\n        /* \"#utility.yul\":5827:6049   */\n    tag_106:\n        /* \"#utility.yul\":5841:5848   */\n      dup3\n        /* \"#utility.yul\":5838:5839   */\n      dup2\n        /* \"#utility.yul\":5835:5849   */\n      lt\n        /* \"#utility.yul\":5827:6049   */\n      iszero\n      tag_108\n      jumpi\n        /* \"#utility.yul\":5923:5942   */\n      dup8\n      dup6\n      add\n        /* \"#utility.yul\":5917:5943   */\n      mload\n        /* \"#utility.yul\":5902:5944   */\n      dup3\n      sstore\n        /* \"#utility.yul\":6030:6034   */\n      0x20\n        /* \"#utility.yul\":6015:6035   */\n      swap5\n      dup6\n      add\n      swap5\n        /* \"#utility.yul\":5983:5984   */\n      0x01\n        /* \"#utility.yul\":5971:5985   */\n      swap1\n      swap3\n      add\n      swap2\n        /* \"#utility.yul\":5857:5869   */\n      add\n        /* \"#utility.yul\":5827:6049   */\n      jump(tag_106)\n    tag_108:\n        /* \"#utility.yul\":5831:5834   */\n      pop\n        /* \"#utility.yul\":6077:6083   */\n      dup5\n        /* \"#utility.yul\":6068:6075   */\n      dup3\n        /* \"#utility.yul\":6065:6084   */\n      lt\n        /* \"#utility.yul\":6062:6263   */\n      iszero\n      tag_109\n      jumpi\n        /* \"#utility.yul\":6138:6157   */\n      dup7\n      dup5\n      add\n        /* \"#utility.yul\":6132:6158   */\n      mload\n      not(0x00)\n        /* \"#utility.yul\":6221:6222   */\n      0x03\n        /* \"#utility.yul\":6217:6231   */\n      dup8\n      swap1\n      shl\n        /* \"#utility.yul\":6233:6236   */\n      0xf8\n        /* \"#utility.yul\":6213:6237   */\n      and\n        /* \"#utility.yul\":6209:6246   */\n      shr\n        /* \"#utility.yul\":6205:6247   */\n      not\n        /* \"#utility.yul\":6190:6248   */\n      and\n        /* \"#utility.yul\":6175:6249   */\n      dup2\n      sstore\n        /* \"#utility.yul\":6062:6263   */\n    tag_109:\n      pop\n      pop\n      pop\n      pop\n        /* \"#utility.yul\":6309:6310   */\n      0x01\n        /* \"#utility.yul\":6293:6307   */\n      swap1\n      dup2\n      shl\n        /* \"#utility.yul\":6289:6311   */\n      add\n        /* \"#utility.yul\":6276:6312   */\n      swap1\n      sstore\n      pop\n        /* \"#utility.yul\":5280:6579   */\n      jump\t// out\n        /* \"#utility.yul\":6584:6816   */\n    tag_41:\n        /* \"#utility.yul\":6623:6626   */\n      0x00\n        /* \"#utility.yul\":6644:6661   */\n      0x01\n      dup3\n      add\n        /* \"#utility.yul\":6641:6781   */\n      tag_111\n      jumpi\n        /* \"#utility.yul\":6703:6713   */\n      0x4e487b71\n        /* \"#utility.yul\":6698:6701   */\n      0xe0\n        /* \"#utility.yul\":6694:6714   */\n      shl\n        /* \"#utility.yul\":6691:6692   */\n      0x00\n        /* \"#utility.yul\":6684:6715   */\n      mstore\n        /* \"#utility.yul\":6738:6742   */\n      0x11\n        /* \"#utility.yul\":6735:6736   */\n      0x04\n        /* \"#utility.yul\":6728:6743   */\n      mstore\n        /* \"#utility.yul\":6766:6770   */\n      0x24\n        /* \"#utility.yul\":6763:6764   */\n      0x00\n        /* \"#utility.yul\":6756:6771   */\n      revert\n        /* \"#utility.yul\":6641:6781   */\n    tag_111:\n      pop\n        /* \"#utility.yul\":6808:6809   */\n      0x01\n        /* \"#utility.yul\":6797:6810   */\n      add\n      swap1\n        /* \"#utility.yul\":6584:6816   */\n      jump\t// out\n\n    auxdata: 0xa2646970667358221220d475d7cad8a1a05ea1a851a6ef1f7b1b6637364fce875290f396a0169adbd0f564736f6c634300081a0033\n}\n",
				"bytecode": {
					"linkReferences": {},
					"object": "60806040526000600155348015601457600080fd5b506106a1806100246000396000f3fe608060405234801561001057600080fd5b506004361061004c5760003560e01c8063127ca4b41461005157806378522bc4146100815780638b945c6d14610098578063b13d5d94146100ad575b600080fd5b61006461005f3660046102af565b6100c2565b6040516001600160a01b0390911681526020015b60405180910390f35b61008a60015481565b604051908152602001610078565b6100ab6100a636600461036d565b6100ec565b005b6100b561024d565b60405161007891906104b0565b600081815481106100d257600080fd5b6000918252602090912001546001600160a01b0316905081565b3360009081526003602052604090205460ff16156101505760405162461bcd60e51b815260206004820152601960248201527f446f63746f7220616c7265616479207265676973746572656400000000000000604482015260640160405180910390fd5b3360009081526002602052604090208061016a8982610585565b50600181016101798882610585565b50600281016101888782610585565b50600381016101978682610585565b50600481016101a68582610585565b50600581016101b58482610585565b50600681016101c48382610585565b50600781018054336001600160a01b0319918216811790925542600884015560008054600181810183557f290decd9548b62a8d60345a988386fc84ba6bc95484008f6362f93160ef3e56390910180549093168417909255918252600360205260408220805460ff19168217905580549161023e83610644565b91905055505050505050505050565b606060008054806020026020016040519081016040528092919081815260200182805480156102a557602002820191906000526020600020905b81546001600160a01b03168152600190910190602001808311610287575b5050505050905090565b6000602082840312156102c157600080fd5b5035919050565b634e487b7160e01b600052604160045260246000fd5b600082601f8301126102ef57600080fd5b813567ffffffffffffffff811115610309576103096102c8565b604051601f8201601f19908116603f0116810167ffffffffffffffff81118282101715610338576103386102c8565b60405281815283820160200185101561035057600080fd5b816020850160208301376000918101602001919091529392505050565b600080600080600080600060e0888a03121561038857600080fd5b873567ffffffffffffffff81111561039f57600080fd5b6103ab8a828b016102de565b975050602088013567ffffffffffffffff8111156103c857600080fd5b6103d48a828b016102de565b965050604088013567ffffffffffffffff8111156103f157600080fd5b6103fd8a828b016102de565b955050606088013567ffffffffffffffff81111561041a57600080fd5b6104268a828b016102de565b945050608088013567ffffffffffffffff81111561044357600080fd5b61044f8a828b016102de565b93505060a088013567ffffffffffffffff81111561046c57600080fd5b6104788a828b016102de565b92505060c088013567ffffffffffffffff81111561049557600080fd5b6104a18a828b016102de565b91505092959891949750929550565b602080825282518282018190526000918401906040840190835b818110156104f15783516001600160a01b03168352602093840193909201916001016104ca565b509095945050505050565b600181811c9082168061051057607f821691505b60208210810361053057634e487b7160e01b600052602260045260246000fd5b50919050565b601f82111561058057806000526020600020601f840160051c8101602085101561055d5750805b601f840160051c820191505b8181101561057d5760008155600101610569565b50505b505050565b815167ffffffffffffffff81111561059f5761059f6102c8565b6105b3816105ad84546104fc565b84610536565b6020601f8211600181146105e757600083156105cf5750848201515b600019600385901b1c1916600184901b17845561057d565b600084815260208120601f198516915b8281101561061757878501518255602094850194600190920191016105f7565b50848210156106355786840151600019600387901b60f8161c191681555b50505050600190811b01905550565b60006001820161066457634e487b7160e01b600052601160045260246000fd5b506001019056fea2646970667358221220d475d7cad8a1a05ea1a851a6ef1f7b1b6637364fce875290f396a0169adbd0f564736f6c634300081a0033",
					"opcodes": "PUSH1 0x80 PUSH1 0x40 MSTORE PUSH1 0x0 PUSH1 0x1 SSTORE CALLVALUE DUP1 ISZERO PUSH1 0x14 JUMPI PUSH1 0x0 DUP1 REVERT JUMPDEST POP PUSH2 0x6A1 DUP1 PUSH2 0x24 PUSH1 0x0 CODECOPY PUSH1 0x0 RETURN INVALID PUSH1 0x80 PUSH1 0x40 MSTORE CALLVALUE DUP1 ISZERO PUSH2 0x10 JUMPI PUSH1 0x0 DUP1 REVERT JUMPDEST POP PUSH1 0x4 CALLDATASIZE LT PUSH2 0x4C JUMPI PUSH1 0x0 CALLDATALOAD PUSH1 0xE0 SHR DUP1 PUSH4 0x127CA4B4 EQ PUSH2 0x51 JUMPI DUP1 PUSH4 0x78522BC4 EQ PUSH2 0x81 JUMPI DUP1 PUSH4 0x8B945C6D EQ PUSH2 0x98 JUMPI DUP1 PUSH4 0xB13D5D94 EQ PUSH2 0xAD JUMPI JUMPDEST PUSH1 0x0 DUP1 REVERT JUMPDEST PUSH2 0x64 PUSH2 0x5F CALLDATASIZE PUSH1 0x4 PUSH2 0x2AF JUMP JUMPDEST PUSH2 0xC2 JUMP JUMPDEST PUSH1 0x40 MLOAD PUSH1 0x1 PUSH1 0x1 PUSH1 0xA0 SHL SUB SWAP1 SWAP2 AND DUP2 MSTORE PUSH1 0x20 ADD JUMPDEST PUSH1 0x40 MLOAD DUP1 SWAP2 SUB SWAP1 RETURN JUMPDEST PUSH2 0x8A PUSH1 0x1 SLOAD DUP2 JUMP JUMPDEST PUSH1 0x40 MLOAD SWAP1 DUP2 MSTORE PUSH1 0x20 ADD PUSH2 0x78 JUMP JUMPDEST PUSH2 0xAB PUSH2 0xA6 CALLDATASIZE PUSH1 0x4 PUSH2 0x36D JUMP JUMPDEST PUSH2 0xEC JUMP JUMPDEST STOP JUMPDEST PUSH2 0xB5 PUSH2 0x24D JUMP JUMPDEST PUSH1 0x40 MLOAD PUSH2 0x78 SWAP2 SWAP1 PUSH2 0x4B0 JUMP JUMPDEST PUSH1 0x0 DUP2 DUP2 SLOAD DUP2 LT PUSH2 0xD2 JUMPI PUSH1 0x0 DUP1 REVERT JUMPDEST PUSH1 0x0 SWAP2 DUP3 MSTORE PUSH1 0x20 SWAP1 SWAP2 KECCAK256 ADD SLOAD PUSH1 0x1 PUSH1 0x1 PUSH1 0xA0 SHL SUB AND SWAP1 POP DUP2 JUMP JUMPDEST CALLER PUSH1 0x0 SWAP1 DUP2 MSTORE PUSH1 0x3 PUSH1 0x20 MSTORE PUSH1 0x40 SWAP1 KECCAK256 SLOAD PUSH1 0xFF AND ISZERO PUSH2 0x150 JUMPI PUSH1 0x40 MLOAD PUSH3 0x461BCD PUSH1 0xE5 SHL DUP2 MSTORE PUSH1 0x20 PUSH1 0x4 DUP3 ADD MSTORE PUSH1 0x19 PUSH1 0x24 DUP3 ADD MSTORE PUSH32 0x446F63746F7220616C7265616479207265676973746572656400000000000000 PUSH1 0x44 DUP3 ADD MSTORE PUSH1 0x64 ADD PUSH1 0x40 MLOAD DUP1 SWAP2 SUB SWAP1 REVERT JUMPDEST CALLER PUSH1 0x0 SWAP1 DUP2 MSTORE PUSH1 0x2 PUSH1 0x20 MSTORE PUSH1 0x40 SWAP1 KECCAK256 DUP1 PUSH2 0x16A DUP10 DUP3 PUSH2 0x585 JUMP JUMPDEST POP PUSH1 0x1 DUP2 ADD PUSH2 0x179 DUP9 DUP3 PUSH2 0x585 JUMP JUMPDEST POP PUSH1 0x2 DUP2 ADD PUSH2 0x188 DUP8 DUP3 PUSH2 0x585 JUMP JUMPDEST POP PUSH1 0x3 DUP2 ADD PUSH2 0x197 DUP7 DUP3 PUSH2 0x585 JUMP JUMPDEST POP PUSH1 0x4 DUP2 ADD PUSH2 0x1A6 DUP6 DUP3 PUSH2 0x585 JUMP JUMPDEST POP PUSH1 0x5 DUP2 ADD PUSH2 0x1B5 DUP5 DUP3 PUSH2 0x585 JUMP JUMPDEST POP PUSH1 0x6 DUP2 ADD PUSH2 0x1C4 DUP4 DUP3 PUSH2 0x585 JUMP JUMPDEST POP PUSH1 0x7 DUP2 ADD DUP1 SLOAD CALLER PUSH1 0x1 PUSH1 0x1 PUSH1 0xA0 SHL SUB NOT SWAP2 DUP3 AND DUP2 OR SWAP1 SWAP3 SSTORE TIMESTAMP PUSH1 0x8 DUP5 ADD SSTORE PUSH1 0x0 DUP1 SLOAD PUSH1 0x1 DUP2 DUP2 ADD DUP4 SSTORE PUSH32 0x290DECD9548B62A8D60345A988386FC84BA6BC95484008F6362F93160EF3E563 SWAP1 SWAP2 ADD DUP1 SLOAD SWAP1 SWAP4 AND DUP5 OR SWAP1 SWAP3 SSTORE SWAP2 DUP3 MSTORE PUSH1 0x3 PUSH1 0x20 MSTORE PUSH1 0x40 DUP3 KECCAK256 DUP1 SLOAD PUSH1 0xFF NOT AND DUP3 OR SWAP1 SSTORE DUP1 SLOAD SWAP2 PUSH2 0x23E DUP4 PUSH2 0x644 JUMP JUMPDEST SWAP2 SWAP1 POP SSTORE POP POP POP POP POP POP POP POP POP JUMP JUMPDEST PUSH1 0x60 PUSH1 0x0 DUP1 SLOAD DUP1 PUSH1 0x20 MUL PUSH1 0x20 ADD PUSH1 0x40 MLOAD SWAP1 DUP2 ADD PUSH1 0x40 MSTORE DUP1 SWAP3 SWAP2 SWAP1 DUP2 DUP2 MSTORE PUSH1 0x20 ADD DUP3 DUP1 SLOAD DUP1 ISZERO PUSH2 0x2A5 JUMPI PUSH1 0x20 MUL DUP3 ADD SWAP2 SWAP1 PUSH1 0x0 MSTORE PUSH1 0x20 PUSH1 0x0 KECCAK256 SWAP1 JUMPDEST DUP2 SLOAD PUSH1 0x1 PUSH1 0x1 PUSH1 0xA0 SHL SUB AND DUP2 MSTORE PUSH1 0x1 SWAP1 SWAP2 ADD SWAP1 PUSH1 0x20 ADD DUP1 DUP4 GT PUSH2 0x287 JUMPI JUMPDEST POP POP POP POP POP SWAP1 POP SWAP1 JUMP JUMPDEST PUSH1 0x0 PUSH1 0x20 DUP3 DUP5 SUB SLT ISZERO PUSH2 0x2C1 JUMPI PUSH1 0x0 DUP1 REVERT JUMPDEST POP CALLDATALOAD SWAP2 SWAP1 POP JUMP JUMPDEST PUSH4 0x4E487B71 PUSH1 0xE0 SHL PUSH1 0x0 MSTORE PUSH1 0x41 PUSH1 0x4 MSTORE PUSH1 0x24 PUSH1 0x0 REVERT JUMPDEST PUSH1 0x0 DUP3 PUSH1 0x1F DUP4 ADD SLT PUSH2 0x2EF JUMPI PUSH1 0x0 DUP1 REVERT JUMPDEST DUP2 CALLDATALOAD PUSH8 0xFFFFFFFFFFFFFFFF DUP2 GT ISZERO PUSH2 0x309 JUMPI PUSH2 0x309 PUSH2 0x2C8 JUMP JUMPDEST PUSH1 0x40 MLOAD PUSH1 0x1F DUP3 ADD PUSH1 0x1F NOT SWAP1 DUP2 AND PUSH1 0x3F ADD AND DUP2 ADD PUSH8 0xFFFFFFFFFFFFFFFF DUP2 GT DUP3 DUP3 LT OR ISZERO PUSH2 0x338 JUMPI PUSH2 0x338 PUSH2 0x2C8 JUMP JUMPDEST PUSH1 0x40 MSTORE DUP2 DUP2 MSTORE DUP4 DUP3 ADD PUSH1 0x20 ADD DUP6 LT ISZERO PUSH2 0x350 JUMPI PUSH1 0x0 DUP1 REVERT JUMPDEST DUP2 PUSH1 0x20 DUP6 ADD PUSH1 0x20 DUP4 ADD CALLDATACOPY PUSH1 0x0 SWAP2 DUP2 ADD PUSH1 0x20 ADD SWAP2 SWAP1 SWAP2 MSTORE SWAP4 SWAP3 POP POP POP JUMP JUMPDEST PUSH1 0x0 DUP1 PUSH1 0x0 DUP1 PUSH1 0x0 DUP1 PUSH1 0x0 PUSH1 0xE0 DUP9 DUP11 SUB SLT ISZERO PUSH2 0x388 JUMPI PUSH1 0x0 DUP1 REVERT JUMPDEST DUP8 CALLDATALOAD PUSH8 0xFFFFFFFFFFFFFFFF DUP2 GT ISZERO PUSH2 0x39F JUMPI PUSH1 0x0 DUP1 REVERT JUMPDEST PUSH2 0x3AB DUP11 DUP3 DUP12 ADD PUSH2 0x2DE JUMP JUMPDEST SWAP8 POP POP PUSH1 0x20 DUP9 ADD CALLDATALOAD PUSH8 0xFFFFFFFFFFFFFFFF DUP2 GT ISZERO PUSH2 0x3C8 JUMPI PUSH1 0x0 DUP1 REVERT JUMPDEST PUSH2 0x3D4 DUP11 DUP3 DUP12 ADD PUSH2 0x2DE JUMP JUMPDEST SWAP7 POP POP PUSH1 0x40 DUP9 ADD CALLDATALOAD PUSH8 0xFFFFFFFFFFFFFFFF DUP2 GT ISZERO PUSH2 0x3F1 JUMPI PUSH1 0x0 DUP1 REVERT JUMPDEST PUSH2 0x3FD DUP11 DUP3 DUP12 ADD PUSH2 0x2DE JUMP JUMPDEST SWAP6 POP POP PUSH1 0x60 DUP9 ADD CALLDATALOAD PUSH8 0xFFFFFFFFFFFFFFFF DUP2 GT ISZERO PUSH2 0x41A JUMPI PUSH1 0x0 DUP1 REVERT JUMPDEST PUSH2 0x426 DUP11 DUP3 DUP12 ADD PUSH2 0x2DE JUMP JUMPDEST SWAP5 POP POP PUSH1 0x80 DUP9 ADD CALLDATALOAD PUSH8 0xFFFFFFFFFFFFFFFF DUP2 GT ISZERO PUSH2 0x443 JUMPI PUSH1 0x0 DUP1 REVERT JUMPDEST PUSH2 0x44F DUP11 DUP3 DUP12 ADD PUSH2 0x2DE JUMP JUMPDEST SWAP4 POP POP PUSH1 0xA0 DUP9 ADD CALLDATALOAD PUSH8 0xFFFFFFFFFFFFFFFF DUP2 GT ISZERO PUSH2 0x46C JUMPI PUSH1 0x0 DUP1 REVERT JUMPDEST PUSH2 0x478 DUP11 DUP3 DUP12 ADD PUSH2 0x2DE JUMP JUMPDEST SWAP3 POP POP PUSH1 0xC0 DUP9 ADD CALLDATALOAD PUSH8 0xFFFFFFFFFFFFFFFF DUP2 GT ISZERO PUSH2 0x495 JUMPI PUSH1 0x0 DUP1 REVERT JUMPDEST PUSH2 0x4A1 DUP11 DUP3 DUP12 ADD PUSH2 0x2DE JUMP JUMPDEST SWAP2 POP POP SWAP3 SWAP6 SWAP9 SWAP2 SWAP5 SWAP8 POP SWAP3 SWAP6 POP JUMP JUMPDEST PUSH1 0x20 DUP1 DUP3 MSTORE DUP3 MLOAD DUP3 DUP3 ADD DUP2 SWAP1 MSTORE PUSH1 0x0 SWAP2 DUP5 ADD SWAP1 PUSH1 0x40 DUP5 ADD SWAP1 DUP4 JUMPDEST DUP2 DUP2 LT ISZERO PUSH2 0x4F1 JUMPI DUP4 MLOAD PUSH1 0x1 PUSH1 0x1 PUSH1 0xA0 SHL SUB AND DUP4 MSTORE PUSH1 0x20 SWAP4 DUP5 ADD SWAP4 SWAP1 SWAP3 ADD SWAP2 PUSH1 0x1 ADD PUSH2 0x4CA JUMP JUMPDEST POP SWAP1 SWAP6 SWAP5 POP POP POP POP POP JUMP JUMPDEST PUSH1 0x1 DUP2 DUP2 SHR SWAP1 DUP3 AND DUP1 PUSH2 0x510 JUMPI PUSH1 0x7F DUP3 AND SWAP2 POP JUMPDEST PUSH1 0x20 DUP3 LT DUP2 SUB PUSH2 0x530 JUMPI PUSH4 0x4E487B71 PUSH1 0xE0 SHL PUSH1 0x0 MSTORE PUSH1 0x22 PUSH1 0x4 MSTORE PUSH1 0x24 PUSH1 0x0 REVERT JUMPDEST POP SWAP2 SWAP1 POP JUMP JUMPDEST PUSH1 0x1F DUP3 GT ISZERO PUSH2 0x580 JUMPI DUP1 PUSH1 0x0 MSTORE PUSH1 0x20 PUSH1 0x0 KECCAK256 PUSH1 0x1F DUP5 ADD PUSH1 0x5 SHR DUP2 ADD PUSH1 0x20 DUP6 LT ISZERO PUSH2 0x55D JUMPI POP DUP1 JUMPDEST PUSH1 0x1F DUP5 ADD PUSH1 0x5 SHR DUP3 ADD SWAP2 POP JUMPDEST DUP2 DUP2 LT ISZERO PUSH2 0x57D JUMPI PUSH1 0x0 DUP2 SSTORE PUSH1 0x1 ADD PUSH2 0x569 JUMP JUMPDEST POP POP JUMPDEST POP POP POP JUMP JUMPDEST DUP2 MLOAD PUSH8 0xFFFFFFFFFFFFFFFF DUP2 GT ISZERO PUSH2 0x59F JUMPI PUSH2 0x59F PUSH2 0x2C8 JUMP JUMPDEST PUSH2 0x5B3 DUP2 PUSH2 0x5AD DUP5 SLOAD PUSH2 0x4FC JUMP JUMPDEST DUP5 PUSH2 0x536 JUMP JUMPDEST PUSH1 0x20 PUSH1 0x1F DUP3 GT PUSH1 0x1 DUP2 EQ PUSH2 0x5E7 JUMPI PUSH1 0x0 DUP4 ISZERO PUSH2 0x5CF JUMPI POP DUP5 DUP3 ADD MLOAD JUMPDEST PUSH1 0x0 NOT PUSH1 0x3 DUP6 SWAP1 SHL SHR NOT AND PUSH1 0x1 DUP5 SWAP1 SHL OR DUP5 SSTORE PUSH2 0x57D JUMP JUMPDEST PUSH1 0x0 DUP5 DUP2 MSTORE PUSH1 0x20 DUP2 KECCAK256 PUSH1 0x1F NOT DUP6 AND SWAP2 JUMPDEST DUP3 DUP2 LT ISZERO PUSH2 0x617 JUMPI DUP8 DUP6 ADD MLOAD DUP3 SSTORE PUSH1 0x20 SWAP5 DUP6 ADD SWAP5 PUSH1 0x1 SWAP1 SWAP3 ADD SWAP2 ADD PUSH2 0x5F7 JUMP JUMPDEST POP DUP5 DUP3 LT ISZERO PUSH2 0x635 JUMPI DUP7 DUP5 ADD MLOAD PUSH1 0x0 NOT PUSH1 0x3 DUP8 SWAP1 SHL PUSH1 0xF8 AND SHR NOT AND DUP2 SSTORE JUMPDEST POP POP POP POP PUSH1 0x1 SWAP1 DUP2 SHL ADD SWAP1 SSTORE POP JUMP JUMPDEST PUSH1 0x0 PUSH1 0x1 DUP3 ADD PUSH2 0x664 JUMPI PUSH4 0x4E487B71 PUSH1 0xE0 SHL PUSH1 0x0 MSTORE PUSH1 0x11 PUSH1 0x4 MSTORE PUSH1 0x24 PUSH1 0x0 REVERT JUMPDEST POP PUSH1 0x1 ADD SWAP1 JUMP INVALID LOG2 PUSH5 0x6970667358 0x22 SLT KECCAK256 0xD4 PUSH22 0xD7CAD8A1A05EA1A851A6EF1F7B1B6637364FCE875290 RETURN SWAP7 LOG0 AND SWAP11 0xDB 0xD0 CREATE2 PUSH5 0x736F6C6343 STOP ADDMOD BYTE STOP CALLER "
				},
				"gasEstimates": {
					"creation": {
						"codeDepositCost": "339400",
						"executionCost": "5386",
						"totalCost": "344786"
					},
					"external": {
						"doctorCount()": "2295",
						"doctorList(uint256)": "4581",
						"getDoctors()": "infinite",
						"setDoctor(string,string,string,string,string,string,string)": "infinite"
					}
				},
				"methodIdentifiers": {
					"doctorCount()": "78522bc4",
					"doctorList(uint256)": "127ca4b4",
					"getDoctors()": "b13d5d94",
					"setDoctor(string,string,string,string,string,string,string)": "8b945c6d"
				}
			},
			"storageLayout": {
				"storage": [
					{
						"astId": 210,
						"contract": "contracts/doctors/doctorsContract.sol:DoctorsContract",
						"label": "doctorList",
						"offset": 0,
						"slot": "0",
						"type": "t_array(t_address)dyn_storage"
					},
					{
						"astId": 213,
						"contract": "contracts/doctors/doctorsContract.sol:DoctorsContract",
						"label": "doctorCount",
						"offset": 0,
						"slot": "1",
						"type": "t_uint256"
					},
					{
						"astId": 218,
						"contract": "contracts/doctors/doctorsContract.sol:DoctorsContract",
						"label": "doctors",
						"offset": 0,
						"slot": "2",
						"type": "t_mapping(t_address,t_struct(Doctors)204_storage)"
					},
					{
						"astId": 222,
						"contract": "contracts/doctors/doctorsContract.sol:DoctorsContract",
						"label": "isDoctor",
						"offset": 0,
						"slot": "3",
						"type": "t_mapping(t_address,t_bool)"
					},
					{
						"astId": 228,
						"contract": "contracts/doctors/doctorsContract.sol:DoctorsContract",
						"label": "isApproved",
						"offset": 0,
						"slot": "4",
						"type": "t_mapping(t_address,t_mapping(t_address,t_bool))"
					}
				],
				"types": {
					"t_address": {
						"encoding": "inplace",
						"label": "address",
						"numberOfBytes": "20"
					},
					"t_array(t_address)dyn_storage": {
						"base": "t_address",
						"encoding": "dynamic_array",
						"label": "address[]",
						"numberOfBytes": "32"
					},
					"t_bool": {
						"encoding": "inplace",
						"label": "bool",
						"numberOfBytes": "1"
					},
					"t_mapping(t_address,t_bool)": {
						"encoding": "mapping",
						"key": "t_address",
						"label": "mapping(address => bool)",
						"numberOfBytes": "32",
						"value": "t_bool"
					},
					"t_mapping(t_address,t_mapping(t_address,t_bool))": {
						"encoding": "mapping",
						"key": "t_address",
						"label": "mapping(address => mapping(address => bool))",
						"numberOfBytes": "32",
						"value": "t_mapping(t_address,t_bool)"
					},
					"t_mapping(t_address,t_struct(Doctors)204_storage)": {
						"encoding": "mapping",
						"key": "t_address",
						"label": "mapping(address => struct Doctors)",
						"numberOfBytes": "32",
						"value": "t_struct(Doctors)204_storage"
					},
					"t_string_storage": {
						"encoding": "bytes",
						"label": "string",
						"numberOfBytes": "32"
					},
					"t_struct(Doctors)204_storage": {
						"encoding": "inplace",
						"label": "struct Doctors",
						"members": [
							{
								"astId": 187,
								"contract": "contracts/doctors/doctorsContract.sol:DoctorsContract",
								"label": "id",
								"offset": 0,
								"slot": "0",
								"type": "t_string_storage"
							},
							{
								"astId": 189,
								"contract": "contracts/doctors/doctorsContract.sol:DoctorsContract",
								"label": "name",
								"offset": 0,
								"slot": "1",
								"type": "t_string_storage"
							},
							{
								"astId": 191,
								"contract": "contracts/doctors/doctorsContract.sol:DoctorsContract",
								"label": "phone",
								"offset": 0,
								"slot": "2",
								"type": "t_string_storage"
							},
							{
								"astId": 193,
								"contract": "contracts/doctors/doctorsContract.sol:DoctorsContract",
								"label": "gender",
								"offset": 0,
								"slot": "3",
								"type": "t_string_storage"
							},
							{
								"astId": 195,
								"contract": "contracts/doctors/doctorsContract.sol:DoctorsContract",
								"label": "dob",
								"offset": 0,
								"slot": "4",
								"type": "t_string_storage"
							},
							{
								"astId": 197,
								"contract": "contracts/doctors/doctorsContract.sol:DoctorsContract",
								"label": "qualification",
								"offset": 0,
								"slot": "5",
								"type": "t_string_storage"
							},
							{
								"astId": 199,
								"contract": "contracts/doctors/doctorsContract.sol:DoctorsContract",
								"label": "major",
								"offset": 0,
								"slot": "6",
								"type": "t_string_storage"
							},
							{
								"astId": 201,
								"contract": "contracts/doctors/doctorsContract.sol:DoctorsContract",
								"label": "addr",
								"offset": 0,
								"slot": "7",
								"type": "t_address"
							},
							{
								"astId": 203,
								"contract": "contracts/doctors/doctorsContract.sol:DoctorsContract",
								"label": "timestamp",
								"offset": 0,
								"slot": "8",
								"type": "t_uint256"
							}
						],
						"numberOfBytes": "288"
					},
					"t_uint256": {
						"encoding": "inplace",
						"label": "uint256",
						"numberOfBytes": "32"
					}
				}
			},
			"userdoc": {
				"kind": "user",
				"methods": {},
				"version": 1
			}
		}
	}
}