{
	"contracts/patients/patientsContract.sol": {
		"PatientsContract": {
			"abi": [
				{
					"inputs": [
						{
							"internalType": "address",
							"name": "_permissionsContract",
							"type": "address"
						}
					],
					"stateMutability": "nonpayable",
					"type": "constructor"
				},
				{
					"inputs": [],
					"name": "editPatient",
					"outputs": [],
					"stateMutability": "nonpayable",
					"type": "function"
				},
				{
					"inputs": [],
					"name": "getPatients",
					"outputs": [
						{
							"internalType": "address[]",
							"name": "",
							"type": "address[]"
						}
					],
					"stateMutability": "view",
					"type": "function"
				},
				{
					"inputs": [],
					"name": "patientCount",
					"outputs": [
						{
							"internalType": "uint256",
							"name": "",
							"type": "uint256"
						}
					],
					"stateMutability": "view",
					"type": "function"
				},
				{
					"inputs": [
						{
							"internalType": "uint256",
							"name": "",
							"type": "uint256"
						}
					],
					"name": "patientList",
					"outputs": [
						{
							"internalType": "address",
							"name": "",
							"type": "address"
						}
					],
					"stateMutability": "view",
					"type": "function"
				},
				{
					"inputs": [
						{
							"internalType": "address",
							"name": "_addr",
							"type": "address"
						}
					],
					"name": "searchPatientDemographic",
					"outputs": [
						{
							"internalType": "string",
							"name": "id",
							"type": "string"
						},
						{
							"internalType": "string",
							"name": "name",
							"type": "string"
						},
						{
							"internalType": "string",
							"name": "phone",
							"type": "string"
						},
						{
							"internalType": "string",
							"name": "gender",
							"type": "string"
						},
						{
							"internalType": "string",
							"name": "dob",
							"type": "string"
						}
					],
					"stateMutability": "view",
					"type": "function"
				},
				{
					"inputs": [
						{
							"internalType": "address",
							"name": "_addr",
							"type": "address"
						}
					],
					"name": "searchPatientMedical",
					"outputs": [
						{
							"internalType": "string",
							"name": "homeAddr",
							"type": "string"
						},
						{
							"internalType": "string",
							"name": "bloodGroup",
							"type": "string"
						},
						{
							"internalType": "string",
							"name": "diagnoses",
							"type": "string"
						},
						{
							"internalType": "string",
							"name": "medication",
							"type": "string"
						}
					],
					"stateMutability": "view",
					"type": "function"
				},
				{
					"inputs": [
						{
							"internalType": "string",
							"name": "_ic",
							"type": "string"
						},
						{
							"internalType": "string",
							"name": "_name",
							"type": "string"
						},
						{
							"internalType": "string",
							"name": "_phone",
							"type": "string"
						},
						{
							"internalType": "string",
							"name": "_gender",
							"type": "string"
						},
						{
							"internalType": "string",
							"name": "_dob",
							"type": "string"
						},
						{
							"internalType": "string",
							"name": "_houseAddr",
							"type": "string"
						},
						{
							"internalType": "string",
							"name": "_bloodGroup",
							"type": "string"
						},
						{
							"internalType": "string",
							"name": "_diagnoses",
							"type": "string"
						},
						{
							"internalType": "string",
							"name": "_medication",
							"type": "string"
						}
					],
					"name": "setPatient",
					"outputs": [],
					"stateMutability": "nonpayable",
					"type": "function"
				}
			],
			"devdoc": {
				"kind": "dev",
				"methods": {},
				"version": 1
			},
			"evm": {
				"assembly": "    /* \"contracts/patients/patientsContract.sol\":162:2908  contract PatientsContract {... */\n  mstore(0x40, 0x80)\n    /* \"contracts/patients/patientsContract.sol\":669:670  0 */\n  0x00\n    /* \"contracts/patients/patientsContract.sol\":639:670  uint256 public patientCount = 0 */\n  0x04\n  sstore\n    /* \"contracts/patients/patientsContract.sol\":283:407  constructor(address _permissionsContract) {... */\n  callvalue\n  dup1\n  iszero\n  tag_1\n  jumpi\n  0x00\n  dup1\n  revert\ntag_1:\n  pop\n  mload(0x40)\n  sub(codesize, bytecodeSize)\n  dup1\n  bytecodeSize\n  dup4\n  codecopy\n  dup2\n  add\n  0x40\n  dup2\n  swap1\n  mstore\n  tag_2\n  swap2\n  tag_3\n  jump\t// in\ntag_2:\n    /* \"contracts/patients/patientsContract.sol\":336:355  permissionsContract */\n  0x00\n    /* \"contracts/patients/patientsContract.sol\":336:399  permissionsContract = PermissionsContract(_permissionsContract) */\n  dup1\n  sload\n  not(sub(shl(0xa0, 0x01), 0x01))\n  and\n  sub(shl(0xa0, 0x01), 0x01)\n  swap3\n  swap1\n  swap3\n  and\n  swap2\n  swap1\n  swap2\n  or\n  swap1\n  sstore\n    /* \"contracts/patients/patientsContract.sol\":162:2908  contract PatientsContract {... */\n  jump(tag_7)\n    /* \"#utility.yul\":14:304   */\ntag_3:\n    /* \"#utility.yul\":84:90   */\n  0x00\n    /* \"#utility.yul\":137:139   */\n  0x20\n    /* \"#utility.yul\":125:134   */\n  dup3\n    /* \"#utility.yul\":116:123   */\n  dup5\n    /* \"#utility.yul\":112:135   */\n  sub\n    /* \"#utility.yul\":108:140   */\n  slt\n    /* \"#utility.yul\":105:157   */\n  iszero\n  tag_9\n  jumpi\n    /* \"#utility.yul\":153:154   */\n  0x00\n    /* \"#utility.yul\":150:151   */\n  dup1\n    /* \"#utility.yul\":143:155   */\n  revert\n    /* \"#utility.yul\":105:157   */\ntag_9:\n    /* \"#utility.yul\":179:195   */\n  dup2\n  mload\n  sub(shl(0xa0, 0x01), 0x01)\n    /* \"#utility.yul\":224:255   */\n  dup2\n  and\n    /* \"#utility.yul\":214:256   */\n  dup2\n  eq\n    /* \"#utility.yul\":204:274   */\n  tag_10\n  jumpi\n    /* \"#utility.yul\":270:271   */\n  0x00\n    /* \"#utility.yul\":267:268   */\n  dup1\n    /* \"#utility.yul\":260:272   */\n  revert\n    /* \"#utility.yul\":204:274   */\ntag_10:\n    /* \"#utility.yul\":293:298   */\n  swap4\n    /* \"#utility.yul\":14:304   */\n  swap3\n  pop\n  pop\n  pop\n  jump\t// out\ntag_7:\n    /* \"contracts/patients/patientsContract.sol\":162:2908  contract PatientsContract {... */\n  dataSize(sub_0)\n  dup1\n  dataOffset(sub_0)\n  0x00\n  codecopy\n  0x00\n  return\nstop\n\nsub_0: assembly {\n        /* \"contracts/patients/patientsContract.sol\":162:2908  contract PatientsContract {... */\n      mstore(0x40, 0x80)\n      callvalue\n      dup1\n      iszero\n      tag_1\n      jumpi\n      0x00\n      dup1\n      revert\n    tag_1:\n      pop\n      jumpi(tag_2, lt(calldatasize, 0x04))\n      shr(0xe0, calldataload(0x00))\n      dup1\n      0x3bc98280\n      gt\n      tag_10\n      jumpi\n      dup1\n      0x3bc98280\n      eq\n      tag_6\n      jumpi\n      dup1\n      0x882b09f4\n      eq\n      tag_15\n      jumpi\n      dup1\n      0xa0303c41\n      eq\n      tag_8\n      jumpi\n      dup1\n      0xbabb1d41\n      eq\n      tag_9\n      jumpi\n      0x00\n      dup1\n      revert\n    tag_10:\n      dup1\n      0x12ad1c37\n      eq\n      tag_3\n      jumpi\n      dup1\n      0x23a2ba5b\n      eq\n      tag_4\n      jumpi\n      dup1\n      0x2a825ba0\n      eq\n      tag_5\n      jumpi\n    tag_2:\n      0x00\n      dup1\n      revert\n        /* \"contracts/patients/patientsContract.sol\":679:778  function getPatients() public  view returns(address[] memory) {... */\n    tag_3:\n      tag_11\n      tag_12\n      jump\t// in\n    tag_11:\n      mload(0x40)\n      tag_13\n      swap2\n      swap1\n      tag_14\n      jump\t// in\n    tag_13:\n      mload(0x40)\n      dup1\n      swap2\n      sub\n      swap1\n      return\n        /* \"contracts/patients/patientsContract.sol\":786:2128  function setPatient(... */\n    tag_4:\n      tag_15\n      tag_16\n      calldatasize\n      0x04\n      tag_17\n      jump\t// in\n    tag_16:\n      tag_18\n      jump\t// in\n    tag_15:\n      stop\n        /* \"contracts/patients/patientsContract.sol\":2564:2905  function searchPatientMedical(address _addr) public view returns(... */\n    tag_5:\n      tag_19\n      tag_20\n      calldatasize\n      0x04\n      tag_21\n      jump\t// in\n    tag_20:\n      tag_22\n      jump\t// in\n    tag_19:\n      mload(0x40)\n      tag_13\n      swap5\n      swap4\n      swap3\n      swap2\n      swap1\n      tag_24\n      jump\t// in\n        /* \"contracts/patients/patientsContract.sol\":2210:2550  function searchPatientDemographic(address _addr) public view returns(... */\n    tag_6:\n      tag_25\n      tag_26\n      calldatasize\n      0x04\n      tag_21\n      jump\t// in\n    tag_26:\n      tag_27\n      jump\t// in\n    tag_25:\n      mload(0x40)\n      tag_13\n      swap6\n      swap5\n      swap4\n      swap3\n      swap2\n      swap1\n      tag_29\n      jump\t// in\n        /* \"contracts/patients/patientsContract.sol\":639:670  uint256 public patientCount = 0 */\n    tag_8:\n      tag_32\n      sload(0x04)\n      dup2\n      jump\n    tag_32:\n      mload(0x40)\n        /* \"#utility.yul\":6018:6043   */\n      swap1\n      dup2\n      mstore\n        /* \"#utility.yul\":6006:6008   */\n      0x20\n        /* \"#utility.yul\":5991:6009   */\n      add\n        /* \"contracts/patients/patientsContract.sol\":639:670  uint256 public patientCount = 0 */\n      tag_13\n        /* \"#utility.yul\":5872:6049   */\n      jump\n        /* \"contracts/patients/patientsContract.sol\":447:475  address[] public patientList */\n    tag_9:\n      tag_36\n      tag_37\n      calldatasize\n      0x04\n      tag_38\n      jump\t// in\n    tag_37:\n      tag_39\n      jump\t// in\n    tag_36:\n      mload(0x40)\n      sub(shl(0xa0, 0x01), 0x01)\n        /* \"#utility.yul\":6403:6435   */\n      swap1\n      swap2\n      and\n        /* \"#utility.yul\":6385:6436   */\n      dup2\n      mstore\n        /* \"#utility.yul\":6373:6375   */\n      0x20\n        /* \"#utility.yul\":6358:6376   */\n      add\n        /* \"contracts/patients/patientsContract.sol\":447:475  address[] public patientList */\n      tag_13\n        /* \"#utility.yul\":6239:6442   */\n      jump\n        /* \"contracts/patients/patientsContract.sol\":679:778  function getPatients() public  view returns(address[] memory) {... */\n    tag_12:\n        /* \"contracts/patients/patientsContract.sol\":723:739  address[] memory */\n      0x60\n        /* \"contracts/patients/patientsContract.sol\":759:770  patientList */\n      0x01\n        /* \"contracts/patients/patientsContract.sol\":752:770  return patientList */\n      dup1\n      sload\n      dup1\n      0x20\n      mul\n      0x20\n      add\n      mload(0x40)\n      swap1\n      dup2\n      add\n      0x40\n      mstore\n      dup1\n      swap3\n      swap2\n      swap1\n      dup2\n      dup2\n      mstore\n      0x20\n      add\n      dup3\n      dup1\n      sload\n      dup1\n      iszero\n      tag_43\n      jumpi\n      0x20\n      mul\n      dup3\n      add\n      swap2\n      swap1\n      0x00\n      mstore\n      keccak256(0x00, 0x20)\n      swap1\n    tag_44:\n      dup2\n      sload\n      sub(shl(0xa0, 0x01), 0x01)\n      and\n      dup2\n      mstore\n      0x01\n      swap1\n      swap2\n      add\n      swap1\n      0x20\n      add\n      dup1\n      dup4\n      gt\n      tag_44\n      jumpi\n    tag_43:\n      pop\n      pop\n      pop\n      pop\n      pop\n      swap1\n      pop\n        /* \"contracts/patients/patientsContract.sol\":679:778  function getPatients() public  view returns(address[] memory) {... */\n      swap1\n      jump\t// out\n        /* \"contracts/patients/patientsContract.sol\":786:2128  function setPatient(... */\n    tag_18:\n        /* \"contracts/patients/patientsContract.sol\":1359:1369  msg.sender */\n      caller\n        /* \"contracts/patients/patientsContract.sol\":1349:1370  isPatient[msg.sender] */\n      0x00\n      swap1\n      dup2\n      mstore\n        /* \"contracts/patients/patientsContract.sol\":1349:1358  isPatient */\n      0x03\n        /* \"contracts/patients/patientsContract.sol\":1349:1370  isPatient[msg.sender] */\n      0x20\n      mstore\n      0x40\n      swap1\n      keccak256\n      sload\n      0xff\n      and\n        /* \"contracts/patients/patientsContract.sol\":1348:1370  !isPatient[msg.sender] */\n      iszero\n        /* \"contracts/patients/patientsContract.sol\":1340:1402  require(!isPatient[msg.sender], \"Patient already registered.\") */\n      tag_46\n      jumpi\n      mload(0x40)\n      shl(0xe5, 0x461bcd)\n      dup2\n      mstore\n        /* \"#utility.yul\":6649:6651   */\n      0x20\n        /* \"contracts/patients/patientsContract.sol\":1340:1402  require(!isPatient[msg.sender], \"Patient already registered.\") */\n      0x04\n      dup3\n      add\n        /* \"#utility.yul\":6631:6652   */\n      mstore\n        /* \"#utility.yul\":6688:6690   */\n      0x1b\n        /* \"#utility.yul\":6668:6686   */\n      0x24\n      dup3\n      add\n        /* \"#utility.yul\":6661:6691   */\n      mstore\n        /* \"#utility.yul\":6727:6756   */\n      0x50617469656e7420616c726561647920726567697374657265642e0000000000\n        /* \"#utility.yul\":6707:6725   */\n      0x44\n      dup3\n      add\n        /* \"#utility.yul\":6700:6757   */\n      mstore\n        /* \"#utility.yul\":6774:6792   */\n      0x64\n      add\n        /* \"contracts/patients/patientsContract.sol\":1340:1402  require(!isPatient[msg.sender], \"Patient already registered.\") */\n      mload(0x40)\n      dup1\n      swap2\n      sub\n      swap1\n      revert\n    tag_46:\n        /* \"contracts/patients/patientsContract.sol\":1443:1453  msg.sender */\n      caller\n        /* \"contracts/patients/patientsContract.sol\":1413:1431  Patients storage p */\n      0x00\n        /* \"contracts/patients/patientsContract.sol\":1434:1454  patients[msg.sender] */\n      swap1\n      dup2\n      mstore\n        /* \"contracts/patients/patientsContract.sol\":1434:1442  patients */\n      0x02\n        /* \"contracts/patients/patientsContract.sol\":1434:1454  patients[msg.sender] */\n      0x20\n      mstore\n      0x40\n      swap1\n      keccak256\n      dup1\n        /* \"contracts/patients/patientsContract.sol\":1467:1477  p.ic = _ic */\n      tag_49\n        /* \"contracts/patients/patientsContract.sol\":1474:1477  _ic */\n      dup12\n        /* \"contracts/patients/patientsContract.sol\":1434:1454  patients[msg.sender] */\n      dup3\n        /* \"contracts/patients/patientsContract.sol\":1467:1477  p.ic = _ic */\n      tag_50\n      jump\t// in\n    tag_49:\n      pop\n        /* \"contracts/patients/patientsContract.sol\":1488:1494  p.name */\n      0x01\n      dup2\n      add\n        /* \"contracts/patients/patientsContract.sol\":1488:1502  p.name = _name */\n      tag_51\n        /* \"contracts/patients/patientsContract.sol\":1497:1502  _name */\n      dup11\n        /* \"contracts/patients/patientsContract.sol\":1488:1494  p.name */\n      dup3\n        /* \"contracts/patients/patientsContract.sol\":1488:1502  p.name = _name */\n      tag_50\n      jump\t// in\n    tag_51:\n      pop\n        /* \"contracts/patients/patientsContract.sol\":1513:1520  p.phone */\n      0x02\n      dup2\n      add\n        /* \"contracts/patients/patientsContract.sol\":1513:1529  p.phone = _phone */\n      tag_52\n        /* \"contracts/patients/patientsContract.sol\":1523:1529  _phone */\n      dup10\n        /* \"contracts/patients/patientsContract.sol\":1513:1520  p.phone */\n      dup3\n        /* \"contracts/patients/patientsContract.sol\":1513:1529  p.phone = _phone */\n      tag_50\n      jump\t// in\n    tag_52:\n      pop\n        /* \"contracts/patients/patientsContract.sol\":1540:1548  p.gender */\n      0x03\n      dup2\n      add\n        /* \"contracts/patients/patientsContract.sol\":1540:1558  p.gender = _gender */\n      tag_53\n        /* \"contracts/patients/patientsContract.sol\":1551:1558  _gender */\n      dup9\n        /* \"contracts/patients/patientsContract.sol\":1540:1548  p.gender */\n      dup3\n        /* \"contracts/patients/patientsContract.sol\":1540:1558  p.gender = _gender */\n      tag_50\n      jump\t// in\n    tag_53:\n      pop\n        /* \"contracts/patients/patientsContract.sol\":1569:1574  p.dob */\n      0x04\n      dup2\n      add\n        /* \"contracts/patients/patientsContract.sol\":1569:1581  p.dob = _dob */\n      tag_54\n        /* \"contracts/patients/patientsContract.sol\":1577:1581  _dob */\n      dup8\n        /* \"contracts/patients/patientsContract.sol\":1569:1574  p.dob */\n      dup3\n        /* \"contracts/patients/patientsContract.sol\":1569:1581  p.dob = _dob */\n      tag_50\n      jump\t// in\n    tag_54:\n      pop\n        /* \"contracts/patients/patientsContract.sol\":1656:1667  p.houseAddr */\n      0x07\n      dup2\n      add\n        /* \"contracts/patients/patientsContract.sol\":1656:1680  p.houseAddr = _houseAddr */\n      tag_55\n        /* \"contracts/patients/patientsContract.sol\":1670:1680  _houseAddr */\n      dup7\n        /* \"contracts/patients/patientsContract.sol\":1656:1667  p.houseAddr */\n      dup3\n        /* \"contracts/patients/patientsContract.sol\":1656:1680  p.houseAddr = _houseAddr */\n      tag_50\n      jump\t// in\n    tag_55:\n      pop\n        /* \"contracts/patients/patientsContract.sol\":1691:1703  p.bloodGroup */\n      0x08\n      dup2\n      add\n        /* \"contracts/patients/patientsContract.sol\":1691:1717  p.bloodGroup = _bloodGroup */\n      tag_56\n        /* \"contracts/patients/patientsContract.sol\":1706:1717  _bloodGroup */\n      dup6\n        /* \"contracts/patients/patientsContract.sol\":1691:1703  p.bloodGroup */\n      dup3\n        /* \"contracts/patients/patientsContract.sol\":1691:1717  p.bloodGroup = _bloodGroup */\n      tag_50\n      jump\t// in\n    tag_56:\n      pop\n        /* \"contracts/patients/patientsContract.sol\":1728:1739  p.diagnoses */\n      0x09\n      dup2\n      add\n        /* \"contracts/patients/patientsContract.sol\":1728:1752  p.diagnoses = _diagnoses */\n      tag_57\n        /* \"contracts/patients/patientsContract.sol\":1742:1752  _diagnoses */\n      dup5\n        /* \"contracts/patients/patientsContract.sol\":1728:1739  p.diagnoses */\n      dup3\n        /* \"contracts/patients/patientsContract.sol\":1728:1752  p.diagnoses = _diagnoses */\n      tag_50\n      jump\t// in\n    tag_57:\n      pop\n        /* \"contracts/patients/patientsContract.sol\":1763:1775  p.medication */\n      0x0a\n      dup2\n      add\n        /* \"contracts/patients/patientsContract.sol\":1763:1789  p.medication = _medication */\n      tag_58\n        /* \"contracts/patients/patientsContract.sol\":1778:1789  _medication */\n      dup4\n        /* \"contracts/patients/patientsContract.sol\":1763:1775  p.medication */\n      dup3\n        /* \"contracts/patients/patientsContract.sol\":1763:1789  p.medication = _medication */\n      tag_50\n      jump\t// in\n    tag_58:\n      pop\n        /* \"contracts/patients/patientsContract.sol\":1898:1904  p.addr */\n      0x0b\n      dup2\n      add\n        /* \"contracts/patients/patientsContract.sol\":1898:1917  p.addr = msg.sender */\n      dup1\n      sload\n        /* \"contracts/patients/patientsContract.sol\":1907:1917  msg.sender */\n      caller\n      not(sub(shl(0xa0, 0x01), 0x01))\n        /* \"contracts/patients/patientsContract.sol\":1898:1917  p.addr = msg.sender */\n      swap2\n      dup3\n      and\n      dup2\n      or\n      swap1\n      swap3\n      sstore\n        /* \"contracts/patients/patientsContract.sol\":1942:1957  block.timestamp */\n      timestamp\n        /* \"contracts/patients/patientsContract.sol\":1928:1939  p.timestamp */\n      0x0c\n      dup5\n      add\n        /* \"contracts/patients/patientsContract.sol\":1928:1957  p.timestamp = block.timestamp */\n      sstore\n      0x01\n        /* \"contracts/patients/patientsContract.sol\":1970:1998  patientList.push(msg.sender) */\n      dup1\n      sload\n      dup1\n      dup3\n      add\n      dup3\n      sstore\n      0xb10e2d527612073b26eecdfd717e6a320cf44b4afac2b0732d9fcbe2b7fa0cf6\n      add\n      dup1\n      sload\n      swap1\n      swap3\n      and\n      dup4\n      or\n      swap1\n      swap2\n      sstore\n      0x00\n        /* \"contracts/patients/patientsContract.sol\":2009:2030  isPatient[msg.sender] */\n      dup3\n      dup2\n      mstore\n        /* \"contracts/patients/patientsContract.sol\":2009:2018  isPatient */\n      0x03\n        /* \"contracts/patients/patientsContract.sol\":1970:1998  patientList.push(msg.sender) */\n      0x20\n        /* \"contracts/patients/patientsContract.sol\":2009:2030  isPatient[msg.sender] */\n      mstore\n      0x40\n      dup1\n      dup3\n      keccak256\n        /* \"contracts/patients/patientsContract.sol\":2009:2037  isPatient[msg.sender] = true */\n      dup1\n      sload\n      not(0xff)\n      and\n      swap1\n      swap4\n      or\n      swap1\n      swap3\n      sstore\n        /* \"contracts/patients/patientsContract.sol\":2048:2067  permissionsContract */\n      sload\n        /* \"contracts/patients/patientsContract.sol\":2048:2095  permissionsContract.grantPermission(msg.sender) */\n      swap1\n      mload\n      shl(0xe3, 0x05b1c64f)\n      dup2\n      mstore\n      0x04\n      dup2\n      add\n        /* \"#utility.yul\":6385:6436   */\n      swap3\n      swap1\n      swap3\n      mstore\n      sub(shl(0xa0, 0x01), 0x01)\n        /* \"contracts/patients/patientsContract.sol\":2048:2067  permissionsContract */\n      and\n      swap1\n        /* \"contracts/patients/patientsContract.sol\":2048:2083  permissionsContract.grantPermission */\n      0x2d8e3278\n      swap1\n        /* \"#utility.yul\":6358:6376   */\n      0x24\n      add\n        /* \"contracts/patients/patientsContract.sol\":2048:2095  permissionsContract.grantPermission(msg.sender) */\n      0x20\n      mload(0x40)\n      dup1\n      dup4\n      sub\n      dup2\n      0x00\n      dup8\n      gas\n      call\n      iszero\n      dup1\n      iszero\n      tag_62\n      jumpi\n      returndatasize\n      0x00\n      dup1\n      returndatacopy\n      revert(0x00, returndatasize)\n    tag_62:\n      pop\n      pop\n      pop\n      pop\n      mload(0x40)\n      returndatasize\n      not(0x1f)\n      0x1f\n      dup3\n      add\n      and\n      dup3\n      add\n      dup1\n      0x40\n      mstore\n      pop\n      dup2\n      add\n      swap1\n      tag_63\n      swap2\n      swap1\n      tag_64\n      jump\t// in\n    tag_63:\n      pop\n        /* \"contracts/patients/patientsContract.sol\":2106:2118  patientCount */\n      0x04\n        /* \"contracts/patients/patientsContract.sol\":2106:2120  patientCount++ */\n      dup1\n      sload\n      swap1\n        /* \"contracts/patients/patientsContract.sol\":2106:2118  patientCount */\n      0x00\n        /* \"contracts/patients/patientsContract.sol\":2106:2120  patientCount++ */\n      tag_65\n      dup4\n      tag_66\n      jump\t// in\n    tag_65:\n      swap2\n      swap1\n      pop\n      sstore\n      pop\n        /* \"contracts/patients/patientsContract.sol\":1276:2128  {... */\n      pop\n        /* \"contracts/patients/patientsContract.sol\":786:2128  function setPatient(... */\n      pop\n      pop\n      pop\n      pop\n      pop\n      pop\n      pop\n      pop\n      pop\n      jump\t// out\n        /* \"contracts/patients/patientsContract.sol\":2564:2905  function searchPatientMedical(address _addr) public view returns(... */\n    tag_22:\n        /* \"contracts/patients/patientsContract.sol\":2639:2661  string memory homeAddr */\n      0x60\n        /* \"contracts/patients/patientsContract.sol\":2673:2697  string memory bloodGroup */\n      dup1\n        /* \"contracts/patients/patientsContract.sol\":2709:2732  string memory diagnoses */\n      0x60\n        /* \"contracts/patients/patientsContract.sol\":2744:2768  string memory medication */\n      dup1\n        /* \"contracts/patients/patientsContract.sol\":2787:2805  Patients storage p */\n      0x00\n        /* \"contracts/patients/patientsContract.sol\":2808:2816  patients */\n      0x02\n        /* \"contracts/patients/patientsContract.sol\":2808:2823  patients[_addr] */\n      0x00\n        /* \"contracts/patients/patientsContract.sol\":2817:2822  _addr */\n      dup8\n      sub(shl(0xa0, 0x01), 0x01)\n        /* \"contracts/patients/patientsContract.sol\":2808:2823  patients[_addr] */\n      and\n      sub(shl(0xa0, 0x01), 0x01)\n      and\n      dup2\n      mstore\n      0x20\n      add\n      swap1\n      dup2\n      mstore\n      0x20\n      add\n      0x00\n      keccak256\n        /* \"contracts/patients/patientsContract.sol\":2787:2823  Patients storage p = patients[_addr] */\n      swap1\n      pop\n        /* \"contracts/patients/patientsContract.sol\":2844:2845  p */\n      dup1\n        /* \"contracts/patients/patientsContract.sol\":2844:2855  p.houseAddr */\n      0x07\n      add\n        /* \"contracts/patients/patientsContract.sol\":2857:2858  p */\n      dup2\n        /* \"contracts/patients/patientsContract.sol\":2857:2869  p.bloodGroup */\n      0x08\n      add\n        /* \"contracts/patients/patientsContract.sol\":2871:2872  p */\n      dup3\n        /* \"contracts/patients/patientsContract.sol\":2871:2882  p.diagnoses */\n      0x09\n      add\n        /* \"contracts/patients/patientsContract.sol\":2884:2885  p */\n      dup4\n        /* \"contracts/patients/patientsContract.sol\":2884:2896  p.medication */\n      0x0a\n      add\n        /* \"contracts/patients/patientsContract.sol\":2836:2897  return (p.houseAddr, p.bloodGroup, p.diagnoses, p.medication) */\n      dup4\n      dup1\n      sload\n      tag_68\n      swap1\n      tag_69\n      jump\t// in\n    tag_68:\n      dup1\n      0x1f\n      add\n      0x20\n      dup1\n      swap2\n      div\n      mul\n      0x20\n      add\n      mload(0x40)\n      swap1\n      dup2\n      add\n      0x40\n      mstore\n      dup1\n      swap3\n      swap2\n      swap1\n      dup2\n      dup2\n      mstore\n      0x20\n      add\n      dup3\n      dup1\n      sload\n      tag_70\n      swap1\n      tag_69\n      jump\t// in\n    tag_70:\n      dup1\n      iszero\n      tag_71\n      jumpi\n      dup1\n      0x1f\n      lt\n      tag_72\n      jumpi\n      0x0100\n      dup1\n      dup4\n      sload\n      div\n      mul\n      dup4\n      mstore\n      swap2\n      0x20\n      add\n      swap2\n      jump(tag_71)\n    tag_72:\n      dup3\n      add\n      swap2\n      swap1\n      0x00\n      mstore\n      keccak256(0x00, 0x20)\n      swap1\n    tag_73:\n      dup2\n      sload\n      dup2\n      mstore\n      swap1\n      0x01\n      add\n      swap1\n      0x20\n      add\n      dup1\n      dup4\n      gt\n      tag_73\n      jumpi\n      dup3\n      swap1\n      sub\n      0x1f\n      and\n      dup3\n      add\n      swap2\n    tag_71:\n      pop\n      pop\n      pop\n      pop\n      pop\n      swap4\n      pop\n      dup3\n      dup1\n      sload\n      tag_74\n      swap1\n      tag_69\n      jump\t// in\n    tag_74:\n      dup1\n      0x1f\n      add\n      0x20\n      dup1\n      swap2\n      div\n      mul\n      0x20\n      add\n      mload(0x40)\n      swap1\n      dup2\n      add\n      0x40\n      mstore\n      dup1\n      swap3\n      swap2\n      swap1\n      dup2\n      dup2\n      mstore\n      0x20\n      add\n      dup3\n      dup1\n      sload\n      tag_75\n      swap1\n      tag_69\n      jump\t// in\n    tag_75:\n      dup1\n      iszero\n      tag_76\n      jumpi\n      dup1\n      0x1f\n      lt\n      tag_77\n      jumpi\n      0x0100\n      dup1\n      dup4\n      sload\n      div\n      mul\n      dup4\n      mstore\n      swap2\n      0x20\n      add\n      swap2\n      jump(tag_76)\n    tag_77:\n      dup3\n      add\n      swap2\n      swap1\n      0x00\n      mstore\n      keccak256(0x00, 0x20)\n      swap1\n    tag_78:\n      dup2\n      sload\n      dup2\n      mstore\n      swap1\n      0x01\n      add\n      swap1\n      0x20\n      add\n      dup1\n      dup4\n      gt\n      tag_78\n      jumpi\n      dup3\n      swap1\n      sub\n      0x1f\n      and\n      dup3\n      add\n      swap2\n    tag_76:\n      pop\n      pop\n      pop\n      pop\n      pop\n      swap3\n      pop\n      dup2\n      dup1\n      sload\n      tag_79\n      swap1\n      tag_69\n      jump\t// in\n    tag_79:\n      dup1\n      0x1f\n      add\n      0x20\n      dup1\n      swap2\n      div\n      mul\n      0x20\n      add\n      mload(0x40)\n      swap1\n      dup2\n      add\n      0x40\n      mstore\n      dup1\n      swap3\n      swap2\n      swap1\n      dup2\n      dup2\n      mstore\n      0x20\n      add\n      dup3\n      dup1\n      sload\n      tag_80\n      swap1\n      tag_69\n      jump\t// in\n    tag_80:\n      dup1\n      iszero\n      tag_81\n      jumpi\n      dup1\n      0x1f\n      lt\n      tag_82\n      jumpi\n      0x0100\n      dup1\n      dup4\n      sload\n      div\n      mul\n      dup4\n      mstore\n      swap2\n      0x20\n      add\n      swap2\n      jump(tag_81)\n    tag_82:\n      dup3\n      add\n      swap2\n      swap1\n      0x00\n      mstore\n      keccak256(0x00, 0x20)\n      swap1\n    tag_83:\n      dup2\n      sload\n      dup2\n      mstore\n      swap1\n      0x01\n      add\n      swap1\n      0x20\n      add\n      dup1\n      dup4\n      gt\n      tag_83\n      jumpi\n      dup3\n      swap1\n      sub\n      0x1f\n      and\n      dup3\n      add\n      swap2\n    tag_81:\n      pop\n      pop\n      pop\n      pop\n      pop\n      swap2\n      pop\n      dup1\n      dup1\n      sload\n      tag_84\n      swap1\n      tag_69\n      jump\t// in\n    tag_84:\n      dup1\n      0x1f\n      add\n      0x20\n      dup1\n      swap2\n      div\n      mul\n      0x20\n      add\n      mload(0x40)\n      swap1\n      dup2\n      add\n      0x40\n      mstore\n      dup1\n      swap3\n      swap2\n      swap1\n      dup2\n      dup2\n      mstore\n      0x20\n      add\n      dup3\n      dup1\n      sload\n      tag_85\n      swap1\n      tag_69\n      jump\t// in\n    tag_85:\n      dup1\n      iszero\n      tag_86\n      jumpi\n      dup1\n      0x1f\n      lt\n      tag_87\n      jumpi\n      0x0100\n      dup1\n      dup4\n      sload\n      div\n      mul\n      dup4\n      mstore\n      swap2\n      0x20\n      add\n      swap2\n      jump(tag_86)\n    tag_87:\n      dup3\n      add\n      swap2\n      swap1\n      0x00\n      mstore\n      keccak256(0x00, 0x20)\n      swap1\n    tag_88:\n      dup2\n      sload\n      dup2\n      mstore\n      swap1\n      0x01\n      add\n      swap1\n      0x20\n      add\n      dup1\n      dup4\n      gt\n      tag_88\n      jumpi\n      dup3\n      swap1\n      sub\n      0x1f\n      and\n      dup3\n      add\n      swap2\n    tag_86:\n      pop\n      pop\n      pop\n      pop\n      pop\n      swap1\n      pop\n      swap5\n      pop\n      swap5\n      pop\n      swap5\n      pop\n      swap5\n      pop\n      pop\n        /* \"contracts/patients/patientsContract.sol\":2564:2905  function searchPatientMedical(address _addr) public view returns(... */\n      swap2\n      swap4\n      pop\n      swap2\n      swap4\n      jump\t// out\n        /* \"contracts/patients/patientsContract.sol\":2210:2550  function searchPatientDemographic(address _addr) public view returns(... */\n    tag_27:\n        /* \"contracts/patients/patientsContract.sol\":2289:2305  string memory id */\n      0x60\n        /* \"contracts/patients/patientsContract.sol\":2317:2335  string memory name */\n      dup1\n        /* \"contracts/patients/patientsContract.sol\":2347:2366  string memory phone */\n      0x60\n        /* \"contracts/patients/patientsContract.sol\":2378:2398  string memory gender */\n      dup1\n        /* \"contracts/patients/patientsContract.sol\":2410:2427  string memory dob */\n      0x60\n        /* \"contracts/patients/patientsContract.sol\":2446:2464  Patients storage p */\n      0x00\n        /* \"contracts/patients/patientsContract.sol\":2467:2475  patients */\n      0x02\n        /* \"contracts/patients/patientsContract.sol\":2467:2482  patients[_addr] */\n      0x00\n        /* \"contracts/patients/patientsContract.sol\":2476:2481  _addr */\n      dup9\n      sub(shl(0xa0, 0x01), 0x01)\n        /* \"contracts/patients/patientsContract.sol\":2467:2482  patients[_addr] */\n      and\n      sub(shl(0xa0, 0x01), 0x01)\n      and\n      dup2\n      mstore\n      0x20\n      add\n      swap1\n      dup2\n      mstore\n      0x20\n      add\n      0x00\n      keccak256\n        /* \"contracts/patients/patientsContract.sol\":2446:2482  Patients storage p = patients[_addr] */\n      swap1\n      pop\n        /* \"contracts/patients/patientsContract.sol\":2503:2504  p */\n      dup1\n        /* \"contracts/patients/patientsContract.sol\":2503:2507  p.ic */\n      0x00\n      add\n        /* \"contracts/patients/patientsContract.sol\":2509:2510  p */\n      dup2\n        /* \"contracts/patients/patientsContract.sol\":2509:2515  p.name */\n      0x01\n      add\n        /* \"contracts/patients/patientsContract.sol\":2517:2518  p */\n      dup3\n        /* \"contracts/patients/patientsContract.sol\":2517:2524  p.phone */\n      0x02\n      add\n        /* \"contracts/patients/patientsContract.sol\":2526:2527  p */\n      dup4\n        /* \"contracts/patients/patientsContract.sol\":2526:2534  p.gender */\n      0x03\n      add\n        /* \"contracts/patients/patientsContract.sol\":2536:2537  p */\n      dup5\n        /* \"contracts/patients/patientsContract.sol\":2536:2541  p.dob */\n      0x04\n      add\n        /* \"contracts/patients/patientsContract.sol\":2495:2542  return (p.ic, p.name, p.phone, p.gender, p.dob) */\n      dup5\n      dup1\n      sload\n      tag_90\n      swap1\n      tag_69\n      jump\t// in\n    tag_90:\n      dup1\n      0x1f\n      add\n      0x20\n      dup1\n      swap2\n      div\n      mul\n      0x20\n      add\n      mload(0x40)\n      swap1\n      dup2\n      add\n      0x40\n      mstore\n      dup1\n      swap3\n      swap2\n      swap1\n      dup2\n      dup2\n      mstore\n      0x20\n      add\n      dup3\n      dup1\n      sload\n      tag_91\n      swap1\n      tag_69\n      jump\t// in\n    tag_91:\n      dup1\n      iszero\n      tag_92\n      jumpi\n      dup1\n      0x1f\n      lt\n      tag_93\n      jumpi\n      0x0100\n      dup1\n      dup4\n      sload\n      div\n      mul\n      dup4\n      mstore\n      swap2\n      0x20\n      add\n      swap2\n      jump(tag_92)\n    tag_93:\n      dup3\n      add\n      swap2\n      swap1\n      0x00\n      mstore\n      keccak256(0x00, 0x20)\n      swap1\n    tag_94:\n      dup2\n      sload\n      dup2\n      mstore\n      swap1\n      0x01\n      add\n      swap1\n      0x20\n      add\n      dup1\n      dup4\n      gt\n      tag_94\n      jumpi\n      dup3\n      swap1\n      sub\n      0x1f\n      and\n      dup3\n      add\n      swap2\n    tag_92:\n      pop\n      pop\n      pop\n      pop\n      pop\n      swap5\n      pop\n      dup4\n      dup1\n      sload\n      tag_95\n      swap1\n      tag_69\n      jump\t// in\n    tag_95:\n      dup1\n      0x1f\n      add\n      0x20\n      dup1\n      swap2\n      div\n      mul\n      0x20\n      add\n      mload(0x40)\n      swap1\n      dup2\n      add\n      0x40\n      mstore\n      dup1\n      swap3\n      swap2\n      swap1\n      dup2\n      dup2\n      mstore\n      0x20\n      add\n      dup3\n      dup1\n      sload\n      tag_96\n      swap1\n      tag_69\n      jump\t// in\n    tag_96:\n      dup1\n      iszero\n      tag_97\n      jumpi\n      dup1\n      0x1f\n      lt\n      tag_98\n      jumpi\n      0x0100\n      dup1\n      dup4\n      sload\n      div\n      mul\n      dup4\n      mstore\n      swap2\n      0x20\n      add\n      swap2\n      jump(tag_97)\n    tag_98:\n      dup3\n      add\n      swap2\n      swap1\n      0x00\n      mstore\n      keccak256(0x00, 0x20)\n      swap1\n    tag_99:\n      dup2\n      sload\n      dup2\n      mstore\n      swap1\n      0x01\n      add\n      swap1\n      0x20\n      add\n      dup1\n      dup4\n      gt\n      tag_99\n      jumpi\n      dup3\n      swap1\n      sub\n      0x1f\n      and\n      dup3\n      add\n      swap2\n    tag_97:\n      pop\n      pop\n      pop\n      pop\n      pop\n      swap4\n      pop\n      dup3\n      dup1\n      sload\n      tag_100\n      swap1\n      tag_69\n      jump\t// in\n    tag_100:\n      dup1\n      0x1f\n      add\n      0x20\n      dup1\n      swap2\n      div\n      mul\n      0x20\n      add\n      mload(0x40)\n      swap1\n      dup2\n      add\n      0x40\n      mstore\n      dup1\n      swap3\n      swap2\n      swap1\n      dup2\n      dup2\n      mstore\n      0x20\n      add\n      dup3\n      dup1\n      sload\n      tag_101\n      swap1\n      tag_69\n      jump\t// in\n    tag_101:\n      dup1\n      iszero\n      tag_102\n      jumpi\n      dup1\n      0x1f\n      lt\n      tag_103\n      jumpi\n      0x0100\n      dup1\n      dup4\n      sload\n      div\n      mul\n      dup4\n      mstore\n      swap2\n      0x20\n      add\n      swap2\n      jump(tag_102)\n    tag_103:\n      dup3\n      add\n      swap2\n      swap1\n      0x00\n      mstore\n      keccak256(0x00, 0x20)\n      swap1\n    tag_104:\n      dup2\n      sload\n      dup2\n      mstore\n      swap1\n      0x01\n      add\n      swap1\n      0x20\n      add\n      dup1\n      dup4\n      gt\n      tag_104\n      jumpi\n      dup3\n      swap1\n      sub\n      0x1f\n      and\n      dup3\n      add\n      swap2\n    tag_102:\n      pop\n      pop\n      pop\n      pop\n      pop\n      swap3\n      pop\n      dup2\n      dup1\n      sload\n      tag_105\n      swap1\n      tag_69\n      jump\t// in\n    tag_105:\n      dup1\n      0x1f\n      add\n      0x20\n      dup1\n      swap2\n      div\n      mul\n      0x20\n      add\n      mload(0x40)\n      swap1\n      dup2\n      add\n      0x40\n      mstore\n      dup1\n      swap3\n      swap2\n      swap1\n      dup2\n      dup2\n      mstore\n      0x20\n      add\n      dup3\n      dup1\n      sload\n      tag_106\n      swap1\n      tag_69\n      jump\t// in\n    tag_106:\n      dup1\n      iszero\n      tag_107\n      jumpi\n      dup1\n      0x1f\n      lt\n      tag_108\n      jumpi\n      0x0100\n      dup1\n      dup4\n      sload\n      div\n      mul\n      dup4\n      mstore\n      swap2\n      0x20\n      add\n      swap2\n      jump(tag_107)\n    tag_108:\n      dup3\n      add\n      swap2\n      swap1\n      0x00\n      mstore\n      keccak256(0x00, 0x20)\n      swap1\n    tag_109:\n      dup2\n      sload\n      dup2\n      mstore\n      swap1\n      0x01\n      add\n      swap1\n      0x20\n      add\n      dup1\n      dup4\n      gt\n      tag_109\n      jumpi\n      dup3\n      swap1\n      sub\n      0x1f\n      and\n      dup3\n      add\n      swap2\n    tag_107:\n      pop\n      pop\n      pop\n      pop\n      pop\n      swap2\n      pop\n      dup1\n      dup1\n      sload\n      tag_110\n      swap1\n      tag_69\n      jump\t// in\n    tag_110:\n      dup1\n      0x1f\n      add\n      0x20\n      dup1\n      swap2\n      div\n      mul\n      0x20\n      add\n      mload(0x40)\n      swap1\n      dup2\n      add\n      0x40\n      mstore\n      dup1\n      swap3\n      swap2\n      swap1\n      dup2\n      dup2\n      mstore\n      0x20\n      add\n      dup3\n      dup1\n      sload\n      tag_111\n      swap1\n      tag_69\n      jump\t// in\n    tag_111:\n      dup1\n      iszero\n      tag_112\n      jumpi\n      dup1\n      0x1f\n      lt\n      tag_113\n      jumpi\n      0x0100\n      dup1\n      dup4\n      sload\n      div\n      mul\n      dup4\n      mstore\n      swap2\n      0x20\n      add\n      swap2\n      jump(tag_112)\n    tag_113:\n      dup3\n      add\n      swap2\n      swap1\n      0x00\n      mstore\n      keccak256(0x00, 0x20)\n      swap1\n    tag_114:\n      dup2\n      sload\n      dup2\n      mstore\n      swap1\n      0x01\n      add\n      swap1\n      0x20\n      add\n      dup1\n      dup4\n      gt\n      tag_114\n      jumpi\n      dup3\n      swap1\n      sub\n      0x1f\n      and\n      dup3\n      add\n      swap2\n    tag_112:\n      pop\n      pop\n      pop\n      pop\n      pop\n      swap1\n      pop\n      swap6\n      pop\n      swap6\n      pop\n      swap6\n      pop\n      swap6\n      pop\n      swap6\n      pop\n      pop\n        /* \"contracts/patients/patientsContract.sol\":2210:2550  function searchPatientDemographic(address _addr) public view returns(... */\n      swap2\n      swap4\n      swap6\n      swap1\n      swap3\n      swap5\n      pop\n      jump\t// out\n        /* \"contracts/patients/patientsContract.sol\":447:475  address[] public patientList */\n    tag_39:\n      0x01\n      dup2\n      dup2\n      sload\n      dup2\n      lt\n      tag_116\n      jumpi\n      0x00\n      dup1\n      revert\n    tag_116:\n      0x00\n      swap2\n      dup3\n      mstore\n      0x20\n      swap1\n      swap2\n      keccak256\n      add\n      sload\n      sub(shl(0xa0, 0x01), 0x01)\n      and\n      swap1\n      pop\n      dup2\n      jump\t// out\n        /* \"#utility.yul\":14:651   */\n    tag_14:\n        /* \"#utility.yul\":204:206   */\n      0x20\n        /* \"#utility.yul\":216:237   */\n      dup1\n      dup3\n      mstore\n        /* \"#utility.yul\":286:299   */\n      dup3\n      mload\n        /* \"#utility.yul\":189:207   */\n      dup3\n      dup3\n      add\n        /* \"#utility.yul\":308:330   */\n      dup2\n      swap1\n      mstore\n        /* \"#utility.yul\":156:160   */\n      0x00\n      swap2\n        /* \"#utility.yul\":387:402   */\n      dup5\n      add\n      swap1\n        /* \"#utility.yul\":361:363   */\n      0x40\n        /* \"#utility.yul\":346:364   */\n      dup5\n      add\n      swap1\n        /* \"#utility.yul\":156:160   */\n      dup4\n        /* \"#utility.yul\":430:625   */\n    tag_126:\n        /* \"#utility.yul\":444:450   */\n      dup2\n        /* \"#utility.yul\":441:442   */\n      dup2\n        /* \"#utility.yul\":438:451   */\n      lt\n        /* \"#utility.yul\":430:625   */\n      iszero\n      tag_128\n      jumpi\n        /* \"#utility.yul\":509:522   */\n      dup4\n      mload\n      sub(shl(0xa0, 0x01), 0x01)\n        /* \"#utility.yul\":505:544   */\n      and\n        /* \"#utility.yul\":493:545   */\n      dup4\n      mstore\n        /* \"#utility.yul\":574:576   */\n      0x20\n        /* \"#utility.yul\":600:615   */\n      swap4\n      dup5\n      add\n      swap4\n        /* \"#utility.yul\":565:577   */\n      swap1\n      swap3\n      add\n      swap2\n        /* \"#utility.yul\":541:542   */\n      0x01\n        /* \"#utility.yul\":459:468   */\n      add\n        /* \"#utility.yul\":430:625   */\n      jump(tag_126)\n    tag_128:\n      pop\n        /* \"#utility.yul\":642:645   */\n      swap1\n      swap6\n        /* \"#utility.yul\":14:651   */\n      swap5\n      pop\n      pop\n      pop\n      pop\n      pop\n      jump\t// out\n        /* \"#utility.yul\":656:783   */\n    tag_118:\n        /* \"#utility.yul\":717:727   */\n      0x4e487b71\n        /* \"#utility.yul\":712:715   */\n      0xe0\n        /* \"#utility.yul\":708:728   */\n      shl\n        /* \"#utility.yul\":705:706   */\n      0x00\n        /* \"#utility.yul\":698:729   */\n      mstore\n        /* \"#utility.yul\":748:752   */\n      0x41\n        /* \"#utility.yul\":745:746   */\n      0x04\n        /* \"#utility.yul\":738:753   */\n      mstore\n        /* \"#utility.yul\":772:776   */\n      0x24\n        /* \"#utility.yul\":769:770   */\n      0x00\n        /* \"#utility.yul\":762:777   */\n      revert\n        /* \"#utility.yul\":788:1514   */\n    tag_119:\n        /* \"#utility.yul\":831:836   */\n      0x00\n        /* \"#utility.yul\":884:887   */\n      dup3\n        /* \"#utility.yul\":877:881   */\n      0x1f\n        /* \"#utility.yul\":869:875   */\n      dup4\n        /* \"#utility.yul\":865:882   */\n      add\n        /* \"#utility.yul\":861:888   */\n      slt\n        /* \"#utility.yul\":851:906   */\n      tag_131\n      jumpi\n        /* \"#utility.yul\":902:903   */\n      0x00\n        /* \"#utility.yul\":899:900   */\n      dup1\n        /* \"#utility.yul\":892:904   */\n      revert\n        /* \"#utility.yul\":851:906   */\n    tag_131:\n        /* \"#utility.yul\":942:948   */\n      dup2\n        /* \"#utility.yul\":929:949   */\n      calldataload\n        /* \"#utility.yul\":972:990   */\n      0xffffffffffffffff\n        /* \"#utility.yul\":964:970   */\n      dup2\n        /* \"#utility.yul\":961:991   */\n      gt\n        /* \"#utility.yul\":958:1014   */\n      iszero\n      tag_133\n      jumpi\n        /* \"#utility.yul\":994:1012   */\n      tag_133\n      tag_118\n      jump\t// in\n    tag_133:\n        /* \"#utility.yul\":1043:1045   */\n      0x40\n        /* \"#utility.yul\":1037:1046   */\n      mload\n        /* \"#utility.yul\":1135:1137   */\n      0x1f\n        /* \"#utility.yul\":1097:1114   */\n      dup3\n      add\n      not(0x1f)\n        /* \"#utility.yul\":1093:1124   */\n      swap1\n      dup2\n      and\n        /* \"#utility.yul\":1126:1128   */\n      0x3f\n        /* \"#utility.yul\":1089:1129   */\n      add\n        /* \"#utility.yul\":1085:1139   */\n      and\n        /* \"#utility.yul\":1073:1140   */\n      dup2\n      add\n        /* \"#utility.yul\":1170:1188   */\n      0xffffffffffffffff\n        /* \"#utility.yul\":1155:1189   */\n      dup2\n      gt\n        /* \"#utility.yul\":1191:1213   */\n      dup3\n      dup3\n      lt\n        /* \"#utility.yul\":1152:1214   */\n      or\n        /* \"#utility.yul\":1149:1237   */\n      iszero\n      tag_135\n      jumpi\n        /* \"#utility.yul\":1217:1235   */\n      tag_135\n      tag_118\n      jump\t// in\n    tag_135:\n        /* \"#utility.yul\":1253:1255   */\n      0x40\n        /* \"#utility.yul\":1246:1268   */\n      mstore\n        /* \"#utility.yul\":1277:1299   */\n      dup2\n      dup2\n      mstore\n        /* \"#utility.yul\":1318:1337   */\n      dup4\n      dup3\n      add\n        /* \"#utility.yul\":1339:1343   */\n      0x20\n        /* \"#utility.yul\":1314:1344   */\n      add\n        /* \"#utility.yul\":1311:1350   */\n      dup6\n      lt\n        /* \"#utility.yul\":1308:1367   */\n      iszero\n      tag_136\n      jumpi\n        /* \"#utility.yul\":1363:1364   */\n      0x00\n        /* \"#utility.yul\":1360:1361   */\n      dup1\n        /* \"#utility.yul\":1353:1365   */\n      revert\n        /* \"#utility.yul\":1308:1367   */\n    tag_136:\n        /* \"#utility.yul\":1427:1433   */\n      dup2\n        /* \"#utility.yul\":1420:1424   */\n      0x20\n        /* \"#utility.yul\":1412:1418   */\n      dup6\n        /* \"#utility.yul\":1408:1425   */\n      add\n        /* \"#utility.yul\":1401:1405   */\n      0x20\n        /* \"#utility.yul\":1393:1399   */\n      dup4\n        /* \"#utility.yul\":1389:1406   */\n      add\n        /* \"#utility.yul\":1376:1434   */\n      calldatacopy\n        /* \"#utility.yul\":1482:1483   */\n      0x00\n        /* \"#utility.yul\":1454:1473   */\n      swap2\n      dup2\n      add\n        /* \"#utility.yul\":1475:1479   */\n      0x20\n        /* \"#utility.yul\":1450:1480   */\n      add\n        /* \"#utility.yul\":1443:1484   */\n      swap2\n      swap1\n      swap2\n      mstore\n        /* \"#utility.yul\":1458:1464   */\n      swap4\n        /* \"#utility.yul\":788:1514   */\n      swap3\n      pop\n      pop\n      pop\n      jump\t// out\n        /* \"#utility.yul\":1519:3575   */\n    tag_17:\n        /* \"#utility.yul\":1740:1746   */\n      0x00\n        /* \"#utility.yul\":1748:1754   */\n      dup1\n        /* \"#utility.yul\":1756:1762   */\n      0x00\n        /* \"#utility.yul\":1764:1770   */\n      dup1\n        /* \"#utility.yul\":1772:1778   */\n      0x00\n        /* \"#utility.yul\":1780:1786   */\n      dup1\n        /* \"#utility.yul\":1788:1794   */\n      0x00\n        /* \"#utility.yul\":1796:1802   */\n      dup1\n        /* \"#utility.yul\":1804:1810   */\n      0x00\n        /* \"#utility.yul\":1857:1860   */\n      0x0120\n        /* \"#utility.yul\":1845:1854   */\n      dup11\n        /* \"#utility.yul\":1836:1843   */\n      dup13\n        /* \"#utility.yul\":1832:1855   */\n      sub\n        /* \"#utility.yul\":1828:1861   */\n      slt\n        /* \"#utility.yul\":1825:1878   */\n      iszero\n      tag_138\n      jumpi\n        /* \"#utility.yul\":1874:1875   */\n      0x00\n        /* \"#utility.yul\":1871:1872   */\n      dup1\n        /* \"#utility.yul\":1864:1876   */\n      revert\n        /* \"#utility.yul\":1825:1878   */\n    tag_138:\n        /* \"#utility.yul\":1914:1923   */\n      dup10\n        /* \"#utility.yul\":1901:1924   */\n      calldataload\n        /* \"#utility.yul\":1947:1965   */\n      0xffffffffffffffff\n        /* \"#utility.yul\":1939:1945   */\n      dup2\n        /* \"#utility.yul\":1936:1966   */\n      gt\n        /* \"#utility.yul\":1933:1983   */\n      iszero\n      tag_139\n      jumpi\n        /* \"#utility.yul\":1979:1980   */\n      0x00\n        /* \"#utility.yul\":1976:1977   */\n      dup1\n        /* \"#utility.yul\":1969:1981   */\n      revert\n        /* \"#utility.yul\":1933:1983   */\n    tag_139:\n        /* \"#utility.yul\":2002:2052   */\n      tag_140\n        /* \"#utility.yul\":2044:2051   */\n      dup13\n        /* \"#utility.yul\":2035:2041   */\n      dup3\n        /* \"#utility.yul\":2024:2033   */\n      dup14\n        /* \"#utility.yul\":2020:2042   */\n      add\n        /* \"#utility.yul\":2002:2052   */\n      tag_119\n      jump\t// in\n    tag_140:\n        /* \"#utility.yul\":1992:2052   */\n      swap10\n      pop\n      pop\n        /* \"#utility.yul\":2105:2107   */\n      0x20\n        /* \"#utility.yul\":2094:2103   */\n      dup11\n        /* \"#utility.yul\":2090:2108   */\n      add\n        /* \"#utility.yul\":2077:2109   */\n      calldataload\n        /* \"#utility.yul\":2134:2152   */\n      0xffffffffffffffff\n        /* \"#utility.yul\":2124:2132   */\n      dup2\n        /* \"#utility.yul\":2121:2153   */\n      gt\n        /* \"#utility.yul\":2118:2170   */\n      iszero\n      tag_141\n      jumpi\n        /* \"#utility.yul\":2166:2167   */\n      0x00\n        /* \"#utility.yul\":2163:2164   */\n      dup1\n        /* \"#utility.yul\":2156:2168   */\n      revert\n        /* \"#utility.yul\":2118:2170   */\n    tag_141:\n        /* \"#utility.yul\":2189:2241   */\n      tag_142\n        /* \"#utility.yul\":2233:2240   */\n      dup13\n        /* \"#utility.yul\":2222:2230   */\n      dup3\n        /* \"#utility.yul\":2211:2220   */\n      dup14\n        /* \"#utility.yul\":2207:2231   */\n      add\n        /* \"#utility.yul\":2189:2241   */\n      tag_119\n      jump\t// in\n    tag_142:\n        /* \"#utility.yul\":2179:2241   */\n      swap9\n      pop\n      pop\n        /* \"#utility.yul\":2294:2296   */\n      0x40\n        /* \"#utility.yul\":2283:2292   */\n      dup11\n        /* \"#utility.yul\":2279:2297   */\n      add\n        /* \"#utility.yul\":2266:2298   */\n      calldataload\n        /* \"#utility.yul\":2323:2341   */\n      0xffffffffffffffff\n        /* \"#utility.yul\":2313:2321   */\n      dup2\n        /* \"#utility.yul\":2310:2342   */\n      gt\n        /* \"#utility.yul\":2307:2359   */\n      iszero\n      tag_143\n      jumpi\n        /* \"#utility.yul\":2355:2356   */\n      0x00\n        /* \"#utility.yul\":2352:2353   */\n      dup1\n        /* \"#utility.yul\":2345:2357   */\n      revert\n        /* \"#utility.yul\":2307:2359   */\n    tag_143:\n        /* \"#utility.yul\":2378:2430   */\n      tag_144\n        /* \"#utility.yul\":2422:2429   */\n      dup13\n        /* \"#utility.yul\":2411:2419   */\n      dup3\n        /* \"#utility.yul\":2400:2409   */\n      dup14\n        /* \"#utility.yul\":2396:2420   */\n      add\n        /* \"#utility.yul\":2378:2430   */\n      tag_119\n      jump\t// in\n    tag_144:\n        /* \"#utility.yul\":2368:2430   */\n      swap8\n      pop\n      pop\n        /* \"#utility.yul\":2483:2485   */\n      0x60\n        /* \"#utility.yul\":2472:2481   */\n      dup11\n        /* \"#utility.yul\":2468:2486   */\n      add\n        /* \"#utility.yul\":2455:2487   */\n      calldataload\n        /* \"#utility.yul\":2512:2530   */\n      0xffffffffffffffff\n        /* \"#utility.yul\":2502:2510   */\n      dup2\n        /* \"#utility.yul\":2499:2531   */\n      gt\n        /* \"#utility.yul\":2496:2548   */\n      iszero\n      tag_145\n      jumpi\n        /* \"#utility.yul\":2544:2545   */\n      0x00\n        /* \"#utility.yul\":2541:2542   */\n      dup1\n        /* \"#utility.yul\":2534:2546   */\n      revert\n        /* \"#utility.yul\":2496:2548   */\n    tag_145:\n        /* \"#utility.yul\":2567:2619   */\n      tag_146\n        /* \"#utility.yul\":2611:2618   */\n      dup13\n        /* \"#utility.yul\":2600:2608   */\n      dup3\n        /* \"#utility.yul\":2589:2598   */\n      dup14\n        /* \"#utility.yul\":2585:2609   */\n      add\n        /* \"#utility.yul\":2567:2619   */\n      tag_119\n      jump\t// in\n    tag_146:\n        /* \"#utility.yul\":2557:2619   */\n      swap7\n      pop\n      pop\n        /* \"#utility.yul\":2672:2675   */\n      0x80\n        /* \"#utility.yul\":2661:2670   */\n      dup11\n        /* \"#utility.yul\":2657:2676   */\n      add\n        /* \"#utility.yul\":2644:2677   */\n      calldataload\n        /* \"#utility.yul\":2702:2720   */\n      0xffffffffffffffff\n        /* \"#utility.yul\":2692:2700   */\n      dup2\n        /* \"#utility.yul\":2689:2721   */\n      gt\n        /* \"#utility.yul\":2686:2738   */\n      iszero\n      tag_147\n      jumpi\n        /* \"#utility.yul\":2734:2735   */\n      0x00\n        /* \"#utility.yul\":2731:2732   */\n      dup1\n        /* \"#utility.yul\":2724:2736   */\n      revert\n        /* \"#utility.yul\":2686:2738   */\n    tag_147:\n        /* \"#utility.yul\":2757:2809   */\n      tag_148\n        /* \"#utility.yul\":2801:2808   */\n      dup13\n        /* \"#utility.yul\":2790:2798   */\n      dup3\n        /* \"#utility.yul\":2779:2788   */\n      dup14\n        /* \"#utility.yul\":2775:2799   */\n      add\n        /* \"#utility.yul\":2757:2809   */\n      tag_119\n      jump\t// in\n    tag_148:\n        /* \"#utility.yul\":2747:2809   */\n      swap6\n      pop\n      pop\n        /* \"#utility.yul\":2862:2865   */\n      0xa0\n        /* \"#utility.yul\":2851:2860   */\n      dup11\n        /* \"#utility.yul\":2847:2866   */\n      add\n        /* \"#utility.yul\":2834:2867   */\n      calldataload\n        /* \"#utility.yul\":2892:2910   */\n      0xffffffffffffffff\n        /* \"#utility.yul\":2882:2890   */\n      dup2\n        /* \"#utility.yul\":2879:2911   */\n      gt\n        /* \"#utility.yul\":2876:2928   */\n      iszero\n      tag_149\n      jumpi\n        /* \"#utility.yul\":2924:2925   */\n      0x00\n        /* \"#utility.yul\":2921:2922   */\n      dup1\n        /* \"#utility.yul\":2914:2926   */\n      revert\n        /* \"#utility.yul\":2876:2928   */\n    tag_149:\n        /* \"#utility.yul\":2947:2999   */\n      tag_150\n        /* \"#utility.yul\":2991:2998   */\n      dup13\n        /* \"#utility.yul\":2980:2988   */\n      dup3\n        /* \"#utility.yul\":2969:2978   */\n      dup14\n        /* \"#utility.yul\":2965:2989   */\n      add\n        /* \"#utility.yul\":2947:2999   */\n      tag_119\n      jump\t// in\n    tag_150:\n        /* \"#utility.yul\":2937:2999   */\n      swap5\n      pop\n      pop\n        /* \"#utility.yul\":3052:3055   */\n      0xc0\n        /* \"#utility.yul\":3041:3050   */\n      dup11\n        /* \"#utility.yul\":3037:3056   */\n      add\n        /* \"#utility.yul\":3024:3057   */\n      calldataload\n        /* \"#utility.yul\":3082:3100   */\n      0xffffffffffffffff\n        /* \"#utility.yul\":3072:3080   */\n      dup2\n        /* \"#utility.yul\":3069:3101   */\n      gt\n        /* \"#utility.yul\":3066:3118   */\n      iszero\n      tag_151\n      jumpi\n        /* \"#utility.yul\":3114:3115   */\n      0x00\n        /* \"#utility.yul\":3111:3112   */\n      dup1\n        /* \"#utility.yul\":3104:3116   */\n      revert\n        /* \"#utility.yul\":3066:3118   */\n    tag_151:\n        /* \"#utility.yul\":3137:3189   */\n      tag_152\n        /* \"#utility.yul\":3181:3188   */\n      dup13\n        /* \"#utility.yul\":3170:3178   */\n      dup3\n        /* \"#utility.yul\":3159:3168   */\n      dup14\n        /* \"#utility.yul\":3155:3179   */\n      add\n        /* \"#utility.yul\":3137:3189   */\n      tag_119\n      jump\t// in\n    tag_152:\n        /* \"#utility.yul\":3127:3189   */\n      swap4\n      pop\n      pop\n        /* \"#utility.yul\":3242:3245   */\n      0xe0\n        /* \"#utility.yul\":3231:3240   */\n      dup11\n        /* \"#utility.yul\":3227:3246   */\n      add\n        /* \"#utility.yul\":3214:3247   */\n      calldataload\n        /* \"#utility.yul\":3272:3290   */\n      0xffffffffffffffff\n        /* \"#utility.yul\":3262:3270   */\n      dup2\n        /* \"#utility.yul\":3259:3291   */\n      gt\n        /* \"#utility.yul\":3256:3308   */\n      iszero\n      tag_153\n      jumpi\n        /* \"#utility.yul\":3304:3305   */\n      0x00\n        /* \"#utility.yul\":3301:3302   */\n      dup1\n        /* \"#utility.yul\":3294:3306   */\n      revert\n        /* \"#utility.yul\":3256:3308   */\n    tag_153:\n        /* \"#utility.yul\":3327:3379   */\n      tag_154\n        /* \"#utility.yul\":3371:3378   */\n      dup13\n        /* \"#utility.yul\":3360:3368   */\n      dup3\n        /* \"#utility.yul\":3349:3358   */\n      dup14\n        /* \"#utility.yul\":3345:3369   */\n      add\n        /* \"#utility.yul\":3327:3379   */\n      tag_119\n      jump\t// in\n    tag_154:\n        /* \"#utility.yul\":3317:3379   */\n      swap3\n      pop\n      pop\n        /* \"#utility.yul\":3432:3435   */\n      0x0100\n        /* \"#utility.yul\":3421:3430   */\n      dup11\n        /* \"#utility.yul\":3417:3436   */\n      add\n        /* \"#utility.yul\":3404:3437   */\n      calldataload\n        /* \"#utility.yul\":3462:3480   */\n      0xffffffffffffffff\n        /* \"#utility.yul\":3452:3460   */\n      dup2\n        /* \"#utility.yul\":3449:3481   */\n      gt\n        /* \"#utility.yul\":3446:3498   */\n      iszero\n      tag_155\n      jumpi\n        /* \"#utility.yul\":3494:3495   */\n      0x00\n        /* \"#utility.yul\":3491:3492   */\n      dup1\n        /* \"#utility.yul\":3484:3496   */\n      revert\n        /* \"#utility.yul\":3446:3498   */\n    tag_155:\n        /* \"#utility.yul\":3517:3569   */\n      tag_156\n        /* \"#utility.yul\":3561:3568   */\n      dup13\n        /* \"#utility.yul\":3550:3558   */\n      dup3\n        /* \"#utility.yul\":3539:3548   */\n      dup14\n        /* \"#utility.yul\":3535:3559   */\n      add\n        /* \"#utility.yul\":3517:3569   */\n      tag_119\n      jump\t// in\n    tag_156:\n        /* \"#utility.yul\":3507:3569   */\n      swap2\n      pop\n      pop\n        /* \"#utility.yul\":1519:3575   */\n      swap3\n      swap6\n      swap9\n      pop\n      swap3\n      swap6\n      swap9\n      pop\n      swap3\n      swap6\n      swap9\n      jump\t// out\n        /* \"#utility.yul\":3580:3866   */\n    tag_21:\n        /* \"#utility.yul\":3639:3645   */\n      0x00\n        /* \"#utility.yul\":3692:3694   */\n      0x20\n        /* \"#utility.yul\":3680:3689   */\n      dup3\n        /* \"#utility.yul\":3671:3678   */\n      dup5\n        /* \"#utility.yul\":3667:3690   */\n      sub\n        /* \"#utility.yul\":3663:3695   */\n      slt\n        /* \"#utility.yul\":3660:3712   */\n      iszero\n      tag_158\n      jumpi\n        /* \"#utility.yul\":3708:3709   */\n      0x00\n        /* \"#utility.yul\":3705:3706   */\n      dup1\n        /* \"#utility.yul\":3698:3710   */\n      revert\n        /* \"#utility.yul\":3660:3712   */\n    tag_158:\n        /* \"#utility.yul\":3734:3757   */\n      dup2\n      calldataload\n      sub(shl(0xa0, 0x01), 0x01)\n        /* \"#utility.yul\":3786:3817   */\n      dup2\n      and\n        /* \"#utility.yul\":3776:3818   */\n      dup2\n      eq\n        /* \"#utility.yul\":3766:3836   */\n      tag_159\n      jumpi\n        /* \"#utility.yul\":3832:3833   */\n      0x00\n        /* \"#utility.yul\":3829:3830   */\n      dup1\n        /* \"#utility.yul\":3822:3834   */\n      revert\n        /* \"#utility.yul\":3766:3836   */\n    tag_159:\n        /* \"#utility.yul\":3855:3860   */\n      swap4\n        /* \"#utility.yul\":3580:3866   */\n      swap3\n      pop\n      pop\n      pop\n      jump\t// out\n        /* \"#utility.yul\":3871:4271   */\n    tag_120:\n        /* \"#utility.yul\":3913:3916   */\n      0x00\n        /* \"#utility.yul\":3951:3956   */\n      dup2\n        /* \"#utility.yul\":3945:3957   */\n      mload\n        /* \"#utility.yul\":3978:3984   */\n      dup1\n        /* \"#utility.yul\":3973:3976   */\n      dup5\n        /* \"#utility.yul\":3966:3985   */\n      mstore\n        /* \"#utility.yul\":4003:4004   */\n      0x00\n        /* \"#utility.yul\":4013:4152   */\n    tag_161:\n        /* \"#utility.yul\":4027:4033   */\n      dup2\n        /* \"#utility.yul\":4024:4025   */\n      dup2\n        /* \"#utility.yul\":4021:4034   */\n      lt\n        /* \"#utility.yul\":4013:4152   */\n      iszero\n      tag_163\n      jumpi\n        /* \"#utility.yul\":4135:4139   */\n      0x20\n        /* \"#utility.yul\":4120:4133   */\n      dup2\n      dup6\n      add\n        /* \"#utility.yul\":4116:4140   */\n      dup2\n      add\n        /* \"#utility.yul\":4110:4141   */\n      mload\n        /* \"#utility.yul\":4090:4101   */\n      dup7\n      dup4\n      add\n        /* \"#utility.yul\":4086:4108   */\n      dup3\n      add\n        /* \"#utility.yul\":4079:4142   */\n      mstore\n        /* \"#utility.yul\":4042:4054   */\n      add\n        /* \"#utility.yul\":4013:4152   */\n      jump(tag_161)\n    tag_163:\n        /* \"#utility.yul\":4017:4020   */\n      pop\n        /* \"#utility.yul\":4197:4198   */\n      0x00\n        /* \"#utility.yul\":4190:4194   */\n      0x20\n        /* \"#utility.yul\":4181:4187   */\n      dup3\n        /* \"#utility.yul\":4176:4179   */\n      dup7\n        /* \"#utility.yul\":4172:4188   */\n      add\n        /* \"#utility.yul\":4168:4195   */\n      add\n        /* \"#utility.yul\":4161:4199   */\n      mstore\n        /* \"#utility.yul\":4260:4264   */\n      0x20\n        /* \"#utility.yul\":4253:4255   */\n      0x1f\n        /* \"#utility.yul\":4249:4256   */\n      not\n        /* \"#utility.yul\":4244:4246   */\n      0x1f\n        /* \"#utility.yul\":4236:4242   */\n      dup4\n        /* \"#utility.yul\":4232:4247   */\n      add\n        /* \"#utility.yul\":4228:4257   */\n      and\n        /* \"#utility.yul\":4223:4226   */\n      dup6\n        /* \"#utility.yul\":4219:4258   */\n      add\n        /* \"#utility.yul\":4215:4265   */\n      add\n        /* \"#utility.yul\":4208:4265   */\n      swap2\n      pop\n      pop\n        /* \"#utility.yul\":3871:4271   */\n      swap3\n      swap2\n      pop\n      pop\n      jump\t// out\n        /* \"#utility.yul\":4276:4987   */\n    tag_24:\n        /* \"#utility.yul\":4569:4572   */\n      0x80\n        /* \"#utility.yul\":4558:4567   */\n      dup2\n        /* \"#utility.yul\":4551:4573   */\n      mstore\n        /* \"#utility.yul\":4532:4536   */\n      0x00\n        /* \"#utility.yul\":4596:4642   */\n      tag_165\n        /* \"#utility.yul\":4637:4640   */\n      0x80\n        /* \"#utility.yul\":4626:4635   */\n      dup4\n        /* \"#utility.yul\":4622:4641   */\n      add\n        /* \"#utility.yul\":4614:4620   */\n      dup8\n        /* \"#utility.yul\":4596:4642   */\n      tag_120\n      jump\t// in\n    tag_165:\n        /* \"#utility.yul\":4690:4699   */\n      dup3\n        /* \"#utility.yul\":4682:4688   */\n      dup2\n        /* \"#utility.yul\":4678:4700   */\n      sub\n        /* \"#utility.yul\":4673:4675   */\n      0x20\n        /* \"#utility.yul\":4662:4671   */\n      dup5\n        /* \"#utility.yul\":4658:4676   */\n      add\n        /* \"#utility.yul\":4651:4701   */\n      mstore\n        /* \"#utility.yul\":4724:4757   */\n      tag_166\n        /* \"#utility.yul\":4750:4756   */\n      dup2\n        /* \"#utility.yul\":4742:4748   */\n      dup8\n        /* \"#utility.yul\":4724:4757   */\n      tag_120\n      jump\t// in\n    tag_166:\n        /* \"#utility.yul\":4710:4757   */\n      swap1\n      pop\n        /* \"#utility.yul\":4805:4814   */\n      dup3\n        /* \"#utility.yul\":4797:4803   */\n      dup2\n        /* \"#utility.yul\":4793:4815   */\n      sub\n        /* \"#utility.yul\":4788:4790   */\n      0x40\n        /* \"#utility.yul\":4777:4786   */\n      dup5\n        /* \"#utility.yul\":4773:4791   */\n      add\n        /* \"#utility.yul\":4766:4816   */\n      mstore\n        /* \"#utility.yul\":4839:4872   */\n      tag_167\n        /* \"#utility.yul\":4865:4871   */\n      dup2\n        /* \"#utility.yul\":4857:4863   */\n      dup7\n        /* \"#utility.yul\":4839:4872   */\n      tag_120\n      jump\t// in\n    tag_167:\n        /* \"#utility.yul\":4825:4872   */\n      swap1\n      pop\n        /* \"#utility.yul\":4920:4929   */\n      dup3\n        /* \"#utility.yul\":4912:4918   */\n      dup2\n        /* \"#utility.yul\":4908:4930   */\n      sub\n        /* \"#utility.yul\":4903:4905   */\n      0x60\n        /* \"#utility.yul\":4892:4901   */\n      dup5\n        /* \"#utility.yul\":4888:4906   */\n      add\n        /* \"#utility.yul\":4881:4931   */\n      mstore\n        /* \"#utility.yul\":4948:4981   */\n      tag_168\n        /* \"#utility.yul\":4974:4980   */\n      dup2\n        /* \"#utility.yul\":4966:4972   */\n      dup6\n        /* \"#utility.yul\":4948:4981   */\n      tag_120\n      jump\t// in\n    tag_168:\n        /* \"#utility.yul\":4940:4981   */\n      swap8\n        /* \"#utility.yul\":4276:4987   */\n      swap7\n      pop\n      pop\n      pop\n      pop\n      pop\n      pop\n      pop\n      jump\t// out\n        /* \"#utility.yul\":4992:5867   */\n    tag_29:\n        /* \"#utility.yul\":5333:5336   */\n      0xa0\n        /* \"#utility.yul\":5322:5331   */\n      dup2\n        /* \"#utility.yul\":5315:5337   */\n      mstore\n        /* \"#utility.yul\":5296:5300   */\n      0x00\n        /* \"#utility.yul\":5360:5406   */\n      tag_170\n        /* \"#utility.yul\":5401:5404   */\n      0xa0\n        /* \"#utility.yul\":5390:5399   */\n      dup4\n        /* \"#utility.yul\":5386:5405   */\n      add\n        /* \"#utility.yul\":5378:5384   */\n      dup9\n        /* \"#utility.yul\":5360:5406   */\n      tag_120\n      jump\t// in\n    tag_170:\n        /* \"#utility.yul\":5454:5463   */\n      dup3\n        /* \"#utility.yul\":5446:5452   */\n      dup2\n        /* \"#utility.yul\":5442:5464   */\n      sub\n        /* \"#utility.yul\":5437:5439   */\n      0x20\n        /* \"#utility.yul\":5426:5435   */\n      dup5\n        /* \"#utility.yul\":5422:5440   */\n      add\n        /* \"#utility.yul\":5415:5465   */\n      mstore\n        /* \"#utility.yul\":5488:5521   */\n      tag_171\n        /* \"#utility.yul\":5514:5520   */\n      dup2\n        /* \"#utility.yul\":5506:5512   */\n      dup9\n        /* \"#utility.yul\":5488:5521   */\n      tag_120\n      jump\t// in\n    tag_171:\n        /* \"#utility.yul\":5474:5521   */\n      swap1\n      pop\n        /* \"#utility.yul\":5569:5578   */\n      dup3\n        /* \"#utility.yul\":5561:5567   */\n      dup2\n        /* \"#utility.yul\":5557:5579   */\n      sub\n        /* \"#utility.yul\":5552:5554   */\n      0x40\n        /* \"#utility.yul\":5541:5550   */\n      dup5\n        /* \"#utility.yul\":5537:5555   */\n      add\n        /* \"#utility.yul\":5530:5580   */\n      mstore\n        /* \"#utility.yul\":5603:5636   */\n      tag_172\n        /* \"#utility.yul\":5629:5635   */\n      dup2\n        /* \"#utility.yul\":5621:5627   */\n      dup8\n        /* \"#utility.yul\":5603:5636   */\n      tag_120\n      jump\t// in\n    tag_172:\n        /* \"#utility.yul\":5589:5636   */\n      swap1\n      pop\n        /* \"#utility.yul\":5684:5693   */\n      dup3\n        /* \"#utility.yul\":5676:5682   */\n      dup2\n        /* \"#utility.yul\":5672:5694   */\n      sub\n        /* \"#utility.yul\":5667:5669   */\n      0x60\n        /* \"#utility.yul\":5656:5665   */\n      dup5\n        /* \"#utility.yul\":5652:5670   */\n      add\n        /* \"#utility.yul\":5645:5695   */\n      mstore\n        /* \"#utility.yul\":5718:5751   */\n      tag_173\n        /* \"#utility.yul\":5744:5750   */\n      dup2\n        /* \"#utility.yul\":5736:5742   */\n      dup7\n        /* \"#utility.yul\":5718:5751   */\n      tag_120\n      jump\t// in\n    tag_173:\n        /* \"#utility.yul\":5704:5751   */\n      swap1\n      pop\n        /* \"#utility.yul\":5800:5809   */\n      dup3\n        /* \"#utility.yul\":5792:5798   */\n      dup2\n        /* \"#utility.yul\":5788:5810   */\n      sub\n        /* \"#utility.yul\":5782:5785   */\n      0x80\n        /* \"#utility.yul\":5771:5780   */\n      dup5\n        /* \"#utility.yul\":5767:5786   */\n      add\n        /* \"#utility.yul\":5760:5811   */\n      mstore\n        /* \"#utility.yul\":5828:5861   */\n      tag_174\n        /* \"#utility.yul\":5854:5860   */\n      dup2\n        /* \"#utility.yul\":5846:5852   */\n      dup6\n        /* \"#utility.yul\":5828:5861   */\n      tag_120\n      jump\t// in\n    tag_174:\n        /* \"#utility.yul\":5820:5861   */\n      swap9\n        /* \"#utility.yul\":4992:5867   */\n      swap8\n      pop\n      pop\n      pop\n      pop\n      pop\n      pop\n      pop\n      pop\n      jump\t// out\n        /* \"#utility.yul\":6054:6234   */\n    tag_38:\n        /* \"#utility.yul\":6113:6119   */\n      0x00\n        /* \"#utility.yul\":6166:6168   */\n      0x20\n        /* \"#utility.yul\":6154:6163   */\n      dup3\n        /* \"#utility.yul\":6145:6152   */\n      dup5\n        /* \"#utility.yul\":6141:6164   */\n      sub\n        /* \"#utility.yul\":6137:6169   */\n      slt\n        /* \"#utility.yul\":6134:6186   */\n      iszero\n      tag_177\n      jumpi\n        /* \"#utility.yul\":6182:6183   */\n      0x00\n        /* \"#utility.yul\":6179:6180   */\n      dup1\n        /* \"#utility.yul\":6172:6184   */\n      revert\n        /* \"#utility.yul\":6134:6186   */\n    tag_177:\n      pop\n        /* \"#utility.yul\":6205:6228   */\n      calldataload\n      swap2\n        /* \"#utility.yul\":6054:6234   */\n      swap1\n      pop\n      jump\t// out\n        /* \"#utility.yul\":6803:7183   */\n    tag_69:\n        /* \"#utility.yul\":6882:6883   */\n      0x01\n        /* \"#utility.yul\":6878:6890   */\n      dup2\n      dup2\n      shr\n      swap1\n        /* \"#utility.yul\":6925:6937   */\n      dup3\n      and\n      dup1\n        /* \"#utility.yul\":6946:7007   */\n      tag_181\n      jumpi\n        /* \"#utility.yul\":7000:7004   */\n      0x7f\n        /* \"#utility.yul\":6992:6998   */\n      dup3\n        /* \"#utility.yul\":6988:7005   */\n      and\n        /* \"#utility.yul\":6978:7005   */\n      swap2\n      pop\n        /* \"#utility.yul\":6946:7007   */\n    tag_181:\n        /* \"#utility.yul\":7053:7055   */\n      0x20\n        /* \"#utility.yul\":7045:7051   */\n      dup3\n        /* \"#utility.yul\":7042:7056   */\n      lt\n        /* \"#utility.yul\":7022:7040   */\n      dup2\n        /* \"#utility.yul\":7019:7057   */\n      sub\n        /* \"#utility.yul\":7016:7177   */\n      tag_182\n      jumpi\n        /* \"#utility.yul\":7099:7109   */\n      0x4e487b71\n        /* \"#utility.yul\":7094:7097   */\n      0xe0\n        /* \"#utility.yul\":7090:7110   */\n      shl\n        /* \"#utility.yul\":7087:7088   */\n      0x00\n        /* \"#utility.yul\":7080:7111   */\n      mstore\n        /* \"#utility.yul\":7134:7138   */\n      0x22\n        /* \"#utility.yul\":7131:7132   */\n      0x04\n        /* \"#utility.yul\":7124:7139   */\n      mstore\n        /* \"#utility.yul\":7162:7166   */\n      0x24\n        /* \"#utility.yul\":7159:7160   */\n      0x00\n        /* \"#utility.yul\":7152:7167   */\n      revert\n        /* \"#utility.yul\":7016:7177   */\n    tag_182:\n      pop\n        /* \"#utility.yul\":6803:7183   */\n      swap2\n      swap1\n      pop\n      jump\t// out\n        /* \"#utility.yul\":7314:7832   */\n    tag_122:\n        /* \"#utility.yul\":7416:7418   */\n      0x1f\n        /* \"#utility.yul\":7411:7414   */\n      dup3\n        /* \"#utility.yul\":7408:7419   */\n      gt\n        /* \"#utility.yul\":7405:7826   */\n      iszero\n      tag_185\n      jumpi\n        /* \"#utility.yul\":7452:7457   */\n      dup1\n        /* \"#utility.yul\":7449:7450   */\n      0x00\n        /* \"#utility.yul\":7442:7458   */\n      mstore\n        /* \"#utility.yul\":7496:7500   */\n      0x20\n        /* \"#utility.yul\":7493:7494   */\n      0x00\n        /* \"#utility.yul\":7483:7501   */\n      keccak256\n        /* \"#utility.yul\":7566:7568   */\n      0x1f\n        /* \"#utility.yul\":7554:7564   */\n      dup5\n        /* \"#utility.yul\":7550:7569   */\n      add\n        /* \"#utility.yul\":7547:7548   */\n      0x05\n        /* \"#utility.yul\":7543:7570   */\n      shr\n        /* \"#utility.yul\":7537:7541   */\n      dup2\n        /* \"#utility.yul\":7533:7571   */\n      add\n        /* \"#utility.yul\":7602:7606   */\n      0x20\n        /* \"#utility.yul\":7590:7600   */\n      dup6\n        /* \"#utility.yul\":7587:7607   */\n      lt\n        /* \"#utility.yul\":7584:7631   */\n      iszero\n      tag_186\n      jumpi\n      pop\n        /* \"#utility.yul\":7625:7629   */\n      dup1\n        /* \"#utility.yul\":7584:7631   */\n    tag_186:\n        /* \"#utility.yul\":7680:7682   */\n      0x1f\n        /* \"#utility.yul\":7675:7678   */\n      dup5\n        /* \"#utility.yul\":7671:7683   */\n      add\n        /* \"#utility.yul\":7668:7669   */\n      0x05\n        /* \"#utility.yul\":7664:7684   */\n      shr\n        /* \"#utility.yul\":7658:7662   */\n      dup3\n        /* \"#utility.yul\":7654:7685   */\n      add\n        /* \"#utility.yul\":7644:7685   */\n      swap2\n      pop\n        /* \"#utility.yul\":7735:7816   */\n    tag_187:\n        /* \"#utility.yul\":7753:7755   */\n      dup2\n        /* \"#utility.yul\":7746:7751   */\n      dup2\n        /* \"#utility.yul\":7743:7756   */\n      lt\n        /* \"#utility.yul\":7735:7816   */\n      iszero\n      tag_189\n      jumpi\n        /* \"#utility.yul\":7812:7813   */\n      0x00\n        /* \"#utility.yul\":7798:7814   */\n      dup2\n      sstore\n        /* \"#utility.yul\":7779:7780   */\n      0x01\n        /* \"#utility.yul\":7768:7781   */\n      add\n        /* \"#utility.yul\":7735:7816   */\n      jump(tag_187)\n    tag_189:\n        /* \"#utility.yul\":7739:7742   */\n      pop\n      pop\n        /* \"#utility.yul\":7405:7826   */\n    tag_185:\n        /* \"#utility.yul\":7314:7832   */\n      pop\n      pop\n      pop\n      jump\t// out\n        /* \"#utility.yul\":8008:9307   */\n    tag_50:\n        /* \"#utility.yul\":8134:8137   */\n      dup2\n        /* \"#utility.yul\":8128:8138   */\n      mload\n        /* \"#utility.yul\":8161:8179   */\n      0xffffffffffffffff\n        /* \"#utility.yul\":8153:8159   */\n      dup2\n        /* \"#utility.yul\":8150:8180   */\n      gt\n        /* \"#utility.yul\":8147:8203   */\n      iszero\n      tag_193\n      jumpi\n        /* \"#utility.yul\":8183:8201   */\n      tag_193\n      tag_118\n      jump\t// in\n    tag_193:\n        /* \"#utility.yul\":8212:8309   */\n      tag_194\n        /* \"#utility.yul\":8302:8308   */\n      dup2\n        /* \"#utility.yul\":8262:8300   */\n      tag_195\n        /* \"#utility.yul\":8294:8298   */\n      dup5\n        /* \"#utility.yul\":8288:8299   */\n      sload\n        /* \"#utility.yul\":8262:8300   */\n      tag_69\n      jump\t// in\n    tag_195:\n        /* \"#utility.yul\":8256:8260   */\n      dup5\n        /* \"#utility.yul\":8212:8309   */\n      tag_122\n      jump\t// in\n    tag_194:\n        /* \"#utility.yul\":8358:8362   */\n      0x20\n        /* \"#utility.yul\":8389:8391   */\n      0x1f\n        /* \"#utility.yul\":8378:8392   */\n      dup3\n      gt\n        /* \"#utility.yul\":8406:8407   */\n      0x01\n        /* \"#utility.yul\":8401:9050   */\n      dup2\n      eq\n      tag_197\n      jumpi\n        /* \"#utility.yul\":9094:9095   */\n      0x00\n        /* \"#utility.yul\":9111:9117   */\n      dup4\n        /* \"#utility.yul\":9108:9197   */\n      iszero\n      tag_198\n      jumpi\n      pop\n        /* \"#utility.yul\":9163:9182   */\n      dup5\n      dup3\n      add\n        /* \"#utility.yul\":9157:9183   */\n      mload\n        /* \"#utility.yul\":9108:9197   */\n    tag_198:\n      not(0x00)\n        /* \"#utility.yul\":7965:7966   */\n      0x03\n        /* \"#utility.yul\":7961:7972   */\n      dup6\n      swap1\n      shl\n        /* \"#utility.yul\":7957:7981   */\n      shr\n        /* \"#utility.yul\":7953:7982   */\n      not\n        /* \"#utility.yul\":7943:7983   */\n      and\n        /* \"#utility.yul\":7989:7990   */\n      0x01\n        /* \"#utility.yul\":7985:7996   */\n      dup5\n      swap1\n      shl\n        /* \"#utility.yul\":7940:7997   */\n      or\n        /* \"#utility.yul\":9210:9291   */\n      dup5\n      sstore\n        /* \"#utility.yul\":8371:9301   */\n      jump(tag_189)\n        /* \"#utility.yul\":8401:9050   */\n    tag_197:\n        /* \"#utility.yul\":7261:7262   */\n      0x00\n        /* \"#utility.yul\":7254:7268   */\n      dup5\n      dup2\n      mstore\n        /* \"#utility.yul\":7298:7302   */\n      0x20\n        /* \"#utility.yul\":7285:7303   */\n      dup2\n      keccak256\n      not(0x1f)\n        /* \"#utility.yul\":8437:8457   */\n      dup6\n      and\n      swap2\n        /* \"#utility.yul\":8555:8777   */\n    tag_201:\n        /* \"#utility.yul\":8569:8576   */\n      dup3\n        /* \"#utility.yul\":8566:8567   */\n      dup2\n        /* \"#utility.yul\":8563:8577   */\n      lt\n        /* \"#utility.yul\":8555:8777   */\n      iszero\n      tag_203\n      jumpi\n        /* \"#utility.yul\":8651:8670   */\n      dup8\n      dup6\n      add\n        /* \"#utility.yul\":8645:8671   */\n      mload\n        /* \"#utility.yul\":8630:8672   */\n      dup3\n      sstore\n        /* \"#utility.yul\":8758:8762   */\n      0x20\n        /* \"#utility.yul\":8743:8763   */\n      swap5\n      dup6\n      add\n      swap5\n        /* \"#utility.yul\":8711:8712   */\n      0x01\n        /* \"#utility.yul\":8699:8713   */\n      swap1\n      swap3\n      add\n      swap2\n        /* \"#utility.yul\":8585:8597   */\n      add\n        /* \"#utility.yul\":8555:8777   */\n      jump(tag_201)\n    tag_203:\n        /* \"#utility.yul\":8559:8562   */\n      pop\n        /* \"#utility.yul\":8805:8811   */\n      dup5\n        /* \"#utility.yul\":8796:8803   */\n      dup3\n        /* \"#utility.yul\":8793:8812   */\n      lt\n        /* \"#utility.yul\":8790:8991   */\n      iszero\n      tag_204\n      jumpi\n        /* \"#utility.yul\":8866:8885   */\n      dup7\n      dup5\n      add\n        /* \"#utility.yul\":8860:8886   */\n      mload\n      not(0x00)\n        /* \"#utility.yul\":8949:8950   */\n      0x03\n        /* \"#utility.yul\":8945:8959   */\n      dup8\n      swap1\n      shl\n        /* \"#utility.yul\":8961:8964   */\n      0xf8\n        /* \"#utility.yul\":8941:8965   */\n      and\n        /* \"#utility.yul\":8937:8974   */\n      shr\n        /* \"#utility.yul\":8933:8975   */\n      not\n        /* \"#utility.yul\":8918:8976   */\n      and\n        /* \"#utility.yul\":8903:8977   */\n      dup2\n      sstore\n        /* \"#utility.yul\":8790:8991   */\n    tag_204:\n      pop\n      pop\n      pop\n      pop\n        /* \"#utility.yul\":9037:9038   */\n      0x01\n        /* \"#utility.yul\":9021:9035   */\n      swap1\n      dup2\n      shl\n        /* \"#utility.yul\":9017:9039   */\n      add\n        /* \"#utility.yul\":9004:9040   */\n      swap1\n      sstore\n      pop\n        /* \"#utility.yul\":8008:9307   */\n      jump\t// out\n        /* \"#utility.yul\":9312:9589   */\n    tag_64:\n        /* \"#utility.yul\":9379:9385   */\n      0x00\n        /* \"#utility.yul\":9432:9434   */\n      0x20\n        /* \"#utility.yul\":9420:9429   */\n      dup3\n        /* \"#utility.yul\":9411:9418   */\n      dup5\n        /* \"#utility.yul\":9407:9430   */\n      sub\n        /* \"#utility.yul\":9403:9435   */\n      slt\n        /* \"#utility.yul\":9400:9452   */\n      iszero\n      tag_206\n      jumpi\n        /* \"#utility.yul\":9448:9449   */\n      0x00\n        /* \"#utility.yul\":9445:9446   */\n      dup1\n        /* \"#utility.yul\":9438:9450   */\n      revert\n        /* \"#utility.yul\":9400:9452   */\n    tag_206:\n        /* \"#utility.yul\":9480:9489   */\n      dup2\n        /* \"#utility.yul\":9474:9490   */\n      mload\n        /* \"#utility.yul\":9533:9538   */\n      dup1\n        /* \"#utility.yul\":9526:9539   */\n      iszero\n        /* \"#utility.yul\":9519:9540   */\n      iszero\n        /* \"#utility.yul\":9512:9517   */\n      dup2\n        /* \"#utility.yul\":9509:9541   */\n      eq\n        /* \"#utility.yul\":9499:9559   */\n      tag_159\n      jumpi\n        /* \"#utility.yul\":9555:9556   */\n      0x00\n        /* \"#utility.yul\":9552:9553   */\n      dup1\n        /* \"#utility.yul\":9545:9557   */\n      revert\n        /* \"#utility.yul\":9594:9826   */\n    tag_66:\n        /* \"#utility.yul\":9633:9636   */\n      0x00\n        /* \"#utility.yul\":9654:9671   */\n      0x01\n      dup3\n      add\n        /* \"#utility.yul\":9651:9791   */\n      tag_209\n      jumpi\n        /* \"#utility.yul\":9713:9723   */\n      0x4e487b71\n        /* \"#utility.yul\":9708:9711   */\n      0xe0\n        /* \"#utility.yul\":9704:9724   */\n      shl\n        /* \"#utility.yul\":9701:9702   */\n      0x00\n        /* \"#utility.yul\":9694:9725   */\n      mstore\n        /* \"#utility.yul\":9748:9752   */\n      0x11\n        /* \"#utility.yul\":9745:9746   */\n      0x04\n        /* \"#utility.yul\":9738:9753   */\n      mstore\n        /* \"#utility.yul\":9776:9780   */\n      0x24\n        /* \"#utility.yul\":9773:9774   */\n      0x00\n        /* \"#utility.yul\":9766:9781   */\n      revert\n        /* \"#utility.yul\":9651:9791   */\n    tag_209:\n      pop\n        /* \"#utility.yul\":9818:9819   */\n      0x01\n        /* \"#utility.yul\":9807:9820   */\n      add\n      swap1\n        /* \"#utility.yul\":9594:9826   */\n      jump\t// out\n\n    auxdata: 0xa2646970667358221220788291190fd73ed5833dde496f57e7b94b5b63ca9430dfa18abb9073db9f237c64736f6c634300081a0033\n}\n",
				"bytecode": {
					"linkReferences": {},
					"object": "60806040526000600455348015601457600080fd5b50604051610f89380380610f898339810160408190526031916055565b600080546001600160a01b0319166001600160a01b03929092169190911790556083565b600060208284031215606657600080fd5b81516001600160a01b0381168114607c57600080fd5b9392505050565b610ef7806100926000396000f3fe608060405234801561001057600080fd5b506004361061007d5760003560e01c80633bc982801161005b5780633bc98280146100d8578063882b09f4146100b3578063a0303c41146100fc578063babb1d411461011357600080fd5b806312ad1c371461008257806323a2ba5b146100a05780632a825ba0146100b5575b600080fd5b61008a61013e565b6040516100979190610950565b60405180910390f35b6100b36100ae366004610a41565b6101a0565b005b6100c86100c3366004610bdc565b610392565b6040516100979493929190610c52565b6100eb6100e6366004610bdc565b610611565b604051610097959493929190610caa565b61010560045481565b604051908152602001610097565b610126610121366004610d17565b610926565b6040516001600160a01b039091168152602001610097565b6060600180548060200260200160405190810160405280929190818152602001828054801561019657602002820191906000526020600020905b81546001600160a01b03168152600190910190602001808311610178575b5050505050905090565b3360009081526003602052604090205460ff16156102045760405162461bcd60e51b815260206004820152601b60248201527f50617469656e7420616c726561647920726567697374657265642e0000000000604482015260640160405180910390fd5b3360009081526002602052604090208061021e8b82610db9565b506001810161022d8a82610db9565b506002810161023c8982610db9565b506003810161024b8882610db9565b506004810161025a8782610db9565b50600781016102698682610db9565b50600881016102788582610db9565b50600981016102878482610db9565b50600a81016102968382610db9565b50600b81018054336001600160a01b0319918216811790925542600c8401556001805480820182557fb10e2d527612073b26eecdfd717e6a320cf44b4afac2b0732d9fcbe2b7fa0cf60180549092168317909155600082815260036020526040808220805460ff19169093179092555490516305b1c64f60e31b815260048101929092526001600160a01b031690632d8e3278906024016020604051808303816000875af115801561034c573d6000803e3d6000fd5b505050506040513d601f19601f820116820180604052508101906103709190610e78565b506004805490600061038183610e9a565b919050555050505050505050505050565b606080606080600060026000876001600160a01b03166001600160a01b03168152602001908152602001600020905080600701816008018260090183600a018380546103dd90610d30565b80601f016020809104026020016040519081016040528092919081815260200182805461040990610d30565b80156104565780601f1061042b57610100808354040283529160200191610456565b820191906000526020600020905b81548152906001019060200180831161043957829003601f168201915b5050505050935082805461046990610d30565b80601f016020809104026020016040519081016040528092919081815260200182805461049590610d30565b80156104e25780601f106104b7576101008083540402835291602001916104e2565b820191906000526020600020905b8154815290600101906020018083116104c557829003601f168201915b505050505092508180546104f590610d30565b80601f016020809104026020016040519081016040528092919081815260200182805461052190610d30565b801561056e5780601f106105435761010080835404028352916020019161056e565b820191906000526020600020905b81548152906001019060200180831161055157829003601f168201915b5050505050915080805461058190610d30565b80601f01602080910402602001604051908101604052809291908181526020018280546105ad90610d30565b80156105fa5780601f106105cf576101008083540402835291602001916105fa565b820191906000526020600020905b8154815290600101906020018083116105dd57829003601f168201915b505050505090509450945094509450509193509193565b6060806060806060600060026000886001600160a01b03166001600160a01b031681526020019081526020016000209050806000018160010182600201836003018460040184805461066290610d30565b80601f016020809104026020016040519081016040528092919081815260200182805461068e90610d30565b80156106db5780601f106106b0576101008083540402835291602001916106db565b820191906000526020600020905b8154815290600101906020018083116106be57829003601f168201915b505050505094508380546106ee90610d30565b80601f016020809104026020016040519081016040528092919081815260200182805461071a90610d30565b80156107675780601f1061073c57610100808354040283529160200191610767565b820191906000526020600020905b81548152906001019060200180831161074a57829003601f168201915b5050505050935082805461077a90610d30565b80601f01602080910402602001604051908101604052809291908181526020018280546107a690610d30565b80156107f35780601f106107c8576101008083540402835291602001916107f3565b820191906000526020600020905b8154815290600101906020018083116107d657829003601f168201915b5050505050925081805461080690610d30565b80601f016020809104026020016040519081016040528092919081815260200182805461083290610d30565b801561087f5780601f106108545761010080835404028352916020019161087f565b820191906000526020600020905b81548152906001019060200180831161086257829003601f168201915b5050505050915080805461089290610d30565b80601f01602080910402602001604051908101604052809291908181526020018280546108be90610d30565b801561090b5780601f106108e05761010080835404028352916020019161090b565b820191906000526020600020905b8154815290600101906020018083116108ee57829003601f168201915b50505050509050955095509550955095505091939590929450565b6001818154811061093657600080fd5b6000918252602090912001546001600160a01b0316905081565b602080825282518282018190526000918401906040840190835b818110156109915783516001600160a01b031683526020938401939092019160010161096a565b509095945050505050565b634e487b7160e01b600052604160045260246000fd5b600082601f8301126109c357600080fd5b813567ffffffffffffffff8111156109dd576109dd61099c565b604051601f8201601f19908116603f0116810167ffffffffffffffff81118282101715610a0c57610a0c61099c565b604052818152838201602001851015610a2457600080fd5b816020850160208301376000918101602001919091529392505050565b60008060008060008060008060006101208a8c031215610a6057600080fd5b893567ffffffffffffffff811115610a7757600080fd5b610a838c828d016109b2565b99505060208a013567ffffffffffffffff811115610aa057600080fd5b610aac8c828d016109b2565b98505060408a013567ffffffffffffffff811115610ac957600080fd5b610ad58c828d016109b2565b97505060608a013567ffffffffffffffff811115610af257600080fd5b610afe8c828d016109b2565b96505060808a013567ffffffffffffffff811115610b1b57600080fd5b610b278c828d016109b2565b95505060a08a013567ffffffffffffffff811115610b4457600080fd5b610b508c828d016109b2565b94505060c08a013567ffffffffffffffff811115610b6d57600080fd5b610b798c828d016109b2565b93505060e08a013567ffffffffffffffff811115610b9657600080fd5b610ba28c828d016109b2565b9250506101008a013567ffffffffffffffff811115610bc057600080fd5b610bcc8c828d016109b2565b9150509295985092959850929598565b600060208284031215610bee57600080fd5b81356001600160a01b0381168114610c0557600080fd5b9392505050565b6000815180845260005b81811015610c3257602081850181015186830182015201610c16565b506000602082860101526020601f19601f83011685010191505092915050565b608081526000610c656080830187610c0c565b8281036020840152610c778187610c0c565b90508281036040840152610c8b8186610c0c565b90508281036060840152610c9f8185610c0c565b979650505050505050565b60a081526000610cbd60a0830188610c0c565b8281036020840152610ccf8188610c0c565b90508281036040840152610ce38187610c0c565b90508281036060840152610cf78186610c0c565b90508281036080840152610d0b8185610c0c565b98975050505050505050565b600060208284031215610d2957600080fd5b5035919050565b600181811c90821680610d4457607f821691505b602082108103610d6457634e487b7160e01b600052602260045260246000fd5b50919050565b601f821115610db457806000526020600020601f840160051c81016020851015610d915750805b601f840160051c820191505b81811015610db15760008155600101610d9d565b50505b505050565b815167ffffffffffffffff811115610dd357610dd361099c565b610de781610de18454610d30565b84610d6a565b6020601f821160018114610e1b5760008315610e035750848201515b600019600385901b1c1916600184901b178455610db1565b600084815260208120601f198516915b82811015610e4b5787850151825560209485019460019092019101610e2b565b5084821015610e695786840151600019600387901b60f8161c191681555b50505050600190811b01905550565b600060208284031215610e8a57600080fd5b81518015158114610c0557600080fd5b600060018201610eba57634e487b7160e01b600052601160045260246000fd5b506001019056fea2646970667358221220788291190fd73ed5833dde496f57e7b94b5b63ca9430dfa18abb9073db9f237c64736f6c634300081a0033",
					"opcodes": "PUSH1 0x80 PUSH1 0x40 MSTORE PUSH1 0x0 PUSH1 0x4 SSTORE CALLVALUE DUP1 ISZERO PUSH1 0x14 JUMPI PUSH1 0x0 DUP1 REVERT JUMPDEST POP PUSH1 0x40 MLOAD PUSH2 0xF89 CODESIZE SUB DUP1 PUSH2 0xF89 DUP4 CODECOPY DUP2 ADD PUSH1 0x40 DUP2 SWAP1 MSTORE PUSH1 0x31 SWAP2 PUSH1 0x55 JUMP JUMPDEST PUSH1 0x0 DUP1 SLOAD PUSH1 0x1 PUSH1 0x1 PUSH1 0xA0 SHL SUB NOT AND PUSH1 0x1 PUSH1 0x1 PUSH1 0xA0 SHL SUB SWAP3 SWAP1 SWAP3 AND SWAP2 SWAP1 SWAP2 OR SWAP1 SSTORE PUSH1 0x83 JUMP JUMPDEST PUSH1 0x0 PUSH1 0x20 DUP3 DUP5 SUB SLT ISZERO PUSH1 0x66 JUMPI PUSH1 0x0 DUP1 REVERT JUMPDEST DUP2 MLOAD PUSH1 0x1 PUSH1 0x1 PUSH1 0xA0 SHL SUB DUP2 AND DUP2 EQ PUSH1 0x7C JUMPI PUSH1 0x0 DUP1 REVERT JUMPDEST SWAP4 SWAP3 POP POP POP JUMP JUMPDEST PUSH2 0xEF7 DUP1 PUSH2 0x92 PUSH1 0x0 CODECOPY PUSH1 0x0 RETURN INVALID PUSH1 0x80 PUSH1 0x40 MSTORE CALLVALUE DUP1 ISZERO PUSH2 0x10 JUMPI PUSH1 0x0 DUP1 REVERT JUMPDEST POP PUSH1 0x4 CALLDATASIZE LT PUSH2 0x7D JUMPI PUSH1 0x0 CALLDATALOAD PUSH1 0xE0 SHR DUP1 PUSH4 0x3BC98280 GT PUSH2 0x5B JUMPI DUP1 PUSH4 0x3BC98280 EQ PUSH2 0xD8 JUMPI DUP1 PUSH4 0x882B09F4 EQ PUSH2 0xB3 JUMPI DUP1 PUSH4 0xA0303C41 EQ PUSH2 0xFC JUMPI DUP1 PUSH4 0xBABB1D41 EQ PUSH2 0x113 JUMPI PUSH1 0x0 DUP1 REVERT JUMPDEST DUP1 PUSH4 0x12AD1C37 EQ PUSH2 0x82 JUMPI DUP1 PUSH4 0x23A2BA5B EQ PUSH2 0xA0 JUMPI DUP1 PUSH4 0x2A825BA0 EQ PUSH2 0xB5 JUMPI JUMPDEST PUSH1 0x0 DUP1 REVERT JUMPDEST PUSH2 0x8A PUSH2 0x13E JUMP JUMPDEST PUSH1 0x40 MLOAD PUSH2 0x97 SWAP2 SWAP1 PUSH2 0x950 JUMP JUMPDEST PUSH1 0x40 MLOAD DUP1 SWAP2 SUB SWAP1 RETURN JUMPDEST PUSH2 0xB3 PUSH2 0xAE CALLDATASIZE PUSH1 0x4 PUSH2 0xA41 JUMP JUMPDEST PUSH2 0x1A0 JUMP JUMPDEST STOP JUMPDEST PUSH2 0xC8 PUSH2 0xC3 CALLDATASIZE PUSH1 0x4 PUSH2 0xBDC JUMP JUMPDEST PUSH2 0x392 JUMP JUMPDEST PUSH1 0x40 MLOAD PUSH2 0x97 SWAP5 SWAP4 SWAP3 SWAP2 SWAP1 PUSH2 0xC52 JUMP JUMPDEST PUSH2 0xEB PUSH2 0xE6 CALLDATASIZE PUSH1 0x4 PUSH2 0xBDC JUMP JUMPDEST PUSH2 0x611 JUMP JUMPDEST PUSH1 0x40 MLOAD PUSH2 0x97 SWAP6 SWAP5 SWAP4 SWAP3 SWAP2 SWAP1 PUSH2 0xCAA JUMP JUMPDEST PUSH2 0x105 PUSH1 0x4 SLOAD DUP2 JUMP JUMPDEST PUSH1 0x40 MLOAD SWAP1 DUP2 MSTORE PUSH1 0x20 ADD PUSH2 0x97 JUMP JUMPDEST PUSH2 0x126 PUSH2 0x121 CALLDATASIZE PUSH1 0x4 PUSH2 0xD17 JUMP JUMPDEST PUSH2 0x926 JUMP JUMPDEST PUSH1 0x40 MLOAD PUSH1 0x1 PUSH1 0x1 PUSH1 0xA0 SHL SUB SWAP1 SWAP2 AND DUP2 MSTORE PUSH1 0x20 ADD PUSH2 0x97 JUMP JUMPDEST PUSH1 0x60 PUSH1 0x1 DUP1 SLOAD DUP1 PUSH1 0x20 MUL PUSH1 0x20 ADD PUSH1 0x40 MLOAD SWAP1 DUP2 ADD PUSH1 0x40 MSTORE DUP1 SWAP3 SWAP2 SWAP1 DUP2 DUP2 MSTORE PUSH1 0x20 ADD DUP3 DUP1 SLOAD DUP1 ISZERO PUSH2 0x196 JUMPI PUSH1 0x20 MUL DUP3 ADD SWAP2 SWAP1 PUSH1 0x0 MSTORE PUSH1 0x20 PUSH1 0x0 KECCAK256 SWAP1 JUMPDEST DUP2 SLOAD PUSH1 0x1 PUSH1 0x1 PUSH1 0xA0 SHL SUB AND DUP2 MSTORE PUSH1 0x1 SWAP1 SWAP2 ADD SWAP1 PUSH1 0x20 ADD DUP1 DUP4 GT PUSH2 0x178 JUMPI JUMPDEST POP POP POP POP POP SWAP1 POP SWAP1 JUMP JUMPDEST CALLER PUSH1 0x0 SWAP1 DUP2 MSTORE PUSH1 0x3 PUSH1 0x20 MSTORE PUSH1 0x40 SWAP1 KECCAK256 SLOAD PUSH1 0xFF AND ISZERO PUSH2 0x204 JUMPI PUSH1 0x40 MLOAD PUSH3 0x461BCD PUSH1 0xE5 SHL DUP2 MSTORE PUSH1 0x20 PUSH1 0x4 DUP3 ADD MSTORE PUSH1 0x1B PUSH1 0x24 DUP3 ADD MSTORE PUSH32 0x50617469656E7420616C726561647920726567697374657265642E0000000000 PUSH1 0x44 DUP3 ADD MSTORE PUSH1 0x64 ADD PUSH1 0x40 MLOAD DUP1 SWAP2 SUB SWAP1 REVERT JUMPDEST CALLER PUSH1 0x0 SWAP1 DUP2 MSTORE PUSH1 0x2 PUSH1 0x20 MSTORE PUSH1 0x40 SWAP1 KECCAK256 DUP1 PUSH2 0x21E DUP12 DUP3 PUSH2 0xDB9 JUMP JUMPDEST POP PUSH1 0x1 DUP2 ADD PUSH2 0x22D DUP11 DUP3 PUSH2 0xDB9 JUMP JUMPDEST POP PUSH1 0x2 DUP2 ADD PUSH2 0x23C DUP10 DUP3 PUSH2 0xDB9 JUMP JUMPDEST POP PUSH1 0x3 DUP2 ADD PUSH2 0x24B DUP9 DUP3 PUSH2 0xDB9 JUMP JUMPDEST POP PUSH1 0x4 DUP2 ADD PUSH2 0x25A DUP8 DUP3 PUSH2 0xDB9 JUMP JUMPDEST POP PUSH1 0x7 DUP2 ADD PUSH2 0x269 DUP7 DUP3 PUSH2 0xDB9 JUMP JUMPDEST POP PUSH1 0x8 DUP2 ADD PUSH2 0x278 DUP6 DUP3 PUSH2 0xDB9 JUMP JUMPDEST POP PUSH1 0x9 DUP2 ADD PUSH2 0x287 DUP5 DUP3 PUSH2 0xDB9 JUMP JUMPDEST POP PUSH1 0xA DUP2 ADD PUSH2 0x296 DUP4 DUP3 PUSH2 0xDB9 JUMP JUMPDEST POP PUSH1 0xB DUP2 ADD DUP1 SLOAD CALLER PUSH1 0x1 PUSH1 0x1 PUSH1 0xA0 SHL SUB NOT SWAP2 DUP3 AND DUP2 OR SWAP1 SWAP3 SSTORE TIMESTAMP PUSH1 0xC DUP5 ADD SSTORE PUSH1 0x1 DUP1 SLOAD DUP1 DUP3 ADD DUP3 SSTORE PUSH32 0xB10E2D527612073B26EECDFD717E6A320CF44B4AFAC2B0732D9FCBE2B7FA0CF6 ADD DUP1 SLOAD SWAP1 SWAP3 AND DUP4 OR SWAP1 SWAP2 SSTORE PUSH1 0x0 DUP3 DUP2 MSTORE PUSH1 0x3 PUSH1 0x20 MSTORE PUSH1 0x40 DUP1 DUP3 KECCAK256 DUP1 SLOAD PUSH1 0xFF NOT AND SWAP1 SWAP4 OR SWAP1 SWAP3 SSTORE SLOAD SWAP1 MLOAD PUSH4 0x5B1C64F PUSH1 0xE3 SHL DUP2 MSTORE PUSH1 0x4 DUP2 ADD SWAP3 SWAP1 SWAP3 MSTORE PUSH1 0x1 PUSH1 0x1 PUSH1 0xA0 SHL SUB AND SWAP1 PUSH4 0x2D8E3278 SWAP1 PUSH1 0x24 ADD PUSH1 0x20 PUSH1 0x40 MLOAD DUP1 DUP4 SUB DUP2 PUSH1 0x0 DUP8 GAS CALL ISZERO DUP1 ISZERO PUSH2 0x34C JUMPI RETURNDATASIZE PUSH1 0x0 DUP1 RETURNDATACOPY RETURNDATASIZE PUSH1 0x0 REVERT JUMPDEST POP POP POP POP PUSH1 0x40 MLOAD RETURNDATASIZE PUSH1 0x1F NOT PUSH1 0x1F DUP3 ADD AND DUP3 ADD DUP1 PUSH1 0x40 MSTORE POP DUP2 ADD SWAP1 PUSH2 0x370 SWAP2 SWAP1 PUSH2 0xE78 JUMP JUMPDEST POP PUSH1 0x4 DUP1 SLOAD SWAP1 PUSH1 0x0 PUSH2 0x381 DUP4 PUSH2 0xE9A JUMP JUMPDEST SWAP2 SWAP1 POP SSTORE POP POP POP POP POP POP POP POP POP POP POP JUMP JUMPDEST PUSH1 0x60 DUP1 PUSH1 0x60 DUP1 PUSH1 0x0 PUSH1 0x2 PUSH1 0x0 DUP8 PUSH1 0x1 PUSH1 0x1 PUSH1 0xA0 SHL SUB AND PUSH1 0x1 PUSH1 0x1 PUSH1 0xA0 SHL SUB AND DUP2 MSTORE PUSH1 0x20 ADD SWAP1 DUP2 MSTORE PUSH1 0x20 ADD PUSH1 0x0 KECCAK256 SWAP1 POP DUP1 PUSH1 0x7 ADD DUP2 PUSH1 0x8 ADD DUP3 PUSH1 0x9 ADD DUP4 PUSH1 0xA ADD DUP4 DUP1 SLOAD PUSH2 0x3DD SWAP1 PUSH2 0xD30 JUMP JUMPDEST DUP1 PUSH1 0x1F ADD PUSH1 0x20 DUP1 SWAP2 DIV MUL PUSH1 0x20 ADD PUSH1 0x40 MLOAD SWAP1 DUP2 ADD PUSH1 0x40 MSTORE DUP1 SWAP3 SWAP2 SWAP1 DUP2 DUP2 MSTORE PUSH1 0x20 ADD DUP3 DUP1 SLOAD PUSH2 0x409 SWAP1 PUSH2 0xD30 JUMP JUMPDEST DUP1 ISZERO PUSH2 0x456 JUMPI DUP1 PUSH1 0x1F LT PUSH2 0x42B JUMPI PUSH2 0x100 DUP1 DUP4 SLOAD DIV MUL DUP4 MSTORE SWAP2 PUSH1 0x20 ADD SWAP2 PUSH2 0x456 JUMP JUMPDEST DUP3 ADD SWAP2 SWAP1 PUSH1 0x0 MSTORE PUSH1 0x20 PUSH1 0x0 KECCAK256 SWAP1 JUMPDEST DUP2 SLOAD DUP2 MSTORE SWAP1 PUSH1 0x1 ADD SWAP1 PUSH1 0x20 ADD DUP1 DUP4 GT PUSH2 0x439 JUMPI DUP3 SWAP1 SUB PUSH1 0x1F AND DUP3 ADD SWAP2 JUMPDEST POP POP POP POP POP SWAP4 POP DUP3 DUP1 SLOAD PUSH2 0x469 SWAP1 PUSH2 0xD30 JUMP JUMPDEST DUP1 PUSH1 0x1F ADD PUSH1 0x20 DUP1 SWAP2 DIV MUL PUSH1 0x20 ADD PUSH1 0x40 MLOAD SWAP1 DUP2 ADD PUSH1 0x40 MSTORE DUP1 SWAP3 SWAP2 SWAP1 DUP2 DUP2 MSTORE PUSH1 0x20 ADD DUP3 DUP1 SLOAD PUSH2 0x495 SWAP1 PUSH2 0xD30 JUMP JUMPDEST DUP1 ISZERO PUSH2 0x4E2 JUMPI DUP1 PUSH1 0x1F LT PUSH2 0x4B7 JUMPI PUSH2 0x100 DUP1 DUP4 SLOAD DIV MUL DUP4 MSTORE SWAP2 PUSH1 0x20 ADD SWAP2 PUSH2 0x4E2 JUMP JUMPDEST DUP3 ADD SWAP2 SWAP1 PUSH1 0x0 MSTORE PUSH1 0x20 PUSH1 0x0 KECCAK256 SWAP1 JUMPDEST DUP2 SLOAD DUP2 MSTORE SWAP1 PUSH1 0x1 ADD SWAP1 PUSH1 0x20 ADD DUP1 DUP4 GT PUSH2 0x4C5 JUMPI DUP3 SWAP1 SUB PUSH1 0x1F AND DUP3 ADD SWAP2 JUMPDEST POP POP POP POP POP SWAP3 POP DUP2 DUP1 SLOAD PUSH2 0x4F5 SWAP1 PUSH2 0xD30 JUMP JUMPDEST DUP1 PUSH1 0x1F ADD PUSH1 0x20 DUP1 SWAP2 DIV MUL PUSH1 0x20 ADD PUSH1 0x40 MLOAD SWAP1 DUP2 ADD PUSH1 0x40 MSTORE DUP1 SWAP3 SWAP2 SWAP1 DUP2 DUP2 MSTORE PUSH1 0x20 ADD DUP3 DUP1 SLOAD PUSH2 0x521 SWAP1 PUSH2 0xD30 JUMP JUMPDEST DUP1 ISZERO PUSH2 0x56E JUMPI DUP1 PUSH1 0x1F LT PUSH2 0x543 JUMPI PUSH2 0x100 DUP1 DUP4 SLOAD DIV MUL DUP4 MSTORE SWAP2 PUSH1 0x20 ADD SWAP2 PUSH2 0x56E JUMP JUMPDEST DUP3 ADD SWAP2 SWAP1 PUSH1 0x0 MSTORE PUSH1 0x20 PUSH1 0x0 KECCAK256 SWAP1 JUMPDEST DUP2 SLOAD DUP2 MSTORE SWAP1 PUSH1 0x1 ADD SWAP1 PUSH1 0x20 ADD DUP1 DUP4 GT PUSH2 0x551 JUMPI DUP3 SWAP1 SUB PUSH1 0x1F AND DUP3 ADD SWAP2 JUMPDEST POP POP POP POP POP SWAP2 POP DUP1 DUP1 SLOAD PUSH2 0x581 SWAP1 PUSH2 0xD30 JUMP JUMPDEST DUP1 PUSH1 0x1F ADD PUSH1 0x20 DUP1 SWAP2 DIV MUL PUSH1 0x20 ADD PUSH1 0x40 MLOAD SWAP1 DUP2 ADD PUSH1 0x40 MSTORE DUP1 SWAP3 SWAP2 SWAP1 DUP2 DUP2 MSTORE PUSH1 0x20 ADD DUP3 DUP1 SLOAD PUSH2 0x5AD SWAP1 PUSH2 0xD30 JUMP JUMPDEST DUP1 ISZERO PUSH2 0x5FA JUMPI DUP1 PUSH1 0x1F LT PUSH2 0x5CF JUMPI PUSH2 0x100 DUP1 DUP4 SLOAD DIV MUL DUP4 MSTORE SWAP2 PUSH1 0x20 ADD SWAP2 PUSH2 0x5FA JUMP JUMPDEST DUP3 ADD SWAP2 SWAP1 PUSH1 0x0 MSTORE PUSH1 0x20 PUSH1 0x0 KECCAK256 SWAP1 JUMPDEST DUP2 SLOAD DUP2 MSTORE SWAP1 PUSH1 0x1 ADD SWAP1 PUSH1 0x20 ADD DUP1 DUP4 GT PUSH2 0x5DD JUMPI DUP3 SWAP1 SUB PUSH1 0x1F AND DUP3 ADD SWAP2 JUMPDEST POP POP POP POP POP SWAP1 POP SWAP5 POP SWAP5 POP SWAP5 POP SWAP5 POP POP SWAP2 SWAP4 POP SWAP2 SWAP4 JUMP JUMPDEST PUSH1 0x60 DUP1 PUSH1 0x60 DUP1 PUSH1 0x60 PUSH1 0x0 PUSH1 0x2 PUSH1 0x0 DUP9 PUSH1 0x1 PUSH1 0x1 PUSH1 0xA0 SHL SUB AND PUSH1 0x1 PUSH1 0x1 PUSH1 0xA0 SHL SUB AND DUP2 MSTORE PUSH1 0x20 ADD SWAP1 DUP2 MSTORE PUSH1 0x20 ADD PUSH1 0x0 KECCAK256 SWAP1 POP DUP1 PUSH1 0x0 ADD DUP2 PUSH1 0x1 ADD DUP3 PUSH1 0x2 ADD DUP4 PUSH1 0x3 ADD DUP5 PUSH1 0x4 ADD DUP5 DUP1 SLOAD PUSH2 0x662 SWAP1 PUSH2 0xD30 JUMP JUMPDEST DUP1 PUSH1 0x1F ADD PUSH1 0x20 DUP1 SWAP2 DIV MUL PUSH1 0x20 ADD PUSH1 0x40 MLOAD SWAP1 DUP2 ADD PUSH1 0x40 MSTORE DUP1 SWAP3 SWAP2 SWAP1 DUP2 DUP2 MSTORE PUSH1 0x20 ADD DUP3 DUP1 SLOAD PUSH2 0x68E SWAP1 PUSH2 0xD30 JUMP JUMPDEST DUP1 ISZERO PUSH2 0x6DB JUMPI DUP1 PUSH1 0x1F LT PUSH2 0x6B0 JUMPI PUSH2 0x100 DUP1 DUP4 SLOAD DIV MUL DUP4 MSTORE SWAP2 PUSH1 0x20 ADD SWAP2 PUSH2 0x6DB JUMP JUMPDEST DUP3 ADD SWAP2 SWAP1 PUSH1 0x0 MSTORE PUSH1 0x20 PUSH1 0x0 KECCAK256 SWAP1 JUMPDEST DUP2 SLOAD DUP2 MSTORE SWAP1 PUSH1 0x1 ADD SWAP1 PUSH1 0x20 ADD DUP1 DUP4 GT PUSH2 0x6BE JUMPI DUP3 SWAP1 SUB PUSH1 0x1F AND DUP3 ADD SWAP2 JUMPDEST POP POP POP POP POP SWAP5 POP DUP4 DUP1 SLOAD PUSH2 0x6EE SWAP1 PUSH2 0xD30 JUMP JUMPDEST DUP1 PUSH1 0x1F ADD PUSH1 0x20 DUP1 SWAP2 DIV MUL PUSH1 0x20 ADD PUSH1 0x40 MLOAD SWAP1 DUP2 ADD PUSH1 0x40 MSTORE DUP1 SWAP3 SWAP2 SWAP1 DUP2 DUP2 MSTORE PUSH1 0x20 ADD DUP3 DUP1 SLOAD PUSH2 0x71A SWAP1 PUSH2 0xD30 JUMP JUMPDEST DUP1 ISZERO PUSH2 0x767 JUMPI DUP1 PUSH1 0x1F LT PUSH2 0x73C JUMPI PUSH2 0x100 DUP1 DUP4 SLOAD DIV MUL DUP4 MSTORE SWAP2 PUSH1 0x20 ADD SWAP2 PUSH2 0x767 JUMP JUMPDEST DUP3 ADD SWAP2 SWAP1 PUSH1 0x0 MSTORE PUSH1 0x20 PUSH1 0x0 KECCAK256 SWAP1 JUMPDEST DUP2 SLOAD DUP2 MSTORE SWAP1 PUSH1 0x1 ADD SWAP1 PUSH1 0x20 ADD DUP1 DUP4 GT PUSH2 0x74A JUMPI DUP3 SWAP1 SUB PUSH1 0x1F AND DUP3 ADD SWAP2 JUMPDEST POP POP POP POP POP SWAP4 POP DUP3 DUP1 SLOAD PUSH2 0x77A SWAP1 PUSH2 0xD30 JUMP JUMPDEST DUP1 PUSH1 0x1F ADD PUSH1 0x20 DUP1 SWAP2 DIV MUL PUSH1 0x20 ADD PUSH1 0x40 MLOAD SWAP1 DUP2 ADD PUSH1 0x40 MSTORE DUP1 SWAP3 SWAP2 SWAP1 DUP2 DUP2 MSTORE PUSH1 0x20 ADD DUP3 DUP1 SLOAD PUSH2 0x7A6 SWAP1 PUSH2 0xD30 JUMP JUMPDEST DUP1 ISZERO PUSH2 0x7F3 JUMPI DUP1 PUSH1 0x1F LT PUSH2 0x7C8 JUMPI PUSH2 0x100 DUP1 DUP4 SLOAD DIV MUL DUP4 MSTORE SWAP2 PUSH1 0x20 ADD SWAP2 PUSH2 0x7F3 JUMP JUMPDEST DUP3 ADD SWAP2 SWAP1 PUSH1 0x0 MSTORE PUSH1 0x20 PUSH1 0x0 KECCAK256 SWAP1 JUMPDEST DUP2 SLOAD DUP2 MSTORE SWAP1 PUSH1 0x1 ADD SWAP1 PUSH1 0x20 ADD DUP1 DUP4 GT PUSH2 0x7D6 JUMPI DUP3 SWAP1 SUB PUSH1 0x1F AND DUP3 ADD SWAP2 JUMPDEST POP POP POP POP POP SWAP3 POP DUP2 DUP1 SLOAD PUSH2 0x806 SWAP1 PUSH2 0xD30 JUMP JUMPDEST DUP1 PUSH1 0x1F ADD PUSH1 0x20 DUP1 SWAP2 DIV MUL PUSH1 0x20 ADD PUSH1 0x40 MLOAD SWAP1 DUP2 ADD PUSH1 0x40 MSTORE DUP1 SWAP3 SWAP2 SWAP1 DUP2 DUP2 MSTORE PUSH1 0x20 ADD DUP3 DUP1 SLOAD PUSH2 0x832 SWAP1 PUSH2 0xD30 JUMP JUMPDEST DUP1 ISZERO PUSH2 0x87F JUMPI DUP1 PUSH1 0x1F LT PUSH2 0x854 JUMPI PUSH2 0x100 DUP1 DUP4 SLOAD DIV MUL DUP4 MSTORE SWAP2 PUSH1 0x20 ADD SWAP2 PUSH2 0x87F JUMP JUMPDEST DUP3 ADD SWAP2 SWAP1 PUSH1 0x0 MSTORE PUSH1 0x20 PUSH1 0x0 KECCAK256 SWAP1 JUMPDEST DUP2 SLOAD DUP2 MSTORE SWAP1 PUSH1 0x1 ADD SWAP1 PUSH1 0x20 ADD DUP1 DUP4 GT PUSH2 0x862 JUMPI DUP3 SWAP1 SUB PUSH1 0x1F AND DUP3 ADD SWAP2 JUMPDEST POP POP POP POP POP SWAP2 POP DUP1 DUP1 SLOAD PUSH2 0x892 SWAP1 PUSH2 0xD30 JUMP JUMPDEST DUP1 PUSH1 0x1F ADD PUSH1 0x20 DUP1 SWAP2 DIV MUL PUSH1 0x20 ADD PUSH1 0x40 MLOAD SWAP1 DUP2 ADD PUSH1 0x40 MSTORE DUP1 SWAP3 SWAP2 SWAP1 DUP2 DUP2 MSTORE PUSH1 0x20 ADD DUP3 DUP1 SLOAD PUSH2 0x8BE SWAP1 PUSH2 0xD30 JUMP JUMPDEST DUP1 ISZERO PUSH2 0x90B JUMPI DUP1 PUSH1 0x1F LT PUSH2 0x8E0 JUMPI PUSH2 0x100 DUP1 DUP4 SLOAD DIV MUL DUP4 MSTORE SWAP2 PUSH1 0x20 ADD SWAP2 PUSH2 0x90B JUMP JUMPDEST DUP3 ADD SWAP2 SWAP1 PUSH1 0x0 MSTORE PUSH1 0x20 PUSH1 0x0 KECCAK256 SWAP1 JUMPDEST DUP2 SLOAD DUP2 MSTORE SWAP1 PUSH1 0x1 ADD SWAP1 PUSH1 0x20 ADD DUP1 DUP4 GT PUSH2 0x8EE JUMPI DUP3 SWAP1 SUB PUSH1 0x1F AND DUP3 ADD SWAP2 JUMPDEST POP POP POP POP POP SWAP1 POP SWAP6 POP SWAP6 POP SWAP6 POP SWAP6 POP SWAP6 POP POP SWAP2 SWAP4 SWAP6 SWAP1 SWAP3 SWAP5 POP JUMP JUMPDEST PUSH1 0x1 DUP2 DUP2 SLOAD DUP2 LT PUSH2 0x936 JUMPI PUSH1 0x0 DUP1 REVERT JUMPDEST PUSH1 0x0 SWAP2 DUP3 MSTORE PUSH1 0x20 SWAP1 SWAP2 KECCAK256 ADD SLOAD PUSH1 0x1 PUSH1 0x1 PUSH1 0xA0 SHL SUB AND SWAP1 POP DUP2 JUMP JUMPDEST PUSH1 0x20 DUP1 DUP3 MSTORE DUP3 MLOAD DUP3 DUP3 ADD DUP2 SWAP1 MSTORE PUSH1 0x0 SWAP2 DUP5 ADD SWAP1 PUSH1 0x40 DUP5 ADD SWAP1 DUP4 JUMPDEST DUP2 DUP2 LT ISZERO PUSH2 0x991 JUMPI DUP4 MLOAD PUSH1 0x1 PUSH1 0x1 PUSH1 0xA0 SHL SUB AND DUP4 MSTORE PUSH1 0x20 SWAP4 DUP5 ADD SWAP4 SWAP1 SWAP3 ADD SWAP2 PUSH1 0x1 ADD PUSH2 0x96A JUMP JUMPDEST POP SWAP1 SWAP6 SWAP5 POP POP POP POP POP JUMP JUMPDEST PUSH4 0x4E487B71 PUSH1 0xE0 SHL PUSH1 0x0 MSTORE PUSH1 0x41 PUSH1 0x4 MSTORE PUSH1 0x24 PUSH1 0x0 REVERT JUMPDEST PUSH1 0x0 DUP3 PUSH1 0x1F DUP4 ADD SLT PUSH2 0x9C3 JUMPI PUSH1 0x0 DUP1 REVERT JUMPDEST DUP2 CALLDATALOAD PUSH8 0xFFFFFFFFFFFFFFFF DUP2 GT ISZERO PUSH2 0x9DD JUMPI PUSH2 0x9DD PUSH2 0x99C JUMP JUMPDEST PUSH1 0x40 MLOAD PUSH1 0x1F DUP3 ADD PUSH1 0x1F NOT SWAP1 DUP2 AND PUSH1 0x3F ADD AND DUP2 ADD PUSH8 0xFFFFFFFFFFFFFFFF DUP2 GT DUP3 DUP3 LT OR ISZERO PUSH2 0xA0C JUMPI PUSH2 0xA0C PUSH2 0x99C JUMP JUMPDEST PUSH1 0x40 MSTORE DUP2 DUP2 MSTORE DUP4 DUP3 ADD PUSH1 0x20 ADD DUP6 LT ISZERO PUSH2 0xA24 JUMPI PUSH1 0x0 DUP1 REVERT JUMPDEST DUP2 PUSH1 0x20 DUP6 ADD PUSH1 0x20 DUP4 ADD CALLDATACOPY PUSH1 0x0 SWAP2 DUP2 ADD PUSH1 0x20 ADD SWAP2 SWAP1 SWAP2 MSTORE SWAP4 SWAP3 POP POP POP JUMP JUMPDEST PUSH1 0x0 DUP1 PUSH1 0x0 DUP1 PUSH1 0x0 DUP1 PUSH1 0x0 DUP1 PUSH1 0x0 PUSH2 0x120 DUP11 DUP13 SUB SLT ISZERO PUSH2 0xA60 JUMPI PUSH1 0x0 DUP1 REVERT JUMPDEST DUP10 CALLDATALOAD PUSH8 0xFFFFFFFFFFFFFFFF DUP2 GT ISZERO PUSH2 0xA77 JUMPI PUSH1 0x0 DUP1 REVERT JUMPDEST PUSH2 0xA83 DUP13 DUP3 DUP14 ADD PUSH2 0x9B2 JUMP JUMPDEST SWAP10 POP POP PUSH1 0x20 DUP11 ADD CALLDATALOAD PUSH8 0xFFFFFFFFFFFFFFFF DUP2 GT ISZERO PUSH2 0xAA0 JUMPI PUSH1 0x0 DUP1 REVERT JUMPDEST PUSH2 0xAAC DUP13 DUP3 DUP14 ADD PUSH2 0x9B2 JUMP JUMPDEST SWAP9 POP POP PUSH1 0x40 DUP11 ADD CALLDATALOAD PUSH8 0xFFFFFFFFFFFFFFFF DUP2 GT ISZERO PUSH2 0xAC9 JUMPI PUSH1 0x0 DUP1 REVERT JUMPDEST PUSH2 0xAD5 DUP13 DUP3 DUP14 ADD PUSH2 0x9B2 JUMP JUMPDEST SWAP8 POP POP PUSH1 0x60 DUP11 ADD CALLDATALOAD PUSH8 0xFFFFFFFFFFFFFFFF DUP2 GT ISZERO PUSH2 0xAF2 JUMPI PUSH1 0x0 DUP1 REVERT JUMPDEST PUSH2 0xAFE DUP13 DUP3 DUP14 ADD PUSH2 0x9B2 JUMP JUMPDEST SWAP7 POP POP PUSH1 0x80 DUP11 ADD CALLDATALOAD PUSH8 0xFFFFFFFFFFFFFFFF DUP2 GT ISZERO PUSH2 0xB1B JUMPI PUSH1 0x0 DUP1 REVERT JUMPDEST PUSH2 0xB27 DUP13 DUP3 DUP14 ADD PUSH2 0x9B2 JUMP JUMPDEST SWAP6 POP POP PUSH1 0xA0 DUP11 ADD CALLDATALOAD PUSH8 0xFFFFFFFFFFFFFFFF DUP2 GT ISZERO PUSH2 0xB44 JUMPI PUSH1 0x0 DUP1 REVERT JUMPDEST PUSH2 0xB50 DUP13 DUP3 DUP14 ADD PUSH2 0x9B2 JUMP JUMPDEST SWAP5 POP POP PUSH1 0xC0 DUP11 ADD CALLDATALOAD PUSH8 0xFFFFFFFFFFFFFFFF DUP2 GT ISZERO PUSH2 0xB6D JUMPI PUSH1 0x0 DUP1 REVERT JUMPDEST PUSH2 0xB79 DUP13 DUP3 DUP14 ADD PUSH2 0x9B2 JUMP JUMPDEST SWAP4 POP POP PUSH1 0xE0 DUP11 ADD CALLDATALOAD PUSH8 0xFFFFFFFFFFFFFFFF DUP2 GT ISZERO PUSH2 0xB96 JUMPI PUSH1 0x0 DUP1 REVERT JUMPDEST PUSH2 0xBA2 DUP13 DUP3 DUP14 ADD PUSH2 0x9B2 JUMP JUMPDEST SWAP3 POP POP PUSH2 0x100 DUP11 ADD CALLDATALOAD PUSH8 0xFFFFFFFFFFFFFFFF DUP2 GT ISZERO PUSH2 0xBC0 JUMPI PUSH1 0x0 DUP1 REVERT JUMPDEST PUSH2 0xBCC DUP13 DUP3 DUP14 ADD PUSH2 0x9B2 JUMP JUMPDEST SWAP2 POP POP SWAP3 SWAP6 SWAP9 POP SWAP3 SWAP6 SWAP9 POP SWAP3 SWAP6 SWAP9 JUMP JUMPDEST PUSH1 0x0 PUSH1 0x20 DUP3 DUP5 SUB SLT ISZERO PUSH2 0xBEE JUMPI PUSH1 0x0 DUP1 REVERT JUMPDEST DUP2 CALLDATALOAD PUSH1 0x1 PUSH1 0x1 PUSH1 0xA0 SHL SUB DUP2 AND DUP2 EQ PUSH2 0xC05 JUMPI PUSH1 0x0 DUP1 REVERT JUMPDEST SWAP4 SWAP3 POP POP POP JUMP JUMPDEST PUSH1 0x0 DUP2 MLOAD DUP1 DUP5 MSTORE PUSH1 0x0 JUMPDEST DUP2 DUP2 LT ISZERO PUSH2 0xC32 JUMPI PUSH1 0x20 DUP2 DUP6 ADD DUP2 ADD MLOAD DUP7 DUP4 ADD DUP3 ADD MSTORE ADD PUSH2 0xC16 JUMP JUMPDEST POP PUSH1 0x0 PUSH1 0x20 DUP3 DUP7 ADD ADD MSTORE PUSH1 0x20 PUSH1 0x1F NOT PUSH1 0x1F DUP4 ADD AND DUP6 ADD ADD SWAP2 POP POP SWAP3 SWAP2 POP POP JUMP JUMPDEST PUSH1 0x80 DUP2 MSTORE PUSH1 0x0 PUSH2 0xC65 PUSH1 0x80 DUP4 ADD DUP8 PUSH2 0xC0C JUMP JUMPDEST DUP3 DUP2 SUB PUSH1 0x20 DUP5 ADD MSTORE PUSH2 0xC77 DUP2 DUP8 PUSH2 0xC0C JUMP JUMPDEST SWAP1 POP DUP3 DUP2 SUB PUSH1 0x40 DUP5 ADD MSTORE PUSH2 0xC8B DUP2 DUP7 PUSH2 0xC0C JUMP JUMPDEST SWAP1 POP DUP3 DUP2 SUB PUSH1 0x60 DUP5 ADD MSTORE PUSH2 0xC9F DUP2 DUP6 PUSH2 0xC0C JUMP JUMPDEST SWAP8 SWAP7 POP POP POP POP POP POP POP JUMP JUMPDEST PUSH1 0xA0 DUP2 MSTORE PUSH1 0x0 PUSH2 0xCBD PUSH1 0xA0 DUP4 ADD DUP9 PUSH2 0xC0C JUMP JUMPDEST DUP3 DUP2 SUB PUSH1 0x20 DUP5 ADD MSTORE PUSH2 0xCCF DUP2 DUP9 PUSH2 0xC0C JUMP JUMPDEST SWAP1 POP DUP3 DUP2 SUB PUSH1 0x40 DUP5 ADD MSTORE PUSH2 0xCE3 DUP2 DUP8 PUSH2 0xC0C JUMP JUMPDEST SWAP1 POP DUP3 DUP2 SUB PUSH1 0x60 DUP5 ADD MSTORE PUSH2 0xCF7 DUP2 DUP7 PUSH2 0xC0C JUMP JUMPDEST SWAP1 POP DUP3 DUP2 SUB PUSH1 0x80 DUP5 ADD MSTORE PUSH2 0xD0B DUP2 DUP6 PUSH2 0xC0C JUMP JUMPDEST SWAP9 SWAP8 POP POP POP POP POP POP POP POP JUMP JUMPDEST PUSH1 0x0 PUSH1 0x20 DUP3 DUP5 SUB SLT ISZERO PUSH2 0xD29 JUMPI PUSH1 0x0 DUP1 REVERT JUMPDEST POP CALLDATALOAD SWAP2 SWAP1 POP JUMP JUMPDEST PUSH1 0x1 DUP2 DUP2 SHR SWAP1 DUP3 AND DUP1 PUSH2 0xD44 JUMPI PUSH1 0x7F DUP3 AND SWAP2 POP JUMPDEST PUSH1 0x20 DUP3 LT DUP2 SUB PUSH2 0xD64 JUMPI PUSH4 0x4E487B71 PUSH1 0xE0 SHL PUSH1 0x0 MSTORE PUSH1 0x22 PUSH1 0x4 MSTORE PUSH1 0x24 PUSH1 0x0 REVERT JUMPDEST POP SWAP2 SWAP1 POP JUMP JUMPDEST PUSH1 0x1F DUP3 GT ISZERO PUSH2 0xDB4 JUMPI DUP1 PUSH1 0x0 MSTORE PUSH1 0x20 PUSH1 0x0 KECCAK256 PUSH1 0x1F DUP5 ADD PUSH1 0x5 SHR DUP2 ADD PUSH1 0x20 DUP6 LT ISZERO PUSH2 0xD91 JUMPI POP DUP1 JUMPDEST PUSH1 0x1F DUP5 ADD PUSH1 0x5 SHR DUP3 ADD SWAP2 POP JUMPDEST DUP2 DUP2 LT ISZERO PUSH2 0xDB1 JUMPI PUSH1 0x0 DUP2 SSTORE PUSH1 0x1 ADD PUSH2 0xD9D JUMP JUMPDEST POP POP JUMPDEST POP POP POP JUMP JUMPDEST DUP2 MLOAD PUSH8 0xFFFFFFFFFFFFFFFF DUP2 GT ISZERO PUSH2 0xDD3 JUMPI PUSH2 0xDD3 PUSH2 0x99C JUMP JUMPDEST PUSH2 0xDE7 DUP2 PUSH2 0xDE1 DUP5 SLOAD PUSH2 0xD30 JUMP JUMPDEST DUP5 PUSH2 0xD6A JUMP JUMPDEST PUSH1 0x20 PUSH1 0x1F DUP3 GT PUSH1 0x1 DUP2 EQ PUSH2 0xE1B JUMPI PUSH1 0x0 DUP4 ISZERO PUSH2 0xE03 JUMPI POP DUP5 DUP3 ADD MLOAD JUMPDEST PUSH1 0x0 NOT PUSH1 0x3 DUP6 SWAP1 SHL SHR NOT AND PUSH1 0x1 DUP5 SWAP1 SHL OR DUP5 SSTORE PUSH2 0xDB1 JUMP JUMPDEST PUSH1 0x0 DUP5 DUP2 MSTORE PUSH1 0x20 DUP2 KECCAK256 PUSH1 0x1F NOT DUP6 AND SWAP2 JUMPDEST DUP3 DUP2 LT ISZERO PUSH2 0xE4B JUMPI DUP8 DUP6 ADD MLOAD DUP3 SSTORE PUSH1 0x20 SWAP5 DUP6 ADD SWAP5 PUSH1 0x1 SWAP1 SWAP3 ADD SWAP2 ADD PUSH2 0xE2B JUMP JUMPDEST POP DUP5 DUP3 LT ISZERO PUSH2 0xE69 JUMPI DUP7 DUP5 ADD MLOAD PUSH1 0x0 NOT PUSH1 0x3 DUP8 SWAP1 SHL PUSH1 0xF8 AND SHR NOT AND DUP2 SSTORE JUMPDEST POP POP POP POP PUSH1 0x1 SWAP1 DUP2 SHL ADD SWAP1 SSTORE POP JUMP JUMPDEST PUSH1 0x0 PUSH1 0x20 DUP3 DUP5 SUB SLT ISZERO PUSH2 0xE8A JUMPI PUSH1 0x0 DUP1 REVERT JUMPDEST DUP2 MLOAD DUP1 ISZERO ISZERO DUP2 EQ PUSH2 0xC05 JUMPI PUSH1 0x0 DUP1 REVERT JUMPDEST PUSH1 0x0 PUSH1 0x1 DUP3 ADD PUSH2 0xEBA JUMPI PUSH4 0x4E487B71 PUSH1 0xE0 SHL PUSH1 0x0 MSTORE PUSH1 0x11 PUSH1 0x4 MSTORE PUSH1 0x24 PUSH1 0x0 REVERT JUMPDEST POP PUSH1 0x1 ADD SWAP1 JUMP INVALID LOG2 PUSH5 0x6970667358 0x22 SLT KECCAK256 PUSH25 0x8291190FD73ED5833DDE496F57E7B94B5B63CA9430DFA18ABB SWAP1 PUSH20 0xDB9F237C64736F6C634300081A00330000000000 "
				},
				"gasEstimates": {
					"creation": {
						"codeDepositCost": "766200",
						"executionCost": "infinite",
						"totalCost": "infinite"
					},
					"external": {
						"editPatient()": "142",
						"getPatients()": "infinite",
						"patientCount()": "2339",
						"patientList(uint256)": "4680",
						"searchPatientDemographic(address)": "infinite",
						"searchPatientMedical(address)": "infinite",
						"setPatient(string,string,string,string,string,string,string,string,string)": "infinite"
					}
				},
				"methodIdentifiers": {
					"editPatient()": "882b09f4",
					"getPatients()": "12ad1c37",
					"patientCount()": "a0303c41",
					"patientList(uint256)": "babb1d41",
					"searchPatientDemographic(address)": "3bc98280",
					"searchPatientMedical(address)": "2a825ba0",
					"setPatient(string,string,string,string,string,string,string,string,string)": "23a2ba5b"
				}
			},
			"storageLayout": {
				"storage": [
					{
						"astId": 382,
						"contract": "contracts/patients/patientsContract.sol:PatientsContract",
						"label": "permissionsContract",
						"offset": 0,
						"slot": "0",
						"type": "t_contract(PermissionsContract)673"
					},
					{
						"astId": 397,
						"contract": "contracts/patients/patientsContract.sol:PatientsContract",
						"label": "patientList",
						"offset": 0,
						"slot": "1",
						"type": "t_array(t_address)dyn_storage"
					},
					{
						"astId": 402,
						"contract": "contracts/patients/patientsContract.sol:PatientsContract",
						"label": "patients",
						"offset": 0,
						"slot": "2",
						"type": "t_mapping(t_address,t_struct(Patients)375_storage)"
					},
					{
						"astId": 406,
						"contract": "contracts/patients/patientsContract.sol:PatientsContract",
						"label": "isPatient",
						"offset": 0,
						"slot": "3",
						"type": "t_mapping(t_address,t_bool)"
					},
					{
						"astId": 409,
						"contract": "contracts/patients/patientsContract.sol:PatientsContract",
						"label": "patientCount",
						"offset": 0,
						"slot": "4",
						"type": "t_uint256"
					}
				],
				"types": {
					"t_address": {
						"encoding": "inplace",
						"label": "address",
						"numberOfBytes": "20"
					},
					"t_array(t_address)dyn_storage": {
						"base": "t_address",
						"encoding": "dynamic_array",
						"label": "address[]",
						"numberOfBytes": "32"
					},
					"t_bool": {
						"encoding": "inplace",
						"label": "bool",
						"numberOfBytes": "1"
					},
					"t_contract(PermissionsContract)673": {
						"encoding": "inplace",
						"label": "contract PermissionsContract",
						"numberOfBytes": "20"
					},
					"t_mapping(t_address,t_bool)": {
						"encoding": "mapping",
						"key": "t_address",
						"label": "mapping(address => bool)",
						"numberOfBytes": "32",
						"value": "t_bool"
					},
					"t_mapping(t_address,t_struct(Patients)375_storage)": {
						"encoding": "mapping",
						"key": "t_address",
						"label": "mapping(address => struct Patients)",
						"numberOfBytes": "32",
						"value": "t_struct(Patients)375_storage"
					},
					"t_string_storage": {
						"encoding": "bytes",
						"label": "string",
						"numberOfBytes": "32"
					},
					"t_struct(Patients)375_storage": {
						"encoding": "inplace",
						"label": "struct Patients",
						"members": [
							{
								"astId": 350,
								"contract": "contracts/patients/patientsContract.sol:PatientsContract",
								"label": "ic",
								"offset": 0,
								"slot": "0",
								"type": "t_string_storage"
							},
							{
								"astId": 352,
								"contract": "contracts/patients/patientsContract.sol:PatientsContract",
								"label": "name",
								"offset": 0,
								"slot": "1",
								"type": "t_string_storage"
							},
							{
								"astId": 354,
								"contract": "contracts/patients/patientsContract.sol:PatientsContract",
								"label": "phone",
								"offset": 0,
								"slot": "2",
								"type": "t_string_storage"
							},
							{
								"astId": 356,
								"contract": "contracts/patients/patientsContract.sol:PatientsContract",
								"label": "gender",
								"offset": 0,
								"slot": "3",
								"type": "t_string_storage"
							},
							{
								"astId": 358,
								"contract": "contracts/patients/patientsContract.sol:PatientsContract",
								"label": "dob",
								"offset": 0,
								"slot": "4",
								"type": "t_string_storage"
							},
							{
								"astId": 360,
								"contract": "contracts/patients/patientsContract.sol:PatientsContract",
								"label": "height",
								"offset": 0,
								"slot": "5",
								"type": "t_string_storage"
							},
							{
								"astId": 362,
								"contract": "contracts/patients/patientsContract.sol:PatientsContract",
								"label": "weight",
								"offset": 0,
								"slot": "6",
								"type": "t_string_storage"
							},
							{
								"astId": 364,
								"contract": "contracts/patients/patientsContract.sol:PatientsContract",
								"label": "houseAddr",
								"offset": 0,
								"slot": "7",
								"type": "t_string_storage"
							},
							{
								"astId": 366,
								"contract": "contracts/patients/patientsContract.sol:PatientsContract",
								"label": "bloodGroup",
								"offset": 0,
								"slot": "8",
								"type": "t_string_storage"
							},
							{
								"astId": 368,
								"contract": "contracts/patients/patientsContract.sol:PatientsContract",
								"label": "diagnoses",
								"offset": 0,
								"slot": "9",
								"type": "t_string_storage"
							},
							{
								"astId": 370,
								"contract": "contracts/patients/patientsContract.sol:PatientsContract",
								"label": "medication",
								"offset": 0,
								"slot": "10",
								"type": "t_string_storage"
							},
							{
								"astId": 372,
								"contract": "contracts/patients/patientsContract.sol:PatientsContract",
								"label": "addr",
								"offset": 0,
								"slot": "11",
								"type": "t_address"
							},
							{
								"astId": 374,
								"contract": "contracts/patients/patientsContract.sol:PatientsContract",
								"label": "timestamp",
								"offset": 0,
								"slot": "12",
								"type": "t_uint256"
							}
						],
						"numberOfBytes": "416"
					},
					"t_uint256": {
						"encoding": "inplace",
						"label": "uint256",
						"numberOfBytes": "32"
					}
				}
			},
			"userdoc": {
				"kind": "user",
				"methods": {},
				"version": 1
			}
		}
	}
}