{
	"contracts/HealthcareRecords.sol": {
		"HeathcareRecords": {
			"abi": [
				{
					"inputs": [],
					"stateMutability": "nonpayable",
					"type": "constructor"
				},
				{
					"inputs": [
						{
							"internalType": "uint256",
							"name": "patientID",
							"type": "uint256"
						},
						{
							"internalType": "string",
							"name": "patientName",
							"type": "string"
						},
						{
							"internalType": "string",
							"name": "diagnosis",
							"type": "string"
						},
						{
							"internalType": "string",
							"name": "treatment",
							"type": "string"
						}
					],
					"name": "addRecord",
					"outputs": [],
					"stateMutability": "nonpayable",
					"type": "function"
				},
				{
					"inputs": [
						{
							"internalType": "address",
							"name": "provider",
							"type": "address"
						}
					],
					"name": "authorizeProvider",
					"outputs": [],
					"stateMutability": "nonpayable",
					"type": "function"
				},
				{
					"inputs": [],
					"name": "getOwner",
					"outputs": [
						{
							"internalType": "address",
							"name": "",
							"type": "address"
						}
					],
					"stateMutability": "view",
					"type": "function"
				},
				{
					"inputs": [
						{
							"internalType": "uint256",
							"name": "patientID",
							"type": "uint256"
						}
					],
					"name": "getPatientRecords",
					"outputs": [
						{
							"components": [
								{
									"internalType": "uint256",
									"name": "recordID",
									"type": "uint256"
								},
								{
									"internalType": "string",
									"name": "patientName",
									"type": "string"
								},
								{
									"internalType": "string",
									"name": "diagnosis",
									"type": "string"
								},
								{
									"internalType": "string",
									"name": "treatment",
									"type": "string"
								},
								{
									"internalType": "uint256",
									"name": "timestamp",
									"type": "uint256"
								}
							],
							"internalType": "struct HeathcareRecords.Record[]",
							"name": "",
							"type": "tuple[]"
						}
					],
					"stateMutability": "view",
					"type": "function"
				}
			],
			"devdoc": {
				"kind": "dev",
				"methods": {},
				"version": 1
			},
			"evm": {
				"assembly": "    /* \"contracts/HealthcareRecords.sol\":65:1468  contract HeathcareRecords {... */\n  mstore(0x40, 0x80)\n    /* \"contracts/HealthcareRecords.sol\":715:764  constructor() {... */\n  callvalue\n  dup1\n  iszero\n  tag_1\n  jumpi\n  0x00\n  dup1\n  revert\ntag_1:\n  pop\n    /* \"contracts/HealthcareRecords.sol\":747:757  msg.sender */\n  caller\n    /* \"contracts/HealthcareRecords.sol\":739:744  owner */\n  0x00\n  dup1\n    /* \"contracts/HealthcareRecords.sol\":739:757  owner = msg.sender */\n  0x0100\n  exp\n  dup2\n  sload\n  dup2\n  0xffffffffffffffffffffffffffffffffffffffff\n  mul\n  not\n  and\n  swap1\n  dup4\n  0xffffffffffffffffffffffffffffffffffffffff\n  and\n  mul\n  or\n  swap1\n  sstore\n  pop\n    /* \"contracts/HealthcareRecords.sol\":65:1468  contract HeathcareRecords {... */\n  dataSize(sub_0)\n  dup1\n  dataOffset(sub_0)\n  0x00\n  codecopy\n  0x00\n  return\nstop\n\nsub_0: assembly {\n        /* \"contracts/HealthcareRecords.sol\":65:1468  contract HeathcareRecords {... */\n      mstore(0x40, 0x80)\n      callvalue\n      dup1\n      iszero\n      tag_1\n      jumpi\n      0x00\n      dup1\n      revert\n    tag_1:\n      pop\n      jumpi(tag_2, lt(calldatasize, 0x04))\n      shr(0xe0, calldataload(0x00))\n      dup1\n      0x112ea262\n      eq\n      tag_3\n      jumpi\n      dup1\n      0x1a08a348\n      eq\n      tag_4\n      jumpi\n      dup1\n      0x893d20e8\n      eq\n      tag_5\n      jumpi\n      dup1\n      0xdce7e843\n      eq\n      tag_6\n      jumpi\n    tag_2:\n      0x00\n      dup1\n      revert\n        /* \"contracts/HealthcareRecords.sol\":856:971  function authorizeProvider(address provider) public onlyOwner {... */\n    tag_3:\n      tag_7\n      0x04\n      dup1\n      calldatasize\n      sub\n      dup2\n      add\n      swap1\n      tag_8\n      swap2\n      swap1\n      tag_9\n      jump\t// in\n    tag_8:\n      tag_10\n      jump\t// in\n    tag_7:\n      stop\n        /* \"contracts/HealthcareRecords.sol\":977:1303  function addRecord(uint256 patientID, string memory patientName,string memory diagnosis, string memory treatment) public onlyAuthorizedProvider {... */\n    tag_4:\n      tag_11\n      0x04\n      dup1\n      calldatasize\n      sub\n      dup2\n      add\n      swap1\n      tag_12\n      swap2\n      swap1\n      tag_13\n      jump\t// in\n    tag_12:\n      tag_14\n      jump\t// in\n    tag_11:\n      stop\n        /* \"contracts/HealthcareRecords.sol\":770:850  function getOwner() public view returns (address)  {... */\n    tag_5:\n      tag_15\n      tag_16\n      jump\t// in\n    tag_15:\n      mload(0x40)\n      tag_17\n      swap2\n      swap1\n      tag_18\n      jump\t// in\n    tag_17:\n      mload(0x40)\n      dup1\n      swap2\n      sub\n      swap1\n      return\n        /* \"contracts/HealthcareRecords.sol\":1309:1465  function getPatientRecords(uint256 patientID) public view onlyAuthorizedProvider returns (Record[] memory) {... */\n    tag_6:\n      tag_19\n      0x04\n      dup1\n      calldatasize\n      sub\n      dup2\n      add\n      swap1\n      tag_20\n      swap2\n      swap1\n      tag_21\n      jump\t// in\n    tag_20:\n      tag_22\n      jump\t// in\n    tag_19:\n      mload(0x40)\n      tag_23\n      swap2\n      swap1\n      tag_24\n      jump\t// in\n    tag_23:\n      mload(0x40)\n      dup1\n      swap2\n      sub\n      swap1\n      return\n        /* \"contracts/HealthcareRecords.sol\":856:971  function authorizeProvider(address provider) public onlyOwner {... */\n    tag_10:\n        /* \"contracts/HealthcareRecords.sol\":483:488  owner */\n      0x00\n      dup1\n      sload\n      swap1\n      0x0100\n      exp\n      swap1\n      div\n      0xffffffffffffffffffffffffffffffffffffffff\n      and\n        /* \"contracts/HealthcareRecords.sol\":469:488  msg.sender == owner */\n      0xffffffffffffffffffffffffffffffffffffffff\n      and\n        /* \"contracts/HealthcareRecords.sol\":469:479  msg.sender */\n      caller\n        /* \"contracts/HealthcareRecords.sol\":469:488  msg.sender == owner */\n      0xffffffffffffffffffffffffffffffffffffffff\n      and\n      eq\n        /* \"contracts/HealthcareRecords.sol\":461:529  require(msg.sender == owner, \"Only owner can access this function.\") */\n      tag_26\n      jumpi\n      mload(0x40)\n      0x08c379a000000000000000000000000000000000000000000000000000000000\n      dup2\n      mstore\n      0x04\n      add\n      tag_27\n      swap1\n      tag_28\n      jump\t// in\n    tag_27:\n      mload(0x40)\n      dup1\n      swap2\n      sub\n      swap1\n      revert\n    tag_26:\n        /* \"contracts/HealthcareRecords.sol\":960:964  true */\n      0x01\n        /* \"contracts/HealthcareRecords.sol\":928:947  authorizedProviders */\n      0x02\n        /* \"contracts/HealthcareRecords.sol\":928:957  authorizedProviders[provider] */\n      0x00\n        /* \"contracts/HealthcareRecords.sol\":948:956  provider */\n      dup4\n        /* \"contracts/HealthcareRecords.sol\":928:957  authorizedProviders[provider] */\n      0xffffffffffffffffffffffffffffffffffffffff\n      and\n      0xffffffffffffffffffffffffffffffffffffffff\n      and\n      dup2\n      mstore\n      0x20\n      add\n      swap1\n      dup2\n      mstore\n      0x20\n      add\n      0x00\n      keccak256\n      0x00\n        /* \"contracts/HealthcareRecords.sol\":928:964  authorizedProviders[provider] = true */\n      0x0100\n      exp\n      dup2\n      sload\n      dup2\n      0xff\n      mul\n      not\n      and\n      swap1\n      dup4\n      iszero\n      iszero\n      mul\n      or\n      swap1\n      sstore\n      pop\n        /* \"contracts/HealthcareRecords.sol\":856:971  function authorizeProvider(address provider) public onlyOwner {... */\n      pop\n      jump\t// out\n        /* \"contracts/HealthcareRecords.sol\":977:1303  function addRecord(uint256 patientID, string memory patientName,string memory diagnosis, string memory treatment) public onlyAuthorizedProvider {... */\n    tag_14:\n        /* \"contracts/HealthcareRecords.sol\":605:624  authorizedProviders */\n      0x02\n        /* \"contracts/HealthcareRecords.sol\":605:636  authorizedProviders[msg.sender] */\n      0x00\n        /* \"contracts/HealthcareRecords.sol\":625:635  msg.sender */\n      caller\n        /* \"contracts/HealthcareRecords.sol\":605:636  authorizedProviders[msg.sender] */\n      0xffffffffffffffffffffffffffffffffffffffff\n      and\n      0xffffffffffffffffffffffffffffffffffffffff\n      and\n      dup2\n      mstore\n      0x20\n      add\n      swap1\n      dup2\n      mstore\n      0x20\n      add\n      0x00\n      keccak256\n      0x00\n      swap1\n      sload\n      swap1\n      0x0100\n      exp\n      swap1\n      div\n      0xff\n      and\n        /* \"contracts/HealthcareRecords.sol\":597:691  require(authorizedProviders[msg.sender], \"Only authorized Provider can access this function.\") */\n      tag_31\n      jumpi\n      mload(0x40)\n      0x08c379a000000000000000000000000000000000000000000000000000000000\n      dup2\n      mstore\n      0x04\n      add\n      tag_32\n      swap1\n      tag_33\n      jump\t// in\n    tag_32:\n      mload(0x40)\n      dup1\n      swap2\n      sub\n      swap1\n      revert\n    tag_31:\n        /* \"contracts/HealthcareRecords.sol\":1131:1147  uint256 recordID */\n      0x00\n        /* \"contracts/HealthcareRecords.sol\":1185:1186  1 */\n      0x01\n        /* \"contracts/HealthcareRecords.sol\":1150:1164  patientRecords */\n      dup1\n        /* \"contracts/HealthcareRecords.sol\":1150:1175  patientRecords[patientID] */\n      0x00\n        /* \"contracts/HealthcareRecords.sol\":1165:1174  patientID */\n      dup8\n        /* \"contracts/HealthcareRecords.sol\":1150:1175  patientRecords[patientID] */\n      dup2\n      mstore\n      0x20\n      add\n      swap1\n      dup2\n      mstore\n      0x20\n      add\n      0x00\n      keccak256\n        /* \"contracts/HealthcareRecords.sol\":1150:1182  patientRecords[patientID].length */\n      dup1\n      sload\n      swap1\n      pop\n        /* \"contracts/HealthcareRecords.sol\":1150:1186  patientRecords[patientID].length + 1 */\n      tag_35\n      swap2\n      swap1\n      tag_36\n      jump\t// in\n    tag_35:\n        /* \"contracts/HealthcareRecords.sol\":1131:1186  uint256 recordID = patientRecords[patientID].length + 1 */\n      swap1\n      pop\n        /* \"contracts/HealthcareRecords.sol\":1196:1210  patientRecords */\n      0x01\n        /* \"contracts/HealthcareRecords.sol\":1196:1221  patientRecords[patientID] */\n      0x00\n        /* \"contracts/HealthcareRecords.sol\":1211:1220  patientID */\n      dup7\n        /* \"contracts/HealthcareRecords.sol\":1196:1221  patientRecords[patientID] */\n      dup2\n      mstore\n      0x20\n      add\n      swap1\n      dup2\n      mstore\n      0x20\n      add\n      0x00\n      keccak256\n        /* \"contracts/HealthcareRecords.sol\":1227:1295  Record(recordID, patientName, diagnosis, treatment, block.timestamp) */\n      mload(0x40)\n      dup1\n      0xa0\n      add\n      0x40\n      mstore\n      dup1\n        /* \"contracts/HealthcareRecords.sol\":1234:1242  recordID */\n      dup4\n        /* \"contracts/HealthcareRecords.sol\":1227:1295  Record(recordID, patientName, diagnosis, treatment, block.timestamp) */\n      dup2\n      mstore\n      0x20\n      add\n        /* \"contracts/HealthcareRecords.sol\":1244:1255  patientName */\n      dup7\n        /* \"contracts/HealthcareRecords.sol\":1227:1295  Record(recordID, patientName, diagnosis, treatment, block.timestamp) */\n      dup2\n      mstore\n      0x20\n      add\n        /* \"contracts/HealthcareRecords.sol\":1257:1266  diagnosis */\n      dup6\n        /* \"contracts/HealthcareRecords.sol\":1227:1295  Record(recordID, patientName, diagnosis, treatment, block.timestamp) */\n      dup2\n      mstore\n      0x20\n      add\n        /* \"contracts/HealthcareRecords.sol\":1268:1277  treatment */\n      dup5\n        /* \"contracts/HealthcareRecords.sol\":1227:1295  Record(recordID, patientName, diagnosis, treatment, block.timestamp) */\n      dup2\n      mstore\n      0x20\n      add\n        /* \"contracts/HealthcareRecords.sol\":1279:1294  block.timestamp */\n      timestamp\n        /* \"contracts/HealthcareRecords.sol\":1227:1295  Record(recordID, patientName, diagnosis, treatment, block.timestamp) */\n      dup2\n      mstore\n      pop\n        /* \"contracts/HealthcareRecords.sol\":1196:1296  patientRecords[patientID].push(Record(recordID, patientName, diagnosis, treatment, block.timestamp)) */\n      swap1\n      dup1\n      0x01\n      dup2\n      sload\n      add\n      dup1\n      dup3\n      sstore\n      dup1\n      swap2\n      pop\n      pop\n      0x01\n      swap1\n      sub\n      swap1\n      0x00\n      mstore\n      keccak256(0x00, 0x20)\n      swap1\n      0x05\n      mul\n      add\n      0x00\n      swap1\n      swap2\n      swap1\n      swap2\n      swap1\n      swap2\n      pop\n      0x00\n      dup3\n      add\n      mload\n      dup2\n      0x00\n      add\n      sstore\n      0x20\n      dup3\n      add\n      mload\n      dup2\n      0x01\n      add\n      swap1\n      dup2\n      tag_38\n      swap2\n      swap1\n      tag_39\n      jump\t// in\n    tag_38:\n      pop\n      0x40\n      dup3\n      add\n      mload\n      dup2\n      0x02\n      add\n      swap1\n      dup2\n      tag_40\n      swap2\n      swap1\n      tag_39\n      jump\t// in\n    tag_40:\n      pop\n      0x60\n      dup3\n      add\n      mload\n      dup2\n      0x03\n      add\n      swap1\n      dup2\n      tag_41\n      swap2\n      swap1\n      tag_39\n      jump\t// in\n    tag_41:\n      pop\n      0x80\n      dup3\n      add\n      mload\n      dup2\n      0x04\n      add\n      sstore\n      pop\n      pop\n        /* \"contracts/HealthcareRecords.sol\":1121:1303  {... */\n      pop\n        /* \"contracts/HealthcareRecords.sol\":977:1303  function addRecord(uint256 patientID, string memory patientName,string memory diagnosis, string memory treatment) public onlyAuthorizedProvider {... */\n      pop\n      pop\n      pop\n      pop\n      jump\t// out\n        /* \"contracts/HealthcareRecords.sol\":770:850  function getOwner() public view returns (address)  {... */\n    tag_16:\n        /* \"contracts/HealthcareRecords.sol\":811:818  address */\n      0x00\n        /* \"contracts/HealthcareRecords.sol\":838:843  owner */\n      dup1\n      0x00\n      swap1\n      sload\n      swap1\n      0x0100\n      exp\n      swap1\n      div\n      0xffffffffffffffffffffffffffffffffffffffff\n      and\n        /* \"contracts/HealthcareRecords.sol\":831:843  return owner */\n      swap1\n      pop\n        /* \"contracts/HealthcareRecords.sol\":770:850  function getOwner() public view returns (address)  {... */\n      swap1\n      jump\t// out\n        /* \"contracts/HealthcareRecords.sol\":1309:1465  function getPatientRecords(uint256 patientID) public view onlyAuthorizedProvider returns (Record[] memory) {... */\n    tag_22:\n        /* \"contracts/HealthcareRecords.sol\":1399:1414  Record[] memory */\n      0x60\n        /* \"contracts/HealthcareRecords.sol\":605:624  authorizedProviders */\n      0x02\n        /* \"contracts/HealthcareRecords.sol\":605:636  authorizedProviders[msg.sender] */\n      0x00\n        /* \"contracts/HealthcareRecords.sol\":625:635  msg.sender */\n      caller\n        /* \"contracts/HealthcareRecords.sol\":605:636  authorizedProviders[msg.sender] */\n      0xffffffffffffffffffffffffffffffffffffffff\n      and\n      0xffffffffffffffffffffffffffffffffffffffff\n      and\n      dup2\n      mstore\n      0x20\n      add\n      swap1\n      dup2\n      mstore\n      0x20\n      add\n      0x00\n      keccak256\n      0x00\n      swap1\n      sload\n      swap1\n      0x0100\n      exp\n      swap1\n      div\n      0xff\n      and\n        /* \"contracts/HealthcareRecords.sol\":597:691  require(authorizedProviders[msg.sender], \"Only authorized Provider can access this function.\") */\n      tag_44\n      jumpi\n      mload(0x40)\n      0x08c379a000000000000000000000000000000000000000000000000000000000\n      dup2\n      mstore\n      0x04\n      add\n      tag_45\n      swap1\n      tag_33\n      jump\t// in\n    tag_45:\n      mload(0x40)\n      dup1\n      swap2\n      sub\n      swap1\n      revert\n    tag_44:\n        /* \"contracts/HealthcareRecords.sol\":1433:1447  patientRecords */\n      0x01\n        /* \"contracts/HealthcareRecords.sol\":1433:1458  patientRecords[patientID] */\n      0x00\n        /* \"contracts/HealthcareRecords.sol\":1448:1457  patientID */\n      dup4\n        /* \"contracts/HealthcareRecords.sol\":1433:1458  patientRecords[patientID] */\n      dup2\n      mstore\n      0x20\n      add\n      swap1\n      dup2\n      mstore\n      0x20\n      add\n      0x00\n      keccak256\n        /* \"contracts/HealthcareRecords.sol\":1426:1458  return patientRecords[patientID] */\n      dup1\n      sload\n      dup1\n      0x20\n      mul\n      0x20\n      add\n      mload(0x40)\n      swap1\n      dup2\n      add\n      0x40\n      mstore\n      dup1\n      swap3\n      swap2\n      swap1\n      dup2\n      dup2\n      mstore\n      0x20\n      add\n      0x00\n      swap1\n    tag_47:\n      dup3\n      dup3\n      lt\n      iszero\n      tag_48\n      jumpi\n      dup4\n      dup3\n      swap1\n      0x00\n      mstore\n      keccak256(0x00, 0x20)\n      swap1\n      0x05\n      mul\n      add\n      mload(0x40)\n      dup1\n      0xa0\n      add\n      0x40\n      mstore\n      swap1\n      dup2\n      0x00\n      dup3\n      add\n      sload\n      dup2\n      mstore\n      0x20\n      add\n      0x01\n      dup3\n      add\n      dup1\n      sload\n      tag_50\n      swap1\n      tag_51\n      jump\t// in\n    tag_50:\n      dup1\n      0x1f\n      add\n      0x20\n      dup1\n      swap2\n      div\n      mul\n      0x20\n      add\n      mload(0x40)\n      swap1\n      dup2\n      add\n      0x40\n      mstore\n      dup1\n      swap3\n      swap2\n      swap1\n      dup2\n      dup2\n      mstore\n      0x20\n      add\n      dup3\n      dup1\n      sload\n      tag_52\n      swap1\n      tag_51\n      jump\t// in\n    tag_52:\n      dup1\n      iszero\n      tag_53\n      jumpi\n      dup1\n      0x1f\n      lt\n      tag_54\n      jumpi\n      0x0100\n      dup1\n      dup4\n      sload\n      div\n      mul\n      dup4\n      mstore\n      swap2\n      0x20\n      add\n      swap2\n      jump(tag_53)\n    tag_54:\n      dup3\n      add\n      swap2\n      swap1\n      0x00\n      mstore\n      keccak256(0x00, 0x20)\n      swap1\n    tag_55:\n      dup2\n      sload\n      dup2\n      mstore\n      swap1\n      0x01\n      add\n      swap1\n      0x20\n      add\n      dup1\n      dup4\n      gt\n      tag_55\n      jumpi\n      dup3\n      swap1\n      sub\n      0x1f\n      and\n      dup3\n      add\n      swap2\n    tag_53:\n      pop\n      pop\n      pop\n      pop\n      pop\n      dup2\n      mstore\n      0x20\n      add\n      0x02\n      dup3\n      add\n      dup1\n      sload\n      tag_56\n      swap1\n      tag_51\n      jump\t// in\n    tag_56:\n      dup1\n      0x1f\n      add\n      0x20\n      dup1\n      swap2\n      div\n      mul\n      0x20\n      add\n      mload(0x40)\n      swap1\n      dup2\n      add\n      0x40\n      mstore\n      dup1\n      swap3\n      swap2\n      swap1\n      dup2\n      dup2\n      mstore\n      0x20\n      add\n      dup3\n      dup1\n      sload\n      tag_57\n      swap1\n      tag_51\n      jump\t// in\n    tag_57:\n      dup1\n      iszero\n      tag_58\n      jumpi\n      dup1\n      0x1f\n      lt\n      tag_59\n      jumpi\n      0x0100\n      dup1\n      dup4\n      sload\n      div\n      mul\n      dup4\n      mstore\n      swap2\n      0x20\n      add\n      swap2\n      jump(tag_58)\n    tag_59:\n      dup3\n      add\n      swap2\n      swap1\n      0x00\n      mstore\n      keccak256(0x00, 0x20)\n      swap1\n    tag_60:\n      dup2\n      sload\n      dup2\n      mstore\n      swap1\n      0x01\n      add\n      swap1\n      0x20\n      add\n      dup1\n      dup4\n      gt\n      tag_60\n      jumpi\n      dup3\n      swap1\n      sub\n      0x1f\n      and\n      dup3\n      add\n      swap2\n    tag_58:\n      pop\n      pop\n      pop\n      pop\n      pop\n      dup2\n      mstore\n      0x20\n      add\n      0x03\n      dup3\n      add\n      dup1\n      sload\n      tag_61\n      swap1\n      tag_51\n      jump\t// in\n    tag_61:\n      dup1\n      0x1f\n      add\n      0x20\n      dup1\n      swap2\n      div\n      mul\n      0x20\n      add\n      mload(0x40)\n      swap1\n      dup2\n      add\n      0x40\n      mstore\n      dup1\n      swap3\n      swap2\n      swap1\n      dup2\n      dup2\n      mstore\n      0x20\n      add\n      dup3\n      dup1\n      sload\n      tag_62\n      swap1\n      tag_51\n      jump\t// in\n    tag_62:\n      dup1\n      iszero\n      tag_63\n      jumpi\n      dup1\n      0x1f\n      lt\n      tag_64\n      jumpi\n      0x0100\n      dup1\n      dup4\n      sload\n      div\n      mul\n      dup4\n      mstore\n      swap2\n      0x20\n      add\n      swap2\n      jump(tag_63)\n    tag_64:\n      dup3\n      add\n      swap2\n      swap1\n      0x00\n      mstore\n      keccak256(0x00, 0x20)\n      swap1\n    tag_65:\n      dup2\n      sload\n      dup2\n      mstore\n      swap1\n      0x01\n      add\n      swap1\n      0x20\n      add\n      dup1\n      dup4\n      gt\n      tag_65\n      jumpi\n      dup3\n      swap1\n      sub\n      0x1f\n      and\n      dup3\n      add\n      swap2\n    tag_63:\n      pop\n      pop\n      pop\n      pop\n      pop\n      dup2\n      mstore\n      0x20\n      add\n      0x04\n      dup3\n      add\n      sload\n      dup2\n      mstore\n      pop\n      pop\n      dup2\n      mstore\n      0x20\n      add\n      swap1\n      0x01\n      add\n      swap1\n      jump(tag_47)\n    tag_48:\n      pop\n      pop\n      pop\n      pop\n      swap1\n      pop\n        /* \"contracts/HealthcareRecords.sol\":1309:1465  function getPatientRecords(uint256 patientID) public view onlyAuthorizedProvider returns (Record[] memory) {... */\n      swap2\n      swap1\n      pop\n      jump\t// out\n        /* \"#utility.yul\":7:82   */\n    tag_66:\n        /* \"#utility.yul\":40:46   */\n      0x00\n        /* \"#utility.yul\":73:75   */\n      0x40\n        /* \"#utility.yul\":67:76   */\n      mload\n        /* \"#utility.yul\":57:76   */\n      swap1\n      pop\n        /* \"#utility.yul\":7:82   */\n      swap1\n      jump\t// out\n        /* \"#utility.yul\":88:205   */\n    tag_67:\n        /* \"#utility.yul\":197:198   */\n      0x00\n        /* \"#utility.yul\":194:195   */\n      dup1\n        /* \"#utility.yul\":187:199   */\n      revert\n        /* \"#utility.yul\":211:328   */\n    tag_68:\n        /* \"#utility.yul\":320:321   */\n      0x00\n        /* \"#utility.yul\":317:318   */\n      dup1\n        /* \"#utility.yul\":310:322   */\n      revert\n        /* \"#utility.yul\":334:460   */\n    tag_69:\n        /* \"#utility.yul\":371:378   */\n      0x00\n        /* \"#utility.yul\":411:453   */\n      0xffffffffffffffffffffffffffffffffffffffff\n        /* \"#utility.yul\":404:409   */\n      dup3\n        /* \"#utility.yul\":400:454   */\n      and\n        /* \"#utility.yul\":389:454   */\n      swap1\n      pop\n        /* \"#utility.yul\":334:460   */\n      swap2\n      swap1\n      pop\n      jump\t// out\n        /* \"#utility.yul\":466:562   */\n    tag_70:\n        /* \"#utility.yul\":503:510   */\n      0x00\n        /* \"#utility.yul\":532:556   */\n      tag_127\n        /* \"#utility.yul\":550:555   */\n      dup3\n        /* \"#utility.yul\":532:556   */\n      tag_69\n      jump\t// in\n    tag_127:\n        /* \"#utility.yul\":521:556   */\n      swap1\n      pop\n        /* \"#utility.yul\":466:562   */\n      swap2\n      swap1\n      pop\n      jump\t// out\n        /* \"#utility.yul\":568:690   */\n    tag_71:\n        /* \"#utility.yul\":641:665   */\n      tag_129\n        /* \"#utility.yul\":659:664   */\n      dup2\n        /* \"#utility.yul\":641:665   */\n      tag_70\n      jump\t// in\n    tag_129:\n        /* \"#utility.yul\":634:639   */\n      dup2\n        /* \"#utility.yul\":631:666   */\n      eq\n        /* \"#utility.yul\":621:684   */\n      tag_130\n      jumpi\n        /* \"#utility.yul\":680:681   */\n      0x00\n        /* \"#utility.yul\":677:678   */\n      dup1\n        /* \"#utility.yul\":670:682   */\n      revert\n        /* \"#utility.yul\":621:684   */\n    tag_130:\n        /* \"#utility.yul\":568:690   */\n      pop\n      jump\t// out\n        /* \"#utility.yul\":696:835   */\n    tag_72:\n        /* \"#utility.yul\":742:747   */\n      0x00\n        /* \"#utility.yul\":780:786   */\n      dup2\n        /* \"#utility.yul\":767:787   */\n      calldataload\n        /* \"#utility.yul\":758:787   */\n      swap1\n      pop\n        /* \"#utility.yul\":796:829   */\n      tag_132\n        /* \"#utility.yul\":823:828   */\n      dup2\n        /* \"#utility.yul\":796:829   */\n      tag_71\n      jump\t// in\n    tag_132:\n        /* \"#utility.yul\":696:835   */\n      swap3\n      swap2\n      pop\n      pop\n      jump\t// out\n        /* \"#utility.yul\":841:1170   */\n    tag_9:\n        /* \"#utility.yul\":900:906   */\n      0x00\n        /* \"#utility.yul\":949:951   */\n      0x20\n        /* \"#utility.yul\":937:946   */\n      dup3\n        /* \"#utility.yul\":928:935   */\n      dup5\n        /* \"#utility.yul\":924:947   */\n      sub\n        /* \"#utility.yul\":920:952   */\n      slt\n        /* \"#utility.yul\":917:1036   */\n      iszero\n      tag_134\n      jumpi\n        /* \"#utility.yul\":955:1034   */\n      tag_135\n      tag_67\n      jump\t// in\n    tag_135:\n        /* \"#utility.yul\":917:1036   */\n    tag_134:\n        /* \"#utility.yul\":1075:1076   */\n      0x00\n        /* \"#utility.yul\":1100:1153   */\n      tag_136\n        /* \"#utility.yul\":1145:1152   */\n      dup5\n        /* \"#utility.yul\":1136:1142   */\n      dup3\n        /* \"#utility.yul\":1125:1134   */\n      dup6\n        /* \"#utility.yul\":1121:1143   */\n      add\n        /* \"#utility.yul\":1100:1153   */\n      tag_72\n      jump\t// in\n    tag_136:\n        /* \"#utility.yul\":1090:1153   */\n      swap2\n      pop\n        /* \"#utility.yul\":1046:1163   */\n      pop\n        /* \"#utility.yul\":841:1170   */\n      swap3\n      swap2\n      pop\n      pop\n      jump\t// out\n        /* \"#utility.yul\":1176:1253   */\n    tag_73:\n        /* \"#utility.yul\":1213:1220   */\n      0x00\n        /* \"#utility.yul\":1242:1247   */\n      dup2\n        /* \"#utility.yul\":1231:1247   */\n      swap1\n      pop\n        /* \"#utility.yul\":1176:1253   */\n      swap2\n      swap1\n      pop\n      jump\t// out\n        /* \"#utility.yul\":1259:1381   */\n    tag_74:\n        /* \"#utility.yul\":1332:1356   */\n      tag_139\n        /* \"#utility.yul\":1350:1355   */\n      dup2\n        /* \"#utility.yul\":1332:1356   */\n      tag_73\n      jump\t// in\n    tag_139:\n        /* \"#utility.yul\":1325:1330   */\n      dup2\n        /* \"#utility.yul\":1322:1357   */\n      eq\n        /* \"#utility.yul\":1312:1375   */\n      tag_140\n      jumpi\n        /* \"#utility.yul\":1371:1372   */\n      0x00\n        /* \"#utility.yul\":1368:1369   */\n      dup1\n        /* \"#utility.yul\":1361:1373   */\n      revert\n        /* \"#utility.yul\":1312:1375   */\n    tag_140:\n        /* \"#utility.yul\":1259:1381   */\n      pop\n      jump\t// out\n        /* \"#utility.yul\":1387:1526   */\n    tag_75:\n        /* \"#utility.yul\":1433:1438   */\n      0x00\n        /* \"#utility.yul\":1471:1477   */\n      dup2\n        /* \"#utility.yul\":1458:1478   */\n      calldataload\n        /* \"#utility.yul\":1449:1478   */\n      swap1\n      pop\n        /* \"#utility.yul\":1487:1520   */\n      tag_142\n        /* \"#utility.yul\":1514:1519   */\n      dup2\n        /* \"#utility.yul\":1487:1520   */\n      tag_74\n      jump\t// in\n    tag_142:\n        /* \"#utility.yul\":1387:1526   */\n      swap3\n      swap2\n      pop\n      pop\n      jump\t// out\n        /* \"#utility.yul\":1532:1649   */\n    tag_76:\n        /* \"#utility.yul\":1641:1642   */\n      0x00\n        /* \"#utility.yul\":1638:1639   */\n      dup1\n        /* \"#utility.yul\":1631:1643   */\n      revert\n        /* \"#utility.yul\":1655:1772   */\n    tag_77:\n        /* \"#utility.yul\":1764:1765   */\n      0x00\n        /* \"#utility.yul\":1761:1762   */\n      dup1\n        /* \"#utility.yul\":1754:1766   */\n      revert\n        /* \"#utility.yul\":1778:1880   */\n    tag_78:\n        /* \"#utility.yul\":1819:1825   */\n      0x00\n        /* \"#utility.yul\":1870:1872   */\n      0x1f\n        /* \"#utility.yul\":1866:1873   */\n      not\n        /* \"#utility.yul\":1861:1863   */\n      0x1f\n        /* \"#utility.yul\":1854:1859   */\n      dup4\n        /* \"#utility.yul\":1850:1864   */\n      add\n        /* \"#utility.yul\":1846:1874   */\n      and\n        /* \"#utility.yul\":1836:1874   */\n      swap1\n      pop\n        /* \"#utility.yul\":1778:1880   */\n      swap2\n      swap1\n      pop\n      jump\t// out\n        /* \"#utility.yul\":1886:2066   */\n    tag_79:\n        /* \"#utility.yul\":1934:2011   */\n      0x4e487b7100000000000000000000000000000000000000000000000000000000\n        /* \"#utility.yul\":1931:1932   */\n      0x00\n        /* \"#utility.yul\":1924:2012   */\n      mstore\n        /* \"#utility.yul\":2031:2035   */\n      0x41\n        /* \"#utility.yul\":2028:2029   */\n      0x04\n        /* \"#utility.yul\":2021:2036   */\n      mstore\n        /* \"#utility.yul\":2055:2059   */\n      0x24\n        /* \"#utility.yul\":2052:2053   */\n      0x00\n        /* \"#utility.yul\":2045:2060   */\n      revert\n        /* \"#utility.yul\":2072:2353   */\n    tag_80:\n        /* \"#utility.yul\":2155:2182   */\n      tag_148\n        /* \"#utility.yul\":2177:2181   */\n      dup3\n        /* \"#utility.yul\":2155:2182   */\n      tag_78\n      jump\t// in\n    tag_148:\n        /* \"#utility.yul\":2147:2153   */\n      dup2\n        /* \"#utility.yul\":2143:2183   */\n      add\n        /* \"#utility.yul\":2285:2291   */\n      dup2\n        /* \"#utility.yul\":2273:2283   */\n      dup2\n        /* \"#utility.yul\":2270:2292   */\n      lt\n        /* \"#utility.yul\":2249:2267   */\n      0xffffffffffffffff\n        /* \"#utility.yul\":2237:2247   */\n      dup3\n        /* \"#utility.yul\":2234:2268   */\n      gt\n        /* \"#utility.yul\":2231:2293   */\n      or\n        /* \"#utility.yul\":2228:2316   */\n      iszero\n      tag_149\n      jumpi\n        /* \"#utility.yul\":2296:2314   */\n      tag_150\n      tag_79\n      jump\t// in\n    tag_150:\n        /* \"#utility.yul\":2228:2316   */\n    tag_149:\n        /* \"#utility.yul\":2336:2346   */\n      dup1\n        /* \"#utility.yul\":2332:2334   */\n      0x40\n        /* \"#utility.yul\":2325:2347   */\n      mstore\n        /* \"#utility.yul\":2115:2353   */\n      pop\n        /* \"#utility.yul\":2072:2353   */\n      pop\n      pop\n      jump\t// out\n        /* \"#utility.yul\":2359:2488   */\n    tag_81:\n        /* \"#utility.yul\":2393:2399   */\n      0x00\n        /* \"#utility.yul\":2420:2440   */\n      tag_152\n      tag_66\n      jump\t// in\n    tag_152:\n        /* \"#utility.yul\":2410:2440   */\n      swap1\n      pop\n        /* \"#utility.yul\":2449:2482   */\n      tag_153\n        /* \"#utility.yul\":2477:2481   */\n      dup3\n        /* \"#utility.yul\":2469:2475   */\n      dup3\n        /* \"#utility.yul\":2449:2482   */\n      tag_80\n      jump\t// in\n    tag_153:\n        /* \"#utility.yul\":2359:2488   */\n      swap2\n      swap1\n      pop\n      jump\t// out\n        /* \"#utility.yul\":2494:2802   */\n    tag_82:\n        /* \"#utility.yul\":2556:2560   */\n      0x00\n        /* \"#utility.yul\":2646:2664   */\n      0xffffffffffffffff\n        /* \"#utility.yul\":2638:2644   */\n      dup3\n        /* \"#utility.yul\":2635:2665   */\n      gt\n        /* \"#utility.yul\":2632:2688   */\n      iszero\n      tag_155\n      jumpi\n        /* \"#utility.yul\":2668:2686   */\n      tag_156\n      tag_79\n      jump\t// in\n    tag_156:\n        /* \"#utility.yul\":2632:2688   */\n    tag_155:\n        /* \"#utility.yul\":2706:2735   */\n      tag_157\n        /* \"#utility.yul\":2728:2734   */\n      dup3\n        /* \"#utility.yul\":2706:2735   */\n      tag_78\n      jump\t// in\n    tag_157:\n        /* \"#utility.yul\":2698:2735   */\n      swap1\n      pop\n        /* \"#utility.yul\":2790:2794   */\n      0x20\n        /* \"#utility.yul\":2784:2788   */\n      dup2\n        /* \"#utility.yul\":2780:2795   */\n      add\n        /* \"#utility.yul\":2772:2795   */\n      swap1\n      pop\n        /* \"#utility.yul\":2494:2802   */\n      swap2\n      swap1\n      pop\n      jump\t// out\n        /* \"#utility.yul\":2808:2956   */\n    tag_83:\n        /* \"#utility.yul\":2906:2912   */\n      dup3\n        /* \"#utility.yul\":2901:2904   */\n      dup2\n        /* \"#utility.yul\":2896:2899   */\n      dup4\n        /* \"#utility.yul\":2883:2913   */\n      calldatacopy\n        /* \"#utility.yul\":2947:2948   */\n      0x00\n        /* \"#utility.yul\":2938:2944   */\n      dup4\n        /* \"#utility.yul\":2933:2936   */\n      dup4\n        /* \"#utility.yul\":2929:2945   */\n      add\n        /* \"#utility.yul\":2922:2949   */\n      mstore\n        /* \"#utility.yul\":2808:2956   */\n      pop\n      pop\n      pop\n      jump\t// out\n        /* \"#utility.yul\":2962:3387   */\n    tag_84:\n        /* \"#utility.yul\":3040:3045   */\n      0x00\n        /* \"#utility.yul\":3065:3131   */\n      tag_160\n        /* \"#utility.yul\":3081:3130   */\n      tag_161\n        /* \"#utility.yul\":3123:3129   */\n      dup5\n        /* \"#utility.yul\":3081:3130   */\n      tag_82\n      jump\t// in\n    tag_161:\n        /* \"#utility.yul\":3065:3131   */\n      tag_81\n      jump\t// in\n    tag_160:\n        /* \"#utility.yul\":3056:3131   */\n      swap1\n      pop\n        /* \"#utility.yul\":3154:3160   */\n      dup3\n        /* \"#utility.yul\":3147:3152   */\n      dup2\n        /* \"#utility.yul\":3140:3161   */\n      mstore\n        /* \"#utility.yul\":3192:3196   */\n      0x20\n        /* \"#utility.yul\":3185:3190   */\n      dup2\n        /* \"#utility.yul\":3181:3197   */\n      add\n        /* \"#utility.yul\":3230:3233   */\n      dup5\n        /* \"#utility.yul\":3221:3227   */\n      dup5\n        /* \"#utility.yul\":3216:3219   */\n      dup5\n        /* \"#utility.yul\":3212:3228   */\n      add\n        /* \"#utility.yul\":3209:3234   */\n      gt\n        /* \"#utility.yul\":3206:3318   */\n      iszero\n      tag_162\n      jumpi\n        /* \"#utility.yul\":3237:3316   */\n      tag_163\n      tag_77\n      jump\t// in\n    tag_163:\n        /* \"#utility.yul\":3206:3318   */\n    tag_162:\n        /* \"#utility.yul\":3327:3381   */\n      tag_164\n        /* \"#utility.yul\":3374:3380   */\n      dup5\n        /* \"#utility.yul\":3369:3372   */\n      dup3\n        /* \"#utility.yul\":3364:3367   */\n      dup6\n        /* \"#utility.yul\":3327:3381   */\n      tag_83\n      jump\t// in\n    tag_164:\n        /* \"#utility.yul\":3046:3387   */\n      pop\n        /* \"#utility.yul\":2962:3387   */\n      swap4\n      swap3\n      pop\n      pop\n      pop\n      jump\t// out\n        /* \"#utility.yul\":3407:3747   */\n    tag_85:\n        /* \"#utility.yul\":3463:3468   */\n      0x00\n        /* \"#utility.yul\":3512:3515   */\n      dup3\n        /* \"#utility.yul\":3505:3509   */\n      0x1f\n        /* \"#utility.yul\":3497:3503   */\n      dup4\n        /* \"#utility.yul\":3493:3510   */\n      add\n        /* \"#utility.yul\":3489:3516   */\n      slt\n        /* \"#utility.yul\":3479:3601   */\n      tag_166\n      jumpi\n        /* \"#utility.yul\":3520:3599   */\n      tag_167\n      tag_76\n      jump\t// in\n    tag_167:\n        /* \"#utility.yul\":3479:3601   */\n    tag_166:\n        /* \"#utility.yul\":3637:3643   */\n      dup2\n        /* \"#utility.yul\":3624:3644   */\n      calldataload\n        /* \"#utility.yul\":3662:3741   */\n      tag_168\n        /* \"#utility.yul\":3737:3740   */\n      dup5\n        /* \"#utility.yul\":3729:3735   */\n      dup3\n        /* \"#utility.yul\":3722:3726   */\n      0x20\n        /* \"#utility.yul\":3714:3720   */\n      dup7\n        /* \"#utility.yul\":3710:3727   */\n      add\n        /* \"#utility.yul\":3662:3741   */\n      tag_84\n      jump\t// in\n    tag_168:\n        /* \"#utility.yul\":3653:3741   */\n      swap2\n      pop\n        /* \"#utility.yul\":3469:3747   */\n      pop\n        /* \"#utility.yul\":3407:3747   */\n      swap3\n      swap2\n      pop\n      pop\n      jump\t// out\n        /* \"#utility.yul\":3753:5058   */\n    tag_13:\n        /* \"#utility.yul\":3869:3875   */\n      0x00\n        /* \"#utility.yul\":3877:3883   */\n      dup1\n        /* \"#utility.yul\":3885:3891   */\n      0x00\n        /* \"#utility.yul\":3893:3899   */\n      dup1\n        /* \"#utility.yul\":3942:3945   */\n      0x80\n        /* \"#utility.yul\":3930:3939   */\n      dup6\n        /* \"#utility.yul\":3921:3928   */\n      dup8\n        /* \"#utility.yul\":3917:3940   */\n      sub\n        /* \"#utility.yul\":3913:3946   */\n      slt\n        /* \"#utility.yul\":3910:4030   */\n      iszero\n      tag_170\n      jumpi\n        /* \"#utility.yul\":3949:4028   */\n      tag_171\n      tag_67\n      jump\t// in\n    tag_171:\n        /* \"#utility.yul\":3910:4030   */\n    tag_170:\n        /* \"#utility.yul\":4069:4070   */\n      0x00\n        /* \"#utility.yul\":4094:4147   */\n      tag_172\n        /* \"#utility.yul\":4139:4146   */\n      dup8\n        /* \"#utility.yul\":4130:4136   */\n      dup3\n        /* \"#utility.yul\":4119:4128   */\n      dup9\n        /* \"#utility.yul\":4115:4137   */\n      add\n        /* \"#utility.yul\":4094:4147   */\n      tag_75\n      jump\t// in\n    tag_172:\n        /* \"#utility.yul\":4084:4147   */\n      swap5\n      pop\n        /* \"#utility.yul\":4040:4157   */\n      pop\n        /* \"#utility.yul\":4224:4226   */\n      0x20\n        /* \"#utility.yul\":4213:4222   */\n      dup6\n        /* \"#utility.yul\":4209:4227   */\n      add\n        /* \"#utility.yul\":4196:4228   */\n      calldataload\n        /* \"#utility.yul\":4255:4273   */\n      0xffffffffffffffff\n        /* \"#utility.yul\":4247:4253   */\n      dup2\n        /* \"#utility.yul\":4244:4274   */\n      gt\n        /* \"#utility.yul\":4241:4358   */\n      iszero\n      tag_173\n      jumpi\n        /* \"#utility.yul\":4277:4356   */\n      tag_174\n      tag_68\n      jump\t// in\n    tag_174:\n        /* \"#utility.yul\":4241:4358   */\n    tag_173:\n        /* \"#utility.yul\":4382:4445   */\n      tag_175\n        /* \"#utility.yul\":4437:4444   */\n      dup8\n        /* \"#utility.yul\":4428:4434   */\n      dup3\n        /* \"#utility.yul\":4417:4426   */\n      dup9\n        /* \"#utility.yul\":4413:4435   */\n      add\n        /* \"#utility.yul\":4382:4445   */\n      tag_85\n      jump\t// in\n    tag_175:\n        /* \"#utility.yul\":4372:4445   */\n      swap4\n      pop\n        /* \"#utility.yul\":4167:4455   */\n      pop\n        /* \"#utility.yul\":4522:4524   */\n      0x40\n        /* \"#utility.yul\":4511:4520   */\n      dup6\n        /* \"#utility.yul\":4507:4525   */\n      add\n        /* \"#utility.yul\":4494:4526   */\n      calldataload\n        /* \"#utility.yul\":4553:4571   */\n      0xffffffffffffffff\n        /* \"#utility.yul\":4545:4551   */\n      dup2\n        /* \"#utility.yul\":4542:4572   */\n      gt\n        /* \"#utility.yul\":4539:4656   */\n      iszero\n      tag_176\n      jumpi\n        /* \"#utility.yul\":4575:4654   */\n      tag_177\n      tag_68\n      jump\t// in\n    tag_177:\n        /* \"#utility.yul\":4539:4656   */\n    tag_176:\n        /* \"#utility.yul\":4680:4743   */\n      tag_178\n        /* \"#utility.yul\":4735:4742   */\n      dup8\n        /* \"#utility.yul\":4726:4732   */\n      dup3\n        /* \"#utility.yul\":4715:4724   */\n      dup9\n        /* \"#utility.yul\":4711:4733   */\n      add\n        /* \"#utility.yul\":4680:4743   */\n      tag_85\n      jump\t// in\n    tag_178:\n        /* \"#utility.yul\":4670:4743   */\n      swap3\n      pop\n        /* \"#utility.yul\":4465:4753   */\n      pop\n        /* \"#utility.yul\":4820:4822   */\n      0x60\n        /* \"#utility.yul\":4809:4818   */\n      dup6\n        /* \"#utility.yul\":4805:4823   */\n      add\n        /* \"#utility.yul\":4792:4824   */\n      calldataload\n        /* \"#utility.yul\":4851:4869   */\n      0xffffffffffffffff\n        /* \"#utility.yul\":4843:4849   */\n      dup2\n        /* \"#utility.yul\":4840:4870   */\n      gt\n        /* \"#utility.yul\":4837:4954   */\n      iszero\n      tag_179\n      jumpi\n        /* \"#utility.yul\":4873:4952   */\n      tag_180\n      tag_68\n      jump\t// in\n    tag_180:\n        /* \"#utility.yul\":4837:4954   */\n    tag_179:\n        /* \"#utility.yul\":4978:5041   */\n      tag_181\n        /* \"#utility.yul\":5033:5040   */\n      dup8\n        /* \"#utility.yul\":5024:5030   */\n      dup3\n        /* \"#utility.yul\":5013:5022   */\n      dup9\n        /* \"#utility.yul\":5009:5031   */\n      add\n        /* \"#utility.yul\":4978:5041   */\n      tag_85\n      jump\t// in\n    tag_181:\n        /* \"#utility.yul\":4968:5041   */\n      swap2\n      pop\n        /* \"#utility.yul\":4763:5051   */\n      pop\n        /* \"#utility.yul\":3753:5058   */\n      swap3\n      swap6\n      swap2\n      swap5\n      pop\n      swap3\n      pop\n      jump\t// out\n        /* \"#utility.yul\":5064:5182   */\n    tag_86:\n        /* \"#utility.yul\":5151:5175   */\n      tag_183\n        /* \"#utility.yul\":5169:5174   */\n      dup2\n        /* \"#utility.yul\":5151:5175   */\n      tag_70\n      jump\t// in\n    tag_183:\n        /* \"#utility.yul\":5146:5149   */\n      dup3\n        /* \"#utility.yul\":5139:5176   */\n      mstore\n        /* \"#utility.yul\":5064:5182   */\n      pop\n      pop\n      jump\t// out\n        /* \"#utility.yul\":5188:5410   */\n    tag_18:\n        /* \"#utility.yul\":5281:5285   */\n      0x00\n        /* \"#utility.yul\":5319:5321   */\n      0x20\n        /* \"#utility.yul\":5308:5317   */\n      dup3\n        /* \"#utility.yul\":5304:5322   */\n      add\n        /* \"#utility.yul\":5296:5322   */\n      swap1\n      pop\n        /* \"#utility.yul\":5332:5403   */\n      tag_185\n        /* \"#utility.yul\":5400:5401   */\n      0x00\n        /* \"#utility.yul\":5389:5398   */\n      dup4\n        /* \"#utility.yul\":5385:5402   */\n      add\n        /* \"#utility.yul\":5376:5382   */\n      dup5\n        /* \"#utility.yul\":5332:5403   */\n      tag_86\n      jump\t// in\n    tag_185:\n        /* \"#utility.yul\":5188:5410   */\n      swap3\n      swap2\n      pop\n      pop\n      jump\t// out\n        /* \"#utility.yul\":5416:5745   */\n    tag_21:\n        /* \"#utility.yul\":5475:5481   */\n      0x00\n        /* \"#utility.yul\":5524:5526   */\n      0x20\n        /* \"#utility.yul\":5512:5521   */\n      dup3\n        /* \"#utility.yul\":5503:5510   */\n      dup5\n        /* \"#utility.yul\":5499:5522   */\n      sub\n        /* \"#utility.yul\":5495:5527   */\n      slt\n        /* \"#utility.yul\":5492:5611   */\n      iszero\n      tag_187\n      jumpi\n        /* \"#utility.yul\":5530:5609   */\n      tag_188\n      tag_67\n      jump\t// in\n    tag_188:\n        /* \"#utility.yul\":5492:5611   */\n    tag_187:\n        /* \"#utility.yul\":5650:5651   */\n      0x00\n        /* \"#utility.yul\":5675:5728   */\n      tag_189\n        /* \"#utility.yul\":5720:5727   */\n      dup5\n        /* \"#utility.yul\":5711:5717   */\n      dup3\n        /* \"#utility.yul\":5700:5709   */\n      dup6\n        /* \"#utility.yul\":5696:5718   */\n      add\n        /* \"#utility.yul\":5675:5728   */\n      tag_75\n      jump\t// in\n    tag_189:\n        /* \"#utility.yul\":5665:5728   */\n      swap2\n      pop\n        /* \"#utility.yul\":5621:5738   */\n      pop\n        /* \"#utility.yul\":5416:5745   */\n      swap3\n      swap2\n      pop\n      pop\n      jump\t// out\n        /* \"#utility.yul\":5751:5887   */\n    tag_87:\n        /* \"#utility.yul\":5840:5846   */\n      0x00\n        /* \"#utility.yul\":5874:5879   */\n      dup2\n        /* \"#utility.yul\":5868:5880   */\n      mload\n        /* \"#utility.yul\":5858:5880   */\n      swap1\n      pop\n        /* \"#utility.yul\":5751:5887   */\n      swap2\n      swap1\n      pop\n      jump\t// out\n        /* \"#utility.yul\":5893:6099   */\n    tag_88:\n        /* \"#utility.yul\":6014:6025   */\n      0x00\n        /* \"#utility.yul\":6048:6054   */\n      dup3\n        /* \"#utility.yul\":6043:6046   */\n      dup3\n        /* \"#utility.yul\":6036:6055   */\n      mstore\n        /* \"#utility.yul\":6088:6092   */\n      0x20\n        /* \"#utility.yul\":6083:6086   */\n      dup3\n        /* \"#utility.yul\":6079:6093   */\n      add\n        /* \"#utility.yul\":6064:6093   */\n      swap1\n      pop\n        /* \"#utility.yul\":5893:6099   */\n      swap3\n      swap2\n      pop\n      pop\n      jump\t// out\n        /* \"#utility.yul\":6105:6259   */\n    tag_89:\n        /* \"#utility.yul\":6194:6198   */\n      0x00\n        /* \"#utility.yul\":6217:6220   */\n      dup2\n        /* \"#utility.yul\":6209:6220   */\n      swap1\n      pop\n        /* \"#utility.yul\":6247:6251   */\n      0x20\n        /* \"#utility.yul\":6242:6245   */\n      dup3\n        /* \"#utility.yul\":6238:6252   */\n      add\n        /* \"#utility.yul\":6230:6252   */\n      swap1\n      pop\n        /* \"#utility.yul\":6105:6259   */\n      swap2\n      swap1\n      pop\n      jump\t// out\n        /* \"#utility.yul\":6265:6373   */\n    tag_90:\n        /* \"#utility.yul\":6342:6366   */\n      tag_194\n        /* \"#utility.yul\":6360:6365   */\n      dup2\n        /* \"#utility.yul\":6342:6366   */\n      tag_73\n      jump\t// in\n    tag_194:\n        /* \"#utility.yul\":6337:6340   */\n      dup3\n        /* \"#utility.yul\":6330:6367   */\n      mstore\n        /* \"#utility.yul\":6265:6373   */\n      pop\n      pop\n      jump\t// out\n        /* \"#utility.yul\":6379:6478   */\n    tag_91:\n        /* \"#utility.yul\":6431:6437   */\n      0x00\n        /* \"#utility.yul\":6465:6470   */\n      dup2\n        /* \"#utility.yul\":6459:6471   */\n      mload\n        /* \"#utility.yul\":6449:6471   */\n      swap1\n      pop\n        /* \"#utility.yul\":6379:6478   */\n      swap2\n      swap1\n      pop\n      jump\t// out\n        /* \"#utility.yul\":6484:6643   */\n    tag_92:\n        /* \"#utility.yul\":6558:6569   */\n      0x00\n        /* \"#utility.yul\":6592:6598   */\n      dup3\n        /* \"#utility.yul\":6587:6590   */\n      dup3\n        /* \"#utility.yul\":6580:6599   */\n      mstore\n        /* \"#utility.yul\":6632:6636   */\n      0x20\n        /* \"#utility.yul\":6627:6630   */\n      dup3\n        /* \"#utility.yul\":6623:6637   */\n      add\n        /* \"#utility.yul\":6608:6637   */\n      swap1\n      pop\n        /* \"#utility.yul\":6484:6643   */\n      swap3\n      swap2\n      pop\n      pop\n      jump\t// out\n        /* \"#utility.yul\":6649:6897   */\n    tag_93:\n        /* \"#utility.yul\":6731:6732   */\n      0x00\n        /* \"#utility.yul\":6741:6854   */\n    tag_198:\n        /* \"#utility.yul\":6755:6761   */\n      dup4\n        /* \"#utility.yul\":6752:6753   */\n      dup2\n        /* \"#utility.yul\":6749:6762   */\n      lt\n        /* \"#utility.yul\":6741:6854   */\n      iszero\n      tag_200\n      jumpi\n        /* \"#utility.yul\":6840:6841   */\n      dup1\n        /* \"#utility.yul\":6835:6838   */\n      dup3\n        /* \"#utility.yul\":6831:6842   */\n      add\n        /* \"#utility.yul\":6825:6843   */\n      mload\n        /* \"#utility.yul\":6821:6822   */\n      dup2\n        /* \"#utility.yul\":6816:6819   */\n      dup5\n        /* \"#utility.yul\":6812:6823   */\n      add\n        /* \"#utility.yul\":6805:6844   */\n      mstore\n        /* \"#utility.yul\":6777:6779   */\n      0x20\n        /* \"#utility.yul\":6774:6775   */\n      dup2\n        /* \"#utility.yul\":6770:6780   */\n      add\n        /* \"#utility.yul\":6765:6780   */\n      swap1\n      pop\n        /* \"#utility.yul\":6741:6854   */\n      jump(tag_198)\n    tag_200:\n        /* \"#utility.yul\":6888:6889   */\n      0x00\n        /* \"#utility.yul\":6879:6885   */\n      dup5\n        /* \"#utility.yul\":6874:6877   */\n      dup5\n        /* \"#utility.yul\":6870:6886   */\n      add\n        /* \"#utility.yul\":6863:6890   */\n      mstore\n        /* \"#utility.yul\":6711:6897   */\n      pop\n        /* \"#utility.yul\":6649:6897   */\n      pop\n      pop\n      pop\n      jump\t// out\n        /* \"#utility.yul\":6903:7260   */\n    tag_94:\n        /* \"#utility.yul\":6981:6984   */\n      0x00\n        /* \"#utility.yul\":7009:7048   */\n      tag_202\n        /* \"#utility.yul\":7042:7047   */\n      dup3\n        /* \"#utility.yul\":7009:7048   */\n      tag_91\n      jump\t// in\n    tag_202:\n        /* \"#utility.yul\":7064:7125   */\n      tag_203\n        /* \"#utility.yul\":7118:7124   */\n      dup2\n        /* \"#utility.yul\":7113:7116   */\n      dup6\n        /* \"#utility.yul\":7064:7125   */\n      tag_92\n      jump\t// in\n    tag_203:\n        /* \"#utility.yul\":7057:7125   */\n      swap4\n      pop\n        /* \"#utility.yul\":7134:7199   */\n      tag_204\n        /* \"#utility.yul\":7192:7198   */\n      dup2\n        /* \"#utility.yul\":7187:7190   */\n      dup6\n        /* \"#utility.yul\":7180:7184   */\n      0x20\n        /* \"#utility.yul\":7173:7178   */\n      dup7\n        /* \"#utility.yul\":7169:7185   */\n      add\n        /* \"#utility.yul\":7134:7199   */\n      tag_93\n      jump\t// in\n    tag_204:\n        /* \"#utility.yul\":7224:7253   */\n      tag_205\n        /* \"#utility.yul\":7246:7252   */\n      dup2\n        /* \"#utility.yul\":7224:7253   */\n      tag_78\n      jump\t// in\n    tag_205:\n        /* \"#utility.yul\":7219:7222   */\n      dup5\n        /* \"#utility.yul\":7215:7254   */\n      add\n        /* \"#utility.yul\":7208:7254   */\n      swap2\n      pop\n        /* \"#utility.yul\":6985:7260   */\n      pop\n        /* \"#utility.yul\":6903:7260   */\n      swap3\n      swap2\n      pop\n      pop\n      jump\t// out\n        /* \"#utility.yul\":7338:8618   */\n    tag_95:\n        /* \"#utility.yul\":7441:7444   */\n      0x00\n        /* \"#utility.yul\":7477:7481   */\n      0xa0\n        /* \"#utility.yul\":7472:7475   */\n      dup4\n        /* \"#utility.yul\":7468:7482   */\n      add\n        /* \"#utility.yul\":7568:7572   */\n      0x00\n        /* \"#utility.yul\":7561:7566   */\n      dup4\n        /* \"#utility.yul\":7557:7573   */\n      add\n        /* \"#utility.yul\":7551:7574   */\n      mload\n        /* \"#utility.yul\":7587:7650   */\n      tag_207\n        /* \"#utility.yul\":7644:7648   */\n      0x00\n        /* \"#utility.yul\":7639:7642   */\n      dup7\n        /* \"#utility.yul\":7635:7649   */\n      add\n        /* \"#utility.yul\":7621:7633   */\n      dup3\n        /* \"#utility.yul\":7587:7650   */\n      tag_90\n      jump\t// in\n    tag_207:\n        /* \"#utility.yul\":7492:7660   */\n      pop\n        /* \"#utility.yul\":7749:7753   */\n      0x20\n        /* \"#utility.yul\":7742:7747   */\n      dup4\n        /* \"#utility.yul\":7738:7754   */\n      add\n        /* \"#utility.yul\":7732:7755   */\n      mload\n        /* \"#utility.yul\":7802:7805   */\n      dup5\n        /* \"#utility.yul\":7796:7800   */\n      dup3\n        /* \"#utility.yul\":7792:7806   */\n      sub\n        /* \"#utility.yul\":7785:7789   */\n      0x20\n        /* \"#utility.yul\":7780:7783   */\n      dup7\n        /* \"#utility.yul\":7776:7790   */\n      add\n        /* \"#utility.yul\":7769:7807   */\n      mstore\n        /* \"#utility.yul\":7828:7901   */\n      tag_208\n        /* \"#utility.yul\":7896:7900   */\n      dup3\n        /* \"#utility.yul\":7882:7894   */\n      dup3\n        /* \"#utility.yul\":7828:7901   */\n      tag_94\n      jump\t// in\n    tag_208:\n        /* \"#utility.yul\":7820:7901   */\n      swap2\n      pop\n        /* \"#utility.yul\":7670:7912   */\n      pop\n        /* \"#utility.yul\":7999:8003   */\n      0x40\n        /* \"#utility.yul\":7992:7997   */\n      dup4\n        /* \"#utility.yul\":7988:8004   */\n      add\n        /* \"#utility.yul\":7982:8005   */\n      mload\n        /* \"#utility.yul\":8052:8055   */\n      dup5\n        /* \"#utility.yul\":8046:8050   */\n      dup3\n        /* \"#utility.yul\":8042:8056   */\n      sub\n        /* \"#utility.yul\":8035:8039   */\n      0x40\n        /* \"#utility.yul\":8030:8033   */\n      dup7\n        /* \"#utility.yul\":8026:8040   */\n      add\n        /* \"#utility.yul\":8019:8057   */\n      mstore\n        /* \"#utility.yul\":8078:8151   */\n      tag_209\n        /* \"#utility.yul\":8146:8150   */\n      dup3\n        /* \"#utility.yul\":8132:8144   */\n      dup3\n        /* \"#utility.yul\":8078:8151   */\n      tag_94\n      jump\t// in\n    tag_209:\n        /* \"#utility.yul\":8070:8151   */\n      swap2\n      pop\n        /* \"#utility.yul\":7922:8162   */\n      pop\n        /* \"#utility.yul\":8249:8253   */\n      0x60\n        /* \"#utility.yul\":8242:8247   */\n      dup4\n        /* \"#utility.yul\":8238:8254   */\n      add\n        /* \"#utility.yul\":8232:8255   */\n      mload\n        /* \"#utility.yul\":8302:8305   */\n      dup5\n        /* \"#utility.yul\":8296:8300   */\n      dup3\n        /* \"#utility.yul\":8292:8306   */\n      sub\n        /* \"#utility.yul\":8285:8289   */\n      0x60\n        /* \"#utility.yul\":8280:8283   */\n      dup7\n        /* \"#utility.yul\":8276:8290   */\n      add\n        /* \"#utility.yul\":8269:8307   */\n      mstore\n        /* \"#utility.yul\":8328:8401   */\n      tag_210\n        /* \"#utility.yul\":8396:8400   */\n      dup3\n        /* \"#utility.yul\":8382:8394   */\n      dup3\n        /* \"#utility.yul\":8328:8401   */\n      tag_94\n      jump\t// in\n    tag_210:\n        /* \"#utility.yul\":8320:8401   */\n      swap2\n      pop\n        /* \"#utility.yul\":8172:8412   */\n      pop\n        /* \"#utility.yul\":8499:8503   */\n      0x80\n        /* \"#utility.yul\":8492:8497   */\n      dup4\n        /* \"#utility.yul\":8488:8504   */\n      add\n        /* \"#utility.yul\":8482:8505   */\n      mload\n        /* \"#utility.yul\":8518:8581   */\n      tag_211\n        /* \"#utility.yul\":8575:8579   */\n      0x80\n        /* \"#utility.yul\":8570:8573   */\n      dup7\n        /* \"#utility.yul\":8566:8580   */\n      add\n        /* \"#utility.yul\":8552:8564   */\n      dup3\n        /* \"#utility.yul\":8518:8581   */\n      tag_90\n      jump\t// in\n    tag_211:\n        /* \"#utility.yul\":8422:8591   */\n      pop\n        /* \"#utility.yul\":8608:8612   */\n      dup1\n        /* \"#utility.yul\":8601:8612   */\n      swap2\n      pop\n        /* \"#utility.yul\":7446:8618   */\n      pop\n        /* \"#utility.yul\":7338:8618   */\n      swap3\n      swap2\n      pop\n      pop\n      jump\t// out\n        /* \"#utility.yul\":8624:8868   */\n    tag_96:\n        /* \"#utility.yul\":8737:8747   */\n      0x00\n        /* \"#utility.yul\":8772:8862   */\n      tag_213\n        /* \"#utility.yul\":8858:8861   */\n      dup4\n        /* \"#utility.yul\":8850:8856   */\n      dup4\n        /* \"#utility.yul\":8772:8862   */\n      tag_95\n      jump\t// in\n    tag_213:\n        /* \"#utility.yul\":8758:8862   */\n      swap1\n      pop\n        /* \"#utility.yul\":8624:8868   */\n      swap3\n      swap2\n      pop\n      pop\n      jump\t// out\n        /* \"#utility.yul\":8874:9009   */\n    tag_97:\n        /* \"#utility.yul\":8966:8970   */\n      0x00\n        /* \"#utility.yul\":8998:9002   */\n      0x20\n        /* \"#utility.yul\":8993:8996   */\n      dup3\n        /* \"#utility.yul\":8989:9003   */\n      add\n        /* \"#utility.yul\":8981:9003   */\n      swap1\n      pop\n        /* \"#utility.yul\":8874:9009   */\n      swap2\n      swap1\n      pop\n      jump\t// out\n        /* \"#utility.yul\":9091:10178   */\n    tag_98:\n        /* \"#utility.yul\":9254:9257   */\n      0x00\n        /* \"#utility.yul\":9283:9359   */\n      tag_216\n        /* \"#utility.yul\":9353:9358   */\n      dup3\n        /* \"#utility.yul\":9283:9359   */\n      tag_87\n      jump\t// in\n    tag_216:\n        /* \"#utility.yul\":9375:9483   */\n      tag_217\n        /* \"#utility.yul\":9476:9482   */\n      dup2\n        /* \"#utility.yul\":9471:9474   */\n      dup6\n        /* \"#utility.yul\":9375:9483   */\n      tag_88\n      jump\t// in\n    tag_217:\n        /* \"#utility.yul\":9368:9483   */\n      swap4\n      pop\n        /* \"#utility.yul\":9509:9512   */\n      dup4\n        /* \"#utility.yul\":9554:9558   */\n      0x20\n        /* \"#utility.yul\":9546:9552   */\n      dup3\n        /* \"#utility.yul\":9542:9559   */\n      mul\n        /* \"#utility.yul\":9537:9540   */\n      dup6\n        /* \"#utility.yul\":9533:9560   */\n      add\n        /* \"#utility.yul\":9584:9662   */\n      tag_218\n        /* \"#utility.yul\":9656:9661   */\n      dup6\n        /* \"#utility.yul\":9584:9662   */\n      tag_89\n      jump\t// in\n    tag_218:\n        /* \"#utility.yul\":9685:9692   */\n      dup1\n        /* \"#utility.yul\":9716:9717   */\n      0x00\n        /* \"#utility.yul\":9701:10133   */\n    tag_219:\n        /* \"#utility.yul\":9726:9732   */\n      dup6\n        /* \"#utility.yul\":9723:9724   */\n      dup2\n        /* \"#utility.yul\":9720:9733   */\n      lt\n        /* \"#utility.yul\":9701:10133   */\n      iszero\n      tag_221\n      jumpi\n        /* \"#utility.yul\":9797:9806   */\n      dup5\n        /* \"#utility.yul\":9791:9795   */\n      dup5\n        /* \"#utility.yul\":9787:9807   */\n      sub\n        /* \"#utility.yul\":9782:9785   */\n      dup10\n        /* \"#utility.yul\":9775:9808   */\n      mstore\n        /* \"#utility.yul\":9848:9854   */\n      dup2\n        /* \"#utility.yul\":9842:9855   */\n      mload\n        /* \"#utility.yul\":9876:9984   */\n      tag_222\n        /* \"#utility.yul\":9979:9983   */\n      dup6\n        /* \"#utility.yul\":9964:9977   */\n      dup3\n        /* \"#utility.yul\":9876:9984   */\n      tag_96\n      jump\t// in\n    tag_222:\n        /* \"#utility.yul\":9868:9984   */\n      swap5\n      pop\n        /* \"#utility.yul\":10007:10089   */\n      tag_223\n        /* \"#utility.yul\":10082:10088   */\n      dup4\n        /* \"#utility.yul\":10007:10089   */\n      tag_97\n      jump\t// in\n    tag_223:\n        /* \"#utility.yul\":9997:10089   */\n      swap3\n      pop\n        /* \"#utility.yul\":10118:10122   */\n      0x20\n        /* \"#utility.yul\":10113:10116   */\n      dup11\n        /* \"#utility.yul\":10109:10123   */\n      add\n        /* \"#utility.yul\":10102:10123   */\n      swap10\n      pop\n        /* \"#utility.yul\":9761:10133   */\n      pop\n        /* \"#utility.yul\":9748:9749   */\n      0x01\n        /* \"#utility.yul\":9745:9746   */\n      dup2\n        /* \"#utility.yul\":9741:9750   */\n      add\n        /* \"#utility.yul\":9736:9750   */\n      swap1\n      pop\n        /* \"#utility.yul\":9701:10133   */\n      jump(tag_219)\n    tag_221:\n        /* \"#utility.yul\":9705:9719   */\n      pop\n        /* \"#utility.yul\":10149:10153   */\n      dup3\n        /* \"#utility.yul\":10142:10153   */\n      swap8\n      pop\n        /* \"#utility.yul\":10169:10172   */\n      dup8\n        /* \"#utility.yul\":10162:10172   */\n      swap6\n      pop\n        /* \"#utility.yul\":9259:10178   */\n      pop\n      pop\n      pop\n      pop\n      pop\n        /* \"#utility.yul\":9091:10178   */\n      swap3\n      swap2\n      pop\n      pop\n      jump\t// out\n        /* \"#utility.yul\":10184:10645   */\n    tag_24:\n        /* \"#utility.yul\":10371:10375   */\n      0x00\n        /* \"#utility.yul\":10409:10411   */\n      0x20\n        /* \"#utility.yul\":10398:10407   */\n      dup3\n        /* \"#utility.yul\":10394:10412   */\n      add\n        /* \"#utility.yul\":10386:10412   */\n      swap1\n      pop\n        /* \"#utility.yul\":10458:10467   */\n      dup2\n        /* \"#utility.yul\":10452:10456   */\n      dup2\n        /* \"#utility.yul\":10448:10468   */\n      sub\n        /* \"#utility.yul\":10444:10445   */\n      0x00\n        /* \"#utility.yul\":10433:10442   */\n      dup4\n        /* \"#utility.yul\":10429:10446   */\n      add\n        /* \"#utility.yul\":10422:10469   */\n      mstore\n        /* \"#utility.yul\":10486:10638   */\n      tag_225\n        /* \"#utility.yul\":10633:10637   */\n      dup2\n        /* \"#utility.yul\":10624:10630   */\n      dup5\n        /* \"#utility.yul\":10486:10638   */\n      tag_98\n      jump\t// in\n    tag_225:\n        /* \"#utility.yul\":10478:10638   */\n      swap1\n      pop\n        /* \"#utility.yul\":10184:10645   */\n      swap3\n      swap2\n      pop\n      pop\n      jump\t// out\n        /* \"#utility.yul\":10651:10820   */\n    tag_99:\n        /* \"#utility.yul\":10735:10746   */\n      0x00\n        /* \"#utility.yul\":10769:10775   */\n      dup3\n        /* \"#utility.yul\":10764:10767   */\n      dup3\n        /* \"#utility.yul\":10757:10776   */\n      mstore\n        /* \"#utility.yul\":10809:10813   */\n      0x20\n        /* \"#utility.yul\":10804:10807   */\n      dup3\n        /* \"#utility.yul\":10800:10814   */\n      add\n        /* \"#utility.yul\":10785:10814   */\n      swap1\n      pop\n        /* \"#utility.yul\":10651:10820   */\n      swap3\n      swap2\n      pop\n      pop\n      jump\t// out\n        /* \"#utility.yul\":10826:11049   */\n    tag_100:\n        /* \"#utility.yul\":10966:11000   */\n      0x4f6e6c79206f776e65722063616e2061636365737320746869732066756e6374\n        /* \"#utility.yul\":10962:10963   */\n      0x00\n        /* \"#utility.yul\":10954:10960   */\n      dup3\n        /* \"#utility.yul\":10950:10964   */\n      add\n        /* \"#utility.yul\":10943:11001   */\n      mstore\n        /* \"#utility.yul\":11035:11041   */\n      0x696f6e2e00000000000000000000000000000000000000000000000000000000\n        /* \"#utility.yul\":11030:11032   */\n      0x20\n        /* \"#utility.yul\":11022:11028   */\n      dup3\n        /* \"#utility.yul\":11018:11033   */\n      add\n        /* \"#utility.yul\":11011:11042   */\n      mstore\n        /* \"#utility.yul\":10826:11049   */\n      pop\n      jump\t// out\n        /* \"#utility.yul\":11055:11421   */\n    tag_101:\n        /* \"#utility.yul\":11197:11200   */\n      0x00\n        /* \"#utility.yul\":11218:11285   */\n      tag_229\n        /* \"#utility.yul\":11282:11284   */\n      0x24\n        /* \"#utility.yul\":11277:11280   */\n      dup4\n        /* \"#utility.yul\":11218:11285   */\n      tag_99\n      jump\t// in\n    tag_229:\n        /* \"#utility.yul\":11211:11285   */\n      swap2\n      pop\n        /* \"#utility.yul\":11294:11387   */\n      tag_230\n        /* \"#utility.yul\":11383:11386   */\n      dup3\n        /* \"#utility.yul\":11294:11387   */\n      tag_100\n      jump\t// in\n    tag_230:\n        /* \"#utility.yul\":11412:11414   */\n      0x40\n        /* \"#utility.yul\":11407:11410   */\n      dup3\n        /* \"#utility.yul\":11403:11415   */\n      add\n        /* \"#utility.yul\":11396:11415   */\n      swap1\n      pop\n        /* \"#utility.yul\":11055:11421   */\n      swap2\n      swap1\n      pop\n      jump\t// out\n        /* \"#utility.yul\":11427:11846   */\n    tag_28:\n        /* \"#utility.yul\":11593:11597   */\n      0x00\n        /* \"#utility.yul\":11631:11633   */\n      0x20\n        /* \"#utility.yul\":11620:11629   */\n      dup3\n        /* \"#utility.yul\":11616:11634   */\n      add\n        /* \"#utility.yul\":11608:11634   */\n      swap1\n      pop\n        /* \"#utility.yul\":11680:11689   */\n      dup2\n        /* \"#utility.yul\":11674:11678   */\n      dup2\n        /* \"#utility.yul\":11670:11690   */\n      sub\n        /* \"#utility.yul\":11666:11667   */\n      0x00\n        /* \"#utility.yul\":11655:11664   */\n      dup4\n        /* \"#utility.yul\":11651:11668   */\n      add\n        /* \"#utility.yul\":11644:11691   */\n      mstore\n        /* \"#utility.yul\":11708:11839   */\n      tag_232\n        /* \"#utility.yul\":11834:11838   */\n      dup2\n        /* \"#utility.yul\":11708:11839   */\n      tag_101\n      jump\t// in\n    tag_232:\n        /* \"#utility.yul\":11700:11839   */\n      swap1\n      pop\n        /* \"#utility.yul\":11427:11846   */\n      swap2\n      swap1\n      pop\n      jump\t// out\n        /* \"#utility.yul\":11852:12089   */\n    tag_102:\n        /* \"#utility.yul\":11992:12026   */\n      0x4f6e6c7920617574686f72697a65642050726f76696465722063616e20616363\n        /* \"#utility.yul\":11988:11989   */\n      0x00\n        /* \"#utility.yul\":11980:11986   */\n      dup3\n        /* \"#utility.yul\":11976:11990   */\n      add\n        /* \"#utility.yul\":11969:12027   */\n      mstore\n        /* \"#utility.yul\":12061:12081   */\n      0x65737320746869732066756e6374696f6e2e0000000000000000000000000000\n        /* \"#utility.yul\":12056:12058   */\n      0x20\n        /* \"#utility.yul\":12048:12054   */\n      dup3\n        /* \"#utility.yul\":12044:12059   */\n      add\n        /* \"#utility.yul\":12037:12082   */\n      mstore\n        /* \"#utility.yul\":11852:12089   */\n      pop\n      jump\t// out\n        /* \"#utility.yul\":12095:12461   */\n    tag_103:\n        /* \"#utility.yul\":12237:12240   */\n      0x00\n        /* \"#utility.yul\":12258:12325   */\n      tag_235\n        /* \"#utility.yul\":12322:12324   */\n      0x32\n        /* \"#utility.yul\":12317:12320   */\n      dup4\n        /* \"#utility.yul\":12258:12325   */\n      tag_99\n      jump\t// in\n    tag_235:\n        /* \"#utility.yul\":12251:12325   */\n      swap2\n      pop\n        /* \"#utility.yul\":12334:12427   */\n      tag_236\n        /* \"#utility.yul\":12423:12426   */\n      dup3\n        /* \"#utility.yul\":12334:12427   */\n      tag_102\n      jump\t// in\n    tag_236:\n        /* \"#utility.yul\":12452:12454   */\n      0x40\n        /* \"#utility.yul\":12447:12450   */\n      dup3\n        /* \"#utility.yul\":12443:12455   */\n      add\n        /* \"#utility.yul\":12436:12455   */\n      swap1\n      pop\n        /* \"#utility.yul\":12095:12461   */\n      swap2\n      swap1\n      pop\n      jump\t// out\n        /* \"#utility.yul\":12467:12886   */\n    tag_33:\n        /* \"#utility.yul\":12633:12637   */\n      0x00\n        /* \"#utility.yul\":12671:12673   */\n      0x20\n        /* \"#utility.yul\":12660:12669   */\n      dup3\n        /* \"#utility.yul\":12656:12674   */\n      add\n        /* \"#utility.yul\":12648:12674   */\n      swap1\n      pop\n        /* \"#utility.yul\":12720:12729   */\n      dup2\n        /* \"#utility.yul\":12714:12718   */\n      dup2\n        /* \"#utility.yul\":12710:12730   */\n      sub\n        /* \"#utility.yul\":12706:12707   */\n      0x00\n        /* \"#utility.yul\":12695:12704   */\n      dup4\n        /* \"#utility.yul\":12691:12708   */\n      add\n        /* \"#utility.yul\":12684:12731   */\n      mstore\n        /* \"#utility.yul\":12748:12879   */\n      tag_238\n        /* \"#utility.yul\":12874:12878   */\n      dup2\n        /* \"#utility.yul\":12748:12879   */\n      tag_103\n      jump\t// in\n    tag_238:\n        /* \"#utility.yul\":12740:12879   */\n      swap1\n      pop\n        /* \"#utility.yul\":12467:12886   */\n      swap2\n      swap1\n      pop\n      jump\t// out\n        /* \"#utility.yul\":12892:13072   */\n    tag_104:\n        /* \"#utility.yul\":12940:13017   */\n      0x4e487b7100000000000000000000000000000000000000000000000000000000\n        /* \"#utility.yul\":12937:12938   */\n      0x00\n        /* \"#utility.yul\":12930:13018   */\n      mstore\n        /* \"#utility.yul\":13037:13041   */\n      0x11\n        /* \"#utility.yul\":13034:13035   */\n      0x04\n        /* \"#utility.yul\":13027:13042   */\n      mstore\n        /* \"#utility.yul\":13061:13065   */\n      0x24\n        /* \"#utility.yul\":13058:13059   */\n      0x00\n        /* \"#utility.yul\":13051:13066   */\n      revert\n        /* \"#utility.yul\":13078:13269   */\n    tag_36:\n        /* \"#utility.yul\":13118:13121   */\n      0x00\n        /* \"#utility.yul\":13137:13157   */\n      tag_241\n        /* \"#utility.yul\":13155:13156   */\n      dup3\n        /* \"#utility.yul\":13137:13157   */\n      tag_73\n      jump\t// in\n    tag_241:\n        /* \"#utility.yul\":13132:13157   */\n      swap2\n      pop\n        /* \"#utility.yul\":13171:13191   */\n      tag_242\n        /* \"#utility.yul\":13189:13190   */\n      dup4\n        /* \"#utility.yul\":13171:13191   */\n      tag_73\n      jump\t// in\n    tag_242:\n        /* \"#utility.yul\":13166:13191   */\n      swap3\n      pop\n        /* \"#utility.yul\":13214:13215   */\n      dup3\n        /* \"#utility.yul\":13211:13212   */\n      dup3\n        /* \"#utility.yul\":13207:13216   */\n      add\n        /* \"#utility.yul\":13200:13216   */\n      swap1\n      pop\n        /* \"#utility.yul\":13235:13238   */\n      dup1\n        /* \"#utility.yul\":13232:13233   */\n      dup3\n        /* \"#utility.yul\":13229:13239   */\n      gt\n        /* \"#utility.yul\":13226:13262   */\n      iszero\n      tag_243\n      jumpi\n        /* \"#utility.yul\":13242:13260   */\n      tag_244\n      tag_104\n      jump\t// in\n    tag_244:\n        /* \"#utility.yul\":13226:13262   */\n    tag_243:\n        /* \"#utility.yul\":13078:13269   */\n      swap3\n      swap2\n      pop\n      pop\n      jump\t// out\n        /* \"#utility.yul\":13275:13455   */\n    tag_105:\n        /* \"#utility.yul\":13323:13400   */\n      0x4e487b7100000000000000000000000000000000000000000000000000000000\n        /* \"#utility.yul\":13320:13321   */\n      0x00\n        /* \"#utility.yul\":13313:13401   */\n      mstore\n        /* \"#utility.yul\":13420:13424   */\n      0x22\n        /* \"#utility.yul\":13417:13418   */\n      0x04\n        /* \"#utility.yul\":13410:13425   */\n      mstore\n        /* \"#utility.yul\":13444:13448   */\n      0x24\n        /* \"#utility.yul\":13441:13442   */\n      0x00\n        /* \"#utility.yul\":13434:13449   */\n      revert\n        /* \"#utility.yul\":13461:13781   */\n    tag_51:\n        /* \"#utility.yul\":13505:13511   */\n      0x00\n        /* \"#utility.yul\":13542:13543   */\n      0x02\n        /* \"#utility.yul\":13536:13540   */\n      dup3\n        /* \"#utility.yul\":13532:13544   */\n      div\n        /* \"#utility.yul\":13522:13544   */\n      swap1\n      pop\n        /* \"#utility.yul\":13589:13590   */\n      0x01\n        /* \"#utility.yul\":13583:13587   */\n      dup3\n        /* \"#utility.yul\":13579:13591   */\n      and\n        /* \"#utility.yul\":13610:13628   */\n      dup1\n        /* \"#utility.yul\":13600:13681   */\n      tag_247\n      jumpi\n        /* \"#utility.yul\":13666:13670   */\n      0x7f\n        /* \"#utility.yul\":13658:13664   */\n      dup3\n        /* \"#utility.yul\":13654:13671   */\n      and\n        /* \"#utility.yul\":13644:13671   */\n      swap2\n      pop\n        /* \"#utility.yul\":13600:13681   */\n    tag_247:\n        /* \"#utility.yul\":13728:13730   */\n      0x20\n        /* \"#utility.yul\":13720:13726   */\n      dup3\n        /* \"#utility.yul\":13717:13731   */\n      lt\n        /* \"#utility.yul\":13697:13715   */\n      dup2\n        /* \"#utility.yul\":13694:13732   */\n      sub\n        /* \"#utility.yul\":13691:13775   */\n      tag_248\n      jumpi\n        /* \"#utility.yul\":13747:13765   */\n      tag_249\n      tag_105\n      jump\t// in\n    tag_249:\n        /* \"#utility.yul\":13691:13775   */\n    tag_248:\n        /* \"#utility.yul\":13512:13781   */\n      pop\n        /* \"#utility.yul\":13461:13781   */\n      swap2\n      swap1\n      pop\n      jump\t// out\n        /* \"#utility.yul\":13787:13928   */\n    tag_106:\n        /* \"#utility.yul\":13836:13840   */\n      0x00\n        /* \"#utility.yul\":13859:13862   */\n      dup2\n        /* \"#utility.yul\":13851:13862   */\n      swap1\n      pop\n        /* \"#utility.yul\":13882:13885   */\n      dup2\n        /* \"#utility.yul\":13879:13880   */\n      0x00\n        /* \"#utility.yul\":13872:13886   */\n      mstore\n        /* \"#utility.yul\":13916:13920   */\n      0x20\n        /* \"#utility.yul\":13913:13914   */\n      0x00\n        /* \"#utility.yul\":13903:13921   */\n      keccak256\n        /* \"#utility.yul\":13895:13921   */\n      swap1\n      pop\n        /* \"#utility.yul\":13787:13928   */\n      swap2\n      swap1\n      pop\n      jump\t// out\n        /* \"#utility.yul\":13934:14027   */\n    tag_107:\n        /* \"#utility.yul\":13971:13977   */\n      0x00\n        /* \"#utility.yul\":14018:14020   */\n      0x20\n        /* \"#utility.yul\":14013:14015   */\n      0x1f\n        /* \"#utility.yul\":14006:14011   */\n      dup4\n        /* \"#utility.yul\":14002:14016   */\n      add\n        /* \"#utility.yul\":13998:14021   */\n      div\n        /* \"#utility.yul\":13988:14021   */\n      swap1\n      pop\n        /* \"#utility.yul\":13934:14027   */\n      swap2\n      swap1\n      pop\n      jump\t// out\n        /* \"#utility.yul\":14033:14140   */\n    tag_108:\n        /* \"#utility.yul\":14077:14085   */\n      0x00\n        /* \"#utility.yul\":14127:14132   */\n      dup3\n        /* \"#utility.yul\":14121:14125   */\n      dup3\n        /* \"#utility.yul\":14117:14133   */\n      shl\n        /* \"#utility.yul\":14096:14133   */\n      swap1\n      pop\n        /* \"#utility.yul\":14033:14140   */\n      swap3\n      swap2\n      pop\n      pop\n      jump\t// out\n        /* \"#utility.yul\":14146:14539   */\n    tag_109:\n        /* \"#utility.yul\":14215:14221   */\n      0x00\n        /* \"#utility.yul\":14265:14266   */\n      0x08\n        /* \"#utility.yul\":14253:14263   */\n      dup4\n        /* \"#utility.yul\":14249:14267   */\n      mul\n        /* \"#utility.yul\":14288:14385   */\n      tag_254\n        /* \"#utility.yul\":14318:14384   */\n      0xffffffffffffffffffffffffffffffffffffffffffffffffffffffffffffffff\n        /* \"#utility.yul\":14307:14316   */\n      dup3\n        /* \"#utility.yul\":14288:14385   */\n      tag_108\n      jump\t// in\n    tag_254:\n        /* \"#utility.yul\":14406:14445   */\n      tag_255\n        /* \"#utility.yul\":14436:14444   */\n      dup7\n        /* \"#utility.yul\":14425:14434   */\n      dup4\n        /* \"#utility.yul\":14406:14445   */\n      tag_108\n      jump\t// in\n    tag_255:\n        /* \"#utility.yul\":14394:14445   */\n      swap6\n      pop\n        /* \"#utility.yul\":14478:14482   */\n      dup1\n        /* \"#utility.yul\":14474:14483   */\n      not\n        /* \"#utility.yul\":14467:14472   */\n      dup5\n        /* \"#utility.yul\":14463:14484   */\n      and\n        /* \"#utility.yul\":14454:14484   */\n      swap4\n      pop\n        /* \"#utility.yul\":14527:14531   */\n      dup1\n        /* \"#utility.yul\":14517:14525   */\n      dup7\n        /* \"#utility.yul\":14513:14532   */\n      and\n        /* \"#utility.yul\":14506:14511   */\n      dup5\n        /* \"#utility.yul\":14503:14533   */\n      or\n        /* \"#utility.yul\":14493:14533   */\n      swap3\n      pop\n        /* \"#utility.yul\":14222:14539   */\n      pop\n      pop\n        /* \"#utility.yul\":14146:14539   */\n      swap4\n      swap3\n      pop\n      pop\n      pop\n      jump\t// out\n        /* \"#utility.yul\":14545:14605   */\n    tag_110:\n        /* \"#utility.yul\":14573:14576   */\n      0x00\n        /* \"#utility.yul\":14594:14599   */\n      dup2\n        /* \"#utility.yul\":14587:14599   */\n      swap1\n      pop\n        /* \"#utility.yul\":14545:14605   */\n      swap2\n      swap1\n      pop\n      jump\t// out\n        /* \"#utility.yul\":14611:14753   */\n    tag_111:\n        /* \"#utility.yul\":14661:14670   */\n      0x00\n        /* \"#utility.yul\":14694:14747   */\n      tag_258\n        /* \"#utility.yul\":14712:14746   */\n      tag_259\n        /* \"#utility.yul\":14721:14745   */\n      tag_260\n        /* \"#utility.yul\":14739:14744   */\n      dup5\n        /* \"#utility.yul\":14721:14745   */\n      tag_73\n      jump\t// in\n    tag_260:\n        /* \"#utility.yul\":14712:14746   */\n      tag_110\n      jump\t// in\n    tag_259:\n        /* \"#utility.yul\":14694:14747   */\n      tag_73\n      jump\t// in\n    tag_258:\n        /* \"#utility.yul\":14681:14747   */\n      swap1\n      pop\n        /* \"#utility.yul\":14611:14753   */\n      swap2\n      swap1\n      pop\n      jump\t// out\n        /* \"#utility.yul\":14759:14834   */\n    tag_112:\n        /* \"#utility.yul\":14802:14805   */\n      0x00\n        /* \"#utility.yul\":14823:14828   */\n      dup2\n        /* \"#utility.yul\":14816:14828   */\n      swap1\n      pop\n        /* \"#utility.yul\":14759:14834   */\n      swap2\n      swap1\n      pop\n      jump\t// out\n        /* \"#utility.yul\":14840:15109   */\n    tag_113:\n        /* \"#utility.yul\":14950:14989   */\n      tag_263\n        /* \"#utility.yul\":14981:14988   */\n      dup4\n        /* \"#utility.yul\":14950:14989   */\n      tag_111\n      jump\t// in\n    tag_263:\n        /* \"#utility.yul\":15011:15102   */\n      tag_264\n        /* \"#utility.yul\":15060:15101   */\n      tag_265\n        /* \"#utility.yul\":15084:15100   */\n      dup3\n        /* \"#utility.yul\":15060:15101   */\n      tag_112\n      jump\t// in\n    tag_265:\n        /* \"#utility.yul\":15052:15058   */\n      dup5\n        /* \"#utility.yul\":15045:15049   */\n      dup5\n        /* \"#utility.yul\":15039:15050   */\n      sload\n        /* \"#utility.yul\":15011:15102   */\n      tag_109\n      jump\t// in\n    tag_264:\n        /* \"#utility.yul\":15005:15009   */\n      dup3\n        /* \"#utility.yul\":14998:15103   */\n      sstore\n        /* \"#utility.yul\":14916:15109   */\n      pop\n        /* \"#utility.yul\":14840:15109   */\n      pop\n      pop\n      pop\n      jump\t// out\n        /* \"#utility.yul\":15115:15188   */\n    tag_114:\n        /* \"#utility.yul\":15160:15163   */\n      0x00\n        /* \"#utility.yul\":15115:15188   */\n      swap1\n      jump\t// out\n        /* \"#utility.yul\":15194:15383   */\n    tag_115:\n        /* \"#utility.yul\":15271:15303   */\n      tag_268\n      tag_114\n      jump\t// in\n    tag_268:\n        /* \"#utility.yul\":15312:15377   */\n      tag_269\n        /* \"#utility.yul\":15370:15376   */\n      dup2\n        /* \"#utility.yul\":15362:15368   */\n      dup5\n        /* \"#utility.yul\":15356:15360   */\n      dup5\n        /* \"#utility.yul\":15312:15377   */\n      tag_113\n      jump\t// in\n    tag_269:\n        /* \"#utility.yul\":15247:15383   */\n      pop\n        /* \"#utility.yul\":15194:15383   */\n      pop\n      pop\n      jump\t// out\n        /* \"#utility.yul\":15389:15575   */\n    tag_116:\n        /* \"#utility.yul\":15449:15569   */\n    tag_271:\n        /* \"#utility.yul\":15466:15469   */\n      dup2\n        /* \"#utility.yul\":15459:15464   */\n      dup2\n        /* \"#utility.yul\":15456:15470   */\n      lt\n        /* \"#utility.yul\":15449:15569   */\n      iszero\n      tag_273\n      jumpi\n        /* \"#utility.yul\":15520:15559   */\n      tag_274\n        /* \"#utility.yul\":15557:15558   */\n      0x00\n        /* \"#utility.yul\":15550:15555   */\n      dup3\n        /* \"#utility.yul\":15520:15559   */\n      tag_115\n      jump\t// in\n    tag_274:\n        /* \"#utility.yul\":15493:15494   */\n      0x01\n        /* \"#utility.yul\":15486:15491   */\n      dup2\n        /* \"#utility.yul\":15482:15495   */\n      add\n        /* \"#utility.yul\":15473:15495   */\n      swap1\n      pop\n        /* \"#utility.yul\":15449:15569   */\n      jump(tag_271)\n    tag_273:\n        /* \"#utility.yul\":15389:15575   */\n      pop\n      pop\n      jump\t// out\n        /* \"#utility.yul\":15581:16124   */\n    tag_117:\n        /* \"#utility.yul\":15682:15684   */\n      0x1f\n        /* \"#utility.yul\":15677:15680   */\n      dup3\n        /* \"#utility.yul\":15674:15685   */\n      gt\n        /* \"#utility.yul\":15671:16117   */\n      iszero\n      tag_276\n      jumpi\n        /* \"#utility.yul\":15716:15754   */\n      tag_277\n        /* \"#utility.yul\":15748:15753   */\n      dup2\n        /* \"#utility.yul\":15716:15754   */\n      tag_106\n      jump\t// in\n    tag_277:\n        /* \"#utility.yul\":15800:15829   */\n      tag_278\n        /* \"#utility.yul\":15818:15828   */\n      dup5\n        /* \"#utility.yul\":15800:15829   */\n      tag_107\n      jump\t// in\n    tag_278:\n        /* \"#utility.yul\":15790:15798   */\n      dup2\n        /* \"#utility.yul\":15786:15830   */\n      add\n        /* \"#utility.yul\":15983:15985   */\n      0x20\n        /* \"#utility.yul\":15971:15981   */\n      dup6\n        /* \"#utility.yul\":15968:15986   */\n      lt\n        /* \"#utility.yul\":15965:16014   */\n      iszero\n      tag_279\n      jumpi\n        /* \"#utility.yul\":16004:16012   */\n      dup2\n        /* \"#utility.yul\":15989:16012   */\n      swap1\n      pop\n        /* \"#utility.yul\":15965:16014   */\n    tag_279:\n        /* \"#utility.yul\":16027:16107   */\n      tag_280\n        /* \"#utility.yul\":16083:16105   */\n      tag_281\n        /* \"#utility.yul\":16101:16104   */\n      dup6\n        /* \"#utility.yul\":16083:16105   */\n      tag_107\n      jump\t// in\n    tag_281:\n        /* \"#utility.yul\":16073:16081   */\n      dup4\n        /* \"#utility.yul\":16069:16106   */\n      add\n        /* \"#utility.yul\":16056:16067   */\n      dup3\n        /* \"#utility.yul\":16027:16107   */\n      tag_116\n      jump\t// in\n    tag_280:\n        /* \"#utility.yul\":15686:16117   */\n      pop\n      pop\n        /* \"#utility.yul\":15671:16117   */\n    tag_276:\n        /* \"#utility.yul\":15581:16124   */\n      pop\n      pop\n      pop\n      jump\t// out\n        /* \"#utility.yul\":16130:16247   */\n    tag_118:\n        /* \"#utility.yul\":16184:16192   */\n      0x00\n        /* \"#utility.yul\":16234:16239   */\n      dup3\n        /* \"#utility.yul\":16228:16232   */\n      dup3\n        /* \"#utility.yul\":16224:16240   */\n      shr\n        /* \"#utility.yul\":16203:16240   */\n      swap1\n      pop\n        /* \"#utility.yul\":16130:16247   */\n      swap3\n      swap2\n      pop\n      pop\n      jump\t// out\n        /* \"#utility.yul\":16253:16422   */\n    tag_119:\n        /* \"#utility.yul\":16297:16303   */\n      0x00\n        /* \"#utility.yul\":16330:16381   */\n      tag_284\n        /* \"#utility.yul\":16378:16379   */\n      0x00\n        /* \"#utility.yul\":16374:16380   */\n      not\n        /* \"#utility.yul\":16366:16371   */\n      dup5\n        /* \"#utility.yul\":16363:16364   */\n      0x08\n        /* \"#utility.yul\":16359:16372   */\n      mul\n        /* \"#utility.yul\":16330:16381   */\n      tag_118\n      jump\t// in\n    tag_284:\n        /* \"#utility.yul\":16326:16382   */\n      not\n        /* \"#utility.yul\":16411:16415   */\n      dup1\n        /* \"#utility.yul\":16405:16409   */\n      dup4\n        /* \"#utility.yul\":16401:16416   */\n      and\n        /* \"#utility.yul\":16391:16416   */\n      swap2\n      pop\n        /* \"#utility.yul\":16304:16422   */\n      pop\n        /* \"#utility.yul\":16253:16422   */\n      swap3\n      swap2\n      pop\n      pop\n      jump\t// out\n        /* \"#utility.yul\":16427:16722   */\n    tag_120:\n        /* \"#utility.yul\":16503:16507   */\n      0x00\n        /* \"#utility.yul\":16649:16678   */\n      tag_286\n        /* \"#utility.yul\":16674:16677   */\n      dup4\n        /* \"#utility.yul\":16668:16672   */\n      dup4\n        /* \"#utility.yul\":16649:16678   */\n      tag_119\n      jump\t// in\n    tag_286:\n        /* \"#utility.yul\":16641:16678   */\n      swap2\n      pop\n        /* \"#utility.yul\":16711:16714   */\n      dup3\n        /* \"#utility.yul\":16708:16709   */\n      0x02\n        /* \"#utility.yul\":16704:16715   */\n      mul\n        /* \"#utility.yul\":16698:16702   */\n      dup3\n        /* \"#utility.yul\":16695:16716   */\n      or\n        /* \"#utility.yul\":16687:16716   */\n      swap1\n      pop\n        /* \"#utility.yul\":16427:16722   */\n      swap3\n      swap2\n      pop\n      pop\n      jump\t// out\n        /* \"#utility.yul\":16727:18122   */\n    tag_39:\n        /* \"#utility.yul\":16844:16881   */\n      tag_288\n        /* \"#utility.yul\":16877:16880   */\n      dup3\n        /* \"#utility.yul\":16844:16881   */\n      tag_91\n      jump\t// in\n    tag_288:\n        /* \"#utility.yul\":16946:16964   */\n      0xffffffffffffffff\n        /* \"#utility.yul\":16938:16944   */\n      dup2\n        /* \"#utility.yul\":16935:16965   */\n      gt\n        /* \"#utility.yul\":16932:16988   */\n      iszero\n      tag_289\n      jumpi\n        /* \"#utility.yul\":16968:16986   */\n      tag_290\n      tag_79\n      jump\t// in\n    tag_290:\n        /* \"#utility.yul\":16932:16988   */\n    tag_289:\n        /* \"#utility.yul\":17012:17050   */\n      tag_291\n        /* \"#utility.yul\":17044:17048   */\n      dup3\n        /* \"#utility.yul\":17038:17049   */\n      sload\n        /* \"#utility.yul\":17012:17050   */\n      tag_51\n      jump\t// in\n    tag_291:\n        /* \"#utility.yul\":17097:17164   */\n      tag_292\n        /* \"#utility.yul\":17157:17163   */\n      dup3\n        /* \"#utility.yul\":17149:17155   */\n      dup3\n        /* \"#utility.yul\":17143:17147   */\n      dup6\n        /* \"#utility.yul\":17097:17164   */\n      tag_117\n      jump\t// in\n    tag_292:\n        /* \"#utility.yul\":17191:17192   */\n      0x00\n        /* \"#utility.yul\":17215:17219   */\n      0x20\n        /* \"#utility.yul\":17202:17219   */\n      swap1\n      pop\n        /* \"#utility.yul\":17247:17249   */\n      0x1f\n        /* \"#utility.yul\":17239:17245   */\n      dup4\n        /* \"#utility.yul\":17236:17250   */\n      gt\n        /* \"#utility.yul\":17264:17265   */\n      0x01\n        /* \"#utility.yul\":17259:17877   */\n      dup2\n      eq\n      tag_294\n      jumpi\n        /* \"#utility.yul\":17921:17922   */\n      0x00\n        /* \"#utility.yul\":17938:17944   */\n      dup5\n        /* \"#utility.yul\":17935:18012   */\n      iszero\n      tag_295\n      jumpi\n        /* \"#utility.yul\":17987:17996   */\n      dup3\n        /* \"#utility.yul\":17982:17985   */\n      dup8\n        /* \"#utility.yul\":17978:17997   */\n      add\n        /* \"#utility.yul\":17972:17998   */\n      mload\n        /* \"#utility.yul\":17963:17998   */\n      swap1\n      pop\n        /* \"#utility.yul\":17935:18012   */\n    tag_295:\n        /* \"#utility.yul\":18038:18105   */\n      tag_296\n        /* \"#utility.yul\":18098:18104   */\n      dup6\n        /* \"#utility.yul\":18091:18096   */\n      dup3\n        /* \"#utility.yul\":18038:18105   */\n      tag_120\n      jump\t// in\n    tag_296:\n        /* \"#utility.yul\":18032:18036   */\n      dup7\n        /* \"#utility.yul\":18025:18106   */\n      sstore\n        /* \"#utility.yul\":17894:18116   */\n      pop\n        /* \"#utility.yul\":17229:18116   */\n      jump(tag_293)\n        /* \"#utility.yul\":17259:17877   */\n    tag_294:\n        /* \"#utility.yul\":17311:17315   */\n      0x1f\n        /* \"#utility.yul\":17307:17316   */\n      not\n        /* \"#utility.yul\":17299:17305   */\n      dup5\n        /* \"#utility.yul\":17295:17317   */\n      and\n        /* \"#utility.yul\":17345:17382   */\n      tag_297\n        /* \"#utility.yul\":17377:17381   */\n      dup7\n        /* \"#utility.yul\":17345:17382   */\n      tag_106\n      jump\t// in\n    tag_297:\n        /* \"#utility.yul\":17404:17405   */\n      0x00\n        /* \"#utility.yul\":17418:17626   */\n    tag_298:\n        /* \"#utility.yul\":17432:17439   */\n      dup3\n        /* \"#utility.yul\":17429:17430   */\n      dup2\n        /* \"#utility.yul\":17426:17440   */\n      lt\n        /* \"#utility.yul\":17418:17626   */\n      iszero\n      tag_300\n      jumpi\n        /* \"#utility.yul\":17511:17520   */\n      dup5\n        /* \"#utility.yul\":17506:17509   */\n      dup10\n        /* \"#utility.yul\":17502:17521   */\n      add\n        /* \"#utility.yul\":17496:17522   */\n      mload\n        /* \"#utility.yul\":17488:17494   */\n      dup3\n        /* \"#utility.yul\":17481:17523   */\n      sstore\n        /* \"#utility.yul\":17562:17563   */\n      0x01\n        /* \"#utility.yul\":17554:17560   */\n      dup3\n        /* \"#utility.yul\":17550:17564   */\n      add\n        /* \"#utility.yul\":17540:17564   */\n      swap2\n      pop\n        /* \"#utility.yul\":17609:17611   */\n      0x20\n        /* \"#utility.yul\":17598:17607   */\n      dup6\n        /* \"#utility.yul\":17594:17612   */\n      add\n        /* \"#utility.yul\":17581:17612   */\n      swap5\n      pop\n        /* \"#utility.yul\":17455:17459   */\n      0x20\n        /* \"#utility.yul\":17452:17453   */\n      dup2\n        /* \"#utility.yul\":17448:17460   */\n      add\n        /* \"#utility.yul\":17443:17460   */\n      swap1\n      pop\n        /* \"#utility.yul\":17418:17626   */\n      jump(tag_298)\n    tag_300:\n        /* \"#utility.yul\":17654:17660   */\n      dup7\n        /* \"#utility.yul\":17645:17652   */\n      dup4\n        /* \"#utility.yul\":17642:17661   */\n      lt\n        /* \"#utility.yul\":17639:17818   */\n      iszero\n      tag_301\n      jumpi\n        /* \"#utility.yul\":17712:17721   */\n      dup5\n        /* \"#utility.yul\":17707:17710   */\n      dup10\n        /* \"#utility.yul\":17703:17722   */\n      add\n        /* \"#utility.yul\":17697:17723   */\n      mload\n        /* \"#utility.yul\":17755:17803   */\n      tag_302\n        /* \"#utility.yul\":17797:17801   */\n      0x1f\n        /* \"#utility.yul\":17789:17795   */\n      dup10\n        /* \"#utility.yul\":17785:17802   */\n      and\n        /* \"#utility.yul\":17774:17783   */\n      dup3\n        /* \"#utility.yul\":17755:17803   */\n      tag_119\n      jump\t// in\n    tag_302:\n        /* \"#utility.yul\":17747:17753   */\n      dup4\n        /* \"#utility.yul\":17740:17804   */\n      sstore\n        /* \"#utility.yul\":17662:17818   */\n      pop\n        /* \"#utility.yul\":17639:17818   */\n    tag_301:\n        /* \"#utility.yul\":17864:17865   */\n      0x01\n        /* \"#utility.yul\":17860:17861   */\n      0x02\n        /* \"#utility.yul\":17852:17858   */\n      dup9\n        /* \"#utility.yul\":17848:17862   */\n      mul\n        /* \"#utility.yul\":17844:17866   */\n      add\n        /* \"#utility.yul\":17838:17842   */\n      dup9\n        /* \"#utility.yul\":17831:17867   */\n      sstore\n        /* \"#utility.yul\":17266:17877   */\n      pop\n      pop\n      pop\n        /* \"#utility.yul\":17229:18116   */\n    tag_293:\n      pop\n        /* \"#utility.yul\":16819:18122   */\n      pop\n      pop\n      pop\n        /* \"#utility.yul\":16727:18122   */\n      pop\n      pop\n      jump\t// out\n\n    auxdata: 0xa2646970667358221220cbd99130cb460dcef1f4ee838b1a40bf0584949313f8a663da1aeee633c2f63264736f6c634300081a0033\n}\n",
				"bytecode": {
					"linkReferences": {},
					"object": "6080604052348015600f57600080fd5b50336000806101000a81548173ffffffffffffffffffffffffffffffffffffffff021916908373ffffffffffffffffffffffffffffffffffffffff160217905550610ff48061005f6000396000f3fe608060405234801561001057600080fd5b506004361061004c5760003560e01c8063112ea262146100515780631a08a3481461006d578063893d20e814610089578063dce7e843146100a7575b600080fd5b61006b60048036038101906100669190610697565b6100d7565b005b61008760048036038101906100829190610840565b6101c0565b005b610091610334565b60405161009e919061090a565b60405180910390f35b6100c160048036038101906100bc9190610925565b61035d565b6040516100ce9190610b26565b60405180910390f35b60008054906101000a900473ffffffffffffffffffffffffffffffffffffffff1673ffffffffffffffffffffffffffffffffffffffff163373ffffffffffffffffffffffffffffffffffffffff1614610165576040517f08c379a000000000000000000000000000000000000000000000000000000000815260040161015c90610bcb565b60405180910390fd5b6001600260008373ffffffffffffffffffffffffffffffffffffffff1673ffffffffffffffffffffffffffffffffffffffff16815260200190815260200160002060006101000a81548160ff02191690831515021790555050565b600260003373ffffffffffffffffffffffffffffffffffffffff1673ffffffffffffffffffffffffffffffffffffffff16815260200190815260200160002060009054906101000a900460ff1661024c576040517f08c379a000000000000000000000000000000000000000000000000000000000815260040161024390610c5d565b60405180910390fd5b60006001806000878152602001908152602001600020805490506102709190610cac565b9050600160008681526020019081526020016000206040518060a001604052808381526020018681526020018581526020018481526020014281525090806001815401808255809150506001900390600052602060002090600502016000909190919091506000820151816000015560208201518160010190816102f49190610eec565b50604082015181600201908161030a9190610eec565b5060608201518160030190816103209190610eec565b506080820151816004015550505050505050565b60008060009054906101000a900473ffffffffffffffffffffffffffffffffffffffff16905090565b6060600260003373ffffffffffffffffffffffffffffffffffffffff1673ffffffffffffffffffffffffffffffffffffffff16815260200190815260200160002060009054906101000a900460ff166103eb576040517f08c379a00000000000000000000000000000000000000000000000000000000081526004016103e290610c5d565b60405180910390fd5b60016000838152602001908152602001600020805480602002602001604051908101604052809291908181526020016000905b8282101561061a57838290600052602060002090600502016040518060a00160405290816000820154815260200160018201805461045b90610d0f565b80601f016020809104026020016040519081016040528092919081815260200182805461048790610d0f565b80156104d45780601f106104a9576101008083540402835291602001916104d4565b820191906000526020600020905b8154815290600101906020018083116104b757829003601f168201915b505050505081526020016002820180546104ed90610d0f565b80601f016020809104026020016040519081016040528092919081815260200182805461051990610d0f565b80156105665780601f1061053b57610100808354040283529160200191610566565b820191906000526020600020905b81548152906001019060200180831161054957829003601f168201915b5050505050815260200160038201805461057f90610d0f565b80601f01602080910402602001604051908101604052809291908181526020018280546105ab90610d0f565b80156105f85780601f106105cd576101008083540402835291602001916105f8565b820191906000526020600020905b8154815290600101906020018083116105db57829003601f168201915b505050505081526020016004820154815250508152602001906001019061041e565b505050509050919050565b6000604051905090565b600080fd5b600080fd5b600073ffffffffffffffffffffffffffffffffffffffff82169050919050565b600061066482610639565b9050919050565b61067481610659565b811461067f57600080fd5b50565b6000813590506106918161066b565b92915050565b6000602082840312156106ad576106ac61062f565b5b60006106bb84828501610682565b91505092915050565b6000819050919050565b6106d7816106c4565b81146106e257600080fd5b50565b6000813590506106f4816106ce565b92915050565b600080fd5b600080fd5b6000601f19601f8301169050919050565b7f4e487b7100000000000000000000000000000000000000000000000000000000600052604160045260246000fd5b61074d82610704565b810181811067ffffffffffffffff8211171561076c5761076b610715565b5b80604052505050565b600061077f610625565b905061078b8282610744565b919050565b600067ffffffffffffffff8211156107ab576107aa610715565b5b6107b482610704565b9050602081019050919050565b82818337600083830152505050565b60006107e36107de84610790565b610775565b9050828152602081018484840111156107ff576107fe6106ff565b5b61080a8482856107c1565b509392505050565b600082601f830112610827576108266106fa565b5b81356108378482602086016107d0565b91505092915050565b6000806000806080858703121561085a5761085961062f565b5b6000610868878288016106e5565b945050602085013567ffffffffffffffff81111561088957610888610634565b5b61089587828801610812565b935050604085013567ffffffffffffffff8111156108b6576108b5610634565b5b6108c287828801610812565b925050606085013567ffffffffffffffff8111156108e3576108e2610634565b5b6108ef87828801610812565b91505092959194509250565b61090481610659565b82525050565b600060208201905061091f60008301846108fb565b92915050565b60006020828403121561093b5761093a61062f565b5b6000610949848285016106e5565b91505092915050565b600081519050919050565b600082825260208201905092915050565b6000819050602082019050919050565b610987816106c4565b82525050565b600081519050919050565b600082825260208201905092915050565b60005b838110156109c75780820151818401526020810190506109ac565b60008484015250505050565b60006109de8261098d565b6109e88185610998565b93506109f88185602086016109a9565b610a0181610704565b840191505092915050565b600060a083016000830151610a24600086018261097e565b5060208301518482036020860152610a3c82826109d3565b91505060408301518482036040860152610a5682826109d3565b91505060608301518482036060860152610a7082826109d3565b9150506080830151610a85608086018261097e565b508091505092915050565b6000610a9c8383610a0c565b905092915050565b6000602082019050919050565b6000610abc82610952565b610ac6818561095d565b935083602082028501610ad88561096e565b8060005b85811015610b145784840389528151610af58582610a90565b9450610b0083610aa4565b925060208a01995050600181019050610adc565b50829750879550505050505092915050565b60006020820190508181036000830152610b408184610ab1565b905092915050565b600082825260208201905092915050565b7f4f6e6c79206f776e65722063616e2061636365737320746869732066756e637460008201527f696f6e2e00000000000000000000000000000000000000000000000000000000602082015250565b6000610bb5602483610b48565b9150610bc082610b59565b604082019050919050565b60006020820190508181036000830152610be481610ba8565b9050919050565b7f4f6e6c7920617574686f72697a65642050726f76696465722063616e2061636360008201527f65737320746869732066756e6374696f6e2e0000000000000000000000000000602082015250565b6000610c47603283610b48565b9150610c5282610beb565b604082019050919050565b60006020820190508181036000830152610c7681610c3a565b9050919050565b7f4e487b7100000000000000000000000000000000000000000000000000000000600052601160045260246000fd5b6000610cb7826106c4565b9150610cc2836106c4565b9250828201905080821115610cda57610cd9610c7d565b5b92915050565b7f4e487b7100000000000000000000000000000000000000000000000000000000600052602260045260246000fd5b60006002820490506001821680610d2757607f821691505b602082108103610d3a57610d39610ce0565b5b50919050565b60008190508160005260206000209050919050565b60006020601f8301049050919050565b600082821b905092915050565b600060088302610da27fffffffffffffffffffffffffffffffffffffffffffffffffffffffffffffffff82610d65565b610dac8683610d65565b95508019841693508086168417925050509392505050565b6000819050919050565b6000610de9610de4610ddf846106c4565b610dc4565b6106c4565b9050919050565b6000819050919050565b610e0383610dce565b610e17610e0f82610df0565b848454610d72565b825550505050565b600090565b610e2c610e1f565b610e37818484610dfa565b505050565b5b81811015610e5b57610e50600082610e24565b600181019050610e3d565b5050565b601f821115610ea057610e7181610d40565b610e7a84610d55565b81016020851015610e89578190505b610e9d610e9585610d55565b830182610e3c565b50505b505050565b600082821c905092915050565b6000610ec360001984600802610ea5565b1980831691505092915050565b6000610edc8383610eb2565b9150826002028217905092915050565b610ef58261098d565b67ffffffffffffffff811115610f0e57610f0d610715565b5b610f188254610d0f565b610f23828285610e5f565b600060209050601f831160018114610f565760008415610f44578287015190505b610f4e8582610ed0565b865550610fb6565b601f198416610f6486610d40565b60005b82811015610f8c57848901518255600182019150602085019450602081019050610f67565b86831015610fa95784890151610fa5601f891682610eb2565b8355505b6001600288020188555050505b50505050505056fea2646970667358221220cbd99130cb460dcef1f4ee838b1a40bf0584949313f8a663da1aeee633c2f63264736f6c634300081a0033",
					"opcodes": "PUSH1 0x80 PUSH1 0x40 MSTORE CALLVALUE DUP1 ISZERO PUSH1 0xF JUMPI PUSH1 0x0 DUP1 REVERT JUMPDEST POP CALLER PUSH1 0x0 DUP1 PUSH2 0x100 EXP DUP2 SLOAD DUP2 PUSH20 0xFFFFFFFFFFFFFFFFFFFFFFFFFFFFFFFFFFFFFFFF MUL NOT AND SWAP1 DUP4 PUSH20 0xFFFFFFFFFFFFFFFFFFFFFFFFFFFFFFFFFFFFFFFF AND MUL OR SWAP1 SSTORE POP PUSH2 0xFF4 DUP1 PUSH2 0x5F PUSH1 0x0 CODECOPY PUSH1 0x0 RETURN INVALID PUSH1 0x80 PUSH1 0x40 MSTORE CALLVALUE DUP1 ISZERO PUSH2 0x10 JUMPI PUSH1 0x0 DUP1 REVERT JUMPDEST POP PUSH1 0x4 CALLDATASIZE LT PUSH2 0x4C JUMPI PUSH1 0x0 CALLDATALOAD PUSH1 0xE0 SHR DUP1 PUSH4 0x112EA262 EQ PUSH2 0x51 JUMPI DUP1 PUSH4 0x1A08A348 EQ PUSH2 0x6D JUMPI DUP1 PUSH4 0x893D20E8 EQ PUSH2 0x89 JUMPI DUP1 PUSH4 0xDCE7E843 EQ PUSH2 0xA7 JUMPI JUMPDEST PUSH1 0x0 DUP1 REVERT JUMPDEST PUSH2 0x6B PUSH1 0x4 DUP1 CALLDATASIZE SUB DUP2 ADD SWAP1 PUSH2 0x66 SWAP2 SWAP1 PUSH2 0x697 JUMP JUMPDEST PUSH2 0xD7 JUMP JUMPDEST STOP JUMPDEST PUSH2 0x87 PUSH1 0x4 DUP1 CALLDATASIZE SUB DUP2 ADD SWAP1 PUSH2 0x82 SWAP2 SWAP1 PUSH2 0x840 JUMP JUMPDEST PUSH2 0x1C0 JUMP JUMPDEST STOP JUMPDEST PUSH2 0x91 PUSH2 0x334 JUMP JUMPDEST PUSH1 0x40 MLOAD PUSH2 0x9E SWAP2 SWAP1 PUSH2 0x90A JUMP JUMPDEST PUSH1 0x40 MLOAD DUP1 SWAP2 SUB SWAP1 RETURN JUMPDEST PUSH2 0xC1 PUSH1 0x4 DUP1 CALLDATASIZE SUB DUP2 ADD SWAP1 PUSH2 0xBC SWAP2 SWAP1 PUSH2 0x925 JUMP JUMPDEST PUSH2 0x35D JUMP JUMPDEST PUSH1 0x40 MLOAD PUSH2 0xCE SWAP2 SWAP1 PUSH2 0xB26 JUMP JUMPDEST PUSH1 0x40 MLOAD DUP1 SWAP2 SUB SWAP1 RETURN JUMPDEST PUSH1 0x0 DUP1 SLOAD SWAP1 PUSH2 0x100 EXP SWAP1 DIV PUSH20 0xFFFFFFFFFFFFFFFFFFFFFFFFFFFFFFFFFFFFFFFF AND PUSH20 0xFFFFFFFFFFFFFFFFFFFFFFFFFFFFFFFFFFFFFFFF AND CALLER PUSH20 0xFFFFFFFFFFFFFFFFFFFFFFFFFFFFFFFFFFFFFFFF AND EQ PUSH2 0x165 JUMPI PUSH1 0x40 MLOAD PUSH32 0x8C379A000000000000000000000000000000000000000000000000000000000 DUP2 MSTORE PUSH1 0x4 ADD PUSH2 0x15C SWAP1 PUSH2 0xBCB JUMP JUMPDEST PUSH1 0x40 MLOAD DUP1 SWAP2 SUB SWAP1 REVERT JUMPDEST PUSH1 0x1 PUSH1 0x2 PUSH1 0x0 DUP4 PUSH20 0xFFFFFFFFFFFFFFFFFFFFFFFFFFFFFFFFFFFFFFFF AND PUSH20 0xFFFFFFFFFFFFFFFFFFFFFFFFFFFFFFFFFFFFFFFF AND DUP2 MSTORE PUSH1 0x20 ADD SWAP1 DUP2 MSTORE PUSH1 0x20 ADD PUSH1 0x0 KECCAK256 PUSH1 0x0 PUSH2 0x100 EXP DUP2 SLOAD DUP2 PUSH1 0xFF MUL NOT AND SWAP1 DUP4 ISZERO ISZERO MUL OR SWAP1 SSTORE POP POP JUMP JUMPDEST PUSH1 0x2 PUSH1 0x0 CALLER PUSH20 0xFFFFFFFFFFFFFFFFFFFFFFFFFFFFFFFFFFFFFFFF AND PUSH20 0xFFFFFFFFFFFFFFFFFFFFFFFFFFFFFFFFFFFFFFFF AND DUP2 MSTORE PUSH1 0x20 ADD SWAP1 DUP2 MSTORE PUSH1 0x20 ADD PUSH1 0x0 KECCAK256 PUSH1 0x0 SWAP1 SLOAD SWAP1 PUSH2 0x100 EXP SWAP1 DIV PUSH1 0xFF AND PUSH2 0x24C JUMPI PUSH1 0x40 MLOAD PUSH32 0x8C379A000000000000000000000000000000000000000000000000000000000 DUP2 MSTORE PUSH1 0x4 ADD PUSH2 0x243 SWAP1 PUSH2 0xC5D JUMP JUMPDEST PUSH1 0x40 MLOAD DUP1 SWAP2 SUB SWAP1 REVERT JUMPDEST PUSH1 0x0 PUSH1 0x1 DUP1 PUSH1 0x0 DUP8 DUP2 MSTORE PUSH1 0x20 ADD SWAP1 DUP2 MSTORE PUSH1 0x20 ADD PUSH1 0x0 KECCAK256 DUP1 SLOAD SWAP1 POP PUSH2 0x270 SWAP2 SWAP1 PUSH2 0xCAC JUMP JUMPDEST SWAP1 POP PUSH1 0x1 PUSH1 0x0 DUP7 DUP2 MSTORE PUSH1 0x20 ADD SWAP1 DUP2 MSTORE PUSH1 0x20 ADD PUSH1 0x0 KECCAK256 PUSH1 0x40 MLOAD DUP1 PUSH1 0xA0 ADD PUSH1 0x40 MSTORE DUP1 DUP4 DUP2 MSTORE PUSH1 0x20 ADD DUP7 DUP2 MSTORE PUSH1 0x20 ADD DUP6 DUP2 MSTORE PUSH1 0x20 ADD DUP5 DUP2 MSTORE PUSH1 0x20 ADD TIMESTAMP DUP2 MSTORE POP SWAP1 DUP1 PUSH1 0x1 DUP2 SLOAD ADD DUP1 DUP3 SSTORE DUP1 SWAP2 POP POP PUSH1 0x1 SWAP1 SUB SWAP1 PUSH1 0x0 MSTORE PUSH1 0x20 PUSH1 0x0 KECCAK256 SWAP1 PUSH1 0x5 MUL ADD PUSH1 0x0 SWAP1 SWAP2 SWAP1 SWAP2 SWAP1 SWAP2 POP PUSH1 0x0 DUP3 ADD MLOAD DUP2 PUSH1 0x0 ADD SSTORE PUSH1 0x20 DUP3 ADD MLOAD DUP2 PUSH1 0x1 ADD SWAP1 DUP2 PUSH2 0x2F4 SWAP2 SWAP1 PUSH2 0xEEC JUMP JUMPDEST POP PUSH1 0x40 DUP3 ADD MLOAD DUP2 PUSH1 0x2 ADD SWAP1 DUP2 PUSH2 0x30A SWAP2 SWAP1 PUSH2 0xEEC JUMP JUMPDEST POP PUSH1 0x60 DUP3 ADD MLOAD DUP2 PUSH1 0x3 ADD SWAP1 DUP2 PUSH2 0x320 SWAP2 SWAP1 PUSH2 0xEEC JUMP JUMPDEST POP PUSH1 0x80 DUP3 ADD MLOAD DUP2 PUSH1 0x4 ADD SSTORE POP POP POP POP POP POP POP JUMP JUMPDEST PUSH1 0x0 DUP1 PUSH1 0x0 SWAP1 SLOAD SWAP1 PUSH2 0x100 EXP SWAP1 DIV PUSH20 0xFFFFFFFFFFFFFFFFFFFFFFFFFFFFFFFFFFFFFFFF AND SWAP1 POP SWAP1 JUMP JUMPDEST PUSH1 0x60 PUSH1 0x2 PUSH1 0x0 CALLER PUSH20 0xFFFFFFFFFFFFFFFFFFFFFFFFFFFFFFFFFFFFFFFF AND PUSH20 0xFFFFFFFFFFFFFFFFFFFFFFFFFFFFFFFFFFFFFFFF AND DUP2 MSTORE PUSH1 0x20 ADD SWAP1 DUP2 MSTORE PUSH1 0x20 ADD PUSH1 0x0 KECCAK256 PUSH1 0x0 SWAP1 SLOAD SWAP1 PUSH2 0x100 EXP SWAP1 DIV PUSH1 0xFF AND PUSH2 0x3EB JUMPI PUSH1 0x40 MLOAD PUSH32 0x8C379A000000000000000000000000000000000000000000000000000000000 DUP2 MSTORE PUSH1 0x4 ADD PUSH2 0x3E2 SWAP1 PUSH2 0xC5D JUMP JUMPDEST PUSH1 0x40 MLOAD DUP1 SWAP2 SUB SWAP1 REVERT JUMPDEST PUSH1 0x1 PUSH1 0x0 DUP4 DUP2 MSTORE PUSH1 0x20 ADD SWAP1 DUP2 MSTORE PUSH1 0x20 ADD PUSH1 0x0 KECCAK256 DUP1 SLOAD DUP1 PUSH1 0x20 MUL PUSH1 0x20 ADD PUSH1 0x40 MLOAD SWAP1 DUP2 ADD PUSH1 0x40 MSTORE DUP1 SWAP3 SWAP2 SWAP1 DUP2 DUP2 MSTORE PUSH1 0x20 ADD PUSH1 0x0 SWAP1 JUMPDEST DUP3 DUP3 LT ISZERO PUSH2 0x61A JUMPI DUP4 DUP3 SWAP1 PUSH1 0x0 MSTORE PUSH1 0x20 PUSH1 0x0 KECCAK256 SWAP1 PUSH1 0x5 MUL ADD PUSH1 0x40 MLOAD DUP1 PUSH1 0xA0 ADD PUSH1 0x40 MSTORE SWAP1 DUP2 PUSH1 0x0 DUP3 ADD SLOAD DUP2 MSTORE PUSH1 0x20 ADD PUSH1 0x1 DUP3 ADD DUP1 SLOAD PUSH2 0x45B SWAP1 PUSH2 0xD0F JUMP JUMPDEST DUP1 PUSH1 0x1F ADD PUSH1 0x20 DUP1 SWAP2 DIV MUL PUSH1 0x20 ADD PUSH1 0x40 MLOAD SWAP1 DUP2 ADD PUSH1 0x40 MSTORE DUP1 SWAP3 SWAP2 SWAP1 DUP2 DUP2 MSTORE PUSH1 0x20 ADD DUP3 DUP1 SLOAD PUSH2 0x487 SWAP1 PUSH2 0xD0F JUMP JUMPDEST DUP1 ISZERO PUSH2 0x4D4 JUMPI DUP1 PUSH1 0x1F LT PUSH2 0x4A9 JUMPI PUSH2 0x100 DUP1 DUP4 SLOAD DIV MUL DUP4 MSTORE SWAP2 PUSH1 0x20 ADD SWAP2 PUSH2 0x4D4 JUMP JUMPDEST DUP3 ADD SWAP2 SWAP1 PUSH1 0x0 MSTORE PUSH1 0x20 PUSH1 0x0 KECCAK256 SWAP1 JUMPDEST DUP2 SLOAD DUP2 MSTORE SWAP1 PUSH1 0x1 ADD SWAP1 PUSH1 0x20 ADD DUP1 DUP4 GT PUSH2 0x4B7 JUMPI DUP3 SWAP1 SUB PUSH1 0x1F AND DUP3 ADD SWAP2 JUMPDEST POP POP POP POP POP DUP2 MSTORE PUSH1 0x20 ADD PUSH1 0x2 DUP3 ADD DUP1 SLOAD PUSH2 0x4ED SWAP1 PUSH2 0xD0F JUMP JUMPDEST DUP1 PUSH1 0x1F ADD PUSH1 0x20 DUP1 SWAP2 DIV MUL PUSH1 0x20 ADD PUSH1 0x40 MLOAD SWAP1 DUP2 ADD PUSH1 0x40 MSTORE DUP1 SWAP3 SWAP2 SWAP1 DUP2 DUP2 MSTORE PUSH1 0x20 ADD DUP3 DUP1 SLOAD PUSH2 0x519 SWAP1 PUSH2 0xD0F JUMP JUMPDEST DUP1 ISZERO PUSH2 0x566 JUMPI DUP1 PUSH1 0x1F LT PUSH2 0x53B JUMPI PUSH2 0x100 DUP1 DUP4 SLOAD DIV MUL DUP4 MSTORE SWAP2 PUSH1 0x20 ADD SWAP2 PUSH2 0x566 JUMP JUMPDEST DUP3 ADD SWAP2 SWAP1 PUSH1 0x0 MSTORE PUSH1 0x20 PUSH1 0x0 KECCAK256 SWAP1 JUMPDEST DUP2 SLOAD DUP2 MSTORE SWAP1 PUSH1 0x1 ADD SWAP1 PUSH1 0x20 ADD DUP1 DUP4 GT PUSH2 0x549 JUMPI DUP3 SWAP1 SUB PUSH1 0x1F AND DUP3 ADD SWAP2 JUMPDEST POP POP POP POP POP DUP2 MSTORE PUSH1 0x20 ADD PUSH1 0x3 DUP3 ADD DUP1 SLOAD PUSH2 0x57F SWAP1 PUSH2 0xD0F JUMP JUMPDEST DUP1 PUSH1 0x1F ADD PUSH1 0x20 DUP1 SWAP2 DIV MUL PUSH1 0x20 ADD PUSH1 0x40 MLOAD SWAP1 DUP2 ADD PUSH1 0x40 MSTORE DUP1 SWAP3 SWAP2 SWAP1 DUP2 DUP2 MSTORE PUSH1 0x20 ADD DUP3 DUP1 SLOAD PUSH2 0x5AB SWAP1 PUSH2 0xD0F JUMP JUMPDEST DUP1 ISZERO PUSH2 0x5F8 JUMPI DUP1 PUSH1 0x1F LT PUSH2 0x5CD JUMPI PUSH2 0x100 DUP1 DUP4 SLOAD DIV MUL DUP4 MSTORE SWAP2 PUSH1 0x20 ADD SWAP2 PUSH2 0x5F8 JUMP JUMPDEST DUP3 ADD SWAP2 SWAP1 PUSH1 0x0 MSTORE PUSH1 0x20 PUSH1 0x0 KECCAK256 SWAP1 JUMPDEST DUP2 SLOAD DUP2 MSTORE SWAP1 PUSH1 0x1 ADD SWAP1 PUSH1 0x20 ADD DUP1 DUP4 GT PUSH2 0x5DB JUMPI DUP3 SWAP1 SUB PUSH1 0x1F AND DUP3 ADD SWAP2 JUMPDEST POP POP POP POP POP DUP2 MSTORE PUSH1 0x20 ADD PUSH1 0x4 DUP3 ADD SLOAD DUP2 MSTORE POP POP DUP2 MSTORE PUSH1 0x20 ADD SWAP1 PUSH1 0x1 ADD SWAP1 PUSH2 0x41E JUMP JUMPDEST POP POP POP POP SWAP1 POP SWAP2 SWAP1 POP JUMP JUMPDEST PUSH1 0x0 PUSH1 0x40 MLOAD SWAP1 POP SWAP1 JUMP JUMPDEST PUSH1 0x0 DUP1 REVERT JUMPDEST PUSH1 0x0 DUP1 REVERT JUMPDEST PUSH1 0x0 PUSH20 0xFFFFFFFFFFFFFFFFFFFFFFFFFFFFFFFFFFFFFFFF DUP3 AND SWAP1 POP SWAP2 SWAP1 POP JUMP JUMPDEST PUSH1 0x0 PUSH2 0x664 DUP3 PUSH2 0x639 JUMP JUMPDEST SWAP1 POP SWAP2 SWAP1 POP JUMP JUMPDEST PUSH2 0x674 DUP2 PUSH2 0x659 JUMP JUMPDEST DUP2 EQ PUSH2 0x67F JUMPI PUSH1 0x0 DUP1 REVERT JUMPDEST POP JUMP JUMPDEST PUSH1 0x0 DUP2 CALLDATALOAD SWAP1 POP PUSH2 0x691 DUP2 PUSH2 0x66B JUMP JUMPDEST SWAP3 SWAP2 POP POP JUMP JUMPDEST PUSH1 0x0 PUSH1 0x20 DUP3 DUP5 SUB SLT ISZERO PUSH2 0x6AD JUMPI PUSH2 0x6AC PUSH2 0x62F JUMP JUMPDEST JUMPDEST PUSH1 0x0 PUSH2 0x6BB DUP5 DUP3 DUP6 ADD PUSH2 0x682 JUMP JUMPDEST SWAP2 POP POP SWAP3 SWAP2 POP POP JUMP JUMPDEST PUSH1 0x0 DUP2 SWAP1 POP SWAP2 SWAP1 POP JUMP JUMPDEST PUSH2 0x6D7 DUP2 PUSH2 0x6C4 JUMP JUMPDEST DUP2 EQ PUSH2 0x6E2 JUMPI PUSH1 0x0 DUP1 REVERT JUMPDEST POP JUMP JUMPDEST PUSH1 0x0 DUP2 CALLDATALOAD SWAP1 POP PUSH2 0x6F4 DUP2 PUSH2 0x6CE JUMP JUMPDEST SWAP3 SWAP2 POP POP JUMP JUMPDEST PUSH1 0x0 DUP1 REVERT JUMPDEST PUSH1 0x0 DUP1 REVERT JUMPDEST PUSH1 0x0 PUSH1 0x1F NOT PUSH1 0x1F DUP4 ADD AND SWAP1 POP SWAP2 SWAP1 POP JUMP JUMPDEST PUSH32 0x4E487B7100000000000000000000000000000000000000000000000000000000 PUSH1 0x0 MSTORE PUSH1 0x41 PUSH1 0x4 MSTORE PUSH1 0x24 PUSH1 0x0 REVERT JUMPDEST PUSH2 0x74D DUP3 PUSH2 0x704 JUMP JUMPDEST DUP2 ADD DUP2 DUP2 LT PUSH8 0xFFFFFFFFFFFFFFFF DUP3 GT OR ISZERO PUSH2 0x76C JUMPI PUSH2 0x76B PUSH2 0x715 JUMP JUMPDEST JUMPDEST DUP1 PUSH1 0x40 MSTORE POP POP POP JUMP JUMPDEST PUSH1 0x0 PUSH2 0x77F PUSH2 0x625 JUMP JUMPDEST SWAP1 POP PUSH2 0x78B DUP3 DUP3 PUSH2 0x744 JUMP JUMPDEST SWAP2 SWAP1 POP JUMP JUMPDEST PUSH1 0x0 PUSH8 0xFFFFFFFFFFFFFFFF DUP3 GT ISZERO PUSH2 0x7AB JUMPI PUSH2 0x7AA PUSH2 0x715 JUMP JUMPDEST JUMPDEST PUSH2 0x7B4 DUP3 PUSH2 0x704 JUMP JUMPDEST SWAP1 POP PUSH1 0x20 DUP2 ADD SWAP1 POP SWAP2 SWAP1 POP JUMP JUMPDEST DUP3 DUP2 DUP4 CALLDATACOPY PUSH1 0x0 DUP4 DUP4 ADD MSTORE POP POP POP JUMP JUMPDEST PUSH1 0x0 PUSH2 0x7E3 PUSH2 0x7DE DUP5 PUSH2 0x790 JUMP JUMPDEST PUSH2 0x775 JUMP JUMPDEST SWAP1 POP DUP3 DUP2 MSTORE PUSH1 0x20 DUP2 ADD DUP5 DUP5 DUP5 ADD GT ISZERO PUSH2 0x7FF JUMPI PUSH2 0x7FE PUSH2 0x6FF JUMP JUMPDEST JUMPDEST PUSH2 0x80A DUP5 DUP3 DUP6 PUSH2 0x7C1 JUMP JUMPDEST POP SWAP4 SWAP3 POP POP POP JUMP JUMPDEST PUSH1 0x0 DUP3 PUSH1 0x1F DUP4 ADD SLT PUSH2 0x827 JUMPI PUSH2 0x826 PUSH2 0x6FA JUMP JUMPDEST JUMPDEST DUP2 CALLDATALOAD PUSH2 0x837 DUP5 DUP3 PUSH1 0x20 DUP7 ADD PUSH2 0x7D0 JUMP JUMPDEST SWAP2 POP POP SWAP3 SWAP2 POP POP JUMP JUMPDEST PUSH1 0x0 DUP1 PUSH1 0x0 DUP1 PUSH1 0x80 DUP6 DUP8 SUB SLT ISZERO PUSH2 0x85A JUMPI PUSH2 0x859 PUSH2 0x62F JUMP JUMPDEST JUMPDEST PUSH1 0x0 PUSH2 0x868 DUP8 DUP3 DUP9 ADD PUSH2 0x6E5 JUMP JUMPDEST SWAP5 POP POP PUSH1 0x20 DUP6 ADD CALLDATALOAD PUSH8 0xFFFFFFFFFFFFFFFF DUP2 GT ISZERO PUSH2 0x889 JUMPI PUSH2 0x888 PUSH2 0x634 JUMP JUMPDEST JUMPDEST PUSH2 0x895 DUP8 DUP3 DUP9 ADD PUSH2 0x812 JUMP JUMPDEST SWAP4 POP POP PUSH1 0x40 DUP6 ADD CALLDATALOAD PUSH8 0xFFFFFFFFFFFFFFFF DUP2 GT ISZERO PUSH2 0x8B6 JUMPI PUSH2 0x8B5 PUSH2 0x634 JUMP JUMPDEST JUMPDEST PUSH2 0x8C2 DUP8 DUP3 DUP9 ADD PUSH2 0x812 JUMP JUMPDEST SWAP3 POP POP PUSH1 0x60 DUP6 ADD CALLDATALOAD PUSH8 0xFFFFFFFFFFFFFFFF DUP2 GT ISZERO PUSH2 0x8E3 JUMPI PUSH2 0x8E2 PUSH2 0x634 JUMP JUMPDEST JUMPDEST PUSH2 0x8EF DUP8 DUP3 DUP9 ADD PUSH2 0x812 JUMP JUMPDEST SWAP2 POP POP SWAP3 SWAP6 SWAP2 SWAP5 POP SWAP3 POP JUMP JUMPDEST PUSH2 0x904 DUP2 PUSH2 0x659 JUMP JUMPDEST DUP3 MSTORE POP POP JUMP JUMPDEST PUSH1 0x0 PUSH1 0x20 DUP3 ADD SWAP1 POP PUSH2 0x91F PUSH1 0x0 DUP4 ADD DUP5 PUSH2 0x8FB JUMP JUMPDEST SWAP3 SWAP2 POP POP JUMP JUMPDEST PUSH1 0x0 PUSH1 0x20 DUP3 DUP5 SUB SLT ISZERO PUSH2 0x93B JUMPI PUSH2 0x93A PUSH2 0x62F JUMP JUMPDEST JUMPDEST PUSH1 0x0 PUSH2 0x949 DUP5 DUP3 DUP6 ADD PUSH2 0x6E5 JUMP JUMPDEST SWAP2 POP POP SWAP3 SWAP2 POP POP JUMP JUMPDEST PUSH1 0x0 DUP2 MLOAD SWAP1 POP SWAP2 SWAP1 POP JUMP JUMPDEST PUSH1 0x0 DUP3 DUP3 MSTORE PUSH1 0x20 DUP3 ADD SWAP1 POP SWAP3 SWAP2 POP POP JUMP JUMPDEST PUSH1 0x0 DUP2 SWAP1 POP PUSH1 0x20 DUP3 ADD SWAP1 POP SWAP2 SWAP1 POP JUMP JUMPDEST PUSH2 0x987 DUP2 PUSH2 0x6C4 JUMP JUMPDEST DUP3 MSTORE POP POP JUMP JUMPDEST PUSH1 0x0 DUP2 MLOAD SWAP1 POP SWAP2 SWAP1 POP JUMP JUMPDEST PUSH1 0x0 DUP3 DUP3 MSTORE PUSH1 0x20 DUP3 ADD SWAP1 POP SWAP3 SWAP2 POP POP JUMP JUMPDEST PUSH1 0x0 JUMPDEST DUP4 DUP2 LT ISZERO PUSH2 0x9C7 JUMPI DUP1 DUP3 ADD MLOAD DUP2 DUP5 ADD MSTORE PUSH1 0x20 DUP2 ADD SWAP1 POP PUSH2 0x9AC JUMP JUMPDEST PUSH1 0x0 DUP5 DUP5 ADD MSTORE POP POP POP POP JUMP JUMPDEST PUSH1 0x0 PUSH2 0x9DE DUP3 PUSH2 0x98D JUMP JUMPDEST PUSH2 0x9E8 DUP2 DUP6 PUSH2 0x998 JUMP JUMPDEST SWAP4 POP PUSH2 0x9F8 DUP2 DUP6 PUSH1 0x20 DUP7 ADD PUSH2 0x9A9 JUMP JUMPDEST PUSH2 0xA01 DUP2 PUSH2 0x704 JUMP JUMPDEST DUP5 ADD SWAP2 POP POP SWAP3 SWAP2 POP POP JUMP JUMPDEST PUSH1 0x0 PUSH1 0xA0 DUP4 ADD PUSH1 0x0 DUP4 ADD MLOAD PUSH2 0xA24 PUSH1 0x0 DUP7 ADD DUP3 PUSH2 0x97E JUMP JUMPDEST POP PUSH1 0x20 DUP4 ADD MLOAD DUP5 DUP3 SUB PUSH1 0x20 DUP7 ADD MSTORE PUSH2 0xA3C DUP3 DUP3 PUSH2 0x9D3 JUMP JUMPDEST SWAP2 POP POP PUSH1 0x40 DUP4 ADD MLOAD DUP5 DUP3 SUB PUSH1 0x40 DUP7 ADD MSTORE PUSH2 0xA56 DUP3 DUP3 PUSH2 0x9D3 JUMP JUMPDEST SWAP2 POP POP PUSH1 0x60 DUP4 ADD MLOAD DUP5 DUP3 SUB PUSH1 0x60 DUP7 ADD MSTORE PUSH2 0xA70 DUP3 DUP3 PUSH2 0x9D3 JUMP JUMPDEST SWAP2 POP POP PUSH1 0x80 DUP4 ADD MLOAD PUSH2 0xA85 PUSH1 0x80 DUP7 ADD DUP3 PUSH2 0x97E JUMP JUMPDEST POP DUP1 SWAP2 POP POP SWAP3 SWAP2 POP POP JUMP JUMPDEST PUSH1 0x0 PUSH2 0xA9C DUP4 DUP4 PUSH2 0xA0C JUMP JUMPDEST SWAP1 POP SWAP3 SWAP2 POP POP JUMP JUMPDEST PUSH1 0x0 PUSH1 0x20 DUP3 ADD SWAP1 POP SWAP2 SWAP1 POP JUMP JUMPDEST PUSH1 0x0 PUSH2 0xABC DUP3 PUSH2 0x952 JUMP JUMPDEST PUSH2 0xAC6 DUP2 DUP6 PUSH2 0x95D JUMP JUMPDEST SWAP4 POP DUP4 PUSH1 0x20 DUP3 MUL DUP6 ADD PUSH2 0xAD8 DUP6 PUSH2 0x96E JUMP JUMPDEST DUP1 PUSH1 0x0 JUMPDEST DUP6 DUP2 LT ISZERO PUSH2 0xB14 JUMPI DUP5 DUP5 SUB DUP10 MSTORE DUP2 MLOAD PUSH2 0xAF5 DUP6 DUP3 PUSH2 0xA90 JUMP JUMPDEST SWAP5 POP PUSH2 0xB00 DUP4 PUSH2 0xAA4 JUMP JUMPDEST SWAP3 POP PUSH1 0x20 DUP11 ADD SWAP10 POP POP PUSH1 0x1 DUP2 ADD SWAP1 POP PUSH2 0xADC JUMP JUMPDEST POP DUP3 SWAP8 POP DUP8 SWAP6 POP POP POP POP POP POP SWAP3 SWAP2 POP POP JUMP JUMPDEST PUSH1 0x0 PUSH1 0x20 DUP3 ADD SWAP1 POP DUP2 DUP2 SUB PUSH1 0x0 DUP4 ADD MSTORE PUSH2 0xB40 DUP2 DUP5 PUSH2 0xAB1 JUMP JUMPDEST SWAP1 POP SWAP3 SWAP2 POP POP JUMP JUMPDEST PUSH1 0x0 DUP3 DUP3 MSTORE PUSH1 0x20 DUP3 ADD SWAP1 POP SWAP3 SWAP2 POP POP JUMP JUMPDEST PUSH32 0x4F6E6C79206F776E65722063616E2061636365737320746869732066756E6374 PUSH1 0x0 DUP3 ADD MSTORE PUSH32 0x696F6E2E00000000000000000000000000000000000000000000000000000000 PUSH1 0x20 DUP3 ADD MSTORE POP JUMP JUMPDEST PUSH1 0x0 PUSH2 0xBB5 PUSH1 0x24 DUP4 PUSH2 0xB48 JUMP JUMPDEST SWAP2 POP PUSH2 0xBC0 DUP3 PUSH2 0xB59 JUMP JUMPDEST PUSH1 0x40 DUP3 ADD SWAP1 POP SWAP2 SWAP1 POP JUMP JUMPDEST PUSH1 0x0 PUSH1 0x20 DUP3 ADD SWAP1 POP DUP2 DUP2 SUB PUSH1 0x0 DUP4 ADD MSTORE PUSH2 0xBE4 DUP2 PUSH2 0xBA8 JUMP JUMPDEST SWAP1 POP SWAP2 SWAP1 POP JUMP JUMPDEST PUSH32 0x4F6E6C7920617574686F72697A65642050726F76696465722063616E20616363 PUSH1 0x0 DUP3 ADD MSTORE PUSH32 0x65737320746869732066756E6374696F6E2E0000000000000000000000000000 PUSH1 0x20 DUP3 ADD MSTORE POP JUMP JUMPDEST PUSH1 0x0 PUSH2 0xC47 PUSH1 0x32 DUP4 PUSH2 0xB48 JUMP JUMPDEST SWAP2 POP PUSH2 0xC52 DUP3 PUSH2 0xBEB JUMP JUMPDEST PUSH1 0x40 DUP3 ADD SWAP1 POP SWAP2 SWAP1 POP JUMP JUMPDEST PUSH1 0x0 PUSH1 0x20 DUP3 ADD SWAP1 POP DUP2 DUP2 SUB PUSH1 0x0 DUP4 ADD MSTORE PUSH2 0xC76 DUP2 PUSH2 0xC3A JUMP JUMPDEST SWAP1 POP SWAP2 SWAP1 POP JUMP JUMPDEST PUSH32 0x4E487B7100000000000000000000000000000000000000000000000000000000 PUSH1 0x0 MSTORE PUSH1 0x11 PUSH1 0x4 MSTORE PUSH1 0x24 PUSH1 0x0 REVERT JUMPDEST PUSH1 0x0 PUSH2 0xCB7 DUP3 PUSH2 0x6C4 JUMP JUMPDEST SWAP2 POP PUSH2 0xCC2 DUP4 PUSH2 0x6C4 JUMP JUMPDEST SWAP3 POP DUP3 DUP3 ADD SWAP1 POP DUP1 DUP3 GT ISZERO PUSH2 0xCDA JUMPI PUSH2 0xCD9 PUSH2 0xC7D JUMP JUMPDEST JUMPDEST SWAP3 SWAP2 POP POP JUMP JUMPDEST PUSH32 0x4E487B7100000000000000000000000000000000000000000000000000000000 PUSH1 0x0 MSTORE PUSH1 0x22 PUSH1 0x4 MSTORE PUSH1 0x24 PUSH1 0x0 REVERT JUMPDEST PUSH1 0x0 PUSH1 0x2 DUP3 DIV SWAP1 POP PUSH1 0x1 DUP3 AND DUP1 PUSH2 0xD27 JUMPI PUSH1 0x7F DUP3 AND SWAP2 POP JUMPDEST PUSH1 0x20 DUP3 LT DUP2 SUB PUSH2 0xD3A JUMPI PUSH2 0xD39 PUSH2 0xCE0 JUMP JUMPDEST JUMPDEST POP SWAP2 SWAP1 POP JUMP JUMPDEST PUSH1 0x0 DUP2 SWAP1 POP DUP2 PUSH1 0x0 MSTORE PUSH1 0x20 PUSH1 0x0 KECCAK256 SWAP1 POP SWAP2 SWAP1 POP JUMP JUMPDEST PUSH1 0x0 PUSH1 0x20 PUSH1 0x1F DUP4 ADD DIV SWAP1 POP SWAP2 SWAP1 POP JUMP JUMPDEST PUSH1 0x0 DUP3 DUP3 SHL SWAP1 POP SWAP3 SWAP2 POP POP JUMP JUMPDEST PUSH1 0x0 PUSH1 0x8 DUP4 MUL PUSH2 0xDA2 PUSH32 0xFFFFFFFFFFFFFFFFFFFFFFFFFFFFFFFFFFFFFFFFFFFFFFFFFFFFFFFFFFFFFFFF DUP3 PUSH2 0xD65 JUMP JUMPDEST PUSH2 0xDAC DUP7 DUP4 PUSH2 0xD65 JUMP JUMPDEST SWAP6 POP DUP1 NOT DUP5 AND SWAP4 POP DUP1 DUP7 AND DUP5 OR SWAP3 POP POP POP SWAP4 SWAP3 POP POP POP JUMP JUMPDEST PUSH1 0x0 DUP2 SWAP1 POP SWAP2 SWAP1 POP JUMP JUMPDEST PUSH1 0x0 PUSH2 0xDE9 PUSH2 0xDE4 PUSH2 0xDDF DUP5 PUSH2 0x6C4 JUMP JUMPDEST PUSH2 0xDC4 JUMP JUMPDEST PUSH2 0x6C4 JUMP JUMPDEST SWAP1 POP SWAP2 SWAP1 POP JUMP JUMPDEST PUSH1 0x0 DUP2 SWAP1 POP SWAP2 SWAP1 POP JUMP JUMPDEST PUSH2 0xE03 DUP4 PUSH2 0xDCE JUMP JUMPDEST PUSH2 0xE17 PUSH2 0xE0F DUP3 PUSH2 0xDF0 JUMP JUMPDEST DUP5 DUP5 SLOAD PUSH2 0xD72 JUMP JUMPDEST DUP3 SSTORE POP POP POP POP JUMP JUMPDEST PUSH1 0x0 SWAP1 JUMP JUMPDEST PUSH2 0xE2C PUSH2 0xE1F JUMP JUMPDEST PUSH2 0xE37 DUP2 DUP5 DUP5 PUSH2 0xDFA JUMP JUMPDEST POP POP POP JUMP JUMPDEST JUMPDEST DUP2 DUP2 LT ISZERO PUSH2 0xE5B JUMPI PUSH2 0xE50 PUSH1 0x0 DUP3 PUSH2 0xE24 JUMP JUMPDEST PUSH1 0x1 DUP2 ADD SWAP1 POP PUSH2 0xE3D JUMP JUMPDEST POP POP JUMP JUMPDEST PUSH1 0x1F DUP3 GT ISZERO PUSH2 0xEA0 JUMPI PUSH2 0xE71 DUP2 PUSH2 0xD40 JUMP JUMPDEST PUSH2 0xE7A DUP5 PUSH2 0xD55 JUMP JUMPDEST DUP2 ADD PUSH1 0x20 DUP6 LT ISZERO PUSH2 0xE89 JUMPI DUP2 SWAP1 POP JUMPDEST PUSH2 0xE9D PUSH2 0xE95 DUP6 PUSH2 0xD55 JUMP JUMPDEST DUP4 ADD DUP3 PUSH2 0xE3C JUMP JUMPDEST POP POP JUMPDEST POP POP POP JUMP JUMPDEST PUSH1 0x0 DUP3 DUP3 SHR SWAP1 POP SWAP3 SWAP2 POP POP JUMP JUMPDEST PUSH1 0x0 PUSH2 0xEC3 PUSH1 0x0 NOT DUP5 PUSH1 0x8 MUL PUSH2 0xEA5 JUMP JUMPDEST NOT DUP1 DUP4 AND SWAP2 POP POP SWAP3 SWAP2 POP POP JUMP JUMPDEST PUSH1 0x0 PUSH2 0xEDC DUP4 DUP4 PUSH2 0xEB2 JUMP JUMPDEST SWAP2 POP DUP3 PUSH1 0x2 MUL DUP3 OR SWAP1 POP SWAP3 SWAP2 POP POP JUMP JUMPDEST PUSH2 0xEF5 DUP3 PUSH2 0x98D JUMP JUMPDEST PUSH8 0xFFFFFFFFFFFFFFFF DUP2 GT ISZERO PUSH2 0xF0E JUMPI PUSH2 0xF0D PUSH2 0x715 JUMP JUMPDEST JUMPDEST PUSH2 0xF18 DUP3 SLOAD PUSH2 0xD0F JUMP JUMPDEST PUSH2 0xF23 DUP3 DUP3 DUP6 PUSH2 0xE5F JUMP JUMPDEST PUSH1 0x0 PUSH1 0x20 SWAP1 POP PUSH1 0x1F DUP4 GT PUSH1 0x1 DUP2 EQ PUSH2 0xF56 JUMPI PUSH1 0x0 DUP5 ISZERO PUSH2 0xF44 JUMPI DUP3 DUP8 ADD MLOAD SWAP1 POP JUMPDEST PUSH2 0xF4E DUP6 DUP3 PUSH2 0xED0 JUMP JUMPDEST DUP7 SSTORE POP PUSH2 0xFB6 JUMP JUMPDEST PUSH1 0x1F NOT DUP5 AND PUSH2 0xF64 DUP7 PUSH2 0xD40 JUMP JUMPDEST PUSH1 0x0 JUMPDEST DUP3 DUP2 LT ISZERO PUSH2 0xF8C JUMPI DUP5 DUP10 ADD MLOAD DUP3 SSTORE PUSH1 0x1 DUP3 ADD SWAP2 POP PUSH1 0x20 DUP6 ADD SWAP5 POP PUSH1 0x20 DUP2 ADD SWAP1 POP PUSH2 0xF67 JUMP JUMPDEST DUP7 DUP4 LT ISZERO PUSH2 0xFA9 JUMPI DUP5 DUP10 ADD MLOAD PUSH2 0xFA5 PUSH1 0x1F DUP10 AND DUP3 PUSH2 0xEB2 JUMP JUMPDEST DUP4 SSTORE POP JUMPDEST PUSH1 0x1 PUSH1 0x2 DUP9 MUL ADD DUP9 SSTORE POP POP POP JUMPDEST POP POP POP POP POP POP JUMP INVALID LOG2 PUSH5 0x6970667358 0x22 SLT KECCAK256 0xCB 0xD9 SWAP2 ADDRESS 0xCB CHAINID 0xD 0xCE CALL DELEGATECALL 0xEE DUP4 DUP12 BYTE BLOCKHASH 0xBF SDIV DUP5 SWAP5 SWAP4 SGT 0xF8 0xA6 PUSH4 0xDA1AEEE6 CALLER 0xC2 0xF6 ORIGIN PUSH5 0x736F6C6343 STOP ADDMOD BYTE STOP CALLER "
				},
				"gasEstimates": {
					"creation": {
						"codeDepositCost": "816800",
						"executionCost": "25117",
						"totalCost": "841917"
					},
					"external": {
						"addRecord(uint256,string,string,string)": "infinite",
						"authorizeProvider(address)": "26957",
						"getOwner()": "2544",
						"getPatientRecords(uint256)": "infinite"
					}
				},
				"methodIdentifiers": {
					"addRecord(uint256,string,string,string)": "1a08a348",
					"authorizeProvider(address)": "112ea262",
					"getOwner()": "893d20e8",
					"getPatientRecords(uint256)": "dce7e843"
				}
			},
			"storageLayout": {
				"storage": [
					{
						"astId": 3,
						"contract": "contracts/HealthcareRecords.sol:HeathcareRecords",
						"label": "owner",
						"offset": 0,
						"slot": "0",
						"type": "t_address"
					},
					{
						"astId": 20,
						"contract": "contracts/HealthcareRecords.sol:HeathcareRecords",
						"label": "patientRecords",
						"offset": 0,
						"slot": "1",
						"type": "t_mapping(t_uint256,t_array(t_struct(Record)14_storage)dyn_storage)"
					},
					{
						"astId": 24,
						"contract": "contracts/HealthcareRecords.sol:HeathcareRecords",
						"label": "authorizedProviders",
						"offset": 0,
						"slot": "2",
						"type": "t_mapping(t_address,t_bool)"
					}
				],
				"types": {
					"t_address": {
						"encoding": "inplace",
						"label": "address",
						"numberOfBytes": "20"
					},
					"t_array(t_struct(Record)14_storage)dyn_storage": {
						"base": "t_struct(Record)14_storage",
						"encoding": "dynamic_array",
						"label": "struct HeathcareRecords.Record[]",
						"numberOfBytes": "32"
					},
					"t_bool": {
						"encoding": "inplace",
						"label": "bool",
						"numberOfBytes": "1"
					},
					"t_mapping(t_address,t_bool)": {
						"encoding": "mapping",
						"key": "t_address",
						"label": "mapping(address => bool)",
						"numberOfBytes": "32",
						"value": "t_bool"
					},
					"t_mapping(t_uint256,t_array(t_struct(Record)14_storage)dyn_storage)": {
						"encoding": "mapping",
						"key": "t_uint256",
						"label": "mapping(uint256 => struct HeathcareRecords.Record[])",
						"numberOfBytes": "32",
						"value": "t_array(t_struct(Record)14_storage)dyn_storage"
					},
					"t_string_storage": {
						"encoding": "bytes",
						"label": "string",
						"numberOfBytes": "32"
					},
					"t_struct(Record)14_storage": {
						"encoding": "inplace",
						"label": "struct HeathcareRecords.Record",
						"members": [
							{
								"astId": 5,
								"contract": "contracts/HealthcareRecords.sol:HeathcareRecords",
								"label": "recordID",
								"offset": 0,
								"slot": "0",
								"type": "t_uint256"
							},
							{
								"astId": 7,
								"contract": "contracts/HealthcareRecords.sol:HeathcareRecords",
								"label": "patientName",
								"offset": 0,
								"slot": "1",
								"type": "t_string_storage"
							},
							{
								"astId": 9,
								"contract": "contracts/HealthcareRecords.sol:HeathcareRecords",
								"label": "diagnosis",
								"offset": 0,
								"slot": "2",
								"type": "t_string_storage"
							},
							{
								"astId": 11,
								"contract": "contracts/HealthcareRecords.sol:HeathcareRecords",
								"label": "treatment",
								"offset": 0,
								"slot": "3",
								"type": "t_string_storage"
							},
							{
								"astId": 13,
								"contract": "contracts/HealthcareRecords.sol:HeathcareRecords",
								"label": "timestamp",
								"offset": 0,
								"slot": "4",
								"type": "t_uint256"
							}
						],
						"numberOfBytes": "160"
					},
					"t_uint256": {
						"encoding": "inplace",
						"label": "uint256",
						"numberOfBytes": "32"
					}
				}
			},
			"userdoc": {
				"kind": "user",
				"methods": {},
				"version": 1
			}
		}
	}
}