{
	"contracts/AccessControlContract.sol": {
		"AccessControlContract": {
			"abi": [
				{
					"anonymous": false,
					"inputs": [
						{
							"indexed": true,
							"internalType": "address",
							"name": "doctor",
							"type": "address"
						},
						{
							"indexed": false,
							"internalType": "uint256",
							"name": "amount",
							"type": "uint256"
						}
					],
					"name": "StakeAdded",
					"type": "event"
				},
				{
					"anonymous": false,
					"inputs": [
						{
							"indexed": true,
							"internalType": "address",
							"name": "doctor",
							"type": "address"
						},
						{
							"indexed": false,
							"internalType": "uint256",
							"name": "reward",
							"type": "uint256"
						}
					],
					"name": "ValidationReward",
					"type": "event"
				},
				{
					"inputs": [],
					"name": "MIN_STAKE",
					"outputs": [
						{
							"internalType": "uint256",
							"name": "",
							"type": "uint256"
						}
					],
					"stateMutability": "view",
					"type": "function"
				},
				{
					"inputs": [
						{
							"internalType": "address",
							"name": "_doctor",
							"type": "address"
						}
					],
					"name": "rewardValidator",
					"outputs": [],
					"stateMutability": "nonpayable",
					"type": "function"
				},
				{
					"inputs": [],
					"name": "stakeTokens",
					"outputs": [],
					"stateMutability": "payable",
					"type": "function"
				},
				{
					"inputs": [
						{
							"internalType": "address",
							"name": "",
							"type": "address"
						}
					],
					"name": "stakeholders",
					"outputs": [
						{
							"internalType": "uint256",
							"name": "stakedTokens",
							"type": "uint256"
						},
						{
							"internalType": "bool",
							"name": "isValidator",
							"type": "bool"
						}
					],
					"stateMutability": "view",
					"type": "function"
				}
			],
			"devdoc": {
				"kind": "dev",
				"methods": {},
				"version": 1
			},
			"evm": {
				"assembly": "    /* \"contracts/AccessControlContract.sol\":57:1143  contract AccessControlContract {... */\n  mstore(0x40, 0x80)\n  callvalue\n  dup1\n  iszero\n  tag_1\n  jumpi\n  0x00\n  dup1\n  revert\ntag_1:\n  pop\n  dataSize(sub_0)\n  dup1\n  dataOffset(sub_0)\n  0x00\n  codecopy\n  0x00\n  return\nstop\n\nsub_0: assembly {\n        /* \"contracts/AccessControlContract.sol\":57:1143  contract AccessControlContract {... */\n      mstore(0x40, 0x80)\n      jumpi(tag_1, lt(calldatasize, 0x04))\n      shr(0xe0, calldataload(0x00))\n      dup1\n      0x4754857c\n      eq\n      tag_2\n      jumpi\n      dup1\n      0xc07cfca9\n      eq\n      tag_3\n      jumpi\n      dup1\n      0xcb1c2b5c\n      eq\n      tag_4\n      jumpi\n      dup1\n      0xce46643b\n      eq\n      tag_5\n      jumpi\n    tag_1:\n      0x00\n      dup1\n      revert\n        /* \"contracts/AccessControlContract.sol\":843:1141  function rewardValidator(address _doctor) public {... */\n    tag_2:\n      callvalue\n      dup1\n      iszero\n      tag_6\n      jumpi\n      0x00\n      dup1\n      revert\n    tag_6:\n      pop\n      tag_7\n      0x04\n      dup1\n      calldatasize\n      sub\n      dup2\n      add\n      swap1\n      tag_8\n      swap2\n      swap1\n      tag_9\n      jump\t// in\n    tag_8:\n      tag_10\n      jump\t// in\n    tag_7:\n      stop\n        /* \"contracts/AccessControlContract.sol\":182:233  mapping(address => Stakeholder) public stakeholders */\n    tag_3:\n      callvalue\n      dup1\n      iszero\n      tag_11\n      jumpi\n      0x00\n      dup1\n      revert\n    tag_11:\n      pop\n      tag_12\n      0x04\n      dup1\n      calldatasize\n      sub\n      dup2\n      add\n      swap1\n      tag_13\n      swap2\n      swap1\n      tag_9\n      jump\t// in\n    tag_13:\n      tag_14\n      jump\t// in\n    tag_12:\n      mload(0x40)\n      tag_15\n      swap3\n      swap2\n      swap1\n      tag_16\n      jump\t// in\n    tag_15:\n      mload(0x40)\n      dup1\n      swap2\n      sub\n      swap1\n      return\n        /* \"contracts/AccessControlContract.sol\":239:278  uint256 public constant MIN_STAKE = 100 */\n    tag_4:\n      callvalue\n      dup1\n      iszero\n      tag_17\n      jumpi\n      0x00\n      dup1\n      revert\n    tag_17:\n      pop\n      tag_18\n      tag_19\n      jump\t// in\n    tag_18:\n      mload(0x40)\n      tag_20\n      swap2\n      swap1\n      tag_21\n      jump\t// in\n    tag_20:\n      mload(0x40)\n      dup1\n      swap2\n      sub\n      swap1\n      return\n        /* \"contracts/AccessControlContract.sol\":501:774  function stakeTokens() public payable {... */\n    tag_5:\n      tag_22\n      tag_23\n      jump\t// in\n    tag_22:\n      stop\n        /* \"contracts/AccessControlContract.sol\":843:1141  function rewardValidator(address _doctor) public {... */\n    tag_10:\n        /* \"contracts/AccessControlContract.sol\":910:922  stakeholders */\n      0x00\n        /* \"contracts/AccessControlContract.sol\":910:931  stakeholders[_doctor] */\n      dup1\n        /* \"contracts/AccessControlContract.sol\":923:930  _doctor */\n      dup3\n        /* \"contracts/AccessControlContract.sol\":910:931  stakeholders[_doctor] */\n      0xffffffffffffffffffffffffffffffffffffffff\n      and\n      0xffffffffffffffffffffffffffffffffffffffff\n      and\n      dup2\n      mstore\n      0x20\n      add\n      swap1\n      dup2\n      mstore\n      0x20\n      add\n      0x00\n      keccak256\n        /* \"contracts/AccessControlContract.sol\":910:943  stakeholders[_doctor].isValidator */\n      0x01\n      add\n      0x00\n      swap1\n      sload\n      swap1\n      0x0100\n      exp\n      swap1\n      div\n      0xff\n      and\n        /* \"contracts/AccessControlContract.sol\":902:963  require(stakeholders[_doctor].isValidator, \"Not a validator\") */\n      tag_25\n      jumpi\n      mload(0x40)\n      0x08c379a000000000000000000000000000000000000000000000000000000000\n      dup2\n      mstore\n      0x04\n      add\n      tag_26\n      swap1\n      tag_27\n      jump\t// in\n    tag_26:\n      mload(0x40)\n      dup1\n      swap2\n      sub\n      swap1\n      revert\n    tag_25:\n        /* \"contracts/AccessControlContract.sol\":973:987  uint256 reward */\n      0x00\n        /* \"contracts/AccessControlContract.sol\":1027:1029  10 */\n      0x0a\n        /* \"contracts/AccessControlContract.sol\":990:1002  stakeholders */\n      0x00\n        /* \"contracts/AccessControlContract.sol\":990:1011  stakeholders[_doctor] */\n      dup1\n        /* \"contracts/AccessControlContract.sol\":1003:1010  _doctor */\n      dup5\n        /* \"contracts/AccessControlContract.sol\":990:1011  stakeholders[_doctor] */\n      0xffffffffffffffffffffffffffffffffffffffff\n      and\n      0xffffffffffffffffffffffffffffffffffffffff\n      and\n      dup2\n      mstore\n      0x20\n      add\n      swap1\n      dup2\n      mstore\n      0x20\n      add\n      0x00\n      keccak256\n        /* \"contracts/AccessControlContract.sol\":990:1024  stakeholders[_doctor].stakedTokens */\n      0x00\n      add\n      sload\n        /* \"contracts/AccessControlContract.sol\":990:1029  stakeholders[_doctor].stakedTokens / 10 */\n      tag_28\n      swap2\n      swap1\n      tag_29\n      jump\t// in\n    tag_28:\n        /* \"contracts/AccessControlContract.sol\":973:1029  uint256 reward = stakeholders[_doctor].stakedTokens / 10 */\n      swap1\n      pop\n        /* \"contracts/AccessControlContract.sol\":1061:1068  _doctor */\n      dup2\n        /* \"contracts/AccessControlContract.sol\":1053:1078  payable(_doctor).transfer */\n      0xffffffffffffffffffffffffffffffffffffffff\n      and\n        /* \"contracts/AccessControlContract.sol\":1053:1086  payable(_doctor).transfer(reward) */\n      0x08fc\n        /* \"contracts/AccessControlContract.sol\":1079:1085  reward */\n      dup3\n        /* \"contracts/AccessControlContract.sol\":1053:1086  payable(_doctor).transfer(reward) */\n      swap1\n      dup2\n      iszero\n      mul\n      swap1\n      mload(0x40)\n      0x00\n      mload(0x40)\n      dup1\n      dup4\n      sub\n      dup2\n      dup6\n      dup9\n      dup9\n      call\n      swap4\n      pop\n      pop\n      pop\n      pop\n      iszero\n      dup1\n      iszero\n      tag_31\n      jumpi\n      returndatasize\n      0x00\n      dup1\n      returndatacopy\n      revert(0x00, returndatasize)\n    tag_31:\n      pop\n        /* \"contracts/AccessControlContract.sol\":1118:1125  _doctor */\n      dup2\n        /* \"contracts/AccessControlContract.sol\":1101:1134  ValidationReward(_doctor, reward) */\n      0xffffffffffffffffffffffffffffffffffffffff\n      and\n      0x1528d9db0de2f1e36a948c9c75c8902c454f2942db77ccc010091d70ef6735a1\n        /* \"contracts/AccessControlContract.sol\":1127:1133  reward */\n      dup3\n        /* \"contracts/AccessControlContract.sol\":1101:1134  ValidationReward(_doctor, reward) */\n      mload(0x40)\n      tag_32\n      swap2\n      swap1\n      tag_21\n      jump\t// in\n    tag_32:\n      mload(0x40)\n      dup1\n      swap2\n      sub\n      swap1\n      log2\n        /* \"contracts/AccessControlContract.sol\":892:1141  {... */\n      pop\n        /* \"contracts/AccessControlContract.sol\":843:1141  function rewardValidator(address _doctor) public {... */\n      pop\n      jump\t// out\n        /* \"contracts/AccessControlContract.sol\":182:233  mapping(address => Stakeholder) public stakeholders */\n    tag_14:\n      mstore(0x20, 0x00)\n      dup1\n      0x00\n      mstore\n      keccak256(0x00, 0x40)\n      0x00\n      swap2\n      pop\n      swap1\n      pop\n      dup1\n      0x00\n      add\n      sload\n      swap1\n      dup1\n      0x01\n      add\n      0x00\n      swap1\n      sload\n      swap1\n      0x0100\n      exp\n      swap1\n      div\n      0xff\n      and\n      swap1\n      pop\n      dup3\n      jump\t// out\n        /* \"contracts/AccessControlContract.sol\":239:278  uint256 public constant MIN_STAKE = 100 */\n    tag_19:\n        /* \"contracts/AccessControlContract.sol\":275:278  100 */\n      0x64\n        /* \"contracts/AccessControlContract.sol\":239:278  uint256 public constant MIN_STAKE = 100 */\n      dup2\n      jump\t// out\n        /* \"contracts/AccessControlContract.sol\":501:774  function stakeTokens() public payable {... */\n    tag_23:\n        /* \"contracts/AccessControlContract.sol\":275:278  100 */\n      0x64\n        /* \"contracts/AccessControlContract.sol\":557:566  msg.value */\n      callvalue\n        /* \"contracts/AccessControlContract.sol\":557:579  msg.value >= MIN_STAKE */\n      lt\n      iszero\n        /* \"contracts/AccessControlContract.sol\":549:606  require(msg.value >= MIN_STAKE, \"Minimum stake required\") */\n      tag_34\n      jumpi\n      mload(0x40)\n      0x08c379a000000000000000000000000000000000000000000000000000000000\n      dup2\n      mstore\n      0x04\n      add\n      tag_35\n      swap1\n      tag_36\n      jump\t// in\n    tag_35:\n      mload(0x40)\n      dup1\n      swap2\n      sub\n      swap1\n      revert\n    tag_34:\n        /* \"contracts/AccessControlContract.sol\":657:666  msg.value */\n      callvalue\n        /* \"contracts/AccessControlContract.sol\":616:628  stakeholders */\n      0x00\n        /* \"contracts/AccessControlContract.sol\":616:640  stakeholders[msg.sender] */\n      dup1\n        /* \"contracts/AccessControlContract.sol\":629:639  msg.sender */\n      caller\n        /* \"contracts/AccessControlContract.sol\":616:640  stakeholders[msg.sender] */\n      0xffffffffffffffffffffffffffffffffffffffff\n      and\n      0xffffffffffffffffffffffffffffffffffffffff\n      and\n      dup2\n      mstore\n      0x20\n      add\n      swap1\n      dup2\n      mstore\n      0x20\n      add\n      0x00\n      keccak256\n        /* \"contracts/AccessControlContract.sol\":616:653  stakeholders[msg.sender].stakedTokens */\n      0x00\n      add\n      0x00\n        /* \"contracts/AccessControlContract.sol\":616:666  stakeholders[msg.sender].stakedTokens += msg.value */\n      dup3\n      dup3\n      sload\n      tag_37\n      swap2\n      swap1\n      tag_38\n      jump\t// in\n    tag_37:\n      swap3\n      pop\n      pop\n      dup2\n      swap1\n      sstore\n      pop\n        /* \"contracts/AccessControlContract.sol\":715:719  true */\n      0x01\n        /* \"contracts/AccessControlContract.sol\":676:688  stakeholders */\n      0x00\n        /* \"contracts/AccessControlContract.sol\":676:700  stakeholders[msg.sender] */\n      dup1\n        /* \"contracts/AccessControlContract.sol\":689:699  msg.sender */\n      caller\n        /* \"contracts/AccessControlContract.sol\":676:700  stakeholders[msg.sender] */\n      0xffffffffffffffffffffffffffffffffffffffff\n      and\n      0xffffffffffffffffffffffffffffffffffffffff\n      and\n      dup2\n      mstore\n      0x20\n      add\n      swap1\n      dup2\n      mstore\n      0x20\n      add\n      0x00\n      keccak256\n        /* \"contracts/AccessControlContract.sol\":676:712  stakeholders[msg.sender].isValidator */\n      0x01\n      add\n      0x00\n        /* \"contracts/AccessControlContract.sol\":676:719  stakeholders[msg.sender].isValidator = true */\n      0x0100\n      exp\n      dup2\n      sload\n      dup2\n      0xff\n      mul\n      not\n      and\n      swap1\n      dup4\n      iszero\n      iszero\n      mul\n      or\n      swap1\n      sstore\n      pop\n        /* \"contracts/AccessControlContract.sol\":745:755  msg.sender */\n      caller\n        /* \"contracts/AccessControlContract.sol\":734:767  StakeAdded(msg.sender, msg.value) */\n      0xffffffffffffffffffffffffffffffffffffffff\n      and\n      0x7c717985ac273e663b7f3050f5b15a4388ff6ed952338954f650e2093e13937f\n        /* \"contracts/AccessControlContract.sol\":757:766  msg.value */\n      callvalue\n        /* \"contracts/AccessControlContract.sol\":734:767  StakeAdded(msg.sender, msg.value) */\n      mload(0x40)\n      tag_39\n      swap2\n      swap1\n      tag_21\n      jump\t// in\n    tag_39:\n      mload(0x40)\n      dup1\n      swap2\n      sub\n      swap1\n      log2\n        /* \"contracts/AccessControlContract.sol\":501:774  function stakeTokens() public payable {... */\n      jump\t// out\n        /* \"#utility.yul\":88:205   */\n    tag_41:\n        /* \"#utility.yul\":197:198   */\n      0x00\n        /* \"#utility.yul\":194:195   */\n      dup1\n        /* \"#utility.yul\":187:199   */\n      revert\n        /* \"#utility.yul\":334:460   */\n    tag_43:\n        /* \"#utility.yul\":371:378   */\n      0x00\n        /* \"#utility.yul\":411:453   */\n      0xffffffffffffffffffffffffffffffffffffffff\n        /* \"#utility.yul\":404:409   */\n      dup3\n        /* \"#utility.yul\":400:454   */\n      and\n        /* \"#utility.yul\":389:454   */\n      swap1\n      pop\n        /* \"#utility.yul\":334:460   */\n      swap2\n      swap1\n      pop\n      jump\t// out\n        /* \"#utility.yul\":466:562   */\n    tag_44:\n        /* \"#utility.yul\":503:510   */\n      0x00\n        /* \"#utility.yul\":532:556   */\n      tag_64\n        /* \"#utility.yul\":550:555   */\n      dup3\n        /* \"#utility.yul\":532:556   */\n      tag_43\n      jump\t// in\n    tag_64:\n        /* \"#utility.yul\":521:556   */\n      swap1\n      pop\n        /* \"#utility.yul\":466:562   */\n      swap2\n      swap1\n      pop\n      jump\t// out\n        /* \"#utility.yul\":568:690   */\n    tag_45:\n        /* \"#utility.yul\":641:665   */\n      tag_66\n        /* \"#utility.yul\":659:664   */\n      dup2\n        /* \"#utility.yul\":641:665   */\n      tag_44\n      jump\t// in\n    tag_66:\n        /* \"#utility.yul\":634:639   */\n      dup2\n        /* \"#utility.yul\":631:666   */\n      eq\n        /* \"#utility.yul\":621:684   */\n      tag_67\n      jumpi\n        /* \"#utility.yul\":680:681   */\n      0x00\n        /* \"#utility.yul\":677:678   */\n      dup1\n        /* \"#utility.yul\":670:682   */\n      revert\n        /* \"#utility.yul\":621:684   */\n    tag_67:\n        /* \"#utility.yul\":568:690   */\n      pop\n      jump\t// out\n        /* \"#utility.yul\":696:835   */\n    tag_46:\n        /* \"#utility.yul\":742:747   */\n      0x00\n        /* \"#utility.yul\":780:786   */\n      dup2\n        /* \"#utility.yul\":767:787   */\n      calldataload\n        /* \"#utility.yul\":758:787   */\n      swap1\n      pop\n        /* \"#utility.yul\":796:829   */\n      tag_69\n        /* \"#utility.yul\":823:828   */\n      dup2\n        /* \"#utility.yul\":796:829   */\n      tag_45\n      jump\t// in\n    tag_69:\n        /* \"#utility.yul\":696:835   */\n      swap3\n      swap2\n      pop\n      pop\n      jump\t// out\n        /* \"#utility.yul\":841:1170   */\n    tag_9:\n        /* \"#utility.yul\":900:906   */\n      0x00\n        /* \"#utility.yul\":949:951   */\n      0x20\n        /* \"#utility.yul\":937:946   */\n      dup3\n        /* \"#utility.yul\":928:935   */\n      dup5\n        /* \"#utility.yul\":924:947   */\n      sub\n        /* \"#utility.yul\":920:952   */\n      slt\n        /* \"#utility.yul\":917:1036   */\n      iszero\n      tag_71\n      jumpi\n        /* \"#utility.yul\":955:1034   */\n      tag_72\n      tag_41\n      jump\t// in\n    tag_72:\n        /* \"#utility.yul\":917:1036   */\n    tag_71:\n        /* \"#utility.yul\":1075:1076   */\n      0x00\n        /* \"#utility.yul\":1100:1153   */\n      tag_73\n        /* \"#utility.yul\":1145:1152   */\n      dup5\n        /* \"#utility.yul\":1136:1142   */\n      dup3\n        /* \"#utility.yul\":1125:1134   */\n      dup6\n        /* \"#utility.yul\":1121:1143   */\n      add\n        /* \"#utility.yul\":1100:1153   */\n      tag_46\n      jump\t// in\n    tag_73:\n        /* \"#utility.yul\":1090:1153   */\n      swap2\n      pop\n        /* \"#utility.yul\":1046:1163   */\n      pop\n        /* \"#utility.yul\":841:1170   */\n      swap3\n      swap2\n      pop\n      pop\n      jump\t// out\n        /* \"#utility.yul\":1176:1253   */\n    tag_47:\n        /* \"#utility.yul\":1213:1220   */\n      0x00\n        /* \"#utility.yul\":1242:1247   */\n      dup2\n        /* \"#utility.yul\":1231:1247   */\n      swap1\n      pop\n        /* \"#utility.yul\":1176:1253   */\n      swap2\n      swap1\n      pop\n      jump\t// out\n        /* \"#utility.yul\":1259:1377   */\n    tag_48:\n        /* \"#utility.yul\":1346:1370   */\n      tag_76\n        /* \"#utility.yul\":1364:1369   */\n      dup2\n        /* \"#utility.yul\":1346:1370   */\n      tag_47\n      jump\t// in\n    tag_76:\n        /* \"#utility.yul\":1341:1344   */\n      dup3\n        /* \"#utility.yul\":1334:1371   */\n      mstore\n        /* \"#utility.yul\":1259:1377   */\n      pop\n      pop\n      jump\t// out\n        /* \"#utility.yul\":1383:1473   */\n    tag_49:\n        /* \"#utility.yul\":1417:1424   */\n      0x00\n        /* \"#utility.yul\":1460:1465   */\n      dup2\n        /* \"#utility.yul\":1453:1466   */\n      iszero\n        /* \"#utility.yul\":1446:1467   */\n      iszero\n        /* \"#utility.yul\":1435:1467   */\n      swap1\n      pop\n        /* \"#utility.yul\":1383:1473   */\n      swap2\n      swap1\n      pop\n      jump\t// out\n        /* \"#utility.yul\":1479:1588   */\n    tag_50:\n        /* \"#utility.yul\":1560:1581   */\n      tag_79\n        /* \"#utility.yul\":1575:1580   */\n      dup2\n        /* \"#utility.yul\":1560:1581   */\n      tag_49\n      jump\t// in\n    tag_79:\n        /* \"#utility.yul\":1555:1558   */\n      dup3\n        /* \"#utility.yul\":1548:1582   */\n      mstore\n        /* \"#utility.yul\":1479:1588   */\n      pop\n      pop\n      jump\t// out\n        /* \"#utility.yul\":1594:1914   */\n    tag_16:\n        /* \"#utility.yul\":1709:1713   */\n      0x00\n        /* \"#utility.yul\":1747:1749   */\n      0x40\n        /* \"#utility.yul\":1736:1745   */\n      dup3\n        /* \"#utility.yul\":1732:1750   */\n      add\n        /* \"#utility.yul\":1724:1750   */\n      swap1\n      pop\n        /* \"#utility.yul\":1760:1831   */\n      tag_81\n        /* \"#utility.yul\":1828:1829   */\n      0x00\n        /* \"#utility.yul\":1817:1826   */\n      dup4\n        /* \"#utility.yul\":1813:1830   */\n      add\n        /* \"#utility.yul\":1804:1810   */\n      dup6\n        /* \"#utility.yul\":1760:1831   */\n      tag_48\n      jump\t// in\n    tag_81:\n        /* \"#utility.yul\":1841:1907   */\n      tag_82\n        /* \"#utility.yul\":1903:1905   */\n      0x20\n        /* \"#utility.yul\":1892:1901   */\n      dup4\n        /* \"#utility.yul\":1888:1906   */\n      add\n        /* \"#utility.yul\":1879:1885   */\n      dup5\n        /* \"#utility.yul\":1841:1907   */\n      tag_50\n      jump\t// in\n    tag_82:\n        /* \"#utility.yul\":1594:1914   */\n      swap4\n      swap3\n      pop\n      pop\n      pop\n      jump\t// out\n        /* \"#utility.yul\":1920:2142   */\n    tag_21:\n        /* \"#utility.yul\":2013:2017   */\n      0x00\n        /* \"#utility.yul\":2051:2053   */\n      0x20\n        /* \"#utility.yul\":2040:2049   */\n      dup3\n        /* \"#utility.yul\":2036:2054   */\n      add\n        /* \"#utility.yul\":2028:2054   */\n      swap1\n      pop\n        /* \"#utility.yul\":2064:2135   */\n      tag_84\n        /* \"#utility.yul\":2132:2133   */\n      0x00\n        /* \"#utility.yul\":2121:2130   */\n      dup4\n        /* \"#utility.yul\":2117:2134   */\n      add\n        /* \"#utility.yul\":2108:2114   */\n      dup5\n        /* \"#utility.yul\":2064:2135   */\n      tag_48\n      jump\t// in\n    tag_84:\n        /* \"#utility.yul\":1920:2142   */\n      swap3\n      swap2\n      pop\n      pop\n      jump\t// out\n        /* \"#utility.yul\":2148:2317   */\n    tag_51:\n        /* \"#utility.yul\":2232:2243   */\n      0x00\n        /* \"#utility.yul\":2266:2272   */\n      dup3\n        /* \"#utility.yul\":2261:2264   */\n      dup3\n        /* \"#utility.yul\":2254:2273   */\n      mstore\n        /* \"#utility.yul\":2306:2310   */\n      0x20\n        /* \"#utility.yul\":2301:2304   */\n      dup3\n        /* \"#utility.yul\":2297:2311   */\n      add\n        /* \"#utility.yul\":2282:2311   */\n      swap1\n      pop\n        /* \"#utility.yul\":2148:2317   */\n      swap3\n      swap2\n      pop\n      pop\n      jump\t// out\n        /* \"#utility.yul\":2323:2488   */\n    tag_52:\n        /* \"#utility.yul\":2463:2480   */\n      0x4e6f7420612076616c696461746f720000000000000000000000000000000000\n        /* \"#utility.yul\":2459:2460   */\n      0x00\n        /* \"#utility.yul\":2451:2457   */\n      dup3\n        /* \"#utility.yul\":2447:2461   */\n      add\n        /* \"#utility.yul\":2440:2481   */\n      mstore\n        /* \"#utility.yul\":2323:2488   */\n      pop\n      jump\t// out\n        /* \"#utility.yul\":2494:2860   */\n    tag_53:\n        /* \"#utility.yul\":2636:2639   */\n      0x00\n        /* \"#utility.yul\":2657:2724   */\n      tag_88\n        /* \"#utility.yul\":2721:2723   */\n      0x0f\n        /* \"#utility.yul\":2716:2719   */\n      dup4\n        /* \"#utility.yul\":2657:2724   */\n      tag_51\n      jump\t// in\n    tag_88:\n        /* \"#utility.yul\":2650:2724   */\n      swap2\n      pop\n        /* \"#utility.yul\":2733:2826   */\n      tag_89\n        /* \"#utility.yul\":2822:2825   */\n      dup3\n        /* \"#utility.yul\":2733:2826   */\n      tag_52\n      jump\t// in\n    tag_89:\n        /* \"#utility.yul\":2851:2853   */\n      0x20\n        /* \"#utility.yul\":2846:2849   */\n      dup3\n        /* \"#utility.yul\":2842:2854   */\n      add\n        /* \"#utility.yul\":2835:2854   */\n      swap1\n      pop\n        /* \"#utility.yul\":2494:2860   */\n      swap2\n      swap1\n      pop\n      jump\t// out\n        /* \"#utility.yul\":2866:3285   */\n    tag_27:\n        /* \"#utility.yul\":3032:3036   */\n      0x00\n        /* \"#utility.yul\":3070:3072   */\n      0x20\n        /* \"#utility.yul\":3059:3068   */\n      dup3\n        /* \"#utility.yul\":3055:3073   */\n      add\n        /* \"#utility.yul\":3047:3073   */\n      swap1\n      pop\n        /* \"#utility.yul\":3119:3128   */\n      dup2\n        /* \"#utility.yul\":3113:3117   */\n      dup2\n        /* \"#utility.yul\":3109:3129   */\n      sub\n        /* \"#utility.yul\":3105:3106   */\n      0x00\n        /* \"#utility.yul\":3094:3103   */\n      dup4\n        /* \"#utility.yul\":3090:3107   */\n      add\n        /* \"#utility.yul\":3083:3130   */\n      mstore\n        /* \"#utility.yul\":3147:3278   */\n      tag_91\n        /* \"#utility.yul\":3273:3277   */\n      dup2\n        /* \"#utility.yul\":3147:3278   */\n      tag_53\n      jump\t// in\n    tag_91:\n        /* \"#utility.yul\":3139:3278   */\n      swap1\n      pop\n        /* \"#utility.yul\":2866:3285   */\n      swap2\n      swap1\n      pop\n      jump\t// out\n        /* \"#utility.yul\":3291:3471   */\n    tag_54:\n        /* \"#utility.yul\":3339:3416   */\n      0x4e487b7100000000000000000000000000000000000000000000000000000000\n        /* \"#utility.yul\":3336:3337   */\n      0x00\n        /* \"#utility.yul\":3329:3417   */\n      mstore\n        /* \"#utility.yul\":3436:3440   */\n      0x12\n        /* \"#utility.yul\":3433:3434   */\n      0x04\n        /* \"#utility.yul\":3426:3441   */\n      mstore\n        /* \"#utility.yul\":3460:3464   */\n      0x24\n        /* \"#utility.yul\":3457:3458   */\n      0x00\n        /* \"#utility.yul\":3450:3465   */\n      revert\n        /* \"#utility.yul\":3477:3657   */\n    tag_55:\n        /* \"#utility.yul\":3525:3602   */\n      0x4e487b7100000000000000000000000000000000000000000000000000000000\n        /* \"#utility.yul\":3522:3523   */\n      0x00\n        /* \"#utility.yul\":3515:3603   */\n      mstore\n        /* \"#utility.yul\":3622:3626   */\n      0x11\n        /* \"#utility.yul\":3619:3620   */\n      0x04\n        /* \"#utility.yul\":3612:3627   */\n      mstore\n        /* \"#utility.yul\":3646:3650   */\n      0x24\n        /* \"#utility.yul\":3643:3644   */\n      0x00\n        /* \"#utility.yul\":3636:3651   */\n      revert\n        /* \"#utility.yul\":3663:3848   */\n    tag_29:\n        /* \"#utility.yul\":3703:3704   */\n      0x00\n        /* \"#utility.yul\":3720:3740   */\n      tag_95\n        /* \"#utility.yul\":3738:3739   */\n      dup3\n        /* \"#utility.yul\":3720:3740   */\n      tag_47\n      jump\t// in\n    tag_95:\n        /* \"#utility.yul\":3715:3740   */\n      swap2\n      pop\n        /* \"#utility.yul\":3754:3774   */\n      tag_96\n        /* \"#utility.yul\":3772:3773   */\n      dup4\n        /* \"#utility.yul\":3754:3774   */\n      tag_47\n      jump\t// in\n    tag_96:\n        /* \"#utility.yul\":3749:3774   */\n      swap3\n      pop\n        /* \"#utility.yul\":3793:3794   */\n      dup3\n        /* \"#utility.yul\":3783:3818   */\n      tag_97\n      jumpi\n        /* \"#utility.yul\":3798:3816   */\n      tag_98\n      tag_54\n      jump\t// in\n    tag_98:\n        /* \"#utility.yul\":3783:3818   */\n    tag_97:\n        /* \"#utility.yul\":3840:3841   */\n      dup3\n        /* \"#utility.yul\":3837:3838   */\n      dup3\n        /* \"#utility.yul\":3833:3842   */\n      div\n        /* \"#utility.yul\":3828:3842   */\n      swap1\n      pop\n        /* \"#utility.yul\":3663:3848   */\n      swap3\n      swap2\n      pop\n      pop\n      jump\t// out\n        /* \"#utility.yul\":3854:4026   */\n    tag_56:\n        /* \"#utility.yul\":3994:4018   */\n      0x4d696e696d756d207374616b6520726571756972656400000000000000000000\n        /* \"#utility.yul\":3990:3991   */\n      0x00\n        /* \"#utility.yul\":3982:3988   */\n      dup3\n        /* \"#utility.yul\":3978:3992   */\n      add\n        /* \"#utility.yul\":3971:4019   */\n      mstore\n        /* \"#utility.yul\":3854:4026   */\n      pop\n      jump\t// out\n        /* \"#utility.yul\":4032:4398   */\n    tag_57:\n        /* \"#utility.yul\":4174:4177   */\n      0x00\n        /* \"#utility.yul\":4195:4262   */\n      tag_101\n        /* \"#utility.yul\":4259:4261   */\n      0x16\n        /* \"#utility.yul\":4254:4257   */\n      dup4\n        /* \"#utility.yul\":4195:4262   */\n      tag_51\n      jump\t// in\n    tag_101:\n        /* \"#utility.yul\":4188:4262   */\n      swap2\n      pop\n        /* \"#utility.yul\":4271:4364   */\n      tag_102\n        /* \"#utility.yul\":4360:4363   */\n      dup3\n        /* \"#utility.yul\":4271:4364   */\n      tag_56\n      jump\t// in\n    tag_102:\n        /* \"#utility.yul\":4389:4391   */\n      0x20\n        /* \"#utility.yul\":4384:4387   */\n      dup3\n        /* \"#utility.yul\":4380:4392   */\n      add\n        /* \"#utility.yul\":4373:4392   */\n      swap1\n      pop\n        /* \"#utility.yul\":4032:4398   */\n      swap2\n      swap1\n      pop\n      jump\t// out\n        /* \"#utility.yul\":4404:4823   */\n    tag_36:\n        /* \"#utility.yul\":4570:4574   */\n      0x00\n        /* \"#utility.yul\":4608:4610   */\n      0x20\n        /* \"#utility.yul\":4597:4606   */\n      dup3\n        /* \"#utility.yul\":4593:4611   */\n      add\n        /* \"#utility.yul\":4585:4611   */\n      swap1\n      pop\n        /* \"#utility.yul\":4657:4666   */\n      dup2\n        /* \"#utility.yul\":4651:4655   */\n      dup2\n        /* \"#utility.yul\":4647:4667   */\n      sub\n        /* \"#utility.yul\":4643:4644   */\n      0x00\n        /* \"#utility.yul\":4632:4641   */\n      dup4\n        /* \"#utility.yul\":4628:4645   */\n      add\n        /* \"#utility.yul\":4621:4668   */\n      mstore\n        /* \"#utility.yul\":4685:4816   */\n      tag_104\n        /* \"#utility.yul\":4811:4815   */\n      dup2\n        /* \"#utility.yul\":4685:4816   */\n      tag_57\n      jump\t// in\n    tag_104:\n        /* \"#utility.yul\":4677:4816   */\n      swap1\n      pop\n        /* \"#utility.yul\":4404:4823   */\n      swap2\n      swap1\n      pop\n      jump\t// out\n        /* \"#utility.yul\":4829:5020   */\n    tag_38:\n        /* \"#utility.yul\":4869:4872   */\n      0x00\n        /* \"#utility.yul\":4888:4908   */\n      tag_106\n        /* \"#utility.yul\":4906:4907   */\n      dup3\n        /* \"#utility.yul\":4888:4908   */\n      tag_47\n      jump\t// in\n    tag_106:\n        /* \"#utility.yul\":4883:4908   */\n      swap2\n      pop\n        /* \"#utility.yul\":4922:4942   */\n      tag_107\n        /* \"#utility.yul\":4940:4941   */\n      dup4\n        /* \"#utility.yul\":4922:4942   */\n      tag_47\n      jump\t// in\n    tag_107:\n        /* \"#utility.yul\":4917:4942   */\n      swap3\n      pop\n        /* \"#utility.yul\":4965:4966   */\n      dup3\n        /* \"#utility.yul\":4962:4963   */\n      dup3\n        /* \"#utility.yul\":4958:4967   */\n      add\n        /* \"#utility.yul\":4951:4967   */\n      swap1\n      pop\n        /* \"#utility.yul\":4986:4989   */\n      dup1\n        /* \"#utility.yul\":4983:4984   */\n      dup3\n        /* \"#utility.yul\":4980:4990   */\n      gt\n        /* \"#utility.yul\":4977:5013   */\n      iszero\n      tag_108\n      jumpi\n        /* \"#utility.yul\":4993:5011   */\n      tag_109\n      tag_55\n      jump\t// in\n    tag_109:\n        /* \"#utility.yul\":4977:5013   */\n    tag_108:\n        /* \"#utility.yul\":4829:5020   */\n      swap3\n      swap2\n      pop\n      pop\n      jump\t// out\n\n    auxdata: 0xa26469706673582212209844cfe0a2d134223e85033526e5215f040575ccf58f2e74476e83d7ad3becf464736f6c634300081a0033\n}\n",
				"bytecode": {
					"linkReferences": {},
					"object": "6080604052348015600f57600080fd5b506106bf8061001f6000396000f3fe60806040526004361061003f5760003560e01c80634754857c14610044578063c07cfca91461006d578063cb1c2b5c146100ab578063ce46643b146100d6575b600080fd5b34801561005057600080fd5b5061006b60048036038101906100669190610438565b6100e0565b005b34801561007957600080fd5b50610094600480360381019061008f9190610438565b610259565b6040516100a2929190610499565b60405180910390f35b3480156100b757600080fd5b506100c061028a565b6040516100cd91906104c2565b60405180910390f35b6100de61028f565b005b6000808273ffffffffffffffffffffffffffffffffffffffff1673ffffffffffffffffffffffffffffffffffffffff16815260200190815260200160002060010160009054906101000a900460ff1661016e576040517f08c379a00000000000000000000000000000000000000000000000000000000081526004016101659061053a565b60405180910390fd5b6000600a6000808473ffffffffffffffffffffffffffffffffffffffff1673ffffffffffffffffffffffffffffffffffffffff168152602001908152602001600020600001546101be91906105b8565b90508173ffffffffffffffffffffffffffffffffffffffff166108fc829081150290604051600060405180830381858888f19350505050158015610206573d6000803e3d6000fd5b508173ffffffffffffffffffffffffffffffffffffffff167f1528d9db0de2f1e36a948c9c75c8902c454f2942db77ccc010091d70ef6735a18260405161024d91906104c2565b60405180910390a25050565b60006020528060005260406000206000915090508060000154908060010160009054906101000a900460ff16905082565b606481565b60643410156102d3576040517f08c379a00000000000000000000000000000000000000000000000000000000081526004016102ca90610635565b60405180910390fd5b346000803373ffffffffffffffffffffffffffffffffffffffff1673ffffffffffffffffffffffffffffffffffffffff16815260200190815260200160002060000160008282546103249190610655565b9250508190555060016000803373ffffffffffffffffffffffffffffffffffffffff1673ffffffffffffffffffffffffffffffffffffffff16815260200190815260200160002060010160006101000a81548160ff0219169083151502179055503373ffffffffffffffffffffffffffffffffffffffff167f7c717985ac273e663b7f3050f5b15a4388ff6ed952338954f650e2093e13937f346040516103cb91906104c2565b60405180910390a2565b600080fd5b600073ffffffffffffffffffffffffffffffffffffffff82169050919050565b6000610405826103da565b9050919050565b610415816103fa565b811461042057600080fd5b50565b6000813590506104328161040c565b92915050565b60006020828403121561044e5761044d6103d5565b5b600061045c84828501610423565b91505092915050565b6000819050919050565b61047881610465565b82525050565b60008115159050919050565b6104938161047e565b82525050565b60006040820190506104ae600083018561046f565b6104bb602083018461048a565b9392505050565b60006020820190506104d7600083018461046f565b92915050565b600082825260208201905092915050565b7f4e6f7420612076616c696461746f720000000000000000000000000000000000600082015250565b6000610524600f836104dd565b915061052f826104ee565b602082019050919050565b6000602082019050818103600083015261055381610517565b9050919050565b7f4e487b7100000000000000000000000000000000000000000000000000000000600052601260045260246000fd5b7f4e487b7100000000000000000000000000000000000000000000000000000000600052601160045260246000fd5b60006105c382610465565b91506105ce83610465565b9250826105de576105dd61055a565b5b828204905092915050565b7f4d696e696d756d207374616b6520726571756972656400000000000000000000600082015250565b600061061f6016836104dd565b915061062a826105e9565b602082019050919050565b6000602082019050818103600083015261064e81610612565b9050919050565b600061066082610465565b915061066b83610465565b925082820190508082111561068357610682610589565b5b9291505056fea26469706673582212209844cfe0a2d134223e85033526e5215f040575ccf58f2e74476e83d7ad3becf464736f6c634300081a0033",
					"opcodes": "PUSH1 0x80 PUSH1 0x40 MSTORE CALLVALUE DUP1 ISZERO PUSH1 0xF JUMPI PUSH1 0x0 DUP1 REVERT JUMPDEST POP PUSH2 0x6BF DUP1 PUSH2 0x1F PUSH1 0x0 CODECOPY PUSH1 0x0 RETURN INVALID PUSH1 0x80 PUSH1 0x40 MSTORE PUSH1 0x4 CALLDATASIZE LT PUSH2 0x3F JUMPI PUSH1 0x0 CALLDATALOAD PUSH1 0xE0 SHR DUP1 PUSH4 0x4754857C EQ PUSH2 0x44 JUMPI DUP1 PUSH4 0xC07CFCA9 EQ PUSH2 0x6D JUMPI DUP1 PUSH4 0xCB1C2B5C EQ PUSH2 0xAB JUMPI DUP1 PUSH4 0xCE46643B EQ PUSH2 0xD6 JUMPI JUMPDEST PUSH1 0x0 DUP1 REVERT JUMPDEST CALLVALUE DUP1 ISZERO PUSH2 0x50 JUMPI PUSH1 0x0 DUP1 REVERT JUMPDEST POP PUSH2 0x6B PUSH1 0x4 DUP1 CALLDATASIZE SUB DUP2 ADD SWAP1 PUSH2 0x66 SWAP2 SWAP1 PUSH2 0x438 JUMP JUMPDEST PUSH2 0xE0 JUMP JUMPDEST STOP JUMPDEST CALLVALUE DUP1 ISZERO PUSH2 0x79 JUMPI PUSH1 0x0 DUP1 REVERT JUMPDEST POP PUSH2 0x94 PUSH1 0x4 DUP1 CALLDATASIZE SUB DUP2 ADD SWAP1 PUSH2 0x8F SWAP2 SWAP1 PUSH2 0x438 JUMP JUMPDEST PUSH2 0x259 JUMP JUMPDEST PUSH1 0x40 MLOAD PUSH2 0xA2 SWAP3 SWAP2 SWAP1 PUSH2 0x499 JUMP JUMPDEST PUSH1 0x40 MLOAD DUP1 SWAP2 SUB SWAP1 RETURN JUMPDEST CALLVALUE DUP1 ISZERO PUSH2 0xB7 JUMPI PUSH1 0x0 DUP1 REVERT JUMPDEST POP PUSH2 0xC0 PUSH2 0x28A JUMP JUMPDEST PUSH1 0x40 MLOAD PUSH2 0xCD SWAP2 SWAP1 PUSH2 0x4C2 JUMP JUMPDEST PUSH1 0x40 MLOAD DUP1 SWAP2 SUB SWAP1 RETURN JUMPDEST PUSH2 0xDE PUSH2 0x28F JUMP JUMPDEST STOP JUMPDEST PUSH1 0x0 DUP1 DUP3 PUSH20 0xFFFFFFFFFFFFFFFFFFFFFFFFFFFFFFFFFFFFFFFF AND PUSH20 0xFFFFFFFFFFFFFFFFFFFFFFFFFFFFFFFFFFFFFFFF AND DUP2 MSTORE PUSH1 0x20 ADD SWAP1 DUP2 MSTORE PUSH1 0x20 ADD PUSH1 0x0 KECCAK256 PUSH1 0x1 ADD PUSH1 0x0 SWAP1 SLOAD SWAP1 PUSH2 0x100 EXP SWAP1 DIV PUSH1 0xFF AND PUSH2 0x16E JUMPI PUSH1 0x40 MLOAD PUSH32 0x8C379A000000000000000000000000000000000000000000000000000000000 DUP2 MSTORE PUSH1 0x4 ADD PUSH2 0x165 SWAP1 PUSH2 0x53A JUMP JUMPDEST PUSH1 0x40 MLOAD DUP1 SWAP2 SUB SWAP1 REVERT JUMPDEST PUSH1 0x0 PUSH1 0xA PUSH1 0x0 DUP1 DUP5 PUSH20 0xFFFFFFFFFFFFFFFFFFFFFFFFFFFFFFFFFFFFFFFF AND PUSH20 0xFFFFFFFFFFFFFFFFFFFFFFFFFFFFFFFFFFFFFFFF AND DUP2 MSTORE PUSH1 0x20 ADD SWAP1 DUP2 MSTORE PUSH1 0x20 ADD PUSH1 0x0 KECCAK256 PUSH1 0x0 ADD SLOAD PUSH2 0x1BE SWAP2 SWAP1 PUSH2 0x5B8 JUMP JUMPDEST SWAP1 POP DUP2 PUSH20 0xFFFFFFFFFFFFFFFFFFFFFFFFFFFFFFFFFFFFFFFF AND PUSH2 0x8FC DUP3 SWAP1 DUP2 ISZERO MUL SWAP1 PUSH1 0x40 MLOAD PUSH1 0x0 PUSH1 0x40 MLOAD DUP1 DUP4 SUB DUP2 DUP6 DUP9 DUP9 CALL SWAP4 POP POP POP POP ISZERO DUP1 ISZERO PUSH2 0x206 JUMPI RETURNDATASIZE PUSH1 0x0 DUP1 RETURNDATACOPY RETURNDATASIZE PUSH1 0x0 REVERT JUMPDEST POP DUP2 PUSH20 0xFFFFFFFFFFFFFFFFFFFFFFFFFFFFFFFFFFFFFFFF AND PUSH32 0x1528D9DB0DE2F1E36A948C9C75C8902C454F2942DB77CCC010091D70EF6735A1 DUP3 PUSH1 0x40 MLOAD PUSH2 0x24D SWAP2 SWAP1 PUSH2 0x4C2 JUMP JUMPDEST PUSH1 0x40 MLOAD DUP1 SWAP2 SUB SWAP1 LOG2 POP POP JUMP JUMPDEST PUSH1 0x0 PUSH1 0x20 MSTORE DUP1 PUSH1 0x0 MSTORE PUSH1 0x40 PUSH1 0x0 KECCAK256 PUSH1 0x0 SWAP2 POP SWAP1 POP DUP1 PUSH1 0x0 ADD SLOAD SWAP1 DUP1 PUSH1 0x1 ADD PUSH1 0x0 SWAP1 SLOAD SWAP1 PUSH2 0x100 EXP SWAP1 DIV PUSH1 0xFF AND SWAP1 POP DUP3 JUMP JUMPDEST PUSH1 0x64 DUP2 JUMP JUMPDEST PUSH1 0x64 CALLVALUE LT ISZERO PUSH2 0x2D3 JUMPI PUSH1 0x40 MLOAD PUSH32 0x8C379A000000000000000000000000000000000000000000000000000000000 DUP2 MSTORE PUSH1 0x4 ADD PUSH2 0x2CA SWAP1 PUSH2 0x635 JUMP JUMPDEST PUSH1 0x40 MLOAD DUP1 SWAP2 SUB SWAP1 REVERT JUMPDEST CALLVALUE PUSH1 0x0 DUP1 CALLER PUSH20 0xFFFFFFFFFFFFFFFFFFFFFFFFFFFFFFFFFFFFFFFF AND PUSH20 0xFFFFFFFFFFFFFFFFFFFFFFFFFFFFFFFFFFFFFFFF AND DUP2 MSTORE PUSH1 0x20 ADD SWAP1 DUP2 MSTORE PUSH1 0x20 ADD PUSH1 0x0 KECCAK256 PUSH1 0x0 ADD PUSH1 0x0 DUP3 DUP3 SLOAD PUSH2 0x324 SWAP2 SWAP1 PUSH2 0x655 JUMP JUMPDEST SWAP3 POP POP DUP2 SWAP1 SSTORE POP PUSH1 0x1 PUSH1 0x0 DUP1 CALLER PUSH20 0xFFFFFFFFFFFFFFFFFFFFFFFFFFFFFFFFFFFFFFFF AND PUSH20 0xFFFFFFFFFFFFFFFFFFFFFFFFFFFFFFFFFFFFFFFF AND DUP2 MSTORE PUSH1 0x20 ADD SWAP1 DUP2 MSTORE PUSH1 0x20 ADD PUSH1 0x0 KECCAK256 PUSH1 0x1 ADD PUSH1 0x0 PUSH2 0x100 EXP DUP2 SLOAD DUP2 PUSH1 0xFF MUL NOT AND SWAP1 DUP4 ISZERO ISZERO MUL OR SWAP1 SSTORE POP CALLER PUSH20 0xFFFFFFFFFFFFFFFFFFFFFFFFFFFFFFFFFFFFFFFF AND PUSH32 0x7C717985AC273E663B7F3050F5B15A4388FF6ED952338954F650E2093E13937F CALLVALUE PUSH1 0x40 MLOAD PUSH2 0x3CB SWAP2 SWAP1 PUSH2 0x4C2 JUMP JUMPDEST PUSH1 0x40 MLOAD DUP1 SWAP2 SUB SWAP1 LOG2 JUMP JUMPDEST PUSH1 0x0 DUP1 REVERT JUMPDEST PUSH1 0x0 PUSH20 0xFFFFFFFFFFFFFFFFFFFFFFFFFFFFFFFFFFFFFFFF DUP3 AND SWAP1 POP SWAP2 SWAP1 POP JUMP JUMPDEST PUSH1 0x0 PUSH2 0x405 DUP3 PUSH2 0x3DA JUMP JUMPDEST SWAP1 POP SWAP2 SWAP1 POP JUMP JUMPDEST PUSH2 0x415 DUP2 PUSH2 0x3FA JUMP JUMPDEST DUP2 EQ PUSH2 0x420 JUMPI PUSH1 0x0 DUP1 REVERT JUMPDEST POP JUMP JUMPDEST PUSH1 0x0 DUP2 CALLDATALOAD SWAP1 POP PUSH2 0x432 DUP2 PUSH2 0x40C JUMP JUMPDEST SWAP3 SWAP2 POP POP JUMP JUMPDEST PUSH1 0x0 PUSH1 0x20 DUP3 DUP5 SUB SLT ISZERO PUSH2 0x44E JUMPI PUSH2 0x44D PUSH2 0x3D5 JUMP JUMPDEST JUMPDEST PUSH1 0x0 PUSH2 0x45C DUP5 DUP3 DUP6 ADD PUSH2 0x423 JUMP JUMPDEST SWAP2 POP POP SWAP3 SWAP2 POP POP JUMP JUMPDEST PUSH1 0x0 DUP2 SWAP1 POP SWAP2 SWAP1 POP JUMP JUMPDEST PUSH2 0x478 DUP2 PUSH2 0x465 JUMP JUMPDEST DUP3 MSTORE POP POP JUMP JUMPDEST PUSH1 0x0 DUP2 ISZERO ISZERO SWAP1 POP SWAP2 SWAP1 POP JUMP JUMPDEST PUSH2 0x493 DUP2 PUSH2 0x47E JUMP JUMPDEST DUP3 MSTORE POP POP JUMP JUMPDEST PUSH1 0x0 PUSH1 0x40 DUP3 ADD SWAP1 POP PUSH2 0x4AE PUSH1 0x0 DUP4 ADD DUP6 PUSH2 0x46F JUMP JUMPDEST PUSH2 0x4BB PUSH1 0x20 DUP4 ADD DUP5 PUSH2 0x48A JUMP JUMPDEST SWAP4 SWAP3 POP POP POP JUMP JUMPDEST PUSH1 0x0 PUSH1 0x20 DUP3 ADD SWAP1 POP PUSH2 0x4D7 PUSH1 0x0 DUP4 ADD DUP5 PUSH2 0x46F JUMP JUMPDEST SWAP3 SWAP2 POP POP JUMP JUMPDEST PUSH1 0x0 DUP3 DUP3 MSTORE PUSH1 0x20 DUP3 ADD SWAP1 POP SWAP3 SWAP2 POP POP JUMP JUMPDEST PUSH32 0x4E6F7420612076616C696461746F720000000000000000000000000000000000 PUSH1 0x0 DUP3 ADD MSTORE POP JUMP JUMPDEST PUSH1 0x0 PUSH2 0x524 PUSH1 0xF DUP4 PUSH2 0x4DD JUMP JUMPDEST SWAP2 POP PUSH2 0x52F DUP3 PUSH2 0x4EE JUMP JUMPDEST PUSH1 0x20 DUP3 ADD SWAP1 POP SWAP2 SWAP1 POP JUMP JUMPDEST PUSH1 0x0 PUSH1 0x20 DUP3 ADD SWAP1 POP DUP2 DUP2 SUB PUSH1 0x0 DUP4 ADD MSTORE PUSH2 0x553 DUP2 PUSH2 0x517 JUMP JUMPDEST SWAP1 POP SWAP2 SWAP1 POP JUMP JUMPDEST PUSH32 0x4E487B7100000000000000000000000000000000000000000000000000000000 PUSH1 0x0 MSTORE PUSH1 0x12 PUSH1 0x4 MSTORE PUSH1 0x24 PUSH1 0x0 REVERT JUMPDEST PUSH32 0x4E487B7100000000000000000000000000000000000000000000000000000000 PUSH1 0x0 MSTORE PUSH1 0x11 PUSH1 0x4 MSTORE PUSH1 0x24 PUSH1 0x0 REVERT JUMPDEST PUSH1 0x0 PUSH2 0x5C3 DUP3 PUSH2 0x465 JUMP JUMPDEST SWAP2 POP PUSH2 0x5CE DUP4 PUSH2 0x465 JUMP JUMPDEST SWAP3 POP DUP3 PUSH2 0x5DE JUMPI PUSH2 0x5DD PUSH2 0x55A JUMP JUMPDEST JUMPDEST DUP3 DUP3 DIV SWAP1 POP SWAP3 SWAP2 POP POP JUMP JUMPDEST PUSH32 0x4D696E696D756D207374616B6520726571756972656400000000000000000000 PUSH1 0x0 DUP3 ADD MSTORE POP JUMP JUMPDEST PUSH1 0x0 PUSH2 0x61F PUSH1 0x16 DUP4 PUSH2 0x4DD JUMP JUMPDEST SWAP2 POP PUSH2 0x62A DUP3 PUSH2 0x5E9 JUMP JUMPDEST PUSH1 0x20 DUP3 ADD SWAP1 POP SWAP2 SWAP1 POP JUMP JUMPDEST PUSH1 0x0 PUSH1 0x20 DUP3 ADD SWAP1 POP DUP2 DUP2 SUB PUSH1 0x0 DUP4 ADD MSTORE PUSH2 0x64E DUP2 PUSH2 0x612 JUMP JUMPDEST SWAP1 POP SWAP2 SWAP1 POP JUMP JUMPDEST PUSH1 0x0 PUSH2 0x660 DUP3 PUSH2 0x465 JUMP JUMPDEST SWAP2 POP PUSH2 0x66B DUP4 PUSH2 0x465 JUMP JUMPDEST SWAP3 POP DUP3 DUP3 ADD SWAP1 POP DUP1 DUP3 GT ISZERO PUSH2 0x683 JUMPI PUSH2 0x682 PUSH2 0x589 JUMP JUMPDEST JUMPDEST SWAP3 SWAP2 POP POP JUMP INVALID LOG2 PUSH5 0x6970667358 0x22 SLT KECCAK256 SWAP9 DIFFICULTY 0xCF 0xE0 LOG2 0xD1 CALLVALUE 0x22 RETURNDATACOPY DUP6 SUB CALLDATALOAD 0x26 0xE5 0x21 PUSH0 DIV SDIV PUSH22 0xCCF58F2E74476E83D7AD3BECF464736F6C634300081A STOP CALLER "
				},
				"gasEstimates": {
					"creation": {
						"codeDepositCost": "345400",
						"executionCost": "380",
						"totalCost": "345780"
					},
					"external": {
						"MIN_STAKE()": "351",
						"rewardValidator(address)": "infinite",
						"stakeTokens()": "infinite",
						"stakeholders(address)": "5082"
					}
				},
				"methodIdentifiers": {
					"MIN_STAKE()": "cb1c2b5c",
					"rewardValidator(address)": "4754857c",
					"stakeTokens()": "ce46643b",
					"stakeholders(address)": "c07cfca9"
				}
			},
			"storageLayout": {
				"storage": [
					{
						"astId": 11,
						"contract": "contracts/AccessControlContract.sol:AccessControlContract",
						"label": "stakeholders",
						"offset": 0,
						"slot": "0",
						"type": "t_mapping(t_address,t_struct(Stakeholder)6_storage)"
					}
				],
				"types": {
					"t_address": {
						"encoding": "inplace",
						"label": "address",
						"numberOfBytes": "20"
					},
					"t_bool": {
						"encoding": "inplace",
						"label": "bool",
						"numberOfBytes": "1"
					},
					"t_mapping(t_address,t_struct(Stakeholder)6_storage)": {
						"encoding": "mapping",
						"key": "t_address",
						"label": "mapping(address => struct AccessControlContract.Stakeholder)",
						"numberOfBytes": "32",
						"value": "t_struct(Stakeholder)6_storage"
					},
					"t_struct(Stakeholder)6_storage": {
						"encoding": "inplace",
						"label": "struct AccessControlContract.Stakeholder",
						"members": [
							{
								"astId": 3,
								"contract": "contracts/AccessControlContract.sol:AccessControlContract",
								"label": "stakedTokens",
								"offset": 0,
								"slot": "0",
								"type": "t_uint256"
							},
							{
								"astId": 5,
								"contract": "contracts/AccessControlContract.sol:AccessControlContract",
								"label": "isValidator",
								"offset": 0,
								"slot": "1",
								"type": "t_bool"
							}
						],
						"numberOfBytes": "64"
					},
					"t_uint256": {
						"encoding": "inplace",
						"label": "uint256",
						"numberOfBytes": "32"
					}
				}
			},
			"userdoc": {
				"kind": "user",
				"methods": {},
				"version": 1
			}
		}
	}
}